:020000040800F2
:10000000E8070020351F00083506000837060008FD
:100010003B0600083F0600084306000800000000F9
:10002000000000000000000000000000470600087B
:1000300049060008000000004B0600084D060008B5
:100040004F1F00084F1F00084F1F00084F1F0008D8
:100050004F1F00084F1F00084F1F00084F1F0008C8
:100060004F1F00084F1F00084F1F0008B113000862
:10007000ED0C0008BF0C00084F1F00084F1F0008C0
:100080004F1F00084F1F00084F1F00084F1F000898
:100090004F1F00084F1F00084F1F00084F1F000888
:1000A0004F1F00084F1F00084F1F00084F1F000878
:1000B0004F1F00088D0D0008EF1900084F1F0008A2
:1000C0004F1F00084F1F00084F1F00084F1F000858
:1000D0004F1F0008AB1E00084F1F00084F1F0008ED
:1000E0004F1F00084F1F00084F1F00084F1F000838
:1000F0004F1F00084F1F00084F1F00084F1F000828
:100100004F1F00084F1F0008591900084F1F000813
:100110004F1F00084F1F0008C11000084F1F0008A4
:100120004F1F00084F1F00084F1F00084F1F0008F7
:1001300000F002F800F03AF80AA090E8000C8244BF
:100140008344AAF10107DA4501D100F02FF8AFF29C
:10015000090EBAE80F0013F0010F18BFFB1A43F0A5
:1001600001031847AC640000CC640000103A24BFBF
:1001700078C878C1FAD8520724BF30C830C144BF0C
:1001800004680C607047000000230024002500264E
:10019000103A28BF78C1FBD8520728BF30C148BFEA
:1001A0000B6070471FB51FBD10B510BD04F0D2F82D
:1001B0001146FFF7F7FF00F009F804F0F0F803B478
:1001C000FFF7F2FF03BC01F015FE0000B0B001F034
:1001D000A7FD4FF4A06002F051FC01F095FBC82090
:1001E00001F0DBFD0020E4490860E4481A90082093
:1001F0001B90E3481C9004201E900120ADF8740071
:10020000E048159004201690DF48179008201990B8
:100210004020ADF8600047234FF6FE7215A91AA8DA
:1002200000F050FB02231E220021012000F010FBF1
:10023000022332220021012000F00AFBC82001F035
:10024000ACFDD248D0F8A001C043CB490860D048EB
:100250001F9040142090CF482190C020ADF8880016
:1002600010202390002240F60F611FA800F0ECFD43
:10027000C82001F092FDC548D0F8A001C043BE4996
:10028000086002208DF844000EA8129001208DF81D
:100290004C0040F2E730ADF84E004720ADF850007A
:1002A00001201299087002201299487007201299B3
:1002B0000871042012994880022012998871042143
:1002C0001298C17107211298817210211298018130
:1002D00011A800F015FFC82001F05FFDAB48D0F871
:1002E000A001C043A449086040F6FF70AA4BAB4A86
:1002F000AB49009029A800F0ADFB0020A74BA94A0C
:10030000A949009024A800F0A5FBC82001F045FDF4
:100310009E48D0F8A001C0439749086001231A46BF
:1003200041F61F4140F6C31000F0DCFB06A801F0C7
:1003300097FAC82001F031FD9448D0F8A001C043DD
:100340008D4908600120086000209849088098497C
:100350000860984908709849087098490870984949
:100360000870984908709849086098490860984949
:10037000087098490870984908809849088046F2A2
:10038000A810974908809749088001F01DF8F1E00E
:100390008B480078F0B19448408849F64041884243
:1003A00013DA91484088891088420EDD8E494888CA
:1003B00005F010F806468D4A8D4B05F05BF80446B3
:1003C00004F0C4FF401E8B49888500207C490870DA
:1003D0007E4908607748007828B900207A4908608B
:1003E00073490860C6E07348007801284ED175480B
:1003F00000780028CBD0804B2EAA14217F4801F032
:10040000B1F8BDF8B80004F0E5FF06467C4A7D4B24
:1004100005F030F8044604F053FD7B490860764847
:10042000008804F0D7FF06460022784B05F022F83A
:10043000044604F045FD7649086073480168744835
:10044000006805F01FFD0D9006A801F015FA5E4941
:1004500006980860BDF8B80004F0BCFF06466D4A77
:100460006D4B05F007F8044604F070FF5E49C88044
:100470006A496748006805F005FD044605F082FCFE
:100480005949088100204F49087073E049480078B5
:10049000022861D14B48007800286BD0564B2EAA19
:1004A0001421564801F05EF85D48008804F092FF80
:1004B00080465C4A5C4B04F0DDFF064604F046FFD4
:1004C00080B20090BDF8B820014629A800F0CDFA0E
:1004D000019004F068FF554A554BCDE9020104F044
:1004E000C9FF04460D463848006805F0D3FA824635
:1004F00022462B4604F016FDCDE9040104F0E0FC91
:10050000314908604FF07E512F48006805F086FDA4
:1005100004D24FF07E502C49086008E000212A48A0
:10052000006805F07BFC02D2002027490860BDF876
:10053000B80004F04FFF0646364A374B04F09AFFE6
:10054000044604F003FF2849C8800846C088088193
:1005500000201C4908700DE016480078032806D1D9
:100560001648007830B100201449087002E00020DD
:10057000104908700CE70000A0012142000C004067
:100580000008014000080040000C0140000021422A
:1005900000340140001001400AD7233DEC51B83D22
:1005A000EC51383ECDCCCC3D6666E63E10000020D6
:1005B000280000202C000020030000200200002062
:1005C0000400002005000020140000201800002076
:1005D00001000020000000200C0000200A00002084
:1005E0000800002006000020760000200AD7A37033
:1005F0003D0AC73F001000400E000020920000207E
:10060000ABB4CAEEF7FB893F1C0000200000663F38
:1006100020000020255D8EB2D94CF43F00004842F6
:100620002E000020B2EAC2FBE990E83F74479CA18B
:10063000FAFF2F3F704700BFFEE700BFFEE700BF95
:10064000FEE700BFFEE77047704770477047000045
:100650000CB50020019000906C48006840F4803098
:100660006A49086000BF6948006800F400300090E3
:100670000198401C0190009818B90198B0F5A06F3E
:10068000F1D16248006800F4003010B10120009000
:1006900001E0002000900098012843D15C480068E8
:1006A00040F010005A4908600846006820F0030036
:1006B00008600846006840F002000860534840683F
:1006C000524948600846406848600846406840F41F
:1006D000806048600846406820F47C104860084606
:1006E000406840F4E81048600846006840F08070B8
:1006F000086000BF4548006800F000700028F9D08D
:100700004248406820F0030040494860084640687D
:1007100040F00200486000BF3C48406800F00C0018
:100720000828F9D10CBD10B5FFF792FF10BD10B528
:100730003648006840F001003449086008464068C7
:100740003449084031494860084600683249084049
:100750002E4908600846006820F48020086008469A
:10076000406820F4FE0048604FF41F008860FFF7E7
:10077000DAFF4FF000602949086010BD10B5002174
:1007800000200022214B5B6803F00C0121B10429F9
:1007900006D0082928D107E0214B224C236027E00E
:1007A0001F4B204C236023E0184B5B6803F4701050
:1007B000164B5B6803F48032022303EB904022B9AE
:1007C000194B4343174C23600DE0104B5B6803F457
:1007D000003323B1144B4343124C236003E0104B0E
:1007E0004343104C236003E00D4B0E4C236000BFCD
:1007F00000BF064B5B68C3F303130C4CE15C094B71
:100800001B68CB40074C236010BD00000010024065
:10081000002002400000FFF8FFFFF6FE08ED00E0B8
:1008200000127A003000002000093D003400002052
:100830000146072323EA01021202824B18684FF691
:10084000FF031840804B184310437E4B18607047DD
:100850002DE9F0410746884614461D462846FFF715
:10086000E7FFC5F1040007FA00F60F20284100EA6F
:100870000800064306F00F06E21704EBD26252119D
:10088000920002F1E022D2F800212146E31704EBA6
:10089000D3635B11A4EB431C012303FA0CF31A434B
:1008A0002046E31704EBD3635B119B0003F1E023C5
:1008B000C3F800216548005D40EA06106349085509
:1008C000BDE8F0812DE9FC4104460D4617461E4661
:1008D0000121206901F06AFE0121286901F066FE0C
:1008E000A089ADF8040028208DF8070003208DF8BA
:1008F0000600A889ADF8000028208DF80300032029
:100900008DF8020001A9A06801F094FB6946A8686F
:1009100001F090FB0121606801F055FE012168683B
:1009200001F051FE20688785206806852868878544
:10093000286806852068008B40F001002168088344
:100940002068008B40F40070216808832068008CC8
:10095000216808842068008C40F020002168088409
:100960002068008940F050002168088120680089D3
:1009700040F00400216808812068008C40F00100EC
:10098000216808842068008C40F0100021680884E9
:100990002868008B40F00100296808832868008BD4
:1009A00040F40070296808832868008C296808844E
:1009B0002868008C40F02000296808842868008995
:1009C00040F05000296808812868008940F0040040
:1009D000296808812868008C40F001002968088493
:1009E0002868008C40F010002968088420688089FD
:1009F00040F00200216888812868808940F0020068
:100A0000296888810121202001F0DDFD4FF6FF706B
:100A10000F490880081F068000200D49083908800A
:100A200021688884296888842068008840F0010053
:100A3000216808802868008840F001002968088043
:100A4000BDE8FC810CED00E00000FA0500E400E0E8
:100A50002C14004030B5039C00250582458241607E
:100A60008260C36025B2058030BD2DE9FE4F04468B
:100A70000D46164628B220802088801B07B2B4F9A4
:100A8000120005F09FF98346E16805F0FBF902903A
:100A9000B4F9100005F096F90090A16805F0F2F99C
:100AA0000190384605F08EF90090616805F0EAF98A
:100AB0008346019905F0E4FA8246029905F016F89A
:100AC000814605F043F90FFA80F8208A6082278278
:100AD0004046BDE8FE8F00210182418270470AB284
:100AE00002807047F0B593B006460F4614461D4687
:100AF0000121084601F04DFD0121080301F056FDDA
:100B00000121042001F052FDE020ADF8040018207E
:100B10008DF8070003208DF8060001A9A74801F011
:100B200089FAE021A54801F032FB0020ADF8380039
:100B3000012C02D14FF4827000E00020ADF83A00A1
:100B40004FF40060ADF83C000220ADF83E000120FB
:100B5000ADF840004002ADF842002820ADF8440056
:100B60000020ADF846000720ADF848000EA99448D3
:100B700002F018F8934803F0ABFA91480C30039058
:100B800091480490002005900720069000200790CF
:100B9000802008904000099080000A9000200B906F
:100BA0004FF440500C9000200D9003A9854803F0AD
:100BB00031FB8448143003F08BFA81480C300390E9
:100BC000824804901020059007200690002007908E
:100BD000802008904000099080000A9000200B902F
:100BE0004FF440500C9000200D9003A9754814302C
:100BF00003F010FB012202217248143003F041FB84
:100C0000012202216F4803F03CFB6D48808840F0D0
:100C100002006B4988800846808840F00100888087
:100C20000C208DF8080000208DF8090001208DF8B7
:100C30000A008DF80B0002A801F025FF0D208DF8A9
:100C4000080000208DF8090001208DF80A008DF8B9
:100C50000B0002A801F017FF5DB13946304600F0E5
:100C60005CFF00205A49088001215948243802F0CD
:100C700051FF0121524802F03AF80121514803F096
:100C8000F4FA00214F48143003F0EFFA13B0F0BD2E
:100C900070B50546002400BF05E035F814004B4947
:100CA00021F81400641C072CF7DB072045491C3988
:100CB000486301214348143003F0D7FA70BD10B5E2
:100CC0004FF4007003F00BFB78B10020414908702D
:100CD00007213E4800F0B2FD00213A48143003F0ED
:100CE000C4FA4FF4007003F00EFB10BD10B52020C5
:100CF00003F0F5FA002848D03348408840F60B311D
:100D0000884233D134480068C0433449C1F8A00157
:100D10002D4880880A2803DA00203149087022E033
:100D200029488088142807DA01202D4908702648B0
:100D3000C0882C49088016E0234880881E2807DADE
:100D40000220274908702048C088264908800AE008
:100D50001D488088282806DA0320214908701A488F
:100D6000C0882049088001201F49087000211548CB
:100D700003F07BFA072013491C390862012111484E
:100D800003F073FA202003F0BEFA10BD10B5012164
:100D90000F48243803F087F970B140F60A20134950
:100DA000088001200B4908701048FFF771FF0121EE
:100DB0000748243803F088F910BD000000080140FE
:100DC000003001401C000240840000206800002028
:100DD0002404004003000020A00121420000214221
:100DE0002C0000202E0000200200002076000020B1
:100DF0007FB505460C460121102001F0E4FBADF85B
:100E00000850ADF804400020ADF80A00ADF8060027
:100E100001A9B44802F022FB0121B24802F07AFF96
:100E200001221146AF4802F090FE36208DF80000F6
:100E300003208DF801008DF8020001208DF80300D9
:100E4000684601F020FE7FBD70B58CB004460D46AB
:100E500016460121606801F0A9FB0121206901F01B
:100E6000A5FB0121084601F0A1FBA089ADF82C00EB
:100E700018208DF82F0003208DF82E000BA9A068F4
:100E800001F0D8F8ADF82450ADF820600020ADF89E
:100E90002600ADF8220008A9206802F0DFFA6020E1
:100EA000ADF810000120ADF812000420ADF81400D8
:100EB0000020ADF81600ADF81800ADF81A00ADF836
:100EC0001C00ADF81E004FF40060ADF800004010AB
:100ED000ADF802000020ADF804001420ADF80600C3
:100EE0000020ADF80800ADF80A00ADF80C00694626
:100EF000206802F0CFFD04A9206802F0ECFA04A9F2
:100F0000206802F02AFB0121206802F00FFE082170
:100F1000206802F02FFF0821206802F034FF012131
:100F2000206802F0F7FE002140F60F60FFF760FF37
:100F300001216C4802F0EEFD0121206802F0EAFD7B
:100F40000021206803F07EF80021206803F07CF87F
:100F50000CB070BD2DE9F04706460C46154635BB72
:100F60002188614A32F9110004F02CFF8246314693
:100F700004F088FF81465D4904F0B8FD804604F026
:100F800001FF87B239465A4803F05EF82088564977
:100F900031F91000002804DB0021554803F052F815
:100FA00083E04FF46161524803F04CF87DE0012D7D
:100FB00061D15048007870BB21884B4A32F911004A
:100FC00004F000FF8246314604F05CFF8146474949
:100FD00004F08CFD804604F0D5FE87B239464448C3
:100FE00003F032F82088404931F91000002804DB72
:100FF00000213F4803F026F804E04FF461613C48CB
:1010000003F020F8208840F28F1188424DD1012052
:101010003849087049E0FFE72188334A32F9110066
:1010200004F0D0FE8246314604F02CFF81462F4961
:1010300004F05CFD804604F0A5FE87B239462C48DA
:1010400003F000F82088284931F91000002804DB5B
:101050000021274802F0F8FF04E04FF461612448C2
:1010600002F0F2FF208840F28F1188421DD100204B
:101070002049087019E000211D4802F0E3FF218893
:10108000194A32F9110004F09DFE8246314604F0FF
:10109000F9FE8146154904F029FD804604F072FEF0
:1010A00087B23946124802F0CFFF2088401C4FF427
:1010B000C87190FBF1F201FB12002080BDE8F087BF
:1010C00010B50121074802F0EEFF48B100220A499D
:1010D0000A480068FFF73EFF0121024802F0F4FFD2
:1010E00010BD0000001000405A62000800E0E0441B
:1010F00000340140440000201000002014000020B3
:1011000070B59AB004460121084601F05CFA01214D
:10111000084601F03EFA0121042001F047FA0121BE
:10112000480201F043FA4FF4004001F0A3F960894E
:10113000002801DD608901E044F61F60ADF81C0065
:10114000A089002801DDA08900E04720ADF8180043
:101150000020ADF81E00ADF81A0006A94FF080403F
:1011600002F07CF96020ADF808000120ADF80A001B
:1011700060894010ADF80E000220ADF8100002A901
:10118000400702F0EAF94FF0804002F0F7FC082136
:10119000C80602F0F8FD00214FF0804002F006FF83
:1011A000A04802F095FFA0480990A0480A900020AE
:1011B0000B9014200C9000200D9080200E90400089
:1011C0000F908000109020201190000212900020BB
:1011D000139009A9934803F01DF8012202219148B8
:1011E00003F04FF84FF4C06001F048FC0B208DF87D
:1011F000040000208DF805008DF8060001208DF810
:10120000070001A801F03FFC00201590207A01287A
:1012100000D100E000208DF8580000208DF8590022
:101220004FF4C02017900020189020788DF86400AB
:1012300015A97D484C3801F03CFE00252AE045B94F
:1012400005EB4501606800EB41004088ADF85000B7
:101250000AE005EB4501606800EB41004088BDF8FD
:1012600050100843ADF8500005EB4506606800EBF0
:101270004600037905EB4506606810F8162005EB7B
:10128000450600EB4600417867484C3801F0A9FE5E
:10129000681C85B22078A842D1DC00208DF853006C
:1012A00014A9634800F0C6FE01215F484C3801F0E4
:1012B00037FE01215C484C3801F027FE5A484C3873
:1012C00001F045FE00BF58484C3801F045FE0128AA
:1012D000F9D055484C3801F049FE00BF52484C380F
:1012E00001F049FE0128F9D001214F484C3801F0A6
:1012F000D4FE00214C484C3801F007FE00214FF08D
:10130000804002F007FC0021464802F0AEFF1AB010
:1013100070BD30B587B004460D46A089ADF8040015
:1013200000208DF8070001A9A06800F083FE0020CE
:1013300002908DF80C008DF80D004FF460200490A1
:101340000020059001208DF8180002A9206801F006
:10135000B0FD0121206801F0D8FD206801F0F7FD03
:1013600000BF206801F0F8FD0028FAD1206801F0E4
:10137000FDFD00BF206801F0FEFD0028FAD107B096
:1013800030BD10B50446A37B61790122206801F0CD
:1013900028FE0121206801F0F8FD00BF022120682D
:1013A00001F064FF0028F9D0206801F081FE10BD33
:1013B00010B5022002F093FF28B101201D490870EA
:1013C000022002F0A0FF10BD10B5012116484C38D4
:1013D00001F09BFD0121134802F047FF012188071E
:1013E00002F098FB10BD10B500210F484C3801F0F9
:1013F0008CFD00210B4802F038FF00214FF08040A7
:1014000002F088FB10BD10B504460121204601F012
:101410007CFD10BD10B504460021204601F075FD8D
:1014200010BD0000080002404C2401409200002042
:10143000000801400500002010B5044600212046A8
:1014400004F0ECFD01D2204610BD84F00040FBE723
:101450002DE9F84F05460E46174698464FF000090D
:101460004FF6FF7A3C460FE035F81400484502DDA0
:1014700035F8149005E035F81400504501DA35F8D8
:1014800014A004EB080084B2B442EDDBA9EB0A001F
:1014900004F098FC00900A9904F0F4FC834604F0F0
:1014A00071FC80B2BDE8F88F2DE9F04104460025BB
:1014B0004FF6FF760027B446002025E034F8108070
:1014C000A84502DD34F8105005E034F81080B0452E
:1014D00001DA34F8106000F1010834F81880B845DA
:1014E00004DD00F1010834F8187009E000F101088A
:1014F00034F81880E04503DA00F1010834F818C028
:1015000000F102081FFA88F08842D7DBA5EB060835
:10151000A2F80080A7EB0C08A3F80080BDE8F081DA
:101520002DE9F04706460C46174698464FF000094D
:101530003D460BE036F8150004F05CFC8246494657
:1015400004F0D4FA814605EB080085B2A542F1DB30
:10155000204604F04FFC82465146484604F034FBD6
:10156000BDE8F08770B50446002515801D80002079
:101570000CE0158834F81060354415801E88451C31
:1015800034F8155035441D80851CA8B28842F0DB24
:1015900015884E1095FBF6F515801D884E1095FBAD
:1015A000F6F51D8070BD2DE9F84F05460E4617462D
:1015B000012433E035F81400B0422DDB601E35F80D
:1015C0001000B04228DA35F81400811B601E35F88F
:1015D0001000301A91FBF0FB584604F0F3FB8246F2
:1015E000FFF72AFF81464FF07E5104F07FFA014653
:1015F00000904FF07E5004F0E7FA8046204604F059
:10160000F9FB8246414604F071FA81464FF07E5163
:1016100004F036FDBDE8F88F601C84B2BC42C9DB23
:101620000020F7E72DE9FF4F85B0834600210C46E7
:101630000D468A4638E0139804F02CFACDE90201F1
:101640003BF81A200899501A03F0ADFECDE90001CD
:10165000DDE9022303F00EFF80468946149804F06A
:1016600019FACDE90201069931F81A201299501A97
:1016700003F099FECDE90001DDE9022303F0FAFE53
:1016800006460F4632463B464046494603F0F2FEC8
:1016900022462B46CDE9020103F044FC04460D46E8
:1016A0000AF101001FFA80FA07988245C3DB204641
:1016B000294609B0BDE8F08F2DE9F04F87B080468C
:1016C0000C4691469A4600251DE038F81510A1EB0E
:1016D000090004F077FB5146019004F0D3FB8346E8
:1016E00004F0D8F900224FF08043CDE9020102F066
:1016F000E5FE32463B46CDE9040103F013FC064605
:101700000F46681C85B2A542DFDB204603F062FE6F
:1017100002460B46CDE904013046394603F0BEFCD3
:1017200006460F463046394607B0BDE8F08F2DE932
:10173000F05F824614469946DDF82CB05B464A4677
:1017400021465046FFF7B8FF05460E465B464A461F
:1017500021465046FFF7B0FF07462A46334603F0BE
:1017600089FEBDE8F09F2DE9F04F85B005460E4695
:10177000174600200490DFF8DC804FF00109824614
:1017800000241CE03119685C04F034FB41460390EE
:1017900004F078FB8346049904F0A8F904904046CD
:1017A00004F078F92C4A2D4BCDE9000103F062FEDC
:1017B000CDE9020103F084FB8046601C04B2BC4208
:1017C000E0DB701E04B20CE0285D00FB09A01FFAEC
:1017D00080FA09EB89004FF6FF7101EA4009601EAB
:1017E00004B2002CF0DA504604F004FB834604995E
:1017F00004F07CF905B0BDE8F08F70B50346002019
:10180000012400220DE04D1EAD1A5D5D05FB0405AF
:10181000A8B204EB84054FF6FF7606EA4504551C92
:10182000AAB28A42EFDB70BD0246002003E000232B
:101830001354431C98B28842F9DB704702460020DB
:1018400004E0002322F81030431C98B28842F8DBF1
:1018500070470000CDCCCC3D9A9999999999B93FA0
:1018600000218161C161816041602549C160002121
:10187000416124490161704710B50446D4E906105E
:1018800004F0CCFB10D2D4E9010104F0C7FB05D26F
:10189000E168606804F02AF920601AE0E168606895
:1018A00004F0EEFB206014E0D4E9061004F0B6FA70
:1018B0000FD2D4E9010104F0B1FB05D2E168606800
:1018C00004F0DEFB206004E0E168606804F00EF9DB
:1018D00020602169206804F0A1FB02D22069206009
:1018E00006E06169206804F099FA01D2606920601D
:1018F000E069A0616068A0602068606010BD0000C1
:101900006F12033A58FF7F3F08B50121242000F0F1
:101910004DFE4FF48070ADF8000010208DF80300EC
:1019200003208DF802006946094800F083FB4FF45C
:101930008071074800F02BFC0420ADF800006946D8
:10194000044800F077FB0421024800F020FC08BDA9
:10195000000801400014014010B50221494802F07E
:10196000A2FB012842D100204749088002214548B6
:1019700002F0AAFB434834300088401C84B2002C9B
:1019800034D0424804800120414908704148007821
:1019900058B90020404908800021404802F04EFB21
:1019A00001213E4802F0B6F820E000213B4802F059
:1019B000B1F83A4802F065FB3749088038480078AA
:1019C00078B938480068C0433749C1F888012F48C2
:1019D0000088364948803648008888800120304990
:1019E000087000202A4908702A49087010BD10B5F7
:1019F0000221304802F057FB012842D102212D4834
:101A000002F062FB2B4834300088401C84B2002C6A
:101A100037D02748048001201E4908701C480078F0
:101A200058B900202449088000211C4802F006FB18
:101A300001211A4802F06EF823E00021174802F055
:101A400069F8164802F01DFB1B490880144800780D
:101A500090B91A48007878B912480068C043124912
:101A6000C1F888010948008810494880104800885A
:101A7000888001200A49087000200549087005493E
:101A8000087010BD000C004010000020060000206F
:101A900000000020010000200A0000200014004087
:101AA000040000208881224200802242760000202B
:101AB00008000020000800400C0000200300002067
:101AC0007FB505460C460121084600F07CFDADF8C7
:101AD0000850ADF804400020ADF80A00ADF806004B
:101AE00001A94FF0804001F0B9FC01221146900796
:101AF00002F02BF81C208DF8000000208DF801006A
:101B00008DF8020001208DF80300684600F0BBFF4D
:101B10000121880701F0FEFF7FBD7FB505460C4619
:101B20000121022000F04FFDADF80850ADF804404F
:101B30000020ADF80A00ADF8060001A9724801F0D6
:101B40008DFC01221146704801F0FFFF1D208DF829
:101B5000000000208DF8010001208DF802008DF8B2
:101B60000300684600F08FFF7FBD7FB505460C4639
:101B70000121042000F027FDADF80850ADF8044025
:101B80000020ADF80A00ADF8060001A95F4801F099
:101B900065FC012211465D4801F0D7FF1E208DF83B
:101BA000000003208DF8010001208DF802008DF85F
:101BB0000300684600F067FF7FBD7FB505460C4611
:101BC0000121102000F0FFFCADF80850ADF80440F2
:101BD0000020ADF80A00ADF8060001A94C4801F05C
:101BE0003DFC01214A4802F095F80122114648487F
:101BF00001F0ABFF36208DF8000003208DF80100C6
:101C00008DF8020001208DF80300684600F03BFFCC
:101C10007FBD7FB505460C460121202000F0D3FC96
:101C2000ADF80850ADF804400020ADF80A00ADF85A
:101C3000060001A9374801F011FC01221146354880
:101C400001F083FF37208DF8000001208DF801009E
:101C500000208DF8020001208DF80300684600F096
:101C600012FF7FBD7FB505460C460121480300F0F9
:101C7000AAFCADF80850ADF804400020ADF80A0009
:101C8000ADF8060001A9244801F0E8FB0122114645
:101C9000214801F05AFF2C208DF8000001208DF81A
:101CA000010000208DF8020001208DF80300684635
:101CB00000F0E9FE7FBD7FB505460C460121C80254
:101CC00000F081FCADF80850ADF804400020ADF8FC
:101CD0000A00ADF8060001A9104801F0BFFB01227F
:101CE00011460E4801F031FF19208DF80000012047
:101CF0008DF8010000208DF8020001208DF803000E
:101D0000684600F0C0FE7FBD0004004000080040AF
:101D1000001000400014004000340140002C01403D
:101D200010B56FF0040000F0F8FE2E4800682E4950
:101D3000B0FBF1F02D4908700846007800EB400137
:101D4000C1EBC0104FF6FF7101EAC00028490880BE
:101D500010BD0146254A12784A434FF0E0235A61EC
:101D600000229A611A46126942F001021A6100BF0C
:101D70004FF0E022106900F001021AB100F4803245
:101D8000002AF5D04FF0E022126922F001024FF054
:101D9000E0231A6100229A6170470146144A1288B2
:101DA0004A434FF0E0235A6100229A611A461269B1
:101DB00042F001021A6100BF4FF0E022106900F00A
:101DC00001021AB100F48032002AF5D04FF0E0226F
:101DD000126922F001024FF0E0231A6100229A6199
:101DE000704700003000002000127A0046000020FA
:101DF00048000020014600BF704700BF494A1288D2
:101E000002F04002002AF9D0C2B2464B1B1D1A80D4
:101E1000704710B586B00446012144F2040000F07A
:101E2000C5FB4FF40070ADF8140003208DF81600C8
:101E300018208DF8170005A93B4800F0FBF84FF477
:101E40008060ADF8140004208DF8170005A936480D
:101E500000F0F0F825208DF8000003208DF8010037
:101E60008DF8020001208DF80300684600F00BFE9B
:101E700001940020ADF80800ADF80A00ADF80C00A0
:101E8000ADF810000C20ADF80E0001A9254800F0B7
:101E900034FC012240F22551224800F0C6FC012109
:101EA000204800F0B6FC06B010BD10B540F2255138
:101EB0001C4800F09FFD10B31A4800F01BFDC4B28F
:101EC0001A48008800F40040C8B91848008800F497
:101ED000804060B10A2C03D000201449088020E023
:101EE0001248008840F400401049088019E00D2C89
:101EF00006D10E48008840F480400C49088010E06C
:101F00000A480088C0F30D0009490C5407480088AE
:101F1000401C0649088008460088C72801DD0020CB
:101F2000088010BD0038014000080140500000202A
:101F3000BA0000200948804709480047FEE7FEE74D
:101F4000FEE7FEE7FEE7FEE7FEE7FEE7FEE7FEE769
:101F500004480549054A064B704700002F07000852
:101F600031010008E8010020E8070020E803002014
:101F7000E803002010B50446CC48844208D1012172
:101F8000042000F02DFB0021042000F029FB46E096
:101F9000C748844208D10121082000F021FB00211C
:101FA000082000F01DFB3AE0C248844208D101211C
:101FB000102000F015FB0021102000F011FB2EE096
:101FC000BD48844208D10121202000F009FB0021F6
:101FD000202000F005FB22E0B848844208D101210E
:101FE000402000F0FDFA0021402000F0F9FA16E050
:101FF000B348844208D10121802000F0F1FA002189
:10200000802000F0EDFA0AE0AE48844207D10121B9
:10201000801500F0E5FA0021A01500F0E1FA10BDEE
:1020200010B50121084600F0DBFA0021012000F084
:10203000D7FA10BD2DE9F041024600250026002008
:1020400000230024002791F803C00CF00F0591F83D
:1020500003C00CF0100CBCF1000F03D091F802C0CB
:102060004CEA050591F800C0BCF1000F31D01468AE
:1020700000202BE04FF0010C0CFA00F3B1F800C087
:102080000CEA03069E4220D183004FF00F0C0CFA9D
:1020900003F7BC4305FA03FC4CEA040491F803C0BF
:1020A000BCF1280F06D14FF0010C0CFA00FCC2F86D
:1020B00014C00AE091F803C0BCF1480F05D14FF0FD
:1020C000010C0CFA00FCC2F810C0401C0828D1D347
:1020D0001460B1F800C0BCF1FF0F34DD546800207B
:1020E0002EE000F1080C4FF0010808FA0CF3B1F8EB
:1020F00000C00CEA03069E4221D183004FF00F0C72
:102100000CFA03F7BC4305FA03FC4CEA040491F80B
:1021100003C0BCF1280F05D100F1080C08FA0CF837
:10212000C2F8148091F803C0BCF1480F07D100F148
:10213000080C4FF0010808FA0CF8C2F81080401C97
:102140000828CED35460BDE8F0814FF6FF710180BE
:10215000022181700421C1707047024600209368FB
:102160000B400BB1012000E0002070470146886859
:1021700080B2704702460020D3680B400BB10120AB
:1021800000E0002070470146C86880B270470161D6
:102190007047416170470AB1016100E041617047D9
:1021A000C16070474FF480320A438261816182616D
:1021B00082698269704702460020434B18684FF6D7
:1021C0008073184040EA021008433F4B1860704784
:1021D0003E49C8617047F0B50A460023002400213B
:1021E000002500F00046B6F1004F02D1364EF169ED
:1021F00001E0354E7168C0F3034583B200F4401628
:10220000B6F5401F08D121F070612F4E766826F098
:1022100070662D4F7E6012E000F48016B6F5801FC8
:1022200006D1032606FA05F4A14341F0706106E0E9
:10223000460D360103FA06F6B14341F0706122B152
:10224000460D360103FA06F6314300F00046B6F1BA
:10225000004F02D11C4EF16101E01B4E7160F0BDD8
:1022600030B500228B071C0F0F2303FA04F2164B24
:1022700008338C1053F824309343134C08348D10DA
:1022800044F8253023468C1053F824308C07240F53
:1022900000FA04F423430C4C08348D1044F8253024
:1022A00030BD0A49DC310860704700000008014079
:1022B000000C0140001001400014014000180140D2
:1022C000001C0140002001400000014000002042AD
:1022D000DF48006840F00100DD49086008464068BA
:1022E000DC490840DA49486008460068DA49084095
:1022F000D74908600846006820F480200860084636
:10230000406820F4FE0048604FF41F00886070476A
:10231000CF49096821F48031CD4A1160114609681E
:1023200021F480211160B0F5803F03D0B0F5802FFB
:102330000ED106E0C649096841F48031C44A1160F3
:1023400007E0C349096841F4A021C14A116000E0D7
:1023500000BF00BF704710B50146002200230020D7
:102360004A11012A02D1BA4C236806E0022A02D19E
:10237000B74C236A01E0B64C636A01F01F020124E6
:1023800094401C400CB1012000E0002010BD38B585
:10239000002000900024002500BF3120FFF7DBFF64
:1023A00005460098401C00900098B0F5A06F01D041
:1023B000002DF2D03120FFF7CEFF08B1012400E05C
:1023C0000024204638BD01460020A14A106820F0B4
:1023D000F80040EAC10010607047A04908607047EB
:1023E000024600209A4B586820F47C1042EA010310
:1023F0001843974B586070479849086670470146E4
:102400000020934A506820F0030008435060704752
:102410008F48406800F00C007047014600208C4A4D
:10242000506820F0F00008435060704701460020DB
:10243000874A506820F4E0600843506070470146C6
:102440000020834A506820F4605040EAC100506088
:10245000704729B17E4A527A02437D4B5A7204E09A
:102460007B4A527A82437A4B5A7270477B49D83101
:102470000860704701460020754A506820F44040CB
:102480000843506070470021714A20321170704A31
:1024900082F82010012802D004280AD104E001218A
:1024A0006B4A2032117005E00521694A2032117013
:1024B00000E000BF00BF7047694908607047644989
:1024C000096A0143624A11627047654944390860EC
:1024D000704730B500210022002400235C4D6D6858
:1024E00005F00C0121B1042905D0082923D105E00C
:1024F0005C4D056022E05B4D05601FE0544D6D684A
:1025000005F47012524D6D6805F48034022505EB18
:1025100092421CB9544D554305600BE04C4D6D681B
:1025200005F400351DB1504D5543056002E04D4D99
:102530005543056002E04B4D056000BF00BF444DB0
:102540006D6805F0F0010909484D6B5C0568DD40D8
:1025500045603F4D6D6805F4E061090A434D6B5CD1
:102560004568DD4085603A4D6D6805F46051C90AE3
:102570003E4D6B5C4568DD40C560354D6D6805F4CA
:102580004041890B3A4D6B5CC568B5FBF3F50561BD
:1025900030BD29B12E4A526902432D4B5A6104E0E5
:1025A0002B4A526982432A4B5A61704729B1284A03
:1025B00092690243264B9A6104E0254A926982435C
:1025C000234B9A61704729B1214AD2690243204BBB
:1025D000DA6104E01E4AD26982431D4BDA6170471A
:1025E00029B11B4AD2680243194BDA6004E0184A49
:1025F000D2688243164BDA60704729B1144A1269D7
:102600000243134B1A6104E0114A12698243104BD2
:102610001A61704712494039086070470F49C86411
:1026200070470B49C87170470948406A40F0807094
:1026300007494862704701460020054A92680A40EF
:102640000AB1012000E000207047014988727047FC
:10265000001002400000FFF8FFFFF6FE00004242BB
:102660008004424200127A0000093D00520000201E
:102670006200002010B50446FB48844209D10121C4
:102680008803FFF7ADFF00214FF48040FFF7A8FF5C
:1026900032E0F648844209D101214804FFF7ADFF3A
:1026A00000214FF40030FFF7A8FF25E0F0488442F6
:1026B00009D101218804FFF7A0FF00214FF48020F9
:1026C000FFF79BFF18E0EB48844209D10121C804C1
:1026D000FFF793FF00214FF40020FFF78EFF0BE080
:1026E000E548844208D101210805FFF786FF002153
:1026F0004FF48010FFF781FF10BD2DE9F04786B041
:1027000005460E460024A24600BFA1460027B08918
:1027100000B100BF2F462C8A4CF6FF700440F088B1
:1027200004432C82AC894EF6F3100440B088318902
:102730000843718908430443AC81AC8A4FF6FF40DB
:102740000440B0890443AC8201A8FFF7C2FEC6482A
:10275000874202D1DDF810A001E0DDF80CA0A889C5
:1027600000F4004040B10AEBCA0000EB0A103168E7
:102770004900B0FBF1F807E00AEBCA0000EB0A10D1
:1027800031688900B0FBF1F86420B8FBF0F0040177
:102790002009642101FB1089A88900F4004040B1A0
:1027A000322000EBC900B0FBF1F000F00700044359
:1027B00008E0322000EB09106421B0FBF1F000F0DA
:1027C0000F0004432C8106B0BDE8F0874FF416518A
:1027D000016000218180C18001810C2141810021A3
:1027E0008181704710B502460020108A4FF2FF0326
:1027F00018400B884C8823438C882343CC88234380
:102800001843108210BD0021018041808180C18069
:10281000704721B1828942F40052828104E08289AA
:102820004DF6FF731A4082817047F0B503460024CD
:1028300000260025002040F66A17B94200D100BFEB
:102840001846C1F3421401F01F06012707FA06F5E6
:10285000012C01D10C3004E0022C01D1103000E039
:1028600014301AB107682F43076002E00768AF43CE
:102870000760F0BD1AB1838A0B43838202E0838A2A
:102880008B4383827047028A4FF6F0731A400282AC
:10289000028A0A430282704782894FF2FF731A400C
:1028A000828182890A438281704721B1828942F004
:1028B0000202828104E082894FF6FD731A40828110
:1028C0007047028A4FF6DF731A400282028A0A4377
:1028D0000282704721B1028A42F48042028204E0FF
:1028E000028A4BF6FF731A4002827047C1F3080256
:1028F0008280704701468888C0F30800704781894C
:1029000041F0010181817047028BD2B20283028BB8
:1029100042EA012202837047028B02F47F42028363
:10292000028B0A430283704721B1828A42F020025F
:10293000828204E0828A4FF6DF731A4082827047F7
:1029400021B1828A42F01002828204E0828A4FF62C
:10295000EF731A408282704721B1828A42F00802E6
:10296000828204E0828A4FF6F7731A4082827047AF
:1029700021B1828942F40042828103E08289C2F35C
:102980000E028281704721B1828A42F40062828203
:1029900004E0828A4FF2FF731A4082827047828A73
:1029A0004FF6FB731A408282828A0A438282704702
:1029B00021B1828A42F00202828204E0828A4FF6CA
:1029C000FD731A408282704702460020B1F5007FF5
:1029D00000D100BF13880B400BB1012000E00020A4
:1029E000704701F40072B2F5007F00D100BFCA4306
:1029F0000280704770B502460024002300250020A5
:102A000040F66A16B14200D100BFC1F3421501F091
:102A10001F03012606FA03F3012D02D196893340E4
:102A200006E0022D02D1168A334001E0968A334037
:102A30000C12012606FA04F41688344013B10CB1C6
:102A4000012000E0002070BD10B50022002340F6F8
:102A50006A14A14200D100BF0A1201249440A3B21B
:102A6000DC43048010BD00000038014000440040F9
:102A700000480040004C00400050004031490143F4
:102A8000314A1160704770B5002100230F22C478CD
:102A900004B32D4C246804F4E064C4F5E064210A16
:102AA000C1F10403CA40447804FA03F18478144065
:102AB00021430901254C0678A155047804F01F052F
:102AC0000124AC4005786D11AD0005F1E025C5F895
:102AD000004109E0047804F01F050124AC401C4DBE
:102AE0000678761145F8264070BD1A4A0A4002431E
:102AF000154B1B1F1A60704739B1134A121D12681B
:102B00000243114B1B1D1A6006E00F4A121D12688A
:102B100082430D4B1B1D1A607047042808D14FF0EB
:102B2000E021096941F004014FF0E022116107E062
:102B30004FF0E021096921F004014FF0E02211611A
:102B4000704700000000FA050CED00E000E400E032
:102B500080E100E080FFFF1F10B50446BE488442BC
:102B600008D101218014FFF73BFD0021A014FFF7DD
:102B700037FD16E0B948844208D101210014FFF75F
:102B80003CFD00212014FFF738FD0AE0B4488442E0
:102B900007D10121C013FFF730FD0021E013FFF73B
:102BA0002CFD10BD10B50022028802F441520B88A2
:102BB0004C8823438C882343CC8823430C892343AC
:102BC0004C8923438C892343CC8923431A430280B5
:102BD000838B4FF2FF74234083830B8A038210BDE3
:102BE0002DE9F04F85B005460C464FF0000902274D
:102BF0004FF000084FF0010B0026B246A88B4FF2B1
:102C000040010840A88302202884B5F81C90A068E1
:102C1000022801D100BF38E0A08810B94FF0010BA5
:102C200001E04FF0020B8D48854200D100E000BF6B
:102C30006846FFF74EFCDDF800A0E088B0F5007FA5
:102C40000AD14FEA1A2000EB80004000A168B0FBD7
:102C5000F1F0401D86B20BE04FEA4B10BAFBF0F0EA
:102C600000EB80004000A168B0FBF1F0401D86B28F
:102C70000A20B6FBF0F606F00108A6EB0800C0F348
:102C80004F074FF6FF7000EA0828022F01DBFF2FE5
:102C900002DD02274FF00008E08840EA08003843D0
:102CA0002884A088A18908436188084321880843B3
:102CB00040F4006040EA0909A5F81C9005B0BDE8A1
:102CC000F08F0021018041808180C180018141819C
:102CD0008181C181072101827047002101804180EB
:102CE0008180C1800221816000218181704721B1F2
:102CF000028842F04002028004E002884FF6BF736F
:102D00001A400280704721B1828B42F48062828334
:102D100004E0828B4FF6FF331A408283704730B550
:102D2000002400230C110125A540ABB21AB18588FF
:102D30001D43858002E085889D43858030BD1AB1A2
:102D400083880B43838002E083888B4383807047B2
:102D5000818170470146888970474FF6FF62914232
:102D600004D0028842F48072028004E002884FF6A8
:102D7000FF631A400280704721B1828842F004024A
:102D8000828004E082884FF6FB731A40828070478D
:102D900002884FF2FF731A40028002880A430280C1
:102DA0007047018841F480510180704721B1028849
:102DB00042F40052028004E002884DF6FF731A408C
:102DC0000280704702460020012901D0108B00E0EC
:102DD000908A70470146088A7047B1F5804F04D148
:102DE000028842F48042028004E002884BF6FF73BE
:102DF0001A40028070470246002013890B400BB135
:102E0000012000E000207047CA4302817047F0B5FE
:102E10000246002000240023002501F00F070126B0
:102E2000BE40B4B20B1101269E40B3B2968806EAAA
:102E300003051689264016B10DB1012000E00020DF
:102E4000F0BD10B5002201F00F040123A3409AB297
:102E5000D343038110BD0000003001400038004022
:102E6000003C004010B50446FA48844208D10121D4
:102E70004015FFF7B5FB00216015FFF7B1FB17E028
:102E8000F548844208D101210015FFF7A9FB002174
:102E90002015FFF7A5FB0BE0F048844208D1012183
:102EA000C803FFF79DFB00214FF40040FFF798FB9C
:102EB00010BD30B50246002000235068E84C204089
:102EC0000D790C6844EA0524204350609068E54C75
:102ED0002040D1E902542C434D7944EA4504204373
:102EE0009060D06A20F470000C7C641EE4B223432E
:102EF00040EA0350D06230BD002101600171417190
:102F00008160C16001210174704721B1826842F083
:102F10000102826003E0826822F001028260704751
:102F200021B1826842F48072826003E0826822F4F8
:102F300080728260704710B50023CBB21AB144682A
:102F40001C43446002E044689C43446010BD8168B7
:102F500041F0080181607047014600208A6802F054
:102F600008020AB1012000E000207047816841F0AA
:102F7000040181607047014600208A6802F0040263
:102F80000AB1012000E00020704721B1826842F4BC
:102F9000A002826003E0826822F4A002826070478F
:102FA000014600208A6802F480020AB1012000E094
:102FB0000020704710B50A4600210023416821F423
:102FC0006041531E41EA4331416010BD21B1426866
:102FD00042F40062426003E0426822F40062426010
:102FE0007047F0B504460D4600200021092D11DD83
:102FF000E068A5F10A0606EB4607072606FA07F180
:103000008843A5F10A0606EB460603FA06F10843D3
:10301000E0600CE0206905EB4507072606FA07F19A
:10302000884305EB450603FA06F108432061072AA9
:103030000FDA606B561E06EB86071F2606FA07F1AD
:103040008843561E06EB860605FA06F108436063C0
:1030500022E00D2A0FDA206BD61F06EB86071F260B
:1030600006FA07F18843D61F06EB860605FA06F135
:103070000843206310E0E06AA2F10D0606EB860724
:103080001F2606FA07F18843A2F10D0606EB860615
:1030900005FA06F10843E062F0BD21B1826842F40E
:1030A0008012826003E0826822F48012826070479E
:1030B0000146C86C80B2704766484C300068704763
:1030C00021B1426842F48062426003E0426822F427
:1030D00080624260704721B1426842F4805242608F
:1030E00003E0426822F48052426070470A460021A1
:1030F000816821F4E04111438160704721B1826809
:1031000042F40042826003E0826822F4004282605E
:10311000704721B1826842F40212826003E0826843
:1031200022F4021282607047014600208A6802F48D
:1031300000120AB1012000E000207047F0B50446FB
:103140001546002000220026092911DDE068A1F1C2
:103150000A0707EB470C072707FA0CF29043A1F187
:103160000A0707EB470703FA07F21043E0600CE099
:10317000206901EB410C072707FA0CF2904301EBA1
:10318000410703FA07F210432061A06BC0F3015618
:10319000EF1C06F1010CA7EB0C0707EB870C1F27B0
:1031A00007FA0CF29043EF1C06F1010CA7EB0C0799
:1031B00007EB870701FA07F21043A063F0BD10B5D3
:1031C0000A4600210023816B21F44011531E41EA7D
:1031D0000351816310BD08B5002300930090009B4C
:1031E0000B440093009B1A6008BD08B502460020FE
:1031F0000090009201F12800009B18440090009874
:10320000006880B208BD0A4600214168164B19408B
:103210001143416070474162826270470A46002153
:10322000416821F01F0111434160704740B10949D5
:103230000831096841F40001064A0832116007E0CC
:1032400004490831096821F40001024A083211607A
:10325000704700000024014000280140003C01406C
:10326000FFFEF0FFFDF7F1FFFFFD3FFF02460020EC
:1032700013680B400BB1012000E000207047CA43E7
:103280000260704770B502460020002300240B1234
:103290005568CEB205EA060415681D4015B10CB19B
:1032A000012000E0002070BD00220A12D343036019
:1032B0007047000010B50446FE48844208D1012141
:1032C000C014FFF78DF90021E014FFF789F9C4E07D
:1032D000B4F1804F08D101210846FFF78EF9002193
:1032E0000120FFF78AF9B8E0F348844208D10121B0
:1032F0000220FFF782F900210220FFF77EF9ACE0FF
:10330000EE48844208D101210420FFF776F900211C
:103310000420FFF772F9A0E0E948844208D10121B6
:103320000820FFF76AF900210820FFF766F994E00A
:10333000E448844208D101211020FFF75EF9002102
:103340001020FFF75AF988E0DF48844208D10121B4
:103350002020FFF752F900212020FFF74EF97CE0F2
:10336000DA48844208D101214014FFF739F90021DD
:103370006014FFF735F970E0D548844209D1012186
:10338000C804FFF72DF900214FF40020FFF728F9BA
:1033900063E0D048844209D101210805FFF720F9F4
:1033A00000214FF48010FFF71BF956E0CA48844211
:1033B00009D101214805FFF713F900214FF400104E
:1033C000FFF70EF949E0C548844208D101214020A9
:1033D000FFF713F900214020FFF70FF93DE0C04847
:1033E000844208D101218020FFF707F900218020C5
:1033F000FFF703F931E0BB48844208D10121801571
:10340000FFF7FBF80021A015FFF7F7F825E0B64815
:10341000844209D101210804FFF7E2F800214FF4AA
:103420008030FFF7DDF818E0B048844209D101216F
:103430004804FFF7D5F800214FF40030FFF7D0F82B
:103440000BE0AB48844208D101218804FFF7C8F89B
:1034500000214FF48020FFF7C3F810BD002202883E
:10346000944B98420ED0994B98420BD0B0F1804FBC
:1034700008D0914B984205D0904B984202D0904B87
:10348000984204D14FF68F731A404B881A438D4BE4
:10349000984207D08C4B984204D04FF6FF431A4015
:1034A000CB881A4302808B8883850B880385814BE8
:1034B00098420BD0854B984208D08B4B984205D050
:1034C0008A4B984202D08A4B984201D10B7A0386EC
:1034D00001238382704770B5002400220023058CED
:1034E0004FF6FE7635400584028C8388048B4FF6B8
:1034F0008F752C40B51E2C400D882C43751E2A401C
:103500000D892A434D882A436A4DA8420BD06F4D3E
:10351000A84208D0744DA84205D0744DA84202D0EC
:10352000734DA84213D14FF6F7752A404D892A43AF
:103530004FF6FB752A408D882A434FF6FF652B40D6
:103540004FF6FF552B408D892B43CD892B4383802C
:103550000483CD888586028470BD70B50024002266
:103560000023058C4FF6EF7635400584028C838866
:10357000048B48F6FF752C404FF6FF452C400D8814
:103580004FF6FF7606EA05252C434FF6DF752A40F5
:103590000D8906EA05152A434D8806EA05152A43D2
:1035A000444DA84202D0494DA8421DD14FF67F7527
:1035B0002A404D894FF6FF7606EA05152A434FF655
:1035C000BF752A408D8806EA05152A434FF6FF3558
:1035D0002B404FF2FF752B408D8906EA85052B4362
:1035E000CD8906EA85052B4383800483CD88058732
:1035F000028470BD70B5002400220023058C4FF6B4
:10360000FF6635400584028C8388848B4FF68F7566
:103610002C404FF6FC752C400D882C434FF6FF557F
:103620002A400D894FF6FF7606EA05252A434D8884
:1036300006EA05252A431F4DA84202D0234DA84281
:103640001DD14FF2FF752A404D894FF6FF7606EAED
:1036500005252A434FF6FF352A408D8806EA0525C1
:103660002A434EF6FF752B404DF6FF752B408D8992
:1036700006EA05152B43CD8906EA05152B43838001
:103680008483CD888587028470BD70B500220023B5
:103690000024058C4EF6FF7635400584038C848823
:1036A000828B48F6FF752A404FF6FF452A400D8869
:1036B00020E00000002C0140000400400008004011
:1036C000000C004000100040001400400034014095
:1036D000004C0140005001400054014000180040DF
:1036E000001C004000200040004001400044014018
:1036F000004801404FF6FF7606EA05252A434DF6BD
:10370000FF752B400D8906EA05352B434D8806EAE7
:1037100005352B43FA4DA84202D0FA4DA84208D1F4
:103720004BF6FF752C408D894FF6FF7606EA85151E
:103730002C4384808283CD88A0F84050038470BDE0
:10374000828B4FF2FF331A408283828B4FF6FF73D6
:1037500003EA01231A4382837047F0B50C461546ED
:10376000002200210026078C4EF6FF7C07EA0C079A
:103770000784828B018C4FF6FF7707EA043640F608
:10378000FF473A404FF6FF7707EA05273A434FF6DF
:10379000FF7707EA03373A43D94FB8420ED0D94FE3
:1037A000B8420BD0B0F1804F08D0D74FB84205D007
:1037B000D64FB84202D0D64FB84206D14DF6FF7769
:1037C000394046F48057394305E047F6FF57394002
:1037D00044F48057394382830184F0BD828B4FF6D5
:1037E000F3731A408283828B0A4382837047F0B559
:1037F0000C461546002200210026078C4FF6FF6C70
:1038000007EA0C070784828B018C4FF6FF7707EAE3
:1038100004264FF60C773A404FF6FF7707EA031776
:103820002F433A43B64FB8420ED0B64FB8420BD0F2
:10383000B0F1804F08D0B44FB84205D0B34FB84272
:1038400002D0B34FB84206D14FF6FF57394046F485
:103850008077394305E04FF2FF57394044F48077D1
:10386000394382830184F0BD028B4FF2FF331A404B
:103870000283028B4FF6FF7303EA01231A4302838C
:103880007047F0B50C461546002200210026078C33
:103890004FF6EF7C07EA0C070784028B018C4FF68A
:1038A000FF7707EA041640F6FF473A404FF6FF77E6
:1038B00007EA03373A434FF6FF7707EA05273A430B
:1038C0008F4FB8420ED08F4FB8420BD0B0F1804F1F
:1038D00008D08D4FB84205D08C4FB84202D08C4FE3
:1038E000B84206D14FF6DF77394046F0100739432A
:1038F00005E04FF65F77394044F010073943028303
:103900000184F0BD028B4FF6F3731A400283028BE1
:103910000A4302837047F0B50C4615460022002189
:10392000068C4FF6FE773E400684028B018C4FF6E4
:103930000C7632407E1C06EA03162E433243704E4C
:10394000B0420ED06F4EB0420BD0B0F1804F08D0D5
:103950006D4EB04205D06D4EB04202D06C4EB042BA
:1039600006D14FF6FD76314044F00106314305E0C3
:103970004FF6F576314044F001063143028301846D
:10398000F0BD70B505460C465D4885420ED05D48D9
:1039900085420BD0B5F1804F08D05B48854205D0F9
:1039A0005A48854202D05A48854200D100E000BF03
:1039B000208850B92389A28861882846FFF7ABFF89
:1039C000E1882846FFF79EFF25E0208804280AD1D9
:1039D0002389A28861882846FFF753FFE18828469B
:1039E000FFF742FF17E0208808280AD12389A28820
:1039F00061882846FFF7FBFEE1882846FFF7EEFEC8
:103A000009E02389A28861882846FFF7A6FEE1889D
:103A10002846FFF795FE70BD2DE9F04105460C469E
:103A200000260127608808B9022600E00026A08849
:103A3000012801D1022700E001272088A0B92389AD
:103A4000A28861882846FFF766FFE1882846FFF7CD
:103A500059FF23893A4631462846FFF712FFE1888D
:103A60002846FFF701FF13E02389A28861882846D2
:103A7000FFF707FFE1882846FFF7F6FE23893A465D
:103A800031462846FFF747FFE1882846FFF73AFF0F
:103A9000BDE8F0810A884B881A438B881A43CB888B
:103AA0001A430B891A434B891A438B891A43A0F88E
:103AB000442070474FF6FF71818000210180C18052
:103AC0004180017270470021018041808180C18066
:103AD000018141818181C181704700210180418044
:103AE000012181800021C180018170470021018076
:103AF00041808180C18001814181818170470000C6
:103B0000002C014000340140000400400008004047
:103B1000000C004021B1028842F00102028004E062
:103B200002884FF6FE731A400280704731B1B0F838
:103B3000442042F40042A0F8442005E0B0F84420BC
:103B4000C2F30E02A0F8442070471AB183890B43D8
:103B5000838102E083898B43838170478182704730
:103B600041EA0203A0F8483070471AB183890B4339
:103B7000838102E083898B438381704701894FF6FB
:103B8000F8721140018170470A46002101894FF601
:103B90008F73194011430181704730B504460D46BB
:103BA00029462046FFF7F0FF208940F007002081DA
:103BB00030BD2DE9F04104460D4616461F46602DE6
:103BC00006D13B46012231462046FFF75AFE05E06A
:103BD0003B46012231462046FFF79DFE29462046FE
:103BE000FFF7D2FF208940F007002081BDE8F08177
:103BF00030B50C4600210189C9B24FF6FF7505EAC0
:103C00000325154325432943018130BD2DE9F041AA
:103C100005460E4617469846002443463A46314626
:103C20002846FFF7E5FF2C894FF6F870044044F072
:103C300007044FF68F70044044F070042C81BDE8F7
:103C4000F081F0B504460D4616461F463B46324607
:103C500029462046FFF7CCFF208940F48040208190
:103C6000F0BD0185828270470A46002101884FF627
:103C70008F731940114301807047F0B50C4615460B
:103C80001E460021002200230189028B038C4FF67F
:103C9000F877394021434FF6FC473A4040F201178C
:103CA0003A434FF6DD773B404FF6FF7707EA0617BA
:103CB0002F433B43018102830384F0BD0A46002168
:103CC000018B4FF68F7319401143018370470A46E9
:103CD0000021018B48F6FF7319404FF6FF7303EA8A
:103CE00002231943018370470A460021818B4FF656
:103CF0008F7319401143818370470A460021818BDD
:103D000048F6FF7319404FF6FF7303EA0223194385
:103D10008183704721B1028842F08002028004E072
:103D200002884FF67F731A400280704721B1828863
:103D300042F00402828004E082884FF6FB731A404E
:103D40008280704721B1828842F00802828004E0BC
:103D500082884FF6F7731A408280704721B18288BB
:103D600042F00102828004E082884FF6FE731A401E
:103D7000828070470A460021018B4FF6F773194085
:103D80001143018370470A460021018B4FF2FF73F4
:103D900019404FF6FF7303EA02231943018370476A
:103DA0000A460021818B4FF6F77319401143818336
:103DB00070470A460021818B4FF2FF7319404FF67E
:103DC000FF7303EA02231943818370470A460021E7
:103DD000018B4FF6FB7319401143018370470A466C
:103DE0000021018B4FF6FF3319404FF6FF7303EAB2
:103DF00002231943018370470A460021818B4FF645
:103E0000FB7319401143818370470A460021818B5F
:103E10004FF6FF3319404FF6FF7303EA02231943AD
:103E2000818370470A460021018B4FF67F7319404A
:103E30001143018370470A460021018BC1F30E0133
:103E40004FF6FF7303EA02231943018370470A46C2
:103E50000021818B4FF67F73194011438183704796
:103E60000A460021818BC1F30E014FF6FF7303EA6E
:103E700002231943818370470A460021018C4FF6C3
:103E8000FD7319401143018470470A460021018CDB
:103E90004FF6F77319401143018470470A46002119
:103EA000018C4FF6DF7319404FF6FF7303EA0213DC
:103EB0001943018470470A460021018C4FF67F7335
:103EC00019404FF6FF7303EA021319430184704748
:103ED0000A460021018C4FF6FF5319404FF6FF733D
:103EE00003EA02231943018470470A460021018C2A
:103EF0004FF2FF7319404FF6FF7303EA0223194391
:103F0000018470470A460021018C4DF6FF73194069
:103F10004FF6FF7303EA023319430184704730B54B
:103F2000002301248C40A3B2048C9C430484048CA1
:103F300002FA01F5ADB22C43048430BD30B5002344
:103F400004248C40A3B2048C9C430484048C02FAA5
:103F500001F5ADB22C43048430BD70B5034600209A
:103F600000241846183001258D40ACB21D8CA543A5
:103F70001D8409B1082909D100EB6100056825F00D
:103F8000700505600568154305600EE00D1FC5F35B
:103F90004E052844056825F4E045056005684FF6A0
:103FA000FF7606EA02263543056070BD21B102881E
:103FB00042F00202028004E002884FF6FD731A40CC
:103FC0000280704721B1028842F00402028004E0BE
:103FD00002884FF6FB731A400280704721B1828835
:103FE00042F08002828004E082884FF67F731A409C
:103FF0008280704702884FF6F7731A400280028869
:104000000A430280704782884FF68F731A4082807D
:1040100082880A438280704702894FF6F8731A40FB
:10402000028102890A430281704702894FF67F7339
:104030001A40028102890A430281704781847047D5
:1040400081857047818670470187704781877047F7
:10405000A0F84010704702884FF6FF431A400280D4
:1040600002880A43028070470146888E70470146E5
:10407000088F70470146888F70470146B1F84000AD
:1040800070470146888C70470146088D704702468C
:104090000020138A0B400BB1012000E00020704784
:1040A000CA430282704730B5024600200023002434
:1040B000158A05EA0103958905EA010413B10CB1DB
:1040C000012000E0002030BDCA430282704700009A
:1040D00001684FF6FE7211400160002101604160ED
:1040E0008160C1608D49884208D18C49083949688E
:1040F00041F00F01894A083A51608AE0874914313A
:10410000884208D185490839496841F0F001834A5D
:10411000083A51607DE081492831884208D17F49C1
:104120000839496841F470617C4A083A516070E08E
:104130007A493C31884208D178490839496841F4C4
:104140007041764A083A516063E0744950318842C0
:1041500008D172490839496841F470216F4A083A18
:10416000516056E06D496431884208D16B49083985
:10417000496841F47001694A083A516049E0674969
:104180007831884208D165490839496841F0706141
:10419000624A083A51603CE06149884206D1011FF9
:1041A000096841F00F01021F116032E05C491431CF
:1041B000884208D15A49091F096841F0F001584A5C
:1041C000121F116025E056492831884208D1544910
:1041D000091F096841F47061514A121F116018E00B
:1041E0004F493C31884208D14D49091F096841F4C3
:1041F00070414B4A121F11600BE04949503188420F
:1042000007D14749091F096841F47021444A121F28
:104210001160704710B50022026847F6F0739A43A8
:104220000C6A8B6823430C6923434C6923438C69D4
:104230002343CC6923434C6A23438C6A23431A43A8
:104240000260CB6843600B6883604B68C36010BD3D
:104250000021016041608160C16001614161816153
:10426000C161016241628162704721B1026842F01E
:104270000102026004E002684FF6FE731A40026019
:1042800070471AB103680B43036002E003688B4375
:1042900003607047416070470146486880B27047CC
:1042A00001460020002201F080531BB11C4B083B4B
:1042B0001A6802E0194B083B1A6802EA01030BB1C5
:1042C000012000E00020704700F0805119B114492E
:1042D000091F086002E0114908394860704701462B
:1042E0000020002201F080531BB10D4B083B1A68DF
:1042F00002E00A4B083B1A6802EA01030BB10120F5
:1043000000E00020704700F0805119B10449091FF6
:10431000086002E00149083948607047080002401F
:10432000080402407047704770477047704710B5E7
:1043300000F008F8006810BD10B5044600F002F85F
:10434000046010BD00487047840100200048704799
:10435000840100207546FFF7F9FFAE460500694667
:10436000534620F00700854618B020B5FDF7F0FD54
:10437000BDE820404FF000064FF000074FF0000866
:104380004FF0000B21F00701AC46ACE8C009ACE8E7
:10439000C009ACE8C009ACE8C0098D4670470446C6
:1043A000AFF300802046FBF70AFF490050EAC12026
:1043B00018BF04204A0D18BF40F0010040F2FF7200
:1043C000B2EB515F08BF40F00200012808BF052092
:1043D00070472DE9F0414F1E00EBC7010446D1E9BB
:1043E000000115461E4637F006020DD02A46334618
:1043F00001F040F87F1E04EBC703D3E9002300F06F
:1044000091FD37F00602F1D1022F25D0042F13D0F1
:10441000062F18BFBDE8F0812A46334601F02AF87E
:10442000D4E90A2300F07EFD2A46334601F022F843
:10443000D4E9082300F076FD2A46334601F01AF845
:10444000D4E9062300F06EFD2A46334601F012F847
:10445000D4E9042300F066FD2A46334601F00AF849
:10446000D4E9022300F05EFD2A46334601F002F84B
:10447000D4E90023BDE8F04100F054BD002213460A
:104480001046014900F00ABE0000F03F00F04ABDAE
:10449000002213461046114600F000BE40F20132E1
:1044A00000204FF0E04101F092BE0000024A0020DF
:1044B000110701F08CBE000001FDFFFF2DE9F04D5A
:1044C00016460F4694B01C4621F0004123F00042EE
:1044D000002814BF4FF0010C4FF0000C0CEB470C00
:1044E000FE4B0CEB03054FEA630C65452BD33500FF
:1044F00018BF012505EB44051D44F94B9D4222D30D
:10450000F84B52EA060C02D09F4205D148B914B0CC
:1045100000201946BDE8F08D002808BF4FF0000CC0
:1045200001D04FF0010C0CEB470313F5001F0AD824
:10453000002E14BF4FF0010C4FF0000C0CEB4403A5
:1045400013F5001F07D914B0324623463946BDE89B
:10455000F04DFFF79BBFDFF890834FF0000A002F6C
:10456000B8BF424523DAE14B9A42A8BF4FF0020A96
:104570001DDADC4B93421ADCDD4B03EB2253142B88
:1045800008DDC3F1340C26FA0CF303FA0CFCB44535
:104590000DD108E05EB9C3F1140C22FA0CF303FA52
:1045A0000CFC944503D103F00103C3F1020A51EA64
:1045B00000031BD1002C19DA002F18BFBAF1020F2B
:1045C00002D0BAF1010F07D00220FFF7B5FE14B0F8
:1045D000BDE8F04DFFF752BF0220FFF7ADFEFFF739
:1045E0004DFF14B081F00041BDE8F08D330070D173
:1045F000424525D107F1804212F5801201BF002803
:104600000020B84914B008BFBDE8F08DB548884215
:1046100007DC002CA1BF1846214614B0BDE8F08D80
:1046200007E0002CBFBF184684F0004114B0BDE87D
:10463000F08DB0497944D1E9000114B0BDE8F08DA6
:10464000DFF8A0C262452AD1002C24DA39B14145F5
:1046500017D1002804BF002002461CD106E040B15B
:104660000220FFF769FEFFF719FF0A46394600F0FE
:10467000D7BA9D4A394614B0002062F31E01BDE846
:10468000F08D08DA14B03B46BDE8F04D024600203C
:10469000614600F003BD14B03946BDE8F08D4145D8
:1046A00017DAB4F1804F0CD0A4F10053B3F1FF53EB
:1046B0000FD13B1E0DDB14B01946BDE8F04D00F0E4
:1046C000D9BB3B4614B00246BDE8F04D194600F098
:1046D000D1BE050027F000433AD1E1B1414537D1C1
:1046E000002F06DD002CA1BF0020414614B0BDE81C
:1046F000F08D002F01DD002C1FDB002F16DA002CBF
:1047000014DBBAF1010F4FF0000014BF76497A496B
:1047100014B0BDE8F08DBAF1020F18BF002F0CD015
:10472000BAF1010F09D1002F07DA0BE0002FB8BF53
:10473000002C0DDABAF1010F04D0002014B00146AC
:10474000BDE8F08D14B000204FF00041BDE8F08DC1
:104750004FF0010808EBE77CCDF814C05CEA0A0CC6
:104760000DD0DFF898C162457EDDDFF894C1654B5E
:10477000624512DD8B420ADB002C18DB23E00120AE
:10478000FFF7DAFD14B0BDE8F04DFFF781BE554AE2
:104790008A4202DC002C0ADC15E0994202DA002C85
:1047A00011DA04E04F4B994219DD002C0BDD022099
:1047B000FFF7C2FDFFF772FE4B4A14B061F31E0211
:1047C0001146BDE8F08D0220FFF7B6FDFFF76EFE43
:1047D000444A14B061F31E021146BDE8F08D002278
:1047E000394601F06DF807460D466FF0010201F001
:1047F000EEFC4FF05532444B00F070FF3A462B462A
:1048000000F038FE0022414B00F068FF80468B46E6
:104810003A462B461046194600F02CFE42465B46AF
:1048200000F028FE88460E904FF0C042384B3846C4
:10483000294600F01FFE83460091364A344B41461C
:104840000E9800F017FE80460191334A334B3846EC
:10485000294600F00FFE4246019B01F031F80D465B
:1048600002460B460C9000E011E05846009900F01B
:1048700059FB002788465A463846009B01F020F82D
:104880002B460C9A00F02AFF024600F079B900206E
:10489000B1F5801F07DA35222846194601F097FC4A
:1048A00005466FF0340000EB2150A0F2FF3001907C
:1048B000C1F3130040F07F6141F04051029118496B
:1048C0008842D8BF4FF0000B35DD16498142C8BF82
:1048D0004FF0010B2FDC4FF0000B25E0FFFF1F0016
:1048E000FFFF0F000000F03F0000F07F000040439A
:1048F00001FCFFFFD01F00000000F0FF0000E041BE
:104900000000F043FFFFEF3F5555D53F0000E03F6B
:104910004715F73FFE822B6544DF5DF80BAE543E32
:104920008E9803007AB60B000198401C0190029803
:10493000A0F580100290FF480299784400EBCB006C
:104940000991D0E9002328460B93129200F0B8FF9A
:1049500000910A9028460B9B129A099900F0E2FAFE
:1049600002460B460020F44900F098FBCDE90C010B
:104970000B46024600990A9800F07CFD0690EF482D
:104980008846002778440299006810904FF0005044
:1049900040EA610000EB8B4000F5002102910B9B87
:1049A000129A109800F08CFF2A46099B00F096FEA0
:1049B0003A46434600F05EFD089112903846414663
:1049C000029B109A00F056FD009B0A9A00F086FEAA
:1049D000089B129A00F074FFDDE90C2300F04AFDF9
:1049E0000B91069A129043461046194600F042FD7C
:1049F00005460246D2480B460A9106217844FFF745
:104A0000E8FC0A9B2A46089102901046194600F0DD
:104A100031FD089B029A00F02DFD054609914346A1
:104A200038461946069A00F07DFA0B9B129A00F060
:104A300021FD2A46099B00F075FACDE908013A46A6
:104A400043461046194600F015FD0A910022BD4B61
:104A5000009000F067FADDE9082300F063FA0D46E4
:104A60003A46B84B384600F02BFF0A9B009A00F0FC
:104A700027FFDDE9082300F031FECDE908013A46C1
:104A80002B461046414600F0F5FC00910A90DDE906
:104A900008014346069A00F0EDFC069088462B4636
:104AA0003A460B99129800F0E5FC4346069A00F04E
:104AB00039FA80460B4602460D9100990A9800F09B
:104AC00031FA00200F460546009B0A9A00F0F8FED6
:104AD00042460D9B00F002FE88460E904FF0604269
:104AE000994B2846394600F0C5FC02910090974A40
:104AF000954B41460E9800F0BDFC80460391944AC8
:104B0000944B2846394600F0B5FC4246039B00F022
:104B100009FA914A7A4402EBCB03D3E9002300F06F
:104B200001FA05460791019800F03DFC0C900391B5
:104B30002A46079B0299009800F0F4F9874A7A44C4
:104B400002EBCB03D3E900239346019300F0EAF98B
:104B5000039B0C9A00F0E6F9002788463846039B31
:104B60000C9A00F0ADFE5A46019B00F0A9FE029B94
:104B7000009A00F0A5FE2A46079B00F0AFFD024612
:104B80000020069005986C4DAAF10103184301D14D
:104B9000734D069000200B4604903046214600F0ED
:104BA00069FC82468B46234630461946049A00F03B
:104BB00087FE3A46434600F05DFC52465B4600F0F5
:104BC000B1F906468A463A4643462146049800F023
:104BD00051FC04460F463246534600F0A3F9614AA1
:104BE0008B46914221DBABEB020353EA000210D16A
:104BF00022463B4600F064FE804603915A4A5B4BD6
:104C00003046514600F08EF94246039B00F030FDDD
:104C100027D20220FFF790FBFFF740FC0A46294607
:104C200014B062F31E01BDE8F08D514B2BF0004231
:104C30009A4216D34F4A0BEB020353EA000208D103
:104C400022463B4600F03CFE3246534600F010FD43
:104C500007D80220FFF770FBFFF728FC0A46294619
:104C6000DEE72BF000404449444A01EB20514FF06D
:104C70000008824223DA481C4FF4801121FA00F028
:104C800058443F4AC0F30A517A443E4BA1F2FF31E7
:104C9000CB4020EA0303C0F3130040F4801CC1F1B1
:104CA000140012682CFA00F8BBF1000FB8BFC8F16D
:104CB00000082046394600F003FE04460F4622460F
:104CC0003B463046514600F02DF94FF0000B5A4656
:104CD0002D4B5846039100F0CDFB00910A902B4AD2
:104CE0002B4B5846039900F0C5FB049102902246D5
:104CF0003B465846039900F0E3FD3246534600F028
:104D0000EDFC244A244B00F0B5FB049B029A00F012
:104D100009F907468A46009B0A9A00F003F90446FF
:104D20000E46009B0A9A00F0CBFD3A46534600F02F
:104D3000D5FC33E0421C00000000F03F801C000066
:104D4000B01B00000000084009C7EE3FFD033ADC3D
:104D5000F5015B14E02F3EBE881A00004E1A0000D9
:104D60000000F0BF00009040FE822B654715973C85
:104D700000CC904000346F3F01FCFFFF0000E03F9B
:104D80007C190000FFFF0F00432EE63F396CA80C92
:104D9000615C20BEEF39FAFE422EE63F074622460E
:104DA00033460F911046194600F064FB83460246D5
:104DB0002E488A460B4605217844FFF70AFB5A46DF
:104DC000534600F057FB2246334600F087FC8246EC
:104DD0008B463A46204631460F9B00F04BFB3A4645
:104DE0000F9B00F09FF80F460A9000224FF080437F
:104DF0005046594600F064FD0391009052465B46D0
:104E00002046314600F036FB039B009A00F046F93D
:104E10003B460A9A00F054FD2246334600F050FD0E
:104E20000022134B00F05AFC0E46044601EB0851D9
:104E30000815002810DC42462046314601F0C7F92B
:104E4000FFF7B3FA042808BFFFF730FB42462046BD
:104E5000314601F0BCF9044606980B4614B02246D0
:104E60002946BDE8F04D00F005BB00002418000005
:104E70000000F03F2DE9F04106460F4600F03AFCF5
:104E800004000D4618BF0120284320F00040C0F167
:104E90007F6000F1E040C00F0ED0301C18BF012031
:104EA000384320F00040C0F17F6000F1E040C00FC7
:104EB00004BF0120FFF740FA20462946BDE8F081F3
:104EC00021F00042A2F16052B2F5801F01F00043D0
:104ED00028BFD2F17F6C0BD95FEA001C43EAC20203
:104EE00042EB507018BF704728BF20F00100704798
:104EF000B2F5801FBCBF184670474FEA410C1CF545
:104F0000001F02D2084601F084B870B500F05CFBC7
:104F100000000089FFF7F6BF4FF00040A0F58000C9
:104F20007047000010B591EA030F48BF83F00043BB
:104F300000F1CE84841A71EB030C05D2121943EBF5
:104F40000C03001B61EB0C01DFF824E14FEA115464
:104F5000A4EB135C1EEA430F18BF9EEA445F73D0B4
:104F600023EA0E03DCF1200E21EA045143F48013FE
:104F700032D322FA0CFE10EB0E0023FA0CFE41EBAA
:104F80000E01CCF1200E03FA0EFE10EB0E0051F1D3
:104F90000001B1F5801FCCF1200E32D201EB04519B
:104FA00012FA0EF2BDE8104058BF7047401C38BFDF
:104FB0005FEA420218BF7047002814BF20F00100CA
:104FC00041F100014FEA410313F5001F38BF70475C
:104FD000A1F1C04100F046BB012A43EB0302ACF152
:104FE000200CDCF11F0E32BF4FF0000E23FA0CF341
:104FF00010EB030041EB0451B4EB115FD0D0A1EBF7
:10500000045101F5801149085FEA300001EB0451B9
:105010000ED350F1000038BF12FA0EFE08D1BDE8E1
:105020001040C9E7401C38BF5FEA4202CAD1C3E75B
:10503000BDE810404FEA410313F5001F38BF704729
:10504000A1F1C04100F00EBB9EEA445F08D011EA16
:105050005E0FBDE8104004BF01F000410020704722
:10506000BDE8104070B500F0AFFA00BF64FBBE3E73
:105070000000E0FF02494FF0000001F076B800BFE9
:105080000000F87F491058BFC1F140415B1058BF84
:10509000C3F140438B42EFF3008070472DE9C041DC
:1050A00030B4DFF8A0C23CEA111418BF3CEA131474
:1050B00000F0EC8081EA03051CEA111444EAD5747F
:1050C00018BF1CEA131500F0C780A4EB05044FF0CD
:1050D000004545EAC12145EAC32341EA505143EA6C
:1050E000525304F17F74994204F500344FEAC02012
:1050F0004FEAC22208BF904200F09C804FEA13653D
:105100000FF24016765D4FEA134506FB05F7C7F12F
:10511000807706FB07F74FEAD737A7FB036876428D
:10512000C8F58038A7FB06CE38BFA8F1010807FBF9
:1051300008E64FF0000EA6FB028CE6FB03CEDCF186
:10514000000CCEF1004E38BFAEF1010EA6FB0C589C
:105150004FF000074FF00005E6FB0E87A1FB08C6E5
:10516000A0FB07CE16EB0E0645F10005E1FB076537
:1051700015F1E04E7EBFA4F580345FEA46066D412E
:1051800016F1800745F100054FEA17274FEA06663A
:1051900047EA0567A6F1DE46B6F1805F4FEA1525BE
:1051A0001FD9384624F0010C05EBC471BCF1FE6F29
:1051B00001EB0C1102D8F0BCBDE8008124425CBFB9
:1051C00001F5801E9EEAC47F02D4F0BCBDE80081D8
:1051D000244238D4F0BCA1F1C041BDE8004100F048
:1051E00041BA4FEAD22242EA43524FEAD323A7FB05
:1051F00002864FEAD02040EA415007FB03661EEAD0
:105200000E0F4FEAD12105FB026658BFA6EB0056F0
:10521000B6EB00564FEA520E4EEAC37E18EB0E0E66
:1052200056EB530EBDD518EB02085E417F1C55F1BD
:105230000005B6E74FF480154FF000074FF0000669
:105240004FF00008ADE7F0BC4FF0000001F1C041A5
:1052500001F00041BDE8008111EA0C1F0CEA1315B2
:1052600000D00CE013EA0C1F00F025804FF0000086
:10527000F0BC81EA030101F00041BDE80081F0BC0F
:10528000BDE8004181EA030100F0ECB9F0BCBDE8E3
:10529000004170B500F098F9097EFC3E00F007B8B7
:1052A00081EA03014FF0000001F00041704781EAFC
:1052B000030100F0D7B9F0BCBDE800414FF0000099
:1052C00021497047FFFDFBF9F7F5F4F2F0EEEDEB45
:1052D000E9E8E6E4E3E1E0DEDDDBDAD8D7D5D4D3F4
:1052E000D1D0CFCDCCCBCAC8C7C6C5C4C2C1C0BF40
:1052F000BEBDBCBBBAB9B8B7B6B5B4B3B2B1B0AF46
:10530000AEADACABAAA9A8A8A7A6A5A4A3A3A2A129
:10531000A09F9F9E9D9C9C9B9A99999897979695E4
:1053200095949393929191908F8F8E8E8D8C8C8B80
:105330008B8A898988888787868585848483838208
:10534000828181800000FF070000F87F4FEA11533F
:10535000A3F58063D3F11E03A8BFD3F1200C08DBB3
:105360004FF0004242EAC12252EA505232FA03F0B0
:10537000704709420BD4102BC4BF0020704703F5BF
:10538000787CBCF1FF3F05D04FF0FF3070474FF005
:105390000000704770B500F017F900BF49922480F3
:1053A00000207047F0E710F0004248BF4042B0FADA
:1053B00080F310FA03F10AD0C3F11D0303F58063F3
:1053C0004FEA415002EB035202EBD12170474FF0FC
:1053D00000007047B0FA80F310FA03F10AD0C3F16D
:1053E0001D0303F580634FEA41504FEA035202EB7D
:1053F000D12170474FF000007047000051EA030CC4
:1054000017D41CF5801F58BFBCF5801F00F1068023
:10541000994218BF704708BF9042704707D711F5EF
:10542000801F58BF13F5801F19D4994270478942D5
:1054300070471CF5801F08D5BCF5801FF7D58B423F
:1054400018BF704708BF824270474FF4001C1CEB26
:10545000410F38BF1CEB430F01D28B42704770B530
:1054600000F0B2F8922449004FF000514FF0805301
:10547000FFF708BEDFF848C170B51CEA111E1EBF59
:105480001CEA13159EEA0C0F95EA0C0F00F06F80D2
:1054900081EA030423EA4C134EEAD47E21EA4C113C
:1054A00041F4801143F48013AE44A1FB024CA0FBF5
:1054B0000365AEF17F7E361955EB0C05A1FB034C5D
:1054C0004CF10003A0FB021C16EB0C06654153F1E6
:1054D0000003094218BF46F0010613F4007F0BD108
:1054E0004FEA03314FEA0530340341EA155140EAEF
:1054F00016506FF003020AE04FEAC3214FEAC520BD
:10550000F40241EA555140EA56506FF0020202EBB4
:105510002E4201EB025585EACE710AD05FEA440CB7
:1055200018BF24F0004450F1000041F1000120EACE
:10553000D47040F2FE7C624500D270BDA84214BF18
:105540004FF080444FF04044002E08BF0024BEF1CD
:10555000806FA8BFA1F1C041BDE8704080F2828099
:105560004FF0000001F1C04101F0004170479EEA98
:105570000C0F0CEA131518BF95EA0C0F06D04FF06C
:10558000000081EA030E0EF0004170BD00F01CF82F
:105590008900013E00F007B800F009B84FEA430C5B
:1055A0005FEA5C5C08D081EA030100F05BB84FEA77
:1055B000410C5FEA5C5CF6D14FF000000149704796
:1055C0000000FF070000F87F0EF1020E2EF0030E20
:1055D0005EF8046B364205D4012A43EB030515F54A
:1055E000001F12D8012841EB010C1CF5001F0CD83C
:1055F0000ED14FEAD17C15F5001F0CEB4C0C0CF1D1
:10560000020C08BF4CEBD37C04E04FF0080C01E027
:105610004FEAD37C0CEB4C0526FA05F606F007069C
:10562000B6F1040C06D20EEB860CBDE870404CF0CF
:10563000010C6047DFE80CF0090B02024FF000415B
:105640004FF00000A1F5002170BD19461046012859
:1056500051EB010418BFD4F5001484BF002001F001
:10566000004170BD0808A0F500114FEA31017047F4
:1056700053EA010C17D41CF5801F58BFBCF5801FDE
:1056800000F106808B4218BF704708BF8242704706
:1056900007D713F5801F58BF11F5801F19D48B420F
:1056A00070479B4270471CF5801F08D5BCF5801FD2
:1056B000F7D5994218BF704708BF904270474FF422
:1056C000001C1CEB430F38BF1CEB410F01D2994269
:1056D00070470FB40CBC03BCFFF7C1BE91EA030FC7
:1056E00010B581F000413FF525AC83F0004300F098
:1056F000EFB800002DE9F04101F5801CBCF5001F5A
:10570000C0F2C3804FEA115C21EA0C510CF1FD0C90
:1057100041F480115FEA5C0C0CF5C07C01D34000C1
:1057200049413DA4890241EA905187028E0E0A0C3C
:10573000A45D04FB04F602FB06F6C6F14046A4FB9A
:105740000662F60D46EA422606FB06F4A4FB012398
:105750005242C3F1404338BF5B1EA6FB0242002405
:10576000E6FB0324D20B42EA4446A6FB0623A1FB38
:1057700002E2A3FB07E4A4184FF0000252F100027A
:10578000E3FB01426442C2F1404E38BFAEF1010E6C
:10579000A6FB04234FF00002E6FB0E32A2FB0346F9
:1057A0004FF00004B61954F10004E2FB0264A1FBBF
:1057B00006E6A4FB07E816EB08064FF0000858F1D0
:1057C0000008E4FB01687642C8F1405838BFA8F1F0
:1057D0000108A2FB06E4A3FB08E52D194FF0000425
:1057E00054F10004E2FB0854A1FB05E6A7FB04E822
:1057F00018EB06084FF0000656F10006E1FB0486A0
:1058000018F1200556F10006A809A8F11B08B109F6
:1058100008F03F08B8F10A0F40EA86601CD901EB96
:105820000C51BDE8F08100BFFCF5EEE8E2DDD8D315
:10583000CFCBC7C3C0BDB9B6B4B1AEACA9A7A5A301
:10584000A19F9D9B9A9896959392908F8D8C8B8912
:105850008887868584838281A0FB006800FB01F233
:1058600008EB4208B8EB872807D5341858EB010439
:10587000D5D5401C51F10001D1E7341A78EB010471
:10588000CDD4401E71F10001C9E75FEA4C0C5FEA1C
:105890009C5C0DD105D34FF0000001F00041BDE844
:1058A000F081BDE8F04170B5FFF78EFE6DDBFFBE05
:1058B000BDE8F0414FF00000004970470000F87F5C
:1058C00010B591EA030F48BF83F000433FF532ABB8
:1058D000841A71EB030C07D212198CF0004C43EBC5
:1058E0000C03001B61EB0C01DFF8A4E14FEA11543B
:1058F000A4EB135C1EEA430F18BF9EEA445F00F05E
:10590000B08023EA6E03524221EA0451C3EB6E03D6
:1059100038BF5B1EDCF1200E25D322FA0CFE10EB03
:105920000E0043FA0CFE41EB0E01CCF1200E03FAFF
:105930000EFE10EB0E0051F10001CCF1200E29D427
:1059400012FA0EF201EB0451BDE8104058BF704747
:10595000401C1CBFB2F1004F704700280CBF491C0F
:1059600020F00100704712EB020E43EB030218BF58
:105970004FF0010E4EEA4202ACF1200CDCF11E0E9B
:1059800054D943FA0CFE10EB0E0051F1FF31CCF16B
:105990001E0ED5D50EF1010E12FA0EFE404141EB5E
:1059A000010101EB445C5FEA5C5C10D910EBDE7036
:1059B00001EB045138BFBEF1004FBDE8104018BFE5
:1059C000704700280CBF491C20F00100704730D2FE
:1059D0004FEAD42C11F5001124F400641BD0B1FA65
:1059E00081F20B3AA41AA41ED2F12003914030FA9E
:1059F00003F31943904001EBCC71002C01EB0451EF
:105A0000BDE81040A8BF704701F1C0414FF0000051
:105A100001F000417047B0FA80F310FA03F100D1B1
:105A200010BDE41A173C4805C90AE4E701EB04512C
:105A300010BD491001EB0451BDE810404FEA3000A1
:105A400002E04FF0000170474A0008BF0042F8D062
:105A5000B2F5001F28BF704701F000414FF0000071
:105A600070479EEA445F07D011EA5E0FBDE8104020
:105A700004BF002100207047BDE8104070B5FFF75B
:105A8000A3FD00BF40DFF63E83F0004110467047A3
:105A90000000E0FF43004FEAD30C4FEA3C0C4340C8
:105AA0001FBF40070CF1605113F0FE4F70471CF010
:105AB000006F03D100200CF0004170470CF0004350
:105AC00043EA507010B540EACC0000F05CFA00BF29
:105AD000000000924FEA0001FFF7C4BD4FF0004103
