:020000040800F2
:10000000E80C00200D2B0008F50A0008F70A00088C
:10001000FB0A0008FF0A0008030B000800000000AC
:10002000000000000000000000000000070B0008B6
:10003000090B0008000000000B0B00080D0B000866
:10004000272B0008272B0008272B0008272B000848
:10005000272B0008272B0008272B0008272B000838
:10006000272B0008272B0008272B0008FB18000867
:10007000272B0008272B0008272B0008272B000818
:10008000272B0008272B0008272B0008272B000808
:10009000272B0008272B0008272B0008272B0008F8
:1000A000272B00088B200008272B0008272B00088F
:1000B000272B0008832100083D200008272B00087B
:1000C000272B0008272B0008272B0008272B0008C8
:1000D000272B0008832A0008272B0008272B00085D
:1000E000272B0008272B0008272B0008272B0008A8
:1000F000272B0008272B0008272B0008272B000898
:10010000272B0008272B0008F11F0008272B0008C9
:10011000272B0008272B000805140008272B0008B0
:10012000272B0008272B0008272B0008272B000867
:1001300000F002F800F03AF80AA090E8000C8244BF
:100140008344AAF10107DA4501D100F02FF8AFF29C
:10015000090EBAE80F0013F0010F18BFFB1A43F0A5
:10016000010318478C700000AC700000103A24BFE7
:1001700078C878C1FAD8520724BF30C830C144BF0C
:1001800004680C607047000000230024002500264E
:10019000103A28BF78C1FBD8520728BF30C148BFEA
:1001A0000B6070471FB51FBD10B510BD04F0BEFE3B
:1001B0001146FFF7F7FF00F009F804F0DCFE03B486
:1001C000FFF7F2FF03BC02F001FC0000CAB002F02E
:1001D00093FB4FF4A06003F03DFA4FF4964002F019
:1001E00004FC01F0DDFEC82002F0C3FB0020FE4944
:1001F0000860FE482A9008202B90FD482C9004208F
:100200002E900120ADF8B400FA48259004202690E5
:10021000F9482790082029904020ADF8A00023231A
:100220004FF6FF7225A92AA800F0ACFD02231E227A
:100230001946032000F06CFD0223322219460320E8
:1002400000F066FDC82002F094FBEC48D0F8A00155
:10025000C043E5490860EA482F9040143090E948CF
:1002600031904FF4C070ADF8C800102033900022D8
:1002700040F60F612FA800F0C1FEC82002F079FB04
:10028000DE48D0F8A001C043D749086004208DF8AB
:10029000800014A8219001208DF888001020239060
:1002A00040F2E730ADF890004720ADF89200012011
:1002B000219908700C202199487007202199887293
:1002C000042021990881CF48219948600220219972
:1002D00008730D2121984173072121988175082108
:1002E00021988182C74921980161032021990876CC
:1002F0000B21219841760721219880F822100221B4
:1003000021980184BF492198C1610420219981F875
:1003100024000E21219880F825100721219880F8CB
:100320002E10102121988185B649219881622822BA
:10033000B54920A801F080F8C82002F01AFBAF48A8
:10034000D0F8A001C043A849086040F6FF70AF4B49
:10035000AF4AB049009043A800F0DCFD0020AE4B4E
:10036000AE4AAF4900903EA800F0D4FD49F64040A7
:10037000A84BAC4AAC49009039A800F0CBFD40F640
:10038000FF70A24BA24AA349009034A800F0C2FD1E
:10039000C82002F0EEFA9948D0F8A001C043924973
:1003A00008600721A14801F0F9FC02F065F841F668
:1003B0001F4140F28F1001F0E9FFC82002F0D9FA86
:1003C0008E48D0F8A001C043874908600CA801F00E
:1003D00051FD0820099088480A904FF48040ADF8FC
:1003E0002C0001208DF82E0009A801F097FD09A826
:1003F00001F0C5FD082006907F4807904FF40040AB
:10040000ADF8200001208DF8220006A801F086FD3D
:1004100006A801F0B4FDC82002F0ABFA7748D0F886
:10042000A001C043704908600120086041F61F41E7
:1004300041F2873001F078FE00207D490880834634
:1004400000277C490870002548907B4908807B493B
:1004500008707B4908707B4908707B4908707B49AC
:1004600008607B4908707B4908707B4908807B499C
:1004700008807B4908707B49087049F640407A49FA
:1004800008807A49088001F044FAEBE27848007865
:1004900018B902F085F96A4908706E48007840B3CF
:1004A000724800884CF2503188421FDA6F48008849
:1004B00048F23521884219DD6C4800886D49088072
:1004C0006A48008805F072FD6B4A6C4BCDE900016B
:1004D00005F0BCFD00226A4BCDE9020105F0DCFF0E
:1004E000CDE9040105F01EFD6649888500205949C3
:1004F00008705748007810B10020554908705148DD
:10050000007810B100204F490870002D69D148983B
:1005100058B140F6B7305C4908800020489004206C
:10052000504908700A204E4908704E48007800284B
:100530000FDD4B4800780B2803D106A801F00FFD12
:1005400016E0474800780A2812D106A801F017FDE6
:100550000EE009A801F003FD06A801F010FD00213E
:1005600049482C3804F0C2F800203049488188817D
:100570003048007880B906A801F001FD09A801F013
:10058000FEFC4248314908604FF0000A4FF0000875
:1005900001203F49086065E226480078012821D102
:1005A000294800780028F6D00120394908603948E8
:1005B000008805F0FBFC384A384BCDE9000105F016
:1005C00045FD374A374BCDE9020105F065FFCDE91E
:1005D000040105F0A7FC84B20423002228210A4864
:1005E00062E0FEE106E10000A0012142000C0040B3
:1005F0000008014000080040000C014000002142BA
:100600000034014000100140A40000208FC2F53BDF
:10061000EC51383DEC51B83D8FC2753D0AD7A33D32
:10062000CDCC4C3E0AD7233E9A99993E88000020B3
:1006300012000020280000201400002004000020E8
:100640000300002005000020060000201C00002000
:1006500002000020010000200E0000200C000020FD
:1006600019000020180000200A00002008000020C7
:1006700000000020160000200AD7A3703D0AB73FF3
:100680000000F03F001000402C040040CDCC4C3F57
:10069000888122422A000020E6797077D65E0340E6
:1006A000185FB4C70B91364001F0F8F906460423F1
:1006B00001222821EC4801F0F1F9EC4908800423DB
:1006C00002222821E84801F0E9F949900423032295
:1006D0002821E54801F0E2F9499805F067FCE44A71
:1006E000E44BCDE9000105F0B1FCE34AE34BCDE971
:1006F000020105F0D1FECDE9040105F0CDF98146F6
:1007000000BFDF480088A04201D0012000E00020A7
:100710008346D648008805F049FCDA4ADA4BCDE931
:10072000020105F093FC0022D84BCDE9040105F04D
:100730008BFD1DD20020D649086009A801F01FFCDE
:1007400006A801F00CFC01250A20D24908700120FE
:10075000D149087041F28730D04908800020CF4944
:10076000083908800121CD482C3803F0BFFF02E092
:100770000020CB494881CB49484606F03BFA10D2CD
:10078000C948006805F072FFC84AC94BCDE90201AB
:1007900005F0B4F9CDE9040105F07EF9C24908601D
:1007A00014E0C049484606F025F90FD2BE4800685B
:1007B00005F05CFFBD4ABE4BCDE9020105F06CFEC1
:1007C000CDE9040105F068F9B7490860B949484620
:1007D00006F044F9059006F0C1F8B1494880084692
:1007E000C680A248008808810020B3490870A44848
:1007F000048037E1B148007802287DD1AE48007806
:100800000028F6D0AE48008805F0D0FBAD4AAE4BCC
:10081000CDE9000105F01AFCAC4AAD4BCDE902016F
:1008200005F03AFECDE9040105F07CFB84B2042317
:10083000002228218C4801F031F9064604230122C8
:100840002821894801F02AF9884908808C480088C5
:10085000A04201D0012000E000208346BBF1000F40
:1008600002D00027BB4605E0642F01DA781C00E0C7
:10087000642087B2642F06DA00208549086009A841
:1008800001F07DFB09E009A801F069FB91480088AF
:100890009149088001207E4908607448008805F06D
:1008A00085FB784A784BCDE9020105F0CFFB0022A9
:1008B000764BCDE9040105F0C7FC23D20020744932
:1008C000086009A801F05BFB06A801F048FB4AF6A6
:1008D000AA207349488101250A206E490870012029
:1008E0006D49087041F287306C49088000206B49DF
:1008F00008390880012100E064E068482C3803F0E2
:10090000F5FE02E000206649488106EB86004FF6BE
:10091000FF7101EA4002214643A800F006FB019066
:1009200005F02DFB6D4A6E4BCDE9020105F08EFB03
:10093000CDE9040105F0B0F88246504605F096FE78
:1009400021F00041674A684BCDE9040105F042FB04
:1009500007D2B8F10A0F06DA08F101001FFA80F891
:1009600001E04FF00008B8F10A0F1BDA51464E487B
:10097000006805F0A7FE4C4908604FF07E514A48D8
:10098000006806F037F904D24FF07E5046490860FF
:1009900008E000214448006806F02CF802D200204C
:1009A000414908603E48C680304800883C4908817B
:1009B000002041490870474800884749088030486E
:1009C00004804FE03D480078032806D1474800786E
:1009D00018B300204549087044E0002037490870EA
:1009E00040E048952B480078002821DD2A4800780F
:1009F000012803D106A801F0B2FA05E026480078E4
:100A000010B906A801F0BBFA012D07D14AF6AA20B9
:100A1000234948811F480078888123E0022D21D195
:100A20004AF6AB201E4948811A480078888119E0AF
:100A300006A801F0A4FA09A801F091FA1A48006882
:100A400005F014FE00222A4BCDE9020105F0FEFA62
:100A5000CDE9040105F020F81349086001200C4994
:100A60000860002512E50000A4000020100000200E
:100A70005AF44E05DCF39C3F22FDF675E09C913F55
:100A8000140000208E75711B0DE0E73F0070974049
:100A90008881224218000020190000202C04004008
:100AA000880000200000F0411C000020FCA9F1D2C9
:100AB0004D62403F0000C842060000202800002090
:100AC0002A000020E6797077D65E0340185FB4C72D
:100AD0000B913640080000201600002074479CA1AE
:100AE000FAFF2F3F2D431CEBE2363A3F0300002074
:100AF0000000E83F704700BFFEE700BFFEE700BF11
:100B0000FEE700BFFEE77047704770477047000080
:100B10000CB50020019000906C48006840F48030D3
:100B20006A49086000BF6948006800F4003000901E
:100B30000198401C0190009818B90198B0F5A06F79
:100B4000F1D16248006800F4003010B1012000903B
:100B500001E0002000900098012843D15C48006823
:100B600040F010005A4908600846006820F0030071
:100B700008600846006840F002000860534840687A
:100B8000524948600846406848600846406840F45A
:100B9000806048600846406820F47C104860084641
:100BA000406840F4E81048600846006840F08070F3
:100BB000086000BF4548006800F000700028F9D0C8
:100BC0004248406820F003004049486008464068B9
:100BD00040F00200486000BF3C48406800F00C0054
:100BE0000828F9D10CBD10B5FFF792FF10BD10B564
:100BF0003648006840F00100344908600846406803
:100C00003449084031494860084600683249084084
:100C10002E4908600846006820F4802008600846D5
:100C2000406820F4FE0048604FF41F008860FFF722
:100C3000DAFF4FF000602949086010BD10B50021AF
:100C400000200022214B5B6803F00C0121B1042934
:100C500006D0082928D107E0214B224C236027E049
:100C60001F4B204C236023E0184B5B6803F470108B
:100C7000164B5B6803F48032022303EB904022B9E9
:100C8000194B4343174C23600DE0104B5B6803F492
:100C9000003323B1144B4343124C236003E0104B49
:100CA0004343104C236003E00D4B0E4C236000BF08
:100CB00000BF064B5B68C3F303130C4CE15C094BAC
:100CC0001B68CB40074C236010BD000000100240A1
:100CD000002002400000FFF8FFFFF6FE08ED00E0F4
:100CE00000127A002C00002000093D003000002096
:100CF0000146072323EA01021202824B18684FF6CD
:100D0000FF031840804B184310437E4B1860704718
:100D10002DE9F0410746884614461D462846FFF750
:100D2000E7FFC5F1040007FA00F60F20284100EAAA
:100D30000800064306F00F06E21704EBD2625211D8
:100D4000920002F1E022D2F800212146E31704EBE1
:100D5000D3635B11A4EB431C012303FA0CF31A4386
:100D60002046E31704EBD3635B119B0003F1E02300
:100D7000C3F800216548005D40EA06106349085544
:100D8000BDE8F0812DE9FC4104460D4617461E469C
:100D90000121206902F0F6F90121286902F0F2F937
:100DA000A089ADF8040028208DF8070003208DF8F5
:100DB0000600A889ADF8000028208DF80300032064
:100DC0008DF8020001A9A06801F020FF6946A8681B
:100DD00001F01CFF0121606802F0E1F9012168685F
:100DE00002F0DDF9206887852068068528688785F8
:100DF000286806852068008B40F001002168088380
:100E00002068008B40F40070216808832068008C03
:100E1000216808842068008C40F020002168088444
:100E20002068008940F0500021680881206800890E
:100E300040F00400216808812068008C40F0010027
:100E4000216808842068008C40F010002168088424
:100E50002868008B40F00100296808832868008B0F
:100E600040F40070296808832868008C2968088489
:100E70002868008C40F020002968088428680089D0
:100E800040F05000296808812868008940F004007B
:100E9000296808812868008C40F0010029680884CE
:100EA0002868008C40F01000296808842068808938
:100EB00040F00200216888812868808940F00200A3
:100EC000296888810121202002F069F94FF6FF701E
:100ED0000F490880081F068000200D490839088046
:100EE00021688884296888842068008840F001008F
:100EF000216808802868008840F00100296808807F
:100F0000BDE8FC810CED00E00000FA0500E400E023
:100F10002C14004030B5039C0025058245824160B9
:100F20008260C36025B2058030BD2DE9FE4F0446C6
:100F30000D46164628B220802088801B07B2B4F9DF
:100F4000120005F02BFD8346E16805F087FD029055
:100F5000B4F9100005F022FD0090A16805F07EFDB7
:100F60000190384605F01AFD0090616805F076FDA5
:100F70008346019905F070FE8246029905F0A2FBB6
:100F8000814605F0CFFC0FFA80F8208A6082278224
:100F90004046BDE8FE8F00210182418270470AB2BF
:100FA000028070477FB505460C460121102002F0F3
:100FB000F6F8ADF80850ADF804400020ADF80A008E
:100FC000ADF8060001A9FE4803F034F80121FC4801
:100FD00003F08CFC01221146F94803F0A2FB3620F5
:100FE0008DF8000003208DF801008DF8020001202B
:100FF0008DF80300684602F032FB7FBD70B58CB0FF
:1010000004460D4616460121606802F0BBF8012136
:10101000206902F0B7F80121084602F0B3F8A08970
:10102000ADF82C0018208DF82F0003208DF82E002D
:101030000BA9A06801F0EAFDADF82450ADF82060DE
:101040000020ADF82600ADF8220008A9206802F0C3
:10105000F1FF6020ADF810000120ADF8120004206F
:10106000ADF814000020ADF81600ADF81800ADF88A
:101070001A00ADF81C00ADF81E004FF40060ADF88A
:1010800000004010ADF802000020ADF80400ADF8FB
:101090000600ADF80800ADF80A00ADF80C0069468E
:1010A000206803F0E3FA04A9206803F042F804A9D9
:1010B000206803F08BF80121206803F023FB08214E
:1010C000206803F04CFC0821206803F055FC012146
:1010D000206803F00BFC002140F60F60FFF762FF71
:1010E0000121B74803F002FB0121206803F0FEFA5A
:1010F0000021206803F094FD0021206803F092FD98
:101100000CB070BD2DE9F04F85B080460C461546F9
:10111000ADBB2088AB4931F91000002816DD2188CD
:10112000A84A32F9110005F039FC8146414605F024
:1011300095FC074605F012FC86B23146A24803F042
:1011400071FD0021A04803F06BFD4FE121889D4A0D
:1011500032F91110484205F021FC8146414605F064
:101160007DFC074605F0FAFB86B23146964803F04F
:1011700059FD4FF46161944803F052FD36E1FFE7F9
:10118000012D7DD120888F4931F91000002879DBAD
:10119000404605F06BFA064600228C4B04F01AFF1D
:1011A00057D22088012802D02088C6281BD1218848
:1011B000844A32F9110005F0F1FB4146039005F035
:1011C0004DFC049005F052FA81460022804B04F059
:1011D0003DFF064604F0A6FE1FFA80FB59467A48FA
:1011E00003F020FD47E02088022802D02088C5288F
:1011F0001CD12188734A32F9110005F0CFFB41461A
:10120000039005F02BFC834605F030FA81464FF041
:101210003332704B04F01AFF064604F083FE80B2AE
:1012200001460490684803F0FDFC24E02188654AEB
:1012300032F9110005F0B2FB8146414605F00EFC83
:10124000074605F08BFB86B231465F4803F0EAFCA7
:1012500011E021885B4A32F9110005F09FFB8146BD
:10126000414605F0FBFB074605F078FB86B23146A8
:10127000554803F0D7FC0021534803F0D1FCB5E0FA
:101280007FE0FFE7404605F0F1F9064600224F4BAC
:1012900004F0A0FE5DD22088C92803D02088B0F5D4
:1012A000C77F1CD12188474A32F91110484205F006
:1012B00075FB4146039005F0D1FB049005F0D6F98B
:1012C00081460022424B04F0C1FE064604F02AFE8D
:1012D0001FFA80FB59463C4803F0A2FC4CE02088F2
:1012E000CA2804D0208840F28D1188421DD121885F
:1012F000344A32F91110484205F050FB4146039040
:1013000005F0ACFB049005F0B1F906464FF033321E
:10131000304B04F09BFE814604F004FE1FFA80FB74
:101320005946294803F07CFC26E02188254A32F9F9
:101330001110484205F032FB8146414605F08EFB14
:10134000074605F00BFB86B231461F4803F068FCE8
:1013500012E021881B4A32F91110484205F01EFBA9
:101360008146414605F07AFB074605F0F7FA86B25A
:101370003146154803F054FC0021134803F052FC99
:1013800034E00021104803F04BFC21880D4A32F96B
:10139000110005F003FB4146019005F05FFB834619
:1013A00005F064F90022094BCDE9020104F04EFE7C
:1013B00006460022084B04F0A1FB81460EE0000027
:1013C00000100040326E0008003401400000E03F91
:1013D0000000F83F3333F33F001C9C4004F0A2FDB3
:1013E00080B201460490104803F01CFC2088401C89
:1013F0004FF4C87190FBF1F201FB1200208005B0A0
:10140000BDE8F08F10B50121084803F038FC48B161
:101410000122074907480068FFF774FE01210348CD
:1014200003F03EFC10BD00000034014000100040FD
:10143000120000201C000020F0B599B004460E46B2
:1014400017460121084601F0AAFE0121084601F0D5
:101450008CFE0121E06801F095FE0121480201F0B7
:1014600091FE4FF4004001F0F1FD208A002801DDDB
:10147000208A01E044F61F60ADF84400608A00282D
:1014800001DD608A00E04720ADF840000020ADF8A3
:101490004600ADF8420010A94FF0804002F0CAFDAE
:1014A0006020ADF830000120ADF83200208A4010F5
:1014B000ADF836000220ADF838000CA9400702F064
:1014C00038FE4FF0804003F045F90821C80603F0CC
:1014D00046FA00214FF0804003F054FBF64803F039
:1014E000E3FBF648009001960020029003970490D9
:1014F00080200590400006908000079020200890F2
:101500000002099000200A906946EB4803F06EFC47
:1015100001220221E84803F0A0FC0B208DF82C00EA
:1015200000208DF82D008DF82E0001208DF82F0061
:101530000BA802F094F800201490207A012800D122
:1015400000E000208DF8540000208DF855004FF485
:10155000C02016900020179020788DF8600014A904
:10156000D6484C3802F091FA00252CE005EB4501F5
:10157000606800EB81000089ADF84C0003208DF815
:101580004E0000208DF84F0005EB4502616801EB2D
:101590008201486813A901F039FB05EB450C60682E
:1015A00000EB8C00837A05EB450C606810F82C206A
:1015B00005EB450C00EB8C004178C0484C3802F03C
:1015C000FCFA681C85B22078A842CFDC0121BB4818
:1015D0004C3802F091FA0121B8484C3802F081FAF7
:1015E000B6484C3802F09FFA00BFB4484C3802F0BD
:1015F0009FFA0128F9D0B1484C3802F0A3FA00BF95
:10160000AE484C3802F0A3FA0128F9D00121AB48CA
:101610004C3802F02EFB0021A8484C3802F061FA49
:1016200000214FF0804003F061F80021A24803F050
:1016300008FC19B0F0BDF0B599B004460E46174647
:101640000121084601F0ABFD0121022001F08DFDD2
:101650000121042001F096FD0121480201F092FDD4
:101660004FF4004001F0F2FC00214FF0804003F005
:101670003DF8208A002801DD208A01E044F61F6041
:10168000ADF84400608A002801DD608A00E0472050
:10169000ADF840000020ADF84600ADF8420010A9BA
:1016A0004FF0804002F0C6FC6020ADF83000012011
:1016B000ADF83200208A4010ADF836000220ADF8B7
:1016C00038000CA9400702F081FD4FF0804003F084
:1016D00041F80821C80603F04FF900214FF080407F
:1016E00003F050FA764803F0DFFA7648009001964E
:1016F00000200290039704908020059040000690FF
:1017000080000790202008900002099000200A9095
:1017100069466B4803F06AFB01220221684803F026
:101720009CFB38208DF82C0000208DF82D008DF8C2
:101730002E0001208DF82F000BA801F090FF002053
:101740001490207A012800D100E000208DF8540088
:1017500000208DF855004FF4C020169000201790FF
:1017600020788DF8600014A954484C3802F08DF9A7
:1017700000252AE045B905EB4501606800EB8100D2
:101780000089ADF84C000AE005EB4501606800EB0C
:1017900081000089BDF84C100843ADF84C0005EB02
:1017A000450C606800EB8C00837A05EB450C6068A3
:1017B00010F82C2005EB450C00EB8C0041783F48DD
:1017C0004C3802F0FAF9681C85B22078A842D1DCC6
:1017D00000208DF84F0013A93B4801F017FA0121B2
:1017E00036484C3802F088F9012134484C3802F070
:1017F00078F932484C3802F096F900BF2F484C383F
:1018000002F096F90128F9D02C484C3802F09AF9E8
:1018100000BF2A484C3802F09AF90128F9D001217A
:1018200026484C3802F025FA002124484C3802F0B2
:1018300058F900214FF0804002F058FF00211E4867
:1018400003F0FFFA19B0F0BD30B587B004460D467D
:10185000A089ADF8040000208DF8070001A9A06858
:1018600001F0D4F9002002908DF80C008DF80D00E5
:101870004FF4602004900020059001208DF818009E
:1018800002A9206802F001F90121206802F029F97B
:10189000206802F048F900BF206802F049F90028EA
:1018A000FAD1206802F04EF900BF206802F04FF92B
:1018B0000028FAD107B030BD080002404C24014096
:1018C000580402404C3C01400008014010B5044659
:1018D000A37B61790122206802F06FF90121206861
:1018E00002F03FF900BF0221206802F0ABFA0028A5
:1018F000F9D0206802F0C8F910BD10B5022003F03D
:10190000DAFA28B1012027490870022003F0E7FA2B
:1019100010BD10B50121244802F0E3F8012123484D
:1019200003F08FFA0121880702F0E0FE10BD10B528
:1019300000211D4802F0D5F800211C4803F081FA6F
:1019400000214FF0804002F0D1FE10BD10B5012102
:10195000174802F0C6F80121144803F072FA012179
:10196000880702F0C3FE10BD10B50021104802F038
:10197000B8F800210D4803F064FA00214FF08040D0
:1019800002F0B4FE10BD10B504460121204602F05D
:10199000A8F810BD10B504460021204602F0A1F8B9
:1019A00010BD000006000020002401400800024095
:1019B000003C014010B504460021204605F01AF90C
:1019C00001D2204610BD84F00040FBE72DE9F84F1E
:1019D00005460E46174698464FF000094FF6FF7A27
:1019E0003C460FE035F81400484502DD35F8149008
:1019F00005E035F81400504501DA35F814A004EB81
:101A0000080084B2B442EDDBA9EB0A0004F0C6FF83
:101A100000900A9905F022F8834604F09FFF80B2F7
:101A2000BDE8F88F2DE9F041044600254FF6FF761A
:101A30000027B446002025E034F81080A84502DDD8
:101A400034F8105005E034F81080B04501DA34F86D
:101A5000106000F1010834F81880B84504DD00F189
:101A6000010834F8187009E000F1010834F8188012
:101A7000E04503DA00F1010834F818C000F102086B
:101A80001FFA88F08842D7DBA5EB0608A2F8008091
:101A9000A7EB0C08A3F80080BDE8F081F0B5044680
:101AA0000D4600270026114606E034F811000644D2
:101AB000781C87B2C81881B2A942F6DBB6FBF7F0F2
:101AC00080B2F0BD70B50446002515801D80002051
:101AD0000CE0158834F81060354415801E88451CCC
:101AE00034F8155035441D80851CA8B28842F0DBBF
:101AF00015884E1095FBF6F515801D884E1095FB48
:101B0000F6F51D8070BD2DE9F84F05460E461746C7
:101B1000012433E035F81400B0422DDB601E35F8A7
:101B20001000B04228DA35F81400811B601E35F829
:101B30001000301A91FBF0FB584604F02FFF82464C
:101B4000FFF738FF81464FF07E5104F0BBFD0146A0
:101B500000904FF07E5004F023FE8046204604F0B3
:101B600035FF8246414604F0ADFD81464FF07E517F
:101B700005F072F8BDE8F88F601C84B2BC42C9DB86
:101B80000020F7E72DE9FF4F85B0834600210C4682
:101B90000D468A4638E0139804F068FDCDE902014D
:101BA0003BF81A200899501A04F0E9F9CDE9000130
:101BB000DDE9022304F04AFA80468946149804F0CD
:101BC00055FDCDE90201069931F81A201299501AF3
:101BD00004F0D5F9CDE90001DDE9022304F036FA7D
:101BE00006460F4632463B464046494604F02EFA2A
:101BF00022462B46CDE9020103F080FF04460D4644
:101C00000AF101001FFA80FA07988245C3DB2046DB
:101C1000294609B0BDE8F08F2DE9F04F87B0804626
:101C20000C4691469A4600251DE038F81510A1EBA8
:101C3000090004F0B3FE5146019004F00FFF834603
:101C400004F014FD00224FF08043CDE9020103F0BF
:101C500021FA32463B46CDE9040103F04FFF064628
:101C60000F46681C85B2A542DFDB204604F09EF9D2
:101C700002460B46CDE904013046394603F0FAFF2F
:101C800006460F463046394607B0BDE8F08F2DE9CD
:101C9000F05F824614469946DDF82CB05B464A4612
:101CA00021465046FFF7B8FF05460E465B464A46BA
:101CB00021465046FFF7B0FF07462A46334604F058
:101CC000C5F9BDE8F09F2DE9F04F85B005460E46F9
:101CD000174600200490DFF884814FF00109824606
:101CE00000241CE03119685C04F070FE414603904A
:101CF00004F0B4FE8346049904F0E4FC04904046EA
:101D000004F0B4FC564A574BCDE9000104F09EF9AB
:101D1000CDE9020103F0C0FE8046601C04B2BC4263
:101D2000E0DB701E04B20CE0285D00FB09A01FFA86
:101D300080FA09EB89004FF6FF7101EA4009601E45
:101D400004B2002CF0DA504604F040FE83460499B9
:101D500004F0B8FC05B0BDE8F08F70B50346002074
:101D6000012400220DE04D1EAD1A5D5D05FB04054A
:101D7000A8B204EB84054FF6FF7606EA4504551C2D
:101D8000AAB28A42EFDB70BD0246002003E00023C6
:101D90001354431C98B28842F9DB70470246002076
:101DA00004E0002322F81030431C98B28842F8DB8C
:101DB000704730B50446187824F810202A48006887
:101DC0001044294D286029480078E0B1187834F88B
:101DD00010002D68281A244D2860284600681044F9
:101DE0002860187824F810201878401C90FBF1F532
:101DF00001FB150018701C480068B0FBF1F080B2C0
:101E00001B4D288030BD184800681044164D2860CE
:101E1000187824F810201D78481E854211D11878B2
:101E2000401C90FBF1F501FB1500187001200F4DCF
:101E300028700D480068B0FBF1F080B20C4D28808E
:101E4000E0E71878401C18701878074D2D68B5FB2E
:101E5000F0F080B2064D2880D4E70000CDCCCC3D18
:101E60009A9999999999B93F44000020400000201F
:101E70004800002000218161C161816041602549E5
:101E8000C1600021416124490161704710B50446D9
:101E9000D4E9061004F0AEFE10D2D4E9010104F03A
:101EA000A9FE05D2E168606804F00CFC20601AE02D
:101EB000E168606804F0D0FE206014E0D4E9061008
:101EC00004F098FD0FD2D4E9010104F093FE05D28D
:101ED000E168606804F0C0FE206004E0E1686068CA
:101EE00004F0F0FB20602169206804F083FE02D238
:101EF0002069206006E06169206804F07BFD01D262
:101F000060692060E069A0616068A060206860602E
:101F100010BD00006F12033A58FF7F3F38B50446EA
:101F20000121206801F02EF92089ADF80000102071
:101F30008DF8030003208DF802006946606800F008
:101F400065FEA07A20B92189606800F00CFF03E0EB
:101F50002189606800F009FF0020E07238BD10B5EB
:101F60000446A07A20B92189606800F0FEFE03E0F3
:101F70002189606800F0F7FE0120E07210BD10B505
:101F80000446A07A20B92189606800F0ECFE03E0E5
:101F90002189606800F0E9FE0020E07210BD0000B9
:101FA00008B50121242001F0EDF84FF48070ADF860
:101FB000000010208DF8030003208DF80200694610
:101FC000094800F023FE4FF48071074800F0CBFE73
:101FD0000420ADF800006946044800F017FE042113
:101FE000024800F0C0FE08BD000801400014014096
:101FF00010B502213E4802F042FE01281DD1032007
:102000003C4908803A4834300088801E84B284B14C
:10201000394804800120394908700021384802F00D
:1020200065FB0021364802F0F5FD0121344802F03D
:102030005DFB02212E4802F033FE10BD10B50221D7
:10204000304802F01CFE01281ED12E483430008892
:10205000801E84B2A4B12C48048001202B49087052
:102060000021274802F042FB254802F0F6FD2849EE
:1020700008800120274908702548008826494881A2
:102080000221204802F00CFE10BD10B501212348AA
:1020900002F0F5FD50B301202149087040F60A20F6
:1020A0001D49088018480088888000F04EFB0024F5
:1020B0000EE0194830F81400000A1A4A02F8140019
:1020C000154810F814106000401C1154601CC4B274
:1020D000072CEEDB134800F0C6FA00F010FB0020DE
:1020E0000F49087001210D4802F0DAFD10BD000013
:1020F000000C004012000020080000200100002019
:1021000000140040000800400A00002002000020E7
:102110000E0000200500002088000020002C014057
:10212000000000206C0000207FB505460C46012110
:10213000022001F034F8ADF80850ADF8044000205A
:10214000ADF80A00ADF8060001A9A74801F072FF3A
:1021500001221146A44802F0E4FA1D208DF8000087
:1021600000208DF8010003208DF8020001208DF879
:102170000300684601F073FA01219B4802F0B6FBA8
:102180007FBD10B50121984802F079FD50B3974802
:102190000078002822DD95480078401E9349087099
:1021A0009348007818B901209149087016E09048CA
:1021B0000078012803D100208D4908700EE08C487A
:1021C00000780A2803D10B208949087006E0884866
:1021D00000780B2802D10A20854908700121824825
:1021E00002F05EFD10BD7FB505460C460121084694
:1021F00000F0D5FFADF80850ADF804400020ADF870
:102200000A00ADF8060001A94FF0804001F012FF6E
:1022100001221146900702F084FA1C208DF800007C
:1022200000208DF801008DF8020001208DF80300D8
:10223000684601F014FA0121880702F057FA7FBDC1
:102240007FB505460C460121042000F0A8FFADF83B
:102250000850ADF804400020ADF80A00ADF80600C3
:1022600001A9644801F0E6FE01221146614802F02E
:1022700058FA1E208DF8000003208DF8010001207F
:102280008DF802008DF80300684601F0E8F97FBD83
:102290007FB505460C460121102000F080FFADF807
:1022A0000850ADF804400020ADF80A00ADF8060073
:1022B00001A9514801F0BEFE01214F4802F016FB72
:1022C000012211464C4802F02CFA36208DF800000D
:1022D00003208DF801008DF8020001208DF8030025
:1022E000684601F0BCF97FBD7FB505460C4601216B
:1022F000202000F054FFADF80850ADF80440002055
:10230000ADF80A00ADF8060001A93C4801F092FEC4
:1023100001221146394802F004FA37208DF80000F6
:1023200001208DF8010000208DF8020001208DF8B9
:102330000300684601F093F97FBD7FB505460C4662
:102340000121480300F02BFFADF80850ADF8044020
:102350000020ADF80A00ADF8060001A9284801F0F8
:1023600069FE01221146264802F0DBF92C208DF887
:10237000000001208DF8010000208DF802000120EE
:102380008DF80300684601F06AF97FBD7FB5054608
:102390000C460121C80200F0F5FEADF80850ADF87A
:1023A00004400020ADF80A00ADF8060001A9154868
:1023B00001F040FE01221146124802F0B2F9192044
:1023C0008DF8000001208DF8010000208DF802003A
:1023D00001208DF80300684601F041F90121094808
:1023E00002F084F97FBD00000004004018000020C6
:1023F00019000020000800400010004000140040B8
:1024000000340140002C014070B50546002405E071
:10241000601CC4B2C82C01DD002070BD0221F74849
:1024200001F0D5FA0028F3D02946F44801F07CFAEF
:10243000002405E0601CC4B2C82C01DD0020ECE7DC
:102440000121EE4801F0C3FA0028F3D0EB4801F077
:102450006DFAC0B2E1E7E94909884FF6C772114049
:10246000E64A118011460988014311801146098806
:1024700041F040011180704700B587B00121142060
:1024800000F080FE012141F2040000F07BFE1C20E0
:10249000ADF8180010208DF81B0003208DF81A00ED
:1024A00006A9D74800F0B2FB1020ADF818008DF84F
:1024B0001B0003208DF81A0006A9D24800F0A6FBE5
:1024C0001021D04800F04FFC0120ADF81800482042
:1024D0008DF81B0003208DF81A0006A9C94800F0EA
:1024E00095FBE020ADF8180018208DF81B000320A4
:1024F0008DF81A0006A9C24800F088FBE021C04808
:1025000000F031FC1E21BE4800F02DFC0020ADF88B
:1025100004004FF48270ADF806000020ADF808000A
:10252000ADF80A00ADF80C004FF40070ADF80E00E5
:102530003820ADF810000020ADF812000720ADF8EB
:10254000140001A9AD4801F019F90121AB4801F0CF
:10255000BAF90020AC4908600120AC49C1F89001EB
:1025600007B000BD2DE9F04107460D461646002094
:10257000A74908603846FFF747FF8046002405E07A
:10258000FF20FFF741FF2855601CC4B2B442F7DBBF
:1025900001209F4908604046BDE8F0812DE9F041E7
:1025A00007460C4615460020994908603846FFF753
:1025B0002BFF8046002605E014F8010BFFF724FFEF
:1025C000701CC6B2AE42F7DB01209149086040465C
:1025D000BDE8F0811CB58FA103C9CDE90001102031
:1025E000FFF739FF052269463020FFF7D7FF0522A4
:1025F00069461020FFF7B6FF002406E01DF804002E
:10260000A52800D003E0601CC4B2052CF6DB00BF97
:10261000052C01D001201CBD0020FCE770B505464B
:102620000C4600207A4908602846FFF7EDFE064672
:102630002046FFF7E9FE01207449C1F890013046B9
:1026400070BD70B504460020714908602046FFF750
:10265000DBFEFF20FFF7D8FE054601206B49C1F8DD
:102660009001284670BD70B505461020FFF7F3FEB7
:102670000020654908600E222946A020FFF78EFF42
:1026800001206649C1F8900100BF61489038006898
:102690000028FAD10720FFF7D4FF0446214627205F
:1026A000FFF7BCFF04F0100028B1FF21E120FFF785
:1026B000B5FF102070BD04F0200008B12020F9E71C
:1026C000FF20F7E770B504461020FFF7C4FE07208F
:1026D000FFF7B7FF054629462720FFF79FFF05F0C4
:1026E000400050B10E2221466120FFF73BFFFF2141
:1026F000E220FFF793FF002070BD0120FCE710B53A
:10270000002041490860052245492A20FFF746FF7D
:1027100001212120FFF782FF01212220FFF77EFF08
:1027200028212520FFF77AFF0E213120FFF776FFC1
:102730000F212620FFF772FF0F212020FFF76EFFE9
:1027400001203649C1F8900110BD10B500202E4976
:102750000860052233493020FFF720FF0522304969
:102760002A20FFF71BFF01212120FFF757FF01213E
:102770002220FFF753FF1A212420FFF74FFF2821C3
:102780002520FFF74BFF0F212620FFF747FF0E21E3
:102790002020FFF743FF01202049C1F8900110BD20
:1027A00010B52148FFF78EFF002868D100240DE006
:1027B0006000401C1C49085C0A4612F8141040EAEC
:1027C00001201A4921F81400601CC4B2072CEFDB69
:1027D0001648008840F60B31884250D10A48103024
:1027E0000068C0430D49C1F8A001104840880A287C
:1027F00020DA00200E4908703FE000000030014060
:1028000000080140001001409001214200002242D6
:1028100090012242A5A5A5A5A50000000000214227
:1028200057710008527100087A00002096000020BD
:102830002800002029484088142807DA0120284968
:102840000870264880882749088016E02348408879
:102850001E2807DA02202249087020488088214972
:1028600008800AE01D484088282806DA03201C4911
:1028700008701A4880881B490880012010BD00207C
:10288000FCE72DE9F04106460F46FFF75EFF002406
:102890000EE0154830F81400000A144A02F814003B
:1028A000114810F814106000401C1154601CC4B290
:1028B000072CEEDB0D48FFF7D6FE0546FFF71FFF9E
:1028C000202D08D10A480068C0430A49C1F8880190
:1028D0000120BDE8F0810020FBE700009600002009
:1028E000280000202A000020880000206C00002022
:1028F000888122420080224210B56FF0040000F06F
:10290000F8FE2E4800682E49B0FBF1F02D49087002
:102910000846007800EB4001C1EBC0104FF6FF7194
:1029200001EAC0002849088010BD0146254A1278F6
:102930004A434FF0E0235A6100229A611A46126915
:1029400042F001021A6100BF4FF0E022106900F06E
:1029500001021AB100F48032002AF5D04FF0E022D3
:10296000126922F001024FF0E0231A6100229A61FD
:1029700070470146144A12884A434FF0E0235A61D7
:1029800000229A611A46126942F001021A6100BFE0
:102990004FF0E022106900F001021AB100F4803219
:1029A000002AF5D04FF0E022126922F001024FF028
:1029B000E0231A6100229A61704700002C00002079
:1029C00000127A004A0000204C000020014600BF9F
:1029D000704700BF494A128802F04002002AF9D02D
:1029E000C2B2464B1B1D1A80704710B586B0044614
:1029F000012144F2040000F0C5FB4FF40070ADF873
:102A0000140003208DF8160018208DF8170005A972
:102A10003B4800F0FBF84FF48060ADF81400042050
:102A20008DF8170005A9364800F0F0F825208DF83C
:102A3000000003208DF801008DF8020001208DF8C0
:102A40000300684600F00BFE01940020ADF808007A
:102A5000ADF80A00ADF80C00ADF810000C20ADF890
:102A60000E0001A9254800F034FC012240F2255156
:102A7000224800F0C6FC0121204800F0B6FC06B058
:102A800010BD10B540F225511C4800F09FFD10B359
:102A90001A4800F01BFDC4B21A48008800F4004038
:102AA000C8B91848008800F4804060B10A2C03D0EF
:102AB00000201449088020E01248008840F40040BB
:102AC0001049088019E00D2C06D10E48008840F40A
:102AD00080400C49088010E00A480088C0F30D00CF
:102AE00009490C5407480088401C064908800846DC
:102AF0000088C72801DD0020088010BD0038014093
:102B00000008014054000020BC0100200948804713
:102B100009480047FEE7FEE7FEE7FEE7FEE7FEE7BF
:102B2000FEE7FEE7FEE7FEE704480549054A064BD7
:102B300070470000EF0B000831010008E802002098
:102B4000E80C0020E8040020E804002010B504464A
:102B5000CC48844208D10121042000F02DFB002143
:102B6000042000F029FB46E0C748844208D1012137
:102B7000082000F021FB0021082000F01DFB3AE0B6
:102B8000C248844208D10121102000F015FB002129
:102B9000102000F011FB2EE0BD48844208D1012135
:102BA000202000F009FB0021202000F005FB22E09E
:102BB000B848844208D10121402000F0FDFA0021EC
:102BC000402000F0F9FA16E0B348844208D1012110
:102BD000802000F0F1FA0021802000F0EDFA0AE0F8
:102BE000AE48844207D10121801500F0E5FA0021AA
:102BF000A01500F0E1FA10BD10B50121084600F063
:102C0000DBFA0021012000F0D7FA10BD2DE9F041D8
:102C1000024600250026002000230024002791F80A
:102C200003C00CF00F0591F803C00CF0100CBCF1C0
:102C3000000F03D091F802C04CEA050591F800C0DE
:102C4000BCF1000F31D0146800202BE04FF0010CD4
:102C50000CFA00F3B1F800C00CEA03069E4220D142
:102C600083004FF00F0C0CFA03F7BC4305FA03FC8A
:102C70004CEA040491F803C0BCF1280F06D14FF0D0
:102C8000010C0CFA00FCC2F814C00AE091F803C071
:102C9000BCF1480F05D14FF0010C0CFA00FCC2F852
:102CA00010C0401C0828D1D31460B1F800C0BCF19A
:102CB000FF0F34DD546800202EE000F1080C4FF0C7
:102CC000010808FA0CF3B1F800C00CEA03069E42B2
:102CD00021D183004FF00F0C0CFA03F7BC4305FA27
:102CE00003FC4CEA040491F803C0BCF1280F05D1A1
:102CF00000F1080C08FA0CF8C2F8148091F803C02F
:102D0000BCF1480F07D100F1080C4FF0010808FA98
:102D10000CF8C2F81080401C0828CED35460BDE8DF
:102D2000F0814FF6FF710180022181700421C17092
:102D300070470246002093680B400BB1012000E071
:102D4000002070470146886880B270470246002024
:102D5000D3680B400BB1012000E000207047014612
:102D6000C86880B2704701617047416170470AB11D
:102D7000016100E041617047C16070474FF48032EB
:102D80000A43826181618261826982697047024679
:102D90000020434B18684FF68073184040EA021039
:102DA00008433F4B186070473E49C8617047F0B513
:102DB0000A46002300240021002500F00046B6F159
:102DC000004F02D1364EF16901E0354E7168C0F313
:102DD000034583B200F44016B6F5401F08D121F038
:102DE00070612F4E766826F070662D4F7E6012E07F
:102DF00000F48016B6F5801F06D1032606FA05F406
:102E0000A14341F0706106E0460D360103FA06F673
:102E1000B14341F0706122B1460D360103FA06F666
:102E2000314300F00046B6F1004F02D11C4EF16173
:102E300001E01B4E7160F0BD30B500228B071C0F06
:102E40000F2303FA04F2164B08338C1053F8243086
:102E50009343134C08348D1044F8253023468C10CE
:102E600053F824308C07240F00FA04F423430C4C4D
:102E700008348D1044F8253030BD0A49DC31086033
:102E80007047000000080140000C014000100140A4
:102E90000014014000180140001C014000200140C6
:102EA0000000014000002042DF48006840F00100BF
:102EB000DD49086008464068DC490840DA49486056
:102EC00008460068DA490840D749086008460068A3
:102ED00020F4802008600846406820F4FE00486026
:102EE0004FF41F0088607047CF49096821F4803192
:102EF000CD4A11601146096821F480211160B0F5B6
:102F0000803F03D0B0F5802F0ED106E0C649096896
:102F100041F48031C44A116007E0C349096841F4B3
:102F2000A021C14A116000E000BF00BF704710B58A
:102F300001460022002300204A11012A02D1BA4C86
:102F4000236806E0022A02D1B74C236A01E0B64C9E
:102F5000636A01F01F02012494401C400CB101205F
:102F600000E0002010BD38B50020009000240025AE
:102F700000BF3120FFF7DBFF05460098401C0090A2
:102F80000098B0F5A06F01D0002DF2D03120FFF7EE
:102F9000CEFF08B1012400E00024204638BD0146E0
:102FA0000020A14A106820F0F80040EAC10010603B
:102FB0007047A04908607047024600209A4B586845
:102FC00020F47C1042EA01031843974B5860704785
:102FD00098490866704701460020934A506820F0DF
:102FE00003000843506070478F48406800F00C00B1
:102FF0007047014600208C4A506820F0F0000843DA
:103000005060704701460020874A506820F4E06015
:1030100008435060704701460020834A506820F4FE
:10302000605040EAC1005060704729B17E4A527A30
:1030300002437D4B5A7204E07B4A527A82437A4BB8
:103040005A7270477B49D8310860704701460020AA
:10305000754A506820F44040084350607047002192
:10306000714A20321170704A82F82010012802D073
:1030700004280AD104E001216B4A2032117005E0D6
:103080000521694A2032117000E000BF00BF70477F
:103090006949086070476449096A0143624A1162DC
:1030A0007047654944390860704730B500210022F7
:1030B000002400235C4D6D6805F00C0121B104294A
:1030C00005D0082923D105E05C4D056022E05B4D69
:1030D00005601FE0544D6D6805F47012524D6D6827
:1030E00005F48034022505EB92421CB9544D55433A
:1030F00005600BE04C4D6D6805F400351DB1504D79
:103100005543056002E04D4D5543056002E04B4DCF
:10311000056000BF00BF444D6D6805F0F00109096E
:10312000484D6B5C0568DD4045603F4D6D6805F4BA
:10313000E061090A434D6B5C4568DD4085603A4DAE
:103140006D6805F46051C90A3E4D6B5C4568DD4011
:10315000C560354D6D6805F44041890B3A4D6B5C97
:10316000C568B5FBF3F5056130BD29B12E4A52693A
:1031700002432D4B5A6104E02B4A526982432A4B89
:103180005A61704729B1284A92690243264B9A61D5
:1031900004E0254A92698243234B9A61704729B122
:1031A000214AD2690243204BDA6104E01E4AD26907
:1031B00082431D4BDA61704729B11B4AD268024332
:1031C000194BDA6004E0184AD2688243164BDA6081
:1031D000704729B1144A12690243134B1A6104E083
:1031E000114A12698243104B1A61704712494039E3
:1031F000086070470F49C86470470B49C871704731
:103200000948406A40F080700749486270470146AB
:103210000020054A92680A400AB1012000E000201F
:103220007047014988727047001002400000FFF8A3
:10323000FFFFF6FE000042428004424200127A0084
:1032400000093D00560000206600002010B504462D
:10325000FB48844209D101218803FFF7ADFF00211B
:103260004FF48040FFF7A8FF32E0F648844209D1CE
:1032700001214804FFF7ADFF00214FF40030FFF7B4
:10328000A8FF25E0F048844209D101218804FFF716
:10329000A0FF00214FF48020FFF79BFF18E0EB48D0
:1032A000844209D10121C804FFF793FF00214FF4A4
:1032B0000020FFF78EFF0BE0E548844208D1012192
:1032C0000805FFF786FF00214FF48010FFF781FF0C
:1032D00010BD2DE9F04786B005460E460024A246F3
:1032E00000BFA1460027B08900B100BF2F462C8A3D
:1032F0004CF6FF700440F08804432C82AC894EF6F3
:10330000F3100440B08831890843718908430443AD
:10331000AC81AC8A4FF6FF400440B0890443AC82D4
:1033200001A8FFF7C2FEC648874202D1DDF810A00F
:1033300001E0DDF80CA0A88900F4004040B10AEBE0
:10334000CA0000EB0A1031684900B0FBF1F807E051
:103350000AEBCA0000EB0A1031688900B0FBF1F8F3
:103360006420B8FBF0F004012009642101FB1089FE
:10337000A88900F4004040B1322000EBC900B0FB46
:10338000F1F000F00700044308E0322000EB0910E0
:103390006421B0FBF1F000F00F0004432C8106B073
:1033A000BDE8F0874FF41651016000218180C18093
:1033B00001810C21418100218181704710B50246B5
:1033C0000020108A4FF2FF0318400B884C882343DB
:1033D0008C882343CC8823431843108210BD0021DE
:1033E000018041808180C180704721B1828942F48F
:1033F0000052828104E082894DF6FF731A40828177
:103400007047F0B50346002400260025002040F652
:103410006A17B94200D100BF1846C1F3421401F047
:103420001F06012707FA06F5012C01D10C3004E034
:10343000022C01D1103000E014301AB107682F437C
:10344000076002E00768AF430760F0BD1AB1838AE6
:103450000B43838202E0838A8B4383827047028A14
:103460004FF6F0731A400282028A0A4302827047C2
:1034700082894FF2FF731A40828182890A438281D6
:10348000704721B1828942F00202828104E0828980
:103490004FF6FD731A4082817047028A4FF6DF7340
:1034A0001A400282028A0A430282704721B1028ACC
:1034B00042F48042028204E0028A4BF6FF731A4013
:1034C00002827047C1F308028280704701468888F3
:1034D000C0F308007047818941F001018181704784
:1034E000028BD2B20283028B42EA0122028370472E
:1034F000028B02F47F420283028B0A4302837047ED
:1035000021B1828A42F02002828204E0828A4FF650
:10351000DF731A408282704721B1828A42F0100222
:10352000828204E0828A4FF6EF731A4082827047EB
:1035300021B1828A42F00802828204E0828A4FF638
:10354000F7731A408282704721B1828942F40042A7
:10355000828103E08289C2F30E028281704721B129
:10356000828A42F40062828204E0828A4FF2FF7310
:103570001A4082827047828A4FF6FB731A40828219
:10358000828A0A438282704721B1828A42F0020213
:10359000828204E0828A4FF6FD731A40828270476D
:1035A00002460020B1F5007F00D100BF13880B4018
:1035B0000BB1012000E00020704701F40072B2F569
:1035C000007F00D100BFCA430280704770B5024639
:1035D000002400230025002040F66A16B14200D1E5
:1035E00000BFC1F3421501F01F03012606FA03F3E1
:1035F000012D02D19689334006E0022D02D1168AB0
:10360000334001E0968A33400C12012606FA04F496
:103610001688344013B10CB1012000E0002070BDC9
:1036200010B50022002340F66A14A14200D100BF69
:103630000A1201249440A3B2DC43048010BD0000B0
:10364000003801400044004000480040004C004069
:103650000050004031490143314A1160704770B554
:10366000002100230F22C47804B32D4C246804F4F5
:10367000E064C4F5E064210AC1F10403CA4044785F
:1036800004FA03F18478144021430901254C06789B
:10369000A155047804F01F050124AC4005786D1194
:1036A000AD0005F1E025C5F8004109E0047804F01B
:1036B0001F050124AC401C4D0678761145F82640C4
:1036C00070BD1A4A0A400243154B1B1F1A6070470F
:1036D00039B1134A121D12680243114B1B1D1A60A7
:1036E00006E00F4A121D126882430D4B1B1D1A6023
:1036F0007047042808D14FF0E021096941F0040126
:103700004FF0E022116107E04FF0E021096921F05C
:1037100004014FF0E0221161704700000000FA053B
:103720000CED00E000E400E080E100E080FFFF1F1E
:1037300010B50446BE48844208D101218014FFF729
:103740003BFD0021A014FFF737FD16E0B948844285
:1037500008D101210014FFF73CFD00212014FFF7E0
:1037600038FD0AE0B448844207D10121C013FFF7B5
:1037700030FD0021E013FFF72CFD10BD10B5002235
:10378000028802F441520B884C8823438C882343DF
:10379000CC8823430C8923434C8923438C892343BE
:1037A000CC8923431A430280838B4FF2FF7423405A
:1037B00083830B8A038210BD2DE9F04F85B0054647
:1037C0000C464FF0000902274FF000084FF0010BA4
:1037D0000026B246A88B4FF240010840A883022081
:1037E0002884B5F81C90A068022801D100BF38E0F9
:1037F000A08810B94FF0010B01E04FF0020B8D488B
:10380000854200D100E000BF6846FFF74EFCDDF8BE
:1038100000A0E088B0F5007F0AD14FEA1A2000EB43
:1038200080004000A168B0FBF1F0401D86B20BE0C3
:103830004FEA4B10BAFBF0F000EB80004000A168AB
:10384000B0FBF1F0401D86B20A20B6FBF0F606F0A0
:103850000108A6EB0800C0F34F074FF6FF7000EA1F
:103860000828022F01DBFF2F02DD02274FF000089E
:10387000E08840EA080038432884A088A1890843EA
:10388000618808432188084340F4006040EA090940
:10389000A5F81C9005B0BDE8F08F002101804180A3
:1038A0008180C180018141818181C18107210182A3
:1038B00070470021018041808180C18002218160A8
:1038C00000218181704721B1028842F040020280CC
:1038D00004E002884FF6BF731A400280704721B19E
:1038E000828B42F48062828304E0828B4FF6FF3346
:1038F0001A408283704730B5002400230C11012543
:10390000A540ABB21AB185881D43858002E0858849
:103910009D43858030BD1AB183880B43838002E0CC
:1039200083888B43838070478181704701468889F3
:1039300070474FF6FF62914204D0028842F48072D1
:10394000028004E002884FF6FF631A40028070474D
:1039500021B1828842F00402828004E082884FF61E
:10396000FB731A408280704702884FF2FF731A403F
:10397000028002880A4302807047018841F4805126
:103980000180704721B1028842F40052028004E0B5
:1039900002884DF6FF731A400280704702460020ED
:1039A000012901D0108B00E0908A70470146088AF7
:1039B0007047B1F5804F04D1028842F48042028002
:1039C00004E002884BF6FF731A40028070470246FB
:1039D000002013890B400BB1012000E0002070474C
:1039E000CA4302817047F0B502460020002400233C
:1039F000002501F00F070126BE40B4B20B110126CD
:103A00009E40B3B2968806EA03051689264016B191
:103A10000DB1012000E00020F0BD10B5002201F042
:103A20000F040123A3409AB2D343038110BD0000C9
:103A30000030014000380040003C004010B5044612
:103A4000FA48844208D101214015FFF7B5FB002157
:103A50006015FFF7B1FB17E0F548844208D101215A
:103A60000015FFF7A9FB00212015FFF7A5FB0BE0D0
:103A7000F048844208D10121C803FFF79DFB0021D3
:103A80004FF40040FFF798FB10BD30B50246002010
:103A900000235068E84C20400D790C6844EA052466
:103AA000204350609068E54C2040D1E902542C43FB
:103AB0004D7944EA450420439060D06A20F47000B8
:103AC0000C7C641EE4B2234340EA0350D06230BD54
:103AD00000210160017141718160C16001210174A7
:103AE000704721B1826842F00102826003E082687F
:103AF00022F001028260704721B1826842F4807234
:103B0000826003E0826822F480728260704710B5A0
:103B10000023CBB21AB144681C43446002E04468FD
:103B20009C43446010BD816841F00801816070478A
:103B3000014600208A6802F008020AB1012000E074
:103B400000207047816841F00401816070470146A0
:103B500000208A6802F004020AB1012000E000207F
:103B6000704721B1826842F4A002826003E082685B
:103B700022F4A00282607047014600208A6802F4A5
:103B800080020AB1012000E00020704710B50A460B
:103B900000210023416821F46041531E41EA433172
:103BA000416010BD21B1426842F40062426003E00E
:103BB000426822F4006242607047F0B504460D4648
:103BC00000200021092D11DDE068A5F10A0606EBB1
:103BD0004607072606FA07F18843A5F10A0606EB11
:103BE000460603FA06F10843E0600CE0206905EBA5
:103BF0004507072606FA07F1884305EB450603FA51
:103C000006F108432061072A0FDA606B561E06EBA7
:103C100086071F2606FA07F18843561E06EB86061E
:103C200005FA06F10843606322E00D2A0FDA206BE3
:103C3000D61F06EB86071F2606FA07F18843D61F14
:103C400006EB860605FA06F10843206310E0E06AF9
:103C5000A2F10D0606EB86071F2606FA07F1884338
:103C6000A2F10D0606EB860605FA06F10843E062AE
:103C7000F0BD21B1826842F48012826003E0826864
:103C800022F48012826070470146C86C80B270478F
:103C900066484C300068704721B1426842F4806247
:103CA000426003E0426822F480624260704721B1C2
:103CB000426842F48052426003E0426822F480523B
:103CC000426070470A460021816821F4E0411143B7
:103CD0008160704721B1826842F40042826003E053
:103CE000826822F400428260704721B1826842F407
:103CF0000212826003E0826822F40212826070473E
:103D0000014600208A6802F400120AB1012000E096
:103D100000207047F0B5044615460020002200261A
:103D2000092911DDE068A1F10A0707EB470C072715
:103D300007FA0CF29043A1F10A0707EB470703FAD1
:103D400007F21043E0600CE0206901EB410C07270B
:103D500007FA0CF2904301EB410703FA07F2104314
:103D60002061A06BC0F30156EF1C06F1010CA7EB1C
:103D70000C0707EB870C1F2707FA0CF29043EF1C88
:103D800006F1010CA7EB0C0707EB870701FA07F216
:103D90001043A063F0BD10B50A4600210023816BDB
:103DA00021F44011531E41EA0351816310BD08B54F
:103DB000002300930090009B0B440093009B1A602B
:103DC00008BD08B5024600200090009201F12800CD
:103DD000009B184400900098006880B208BD0A4615
:103DE00000214168164B1940114341607047416200
:103DF000826270470A460021416821F01F01114389
:103E00004160704740B109490831096841F4000137
:103E1000064A0832116007E004490831096821F4B4
:103E20000001024A0832116070470000002401407E
:103E300000280140003C0140FFFEF0FFFDF7F1FFCC
:103E4000FFFD3FFF0246002013680B400BB101202D
:103E500000E000207047CA430260704770B5024618
:103E60000020002300240B125568CEB205EA060498
:103E700015681D4015B10CB1012000E0002070BD97
:103E800000220A12D34303607047000010B50446B5
:103E9000FE48844208D10121C014FFF78DF90021AA
:103EA000E014FFF789F9C4E0B4F1804F08D1012193
:103EB0000846FFF78EF900210120FFF78AF9B8E0E4
:103EC000F348844208D101210220FFF782F9002142
:103ED0000220FFF77EF9ACE0EE48844208D10121D0
:103EE0000420FFF776F900210420FFF772F9A0E023
:103EF000E948844208D101210820FFF76AF900212E
:103F00000820FFF766F994E0E448844208D10121D3
:103F10001020FFF75EF900211020FFF75AF988E022
:103F2000DF48844208D101212020FFF752F9002107
:103F30002020FFF74EF97CE0DA48844208D10121C5
:103F40004014FFF739F900216014FFF735F970E0EC
:103F5000D548844209D10121C804FFF72DF9002179
:103F60004FF40020FFF728F963E0D048844209D1DC
:103F700001210805FFF720F900214FF48010FFF719
:103F80001BF956E0CA48844209D101214805FFF7D0
:103F900013F900214FF40010FFF70EF949E0C5486E
:103FA000844208D101214020FFF713F9002140206D
:103FB000FFF70FF93DE0C048844208D1012180207D
:103FC000FFF707F900218020FFF703F931E0BB4834
:103FD000844208D101218015FFF7FBF80021A015CC
:103FE000FFF7F7F825E0B648844209D1012108041B
:103FF000FFF7E2F800214FF48030FFF7DDF818E01A
:10400000B048844209D101214804FFF7D5F80021C6
:104010004FF40030FFF7D0F80BE0AB48844208D1F2
:1040200001218804FFF7C8F800214FF48020FFF732
:10403000C3F810BD00220288944B98420ED0994BD1
:1040400098420BD0B0F1804F08D0914B984205D0E8
:10405000904B984202D0904B984204D14FF68F7308
:104060001A404B881A438D4B984207D08C4B98428C
:1040700004D04FF6FF431A40CB881A4302808B8846
:1040800083850B880385814B98420BD0854B9842E2
:1040900008D08B4B984205D08A4B984202D08A4B6D
:1040A000984201D10B7A038601238382704770B551
:1040B000002400220023058C4FF6FE76354005844F
:1040C000028C8388048B4FF68F752C40B51E2C40D4
:1040D0000D882C43751E2A400D892A434D882A439A
:1040E0006A4DA8420BD06F4DA84208D0744DA8422B
:1040F00005D0744DA84202D0734DA84213D14FF69B
:10410000F7752A404D892A434FF6FB752A408D8862
:104110002A434FF6FF652B404FF6FF552B408D8904
:104120002B43CD892B4383800483CD8885860284ED
:1041300070BD70B5002400220023058C4FF6EF7689
:1041400035400584028C8388048B48F6FF752C402B
:104150004FF6FF452C400D884FF6FF7606EA052501
:104160002C434FF6DF752A400D8906EA05152A43D0
:104170004D8806EA05152A43444DA84202D0494D10
:10418000A8421DD14FF67F752A404D894FF6FF7624
:1041900006EA05152A434FF6BF752A408D8806EAC0
:1041A00005152A434FF6FF352B404FF2FF752B4084
:1041B0008D8906EA85052B43CD8906EA85052B43C3
:1041C00083800483CD880587028470BD70B5002488
:1041D00000220023058C4FF6FF6635400584028CD3
:1041E0008388848B4FF68F752C404FF6FC752C40DE
:1041F0000D882C434FF6FF552A400D894FF6FF7668
:1042000006EA05252A434D8806EA05252A431F4D5F
:10421000A84202D0234DA8421DD14FF2FF752A407B
:104220004D894FF6FF7606EA05252A434FF6FF35FE
:104230002A408D8806EA05252A434EF6FF752B4055
:104240004DF6FF752B408D8906EA05152B43CD8968
:1042500006EA05152B4383808483CD8885870284F5
:1042600070BD70B5002200230024058C4EF6FF7649
:1042700035400584038C8488828B48F6FF752A407C
:104280004FF6FF452A400D8820E00000002C014039
:104290000004004000080040000C004000100040F6
:1042A0000014004000340140004C01400050014027
:1042B0000054014000180040001C00400020004055
:1042C0000040014000440140004801404FF6FF76A5
:1042D00006EA05252A434DF6FF752B400D8906EAAF
:1042E00005352B434D8806EA05352B43FA4DA84288
:1042F00002D0FA4DA84208D14BF6FF752C408D89AB
:104300004FF6FF7606EA85152C4384808283CD889C
:10431000A0F84050038470BD828B4FF2FF331A40E7
:104320008283828B4FF6FF7303EA01231A43828351
:104330007047F0B50C461546002200210026078C78
:104340004EF6FF7C07EA0C070784828B018C4FF640
:10435000FF7707EA043640F6FF473A404FF6FF770B
:1043600007EA05273A434FF6FF7707EA03373A4350
:10437000D94FB8420ED0D94FB8420BD0B0F1804FD0
:1043800008D0D74FB84205D0D64FB84202D0D64F4A
:10439000B84206D14DF6FF77394046F4805739438D
:1043A00005E047F6FF57394044F48057394382838C
:1043B0000184F0BD828B4FF6F3731A408283828BA7
:1043C0000A4382837047F0B50C461546002200214F
:1043D0000026078C4FF6FF6C07EA0C070784828BD8
:1043E000018C4FF6FF7707EA04264FF60C773A4028
:1043F0004FF6FF7707EA03172F433A43B64FB84209
:104400000ED0B64FB8420BD0B0F1804F08D0B44FA9
:10441000B84205D0B34FB84202D0B34FB84206D12C
:104420004FF6FF57394046F48077394305E04FF2A5
:10443000FF57394044F48077394382830184F0BDCB
:10444000028B4FF2FF331A400283028B4FF6FF7349
:1044500003EA01231A4302837047F0B50C46154660
:10446000002200210026078C4FF6EF7C07EA0C079C
:104470000784028B018C4FF6FF7707EA041640F69B
:10448000FF473A404FF6FF7707EA03373A434FF6C4
:10449000FF7707EA05273A438F4FB8420ED08F4F78
:1044A000B8420BD0B0F1804F08D08D4FB84205D044
:1044B0008C4FB84202D08C4FB84206D14FF6DF770E
:1044C000394046F01007394305E04FF65F77394031
:1044D00044F01007394302830184F0BD028B4FF68C
:1044E000F3731A400283028B0A4302837047F0B5CC
:1044F0000C46154600220021068C4FF6FE773E4002
:104500000684028B018C4FF60C7632407E1C06EA44
:1045100003162E433243704EB0420ED06F4EB0425F
:104520000BD0B0F1804F08D06D4EB04205D06D4E2B
:10453000B04202D06C4EB04206D14FF6FD7631400B
:1045400044F00106314305E04FF6F576314044F082
:104550000106314302830184F0BD70B505460C4667
:104560005D4885420ED05D4885420BD0B5F1804F45
:1045700008D05B48854205D05A48854202D05A4847
:10458000854200D100E000BF208850B92389A2886D
:1045900061882846FFF7ABFFE1882846FFF79EFFBA
:1045A00025E0208804280AD12389A288618828462A
:1045B000FFF753FFE1882846FFF742FF17E0208806
:1045C00008280AD12389A28861882846FFF7FBFEC4
:1045D000E1882846FFF7EEFE09E02389A28861887A
:1045E0002846FFF7A6FEE1882846FFF795FE70BD36
:1045F0002DE9F04105460C4600260127608808B9E0
:10460000022600E00026A088012801D1022700E050
:1046100001272088A0B92389A28861882846FFF74E
:1046200066FFE1882846FFF759FF23893A4631465D
:104630002846FFF712FFE1882846FFF701FF13E045
:104640002389A28861882846FFF707FFE18828466A
:10465000FFF7F6FE23893A4631462846FFF747FF23
:10466000E1882846FFF73AFFBDE8F0810A884B88C9
:104670001A438B881A43CB881A430B891A434B89F8
:104680001A438B891A43A0F8442070474FF6FF71F4
:10469000818000210180C18041800172704700212A
:1046A000018041808180C180018141818181C181FE
:1046B0007047002101804180012181800021C1805B
:1046C000018170470021018041808180C18001818A
:1046D0004181818170470000002C0140003401407D
:1046E0000004004000080040000C004021B1028896
:1046F00042F00102028004E002884FF6FE731A4085
:104700000280704731B1B0F8442042F40042A0F872
:10471000442005E0B0F84420C2F30E02A0F8442083
:1047200070471AB183890B43838102E083898B43ED
:10473000838170478182704741EA0203A0F84830C4
:1047400070471AB183890B43838102E083898B43CD
:104750008381704701894FF6F872114001817047DB
:104760000A46002101894FF68F73194011430181D8
:10477000704730B504460D4629462046FFF7F0FF46
:10478000208940F00700208130BD2DE9F04104462A
:104790000D4616461F46602D06D13B460122314686
:1047A0002046FFF75AFE05E03B46012231462046EF
:1047B000FFF79DFE29462046FFF7D2FF208940F0F3
:1047C00007002081BDE8F08130B50C460021018949
:1047D000C9B24FF6FF7505EA032515432543294362
:1047E000018130BD2DE9F04105460E461746984639
:1047F000002443463A4631462846FFF7E5FF2C8918
:104800004FF6F870044044F007044FF68F700440F0
:1048100044F070042C81BDE8F081F0B504460D46EB
:1048200016461F463B46324629462046FFF7CCFF38
:10483000208940F480402081F0BD0185828270474C
:104840000A46002101884FF68F73194011430180F9
:104850007047F0B50C4615461E4600210022002385
:104860000189028B038C4FF6F877394021434FF6CC
:10487000FC473A4040F201173A434FF6DD773B40A0
:104880004FF6FF7707EA06172F433B430181028368
:104890000384F0BD0A460021018B4FF68F73194047
:1048A0001143018370470A460021018B48F6FF73CC
:1048B00019404FF6FF7303EA02231943018370473F
:1048C0000A460021818B4FF68F7319401143818373
:1048D00070470A460021818B48F6FF7319404FF656
:1048E000FF7303EA022319438183704721B10288D1
:1048F00042F08002028004E002884FF67F731A4083
:104900000280704721B1828842F00402828004E074
:1049100082884FF6FB731A408280704721B18288EB
:1049200042F00802828004E082884FF6F7731A4052
:104930008280704721B1828842F00102828004E0C7
:1049400082884FF6FE731A40828070470A46002123
:10495000018B4FF6F77319401143018370470A46E4
:104960000021018B4FF2FF7319404FF6FF7303EAEA
:1049700002231943018370470A460021818B4FF6B9
:10498000F77319401143818370470A460021818BD8
:104990004FF2FF7319404FF6FF7303EA02231943E6
:1049A000818370470A460021018B4FF6FB73194043
:1049B0001143018370470A460021018B4FF6FF33F4
:1049C00019404FF6FF7303EA02231943018370472E
:1049D0000A460021818B4FF6FB73194011438183F6
:1049E00070470A460021818B4FF6FF3319404FF67E
:1049F000FF7303EA02231943818370470A460021AB
:104A0000018B4FF67F7319401143018370470A46AB
:104A10000021018BC1F30E014FF6FF7303EA02235D
:104A20001943018370470A460021818B4FF67F733B
:104A300019401143818370470A460021818BC1F3DD
:104A40000E014FF6FF7303EA022319438183704777
:104A50000A460021018C4FF6FD7319401143018471
:104A600070470A460021018C4FF6F7731940114335
:104A7000018470470A460021018C4FF6DF7319400C
:104A80004FF6FF7303EA02131943018470470A4685
:104A90000021018C4FF67F7319404FF6FF7303EA34
:104AA00002131943018470470A460021018C4FF616
:104AB000FF5319404FF6FF7303EA022319430184A1
:104AC00070470A460021018C4FF2FF7319404FF6E0
:104AD000FF7303EA02231943018470470A46002149
:104AE000018C4DF6FF7319404FF6FF7303EA023352
:104AF00019430184704730B5002301248C40A3B2D0
:104B0000048C9C430484048C02FA01F5ADB22C435E
:104B1000048430BD30B5002304248C40A3B2048C3F
:104B20009C430484048C02FA01F5ADB22C43048446
:104B300030BD70B50346002000241846183001250A
:104B40008D40ACB21D8CA5431D8409B1082909D143
:104B500000EB6100056825F07005056005681543E8
:104B600005600EE00D1FC5F34E052844056825F4C9
:104B7000E045056005684FF6FF7606EA02263543F4
:104B8000056070BD21B1028842F00202028004E09B
:104B900002884FF6FD731A400280704721B10288E7
:104BA00042F00402028004E002884FF6FB731A40D0
:104BB0000280704721B1828842F08002828004E046
:104BC00082884FF67F731A408280704702884FF6C2
:104BD000F7731A40028002880A4302807047828875
:104BE0004FF68F731A40828082880A438280704712
:104BF00002894FF6F8731A40028102890A43028142
:104C0000704702894FF67F731A40028102890A4376
:104C10000281704781847047818570478186704723
:104C20000187704781877047A0F84010704702885D
:104C30004FF6FF431A40028002880A430280704701
:104C40000146888E70470146088F70470146888F5D
:104C500070470146B1F8400070470146888C7047A4
:104C60000146088D704702460020138A0B400BB1A5
:104C7000012000E000207047CA430282704730B52F
:104C80000246002000230024158A05EA01039589C5
:104C900005EA010413B10CB1012000E0002030BD91
:104CA000CA4302827047000001684FF6FE7211404D
:104CB00001600021016041608160C1608D498842CE
:104CC00008D18C490839496841F00F01894A083AEE
:104CD00051608AE087491431884208D185490839F2
:104CE000496841F0F001834A083A51607DE081490A
:104CF0002831884208D17F490839496841F47061F8
:104D00007C4A083A516070E07A493C31884208D1C7
:104D100078490839496841F47041764A083A516047
:104D200063E074495031884208D1724908394968B2
:104D300041F470216F4A083A516056E06D49643180
:104D4000884208D16B490839496841F47001694AC1
:104D5000083A516049E067497831884208D165498D
:104D60000839496841F07061624A083A51603CE094
:104D70006149884206D1011F096841F00F01021FF5
:104D8000116032E05C491431884208D15A49091F48
:104D9000096841F0F001584A121F116025E0564998
:104DA0002831884208D15449091F096841F47061CB
:104DB000514A121F116018E04F493C31884208D116
:104DC0004D49091F096841F470414B4A121F116097
:104DD0000BE049495031884207D14749091F09680A
:104DE00041F47021444A121F1160704710B500222F
:104DF000026847F6F0739A430C6A8B6823430C6988
:104E000023434C6923438C692343CC6923434C6A75
:104E100023438C6A23431A430260CB6843600B68C8
:104E200083604B68C36010BD0021016041608160F8
:104E3000C160016141618161C16101624162816260
:104E4000704721B1026842F00102026004E002688A
:104E50004FF6FE731A40026070471AB103680B43A5
:104E6000036002E003688B43036070474160704752
:104E70000146486880B2704701460020002201F0D8
:104E800080531BB11C4B083B1A6802E0194B083BCE
:104E90001A6802EA01030BB1012000E0002070470C
:104EA00000F0805119B11449091F086002E011494E
:104EB00008394860704701460020002201F0805305
:104EC0001BB10D4B083B1A6802E00A4B083B1A68FD
:104ED00002EA01030BB1012000E00020704700F05E
:104EE000805119B10449091F086002E001490839DD
:104EF000486070470800024008040240704770474D
:104F000070477047704710B500F008F8006810BD92
:104F100010B5044600F002F8046010BD0048704768
:104F20008402002000487047840200207546FFF785
:104F3000F9FFAE4605006946534620F00700854656
:104F400018B020B5FDF7F0FDBDE820404FF0000699
:104F50004FF000074FF000084FF0000B21F0070161
:104F6000AC46ACE8C009ACE8C009ACE8C009ACE8A4
:104F7000C0098D4670470446AFF300802046FBF71A
:104F80001EF9490050EAC12018BF04204A0D18BF7D
:104F900040F0010040F2FF72B2EB515F08BF40F0F9
:104FA0000200012808BF052070472DE9F0414F1E7F
:104FB00000EBC7010446D1E9000115461E4637F053
:104FC00006020DD02A46334601F040F87F1E04EB5E
:104FD000C703D3E9002300F091FD37F00602F1D1B9
:104FE000022F25D0042F13D0062F18BFBDE8F08163
:104FF0002A46334601F02AF8D4E90A2300F07EFD60
:105000002A46334601F022F8D4E9082300F076FD61
:105010002A46334601F01AF8D4E9062300F06EFD63
:105020002A46334601F012F8D4E9042300F066FD65
:105030002A46334601F00AF8D4E9022300F05EFD67
:105040002A46334601F002F8D4E90023BDE8F041D6
:1050500000F054BD002213461046014900F00ABE7C
:105060000000F03F00F04ABD0022134610461146F2
:1050700000F000BE40F2013200204FF0E04101F0AC
:1050800092BE0000024A0020110701F08CBE000011
:1050900001FDFFFF2DE9F04D16460F4694B01C466A
:1050A00021F0004123F00042002814BF4FF0010C12
:1050B0004FF0000C0CEB470CFE4B0CEB03054FEADA
:1050C000630C65452BD3350018BF012505EB44055E
:1050D0001D44F94B9D4222D3F84B52EA060C02D0F4
:1050E0009F4205D148B914B000201946BDE8F08DA3
:1050F000002808BF4FF0000C01D04FF0010C0CEB62
:10510000470313F5001F0AD8002E14BF4FF0010CFF
:105110004FF0000C0CEB440313F5001F07D914B03B
:10512000324623463946BDE8F04DFFF79BBFDFF816
:1051300090834FF0000A002FB8BF424523DAE14BBD
:105140009A42A8BF4FF0020A1DDADC4B93421ADCE8
:10515000DD4B03EB2253142B08DDC3F1340C26FA8C
:105160000CF303FA0CFCB4450DD108E05EB9C3F1B1
:10517000140C22FA0CF303FA0CFC944503D103F04F
:105180000103C3F1020A51EA00031BD1002C19DA12
:10519000002F18BFBAF1020F02D0BAF1010F07D0E9
:1051A0000220FFF7B5FE14B0BDE8F04DFFF752BF87
:1051B0000220FFF7ADFEFFF74DFF14B081F0004174
:1051C000BDE8F08D330070D1424525D107F1804212
:1051D00012F5801201BF00280020B84914B008BFA2
:1051E000BDE8F08DB548884207DC002CA1BF184609
:1051F000214614B0BDE8F08D07E0002CBFBF184673
:1052000084F0004114B0BDE8F08DB0497944D1E993
:10521000000114B0BDE8F08DDFF8A0C262452AD1CC
:10522000002C24DA39B1414517D1002804BF0020F1
:1052300002461CD106E040B10220FFF769FEFFF7ED
:1052400019FF0A46394600F0D7BA9D4A394614B0CC
:10525000002062F31E01BDE8F08D08DA14B03B4671
:10526000BDE8F04D02460020614600F003BD14B0D9
:105270003946BDE8F08D414517DAB4F1804F0CD0C6
:10528000A4F10053B3F1FF530FD13B1E0DDB14B05B
:105290001946BDE8F04D00F0D9BB3B4614B00246BC
:1052A000BDE8F04D194600F0D1BE050027F00043DF
:1052B0003AD1E1B1414537D1002F06DD002CA1BF25
:1052C0000020414614B0BDE8F08D002F01DD002C18
:1052D0001FDB002F16DA002C14DBBAF1010F4FF0A0
:1052E000000014BF76497A4914B0BDE8F08DBAF1D8
:1052F000020F18BF002F0CD0BAF1010F09D1002FF7
:1053000007DA0BE0002FB8BF002C0DDABAF1010F5D
:1053100004D0002014B00146BDE8F08D14B0002088
:105320004FF00041BDE8F08D4FF0010808EBE77C3D
:10533000CDF814C05CEA0A0C0DD0DFF898C16245C4
:105340007EDDDFF894C1654B624512DD8B420ADBDE
:10535000002C18DB23E00120FFF7DAFD14B0BDE8D4
:10536000F04DFFF781BE554A8A4202DC002C0ADC70
:1053700015E0994202DA002C11DA04E04F4B994211
:1053800019DD002C0BDD0220FFF7C2FDFFF772FED6
:105390004B4A14B061F31E021146BDE8F08D0220A5
:1053A000FFF7B6FDFFF76EFE444A14B061F31E022C
:1053B0001146BDE8F08D0022394601F06DF8074630
:1053C0000D466FF0010201F0EEFC4FF05532444BF8
:1053D00000F070FF3A462B4600F038FE0022414BA9
:1053E00000F068FF80468B463A462B461046194629
:1053F00000F02CFE42465B4600F028FE88460E90E8
:105400004FF0C042384B3846294600F01FFE834615
:105410000091364A344B41460E9800F017FE804604
:105420000191334A334B3846294600F00FFE42467D
:10543000019B01F031F80D4602460B460C9000E04E
:1054400011E05846009900F059FB002788465A465B
:105450003846009B01F020F82B460C9A00F02AFFFA
:10546000024600F079B90020B1F5801F07DA352235
:105470002846194601F097FC05466FF0340000EB12
:105480002150A0F2FF300190C1F3130040F07F6182
:1054900041F04051029118498842D8BF4FF0000BAB
:1054A00035DD16498142C8BF4FF0010B2FDC4FF0AC
:1054B000000B25E0FFFF1F00FFFF0F000000F03F83
:1054C0000000F07F0000404301FCFFFFD81F0000F8
:1054D0000000F0FF0000E0410000F043FFFFEF3F5D
:1054E0005555D53F0000E03F4715F73FFE822B653D
:1054F00044DF5DF80BAE543E8E9803007AB60B0085
:105500000198401C01900298A0F580100290FF487D
:105510000299784400EBCB000991D0E9002328469A
:105520000B93129200F0B8FF00910A9028460B9B53
:10553000129A099900F0E2FA02460B460020F4495B
:1055400000F098FBCDE90C010B46024600990A9841
:1055500000F07CFD0690EF488846002778440299C9
:10556000006810904FF0005040EA610000EB8B4063
:1055700000F5002102910B9B129A109800F08CFF0D
:105580002A46099B00F096FE3A46434600F05EFD2F
:105590000891129038464146029B109A00F056FD41
:1055A000009B0A9A00F086FE089B129A00F074FF96
:1055B000DDE90C2300F04AFD0B91069A1290434658
:1055C0001046194600F042FD05460246D2480B46F9
:1055D0000A9106217844FFF7E8FC0A9B2A460891C5
:1055E00002901046194600F031FD089B029A00F027
:1055F0002DFD05460991434638461946069A00F0A6
:105600007DFA0B9B129A00F021FD2A46099B00F0BF
:1056100075FACDE908013A4643461046194600F0AE
:1056200015FD0A910022BD4B009000F067FADDE9FC
:10563000082300F063FA0D463A46B84B384600F0AE
:105640002BFF0A9B009A00F027FFDDE9082300F0FA
:1056500031FECDE908013A462B461046414600F09E
:10566000F5FC00910A90DDE908014346069A00F036
:10567000EDFC069088462B463A460B99129800F0AE
:10568000E5FC4346069A00F039FA80460B4602468E
:105690000D9100990A9800F031FA00200F46054656
:1056A000009B0A9A00F0F8FE42460D9B00F002FEB5
:1056B00088460E904FF06042994B2846394600F0DC
:1056C000C5FC02910090974A954B41460E9800F018
:1056D000BDFC80460391944A944B2846394600F01D
:1056E000B5FC4246039B00F009FA914A7A4402EB6A
:1056F000CB03D3E9002300F001FA05460791019896
:1057000000F03DFC0C9003912A46079B02990098FB
:1057100000F0F4F9874A7A4402EBCB03D3E9002383
:105720009346019300F0EAF9039B0C9A00F0E6F926
:10573000002788463846039B0C9A00F0ADFE5A4677
:10574000019B00F0A9FE029B009A00F0A5FE2A46EC
:10575000079B00F0AFFD02460020069005986C4DB7
:10576000AAF10103184301D1734D069000200B46A6
:1057700004903046214600F069FC82468B46234661
:1057800030461946049A00F087FE3A46434600F038
:105790005DFC52465B4600F0B1F906468A463A4641
:1057A00043462146049800F051FC04460F46324619
:1057B000534600F0A3F9614A8B46914221DBABEBE3
:1057C000020353EA000210D122463B4600F064FE79
:1057D000804603915A4A5B4B3046514600F08EF9A1
:1057E0004246039B00F030FD27D20220FFF790FBDA
:1057F000FFF740FC0A46294614B062F31E01BDE8DB
:10580000F08D514B2BF000429A4216D34F4A0BEBCE
:10581000020353EA000208D122463B4600F03CFE58
:105820003246534600F010FD07D80220FFF770FB08
:10583000FFF728FC0A462946DEE72BF000404449E2
:10584000444A01EB20514FF00008824223DA481C01
:105850004FF4801121FA00F058443F4AC0F30A5136
:105860007A443E4BA1F2FF31CB4020EA0303C0F360
:10587000130040F4801CC1F1140012682CFA00F8E7
:10588000BBF1000FB8BFC8F100082046394600F050
:1058900003FE04460F4622463B463046514600F082
:1058A0002DF94FF0000B5A462D4B5846039100F04E
:1058B000CDFB00910A902B4A2B4B5846039900F0E0
:1058C000C5FB0491029022463B465846039900F0DE
:1058D000E3FD3246534600F0EDFC244A244B00F031
:1058E000B5FB049B029A00F009F907468A46009B23
:1058F0000A9A00F003F904460E46009B0A9A00F04B
:10590000CBFD3A46534600F0D5FC33E04A1C00007C
:105910000000F03F881C0000B81B00000000084099
:1059200009C7EE3FFD033ADCF5015B14E02F3EBEF4
:10593000901A0000561A00000000F0BF00009040CE
:10594000FE822B654715973C00CC904000346F3F9A
:1059500001FCFFFF0000E03F84190000FFFF0F0083
:10596000432EE63F396CA80C615C20BEEF39FAFE8D
:10597000422EE63F0746224633460F91104619460F
:1059800000F064FB834602462E488A460B460521FA
:105990007844FFF70AFB5A46534600F057FB22466D
:1059A000334600F087FC82468B463A462046314615
:1059B0000F9B00F04BFB3A460F9B00F09FF80F4601
:1059C0000A9000224FF080435046594600F064FD93
:1059D0000391009052465B462046314600F036FB6C
:1059E000039B009A00F046F93B460A9A00F054FDEA
:1059F0002246334600F050FD0022134B00F05AFCC3
:105A00000E46044601EB08510815002810DC4246FA
:105A10002046314601F0C7F9FFF7B3FA042808BF62
:105A2000FFF730FB42462046314601F0BCF9044600
:105A300006980B4614B022462946BDE8F04D00F00A
:105A400005BB00002C1800000000F03F2DE9F041DC
:105A500006460F4600F03AFC04000D4618BF012030
:105A6000284320F00040C0F17F6000F1E040C00F0B
:105A70000ED0301C18BF0120384320F00040C0F188
:105A80007F6000F1E040C00F04BF0120FFF740FA43
:105A900020462946BDE8F08121F00042A2F1605283
:105AA000B2F5801F01F0004328BFD2F17F6C0BD903
:105AB0005FEA001C43EAC20242EB507018BF704715
:105AC00028BF20F001007047B2F5801FBCBF184608
:105AD00070474FEA410C1CF5001F02D2084601F046
