:020000040800F2
:10000000B00A00201D130008590200085B02000816
:100010005F02000863020008670200080000000099
:100020000000000000000000000000006B0200085B
:100030006D020008000000006F0200087102000855
:100040003713000837130008371300083713000868
:100050003713000837130008371300083713000858
:100060003713000837130008371300083713000848
:10007000730A0008490A00083713000837130008FC
:100080003713000837130008371300083713000828
:100090003713000837130008371300083713000818
:1000A0003713000837130008371300083713000808
:1000B000B50A0008371300088F0900083713000835
:1000C00037130008371300083713000837130008E8
:1000D000371300089312000837130008371300087D
:1000E00037130008371300083713000837130008C8
:1000F00037130008371300083713000837130008B8
:1001000037130008371300080509000837130008E3
:100110003713000837130008190A0008330A0008CB
:100120003713000837130008371300083713000887
:1001300000F002F800F063F80AA090E8000C824496
:100140008344AAF10107DA4501D100F058F8AFF273
:10015000090EBAE80F0013F0010F18BFFB1A43F0A5
:1001600001031847CC330000EC33000010F8013BCA
:100170000A4413F0030408BF10F8014B1D1108BF17
:1001800010F8015B641E05D010F8016B641E01F8C5
:10019000016BF9D1002D15D010F8014B03F00C03C1
:1001A0000C2BA1EB04040ABF10F8013BA4EB831451
:1001B000A4EB032405F1010314F8016B5B1E01F8A5
:1001C000016BF9D5914238BF10F8013BD1D370478C
:1001D0000023002400250026103A28BF78C1FBD850
:1001E000520728BF30C148BF0B607047642903F035
:1001F000A780002070471FB51FBD10B510BD03F0CC
:1002000067F91146FFF7F7FF00F008F803F085F9EA
:1002100003B4FFF7F2FF03BC00F0E0FF00F074FF4F
:100220004FF4A06001F01EFE4FF4964000F0E5FF91
:1002300000F038FA00F056F940F2F31140F60F6082
:1002400000F008F900F0D9FA00200249088000BF48
:10025000FEE700003A030020704700BFFEE700BF42
:10026000FEE700BFFEE700BFFEE77047704770473C
:10027000704700000CB50020019000906C480068A9
:1002800040F480306A49086000BF6948006800F4A3
:10029000003000900198401C0190009818B9019816
:1002A000B0F5A06FF1D16248006800F4003010B1E1
:1002B0000120009001E0002000900098012843D127
:1002C0005C48006840F010005A4908600846006821
:1002D00020F0030008600846006840F00200086053
:1002E000534840685249486008464068486008469C
:1002F000406840F4806048600846406820F47C1004
:1003000048600846406840F4E810486008460068C5
:1003100040F08070086000BF4548006800F0007041
:100320000028F9D04248406820F003004049486066
:100330000846406840F00200486000BF3C48406802
:1003400000F00C000828F9D10CBD10B5FFF792FFA2
:1003500010BD10B53648006840F00100344908600F
:1003600008464068344908403149486008460068FA
:10037000324908402E4908600846006820F4802071
:1003800008600846406820F4FE0048604FF41F00F3
:100390008860FFF7DAFF4FF000602949086010BD60
:1003A00010B5002100200022214B5B6803F00C01F6
:1003B00021B1042906D0082928D107E0214B224C7D
:1003C000236027E01F4B204C236023E0184B5B6821
:1003D00003F47010164B5B6803F48032022303EBC6
:1003E000904022B9194B4343174C23600DE0104B4A
:1003F0005B6803F4003323B1144B4343124C236076
:1004000003E0104B4343104C236003E00D4B0E4CB4
:10041000236000BF00BF064B5B68C3F303130C4CA3
:10042000E15C094B1B68CB40074C236010BD00000A
:1004300000100240002002400000FFF8FFFFF6FE1F
:1004400008ED00E000127A003C03002000093D00A6
:100450004003002070B504460D462946204600F0B2
:10046000E3FC022000F08DFE2946204600F03BFC14
:100470000021174802F0B2FD0021164802F0AEFD3F
:10048000002140F60F6000F08FFD0121124802F0BC
:100490000DFB70BD10B51148114A128830F81210CA
:1004A0000B4802F09BFD0D480D4A128830F81210DF
:1004B000084802F093FD0A480088401C084908805B
:1004C00008460088B0F5C87F01D10020088010BD23
:1004D00000340140002C01400010004000000020CA
:1004E0003A03002000B589B00121082001F05FFA2D
:1004F0000121042001F05BFA0121042001F04AFAF5
:100500000121082001F046FA0120ADF82000282042
:100510008DF8230003208DF8220008A9564800F02A
:100520007DFF4020ADF8200028208DF82300032017
:100530008DF8220008A9514800F070FF4FF6FF70B7
:10054000ADF808004720ADF804000020ADF80A001F
:10055000ADF806008DF80C0001A9494801F04AFFEA
:1005600001A9484801F046FF0020ADF81000ADF8A1
:1005700012000120ADF814000020ADF81600ADF80F
:10058000180004A93F4802F013FA50213D4802F038
:10059000C7FA04213B4802F00BFD8021394802F0E4
:1005A00010FD0020ADF81000ADF812000120ADF8EC
:1005B00014000020ADF81600ADF8180004A930486A
:1005C00002F0F6F950212E4802F0AAFA04212C4834
:1005D00002F0EEFC80212A4802F0F3FC32208DF874
:1005E0001C0000208DF81D0001208DF81E008DF8E4
:1005F0001F0007A801F03BFC1E208DF81C00002006
:100600008DF81D0001208DF81E008DF81F0007A831
:1006100001F02DFC47214FF6FF7000F088FC00210F
:10062000194802F0D7FC0021154802F0D3FC002144
:10063000144802F0CFFC01220221124802F051FAC4
:10064000012202210E4802F04CFA01210C4802F06E
:100650002DFA01210B4802F029FA00200B490870FD
:100660000B4908700B4908800B4908800B4908802A
:100670000B49088009B000BD00080140000C014092
:1006800000080040000C004000040040300300203F
:1006900031030020360300203803002032030020FD
:1006A0003403002008B50121242001F073F94FF430
:1006B0008070ADF8000010208DF8030003208DF845
:1006C00002006946094800F0A9FE4FF4807107480E
:1006D00000F051FF0420ADF800006946044800F026
:1006E0009DFE0421024800F046FF08BD00080140BD
:1006F0000014014000B58DB00121084601F03DF91C
:100700007A4802F0B1FC7A4802907A4803900020BF
:10071000049004200590002006908020079040005F
:1007200008908000099000200A904FF440500B90F0
:1007300000200C9002A96D4802F038FD6B4814307F
:1007400002F092FC6A4802906B48039010200490DB
:10075000042005900020069080200790400008901B
:100760008000099000200A904FF440500B90002028
:100770000C9002A95D48143002F018FD01220221FC
:100780005A48143002F049FD01220221574802F074
:1007900044FD57480C38808840F0020054490C3919
:1007A00088800846808840F0010088800C208DF801
:1007B000040000208DF8050001208DF806008DF85A
:1007C000070001A801F053FB0D208DF80400002064
:1007D0008DF8050001208DF806008DF8070001A8AE
:1007E00001F045FB0121414802F00BFD00213F488B
:1007F000143002F006FD0DB000BD08B5012141F234
:10080000040001F0C7F8E020ADF8000018208DF8D2
:10081000030003208DF802006946384800F0FEFD11
:10082000E021364800F0A7FE0020354908804FF44B
:10083000827048804FF4006088800220C8800120C8
:10084000088140024881182088810020C881072043
:10085000088227480C3801F099FB41F61F4140F20D
:10086000E73000F037FBFFF745FF012120480C3847
:1008700001F031FC08BD10B50446214884810146D1
:100880001B480C3801F082FB012119480C3801F09B
:1008900022FC10BD70B50546002405E0601CC4B202
:1008A000C82C01DD002070BD022111480C3801F078
:1008B00096FC0028F2D029460D480C3801F03CFC8B
:1008C000002405E0601CC4B2642C01DD0020EAE7CE
:1008D000012107480C3801F082FC0028F2D00448BE
:1008E0000C3801F02BFCC0B2DDE700001C00024018
:1008F0000C300140280300202003002000080140A4
:100900007003002010B50221704802F098FB012806
:100910003CD102216D4802F0A3FB6C4802F070FB51
:10092000401C84B2002C31D0694804800120694900
:1009300008706948007838B90020684908800121AA
:10094000674802F0B3F821E00021654802F0AEF8F4
:10095000634802F062FB614908800021604802F0B0
:1009600039FB5B4800885F4908805F480088488001
:100970005A48008888805D480088C88004205C4907
:10098000486301215A48303002F03BFC10BD10B5DD
:100990000221584802F053FB01283CD1022155485E
:1009A00002F05EFB534802F02BFB401C84B2002C8B
:1009B00031D04D48048001204749087045480078EF
:1009C00038B90020494908800121454802F06EF8F5
:1009D00021E00021424802F069F8414802F01DFB85
:1009E0004249088000213E4802F0F4FA3848008865
:1009F0003C4908803C480088488038480088888006
:100A00003A480088C88004203949486301213848A1
:100A1000303002F0F6FB10BD10B50121364802F06F
:100A20000EFB28B1FFF736FD0121334802F018FB19
:100A300010BD10B50121314802F001FB18B10121B0
:100A40002E4802F00DFB10BD10B54FF4007002F0FF
:100A500012FC68B100201F4908701F49087000216E
:100A60002348303002F0CDFB4FF4007002F017FC49
:100A700010BD10B5202002F0FEFBD0B12048006868
:100A8000C0432049C1F888011F4801881FA002F017
:100A900017FC002116481C3002F0B3FB0420144957
:100AA0000862012112481C3002F0ABFB202002F04A
:100AB000F6FB10BD10B50121880702F0C0FA18B18D
:100AC0000121880702F0CCFA10BD0000000C0040A4
:100AD00032030020300300203103002036030020C1
:100AE00000040040200300203403002038030020CD
:100AF00000000240000800400010004000140040C8
:100B00008881224200802242280300207265637699
:100B10003A2025640D0A000030B58DB005460C461C
:100B2000012140F6040000F035FF4FF4E060ADF81D
:100B3000300018208DF8330003208DF832000CA906
:100B4000DF4800F06BFC4FF46040ADF830000CA9BA
:100B5000DC4800F063FCDC4801F078FBADF828507D
:100B6000ADF824400020ADF82A00ADF8260009A910
:100B7000D54801F03FFC6020ADF814000120ADF82D
:100B800016000420ADF818007820ADF81A000020F7
:100B9000ADF81C00ADF81E00ADF82000ADF8220045
:100BA00005A9C94801F063FC05A9C74801F0A1FCEB
:100BB00005A9C54801F0EAFC0821C34802F0A6F8DF
:100BC0000821C14802F0ABF80821BF4802F0B4F890
:100BD0004FF40060ADF804004010ADF806000020AE
:100BE000ADF80800ADF80A00ADF80C00ADF80E0045
:100BF000ADF8100001A9B44801F018FF0121B24876
:100C000001F054FF0121B04802F074F80121AE4810
:100C100001F058FF0DB030BD30B58DB005460C4623
:100C2000012142F20C0000F0B5FE8020ADF830004A
:100C300018208DF8330003208DF832000CA9A0484D
:100C400000F0ECFBA14801F001FBADF82850ADF835
:100C500024400020ADF82A00ADF8260009A99B48E1
:100C600001F0C8FB6020ADF814000120ADF81600BB
:100C70000420ADF818007820ADF81A000020ADF877
:100C80001C00ADF81E00ADF82000ADF8220005A94B
:100C90008E4801F0ECFB08218C4802F037F84FF445
:100CA0000060ADF804004010ADF806000020ADF87B
:100CB0000800ADF80A00ADF80C00ADF80E00ADF874
:100CC000100001A9814801F0B1FE01217F4801F027
:100CD000EDFE01217D4802F00DF801217B4801F075
:100CE000F1FE0DB030BD30B589B005460C4601218E
:100CF000C80200F04FFE0121042000F04BFE01214C
:100D0000084600F047FE4FF48070ADF82000182030
:100D10008DF8230003208DF8220008A9684800F010
:100D20007DFBADF81850ADF814400020ADF81A0066
:100D3000ADF8160005A9644801F05CFB6020ADF831
:100D400004000120ADF806000020ADF80A00ADF85F
:100D50000C0001A95C4801F08AFB01215A4801F00E
:100D6000B1FE0821584801F0D1FF0121564801F099
:100D70009DFF0121544801F099FE09B030BD30B506
:100D800089B005460C460121084600F003FE01210A
:100D9000042000F0FFFD1820ADF820008DF823009E
:100DA00003208DF8220008A9454800F037FBADF874
:100DB0001850ADF814400020ADF81A00ADF8160038
:100DC0008DF81C0005A94FF0804001F013FB602056
:100DD000ADF804000120ADF806000020ADF80A00CF
:100DE000ADF80C0001A94FF0804001F0CFFB01A944
:100DF0004FF0804001F015FC0121880701F062FEF0
:100E00000821C80601F082FF0121880701F04EFF8A
:100E100000214FF0804002F0E5F800214FF08040C3
:100E200002F0E2F809B030BD30B589B005460C4695
:100E30000121480300F0AEFD0121102000F0AAFDC1
:100E40000121084600F0A6FD4020ADF82000182042
:100E50008DF8230003208DF8220008A91C4800F01B
:100E6000DDFAADF81850ADF814400020ADF81A00C6
:100E7000ADF8160005A9154801F0BCFA6020ADF8E0
:100E800004000120ADF806000020ADF80A00ADF81E
:100E90000C0001A90D4801F0EAFA01210B4801F00C
:100EA00011FE0821094801F031FF0121074801F036
:100EB000FDFE0121054801F0F9FD09B030BD00003B
:100EC00000080140000C0140002C014000340140AA
:100ED000001001407FB505460C460121084600F090
:100EE00066FDADF80850ADF804400020ADF80A00EA
:100EF000ADF8060001A94FF0804001F07BFA012215
:100F00001146900701F0EDFD1C208DF80000002037
:100F10008DF801008DF8020001208DF8030068466D
:100F200000F0A5FF0121880701F0C0FD7FBD3EB59F
:100F300005460C460121022000F039FDADF80450B1
:100F4000ADF800400020ADF80600ADF8020069469B
:100F5000674801F04FFA3EBD7FB505460C460121BA
:100F6000042000F024FDADF80850ADF80440002046
:100F7000ADF80A00ADF8060001A95E4801F03AFAA2
:100F8000012211465B4801F0ACFD1E208DF80000E7
:100F900000208DF8010001208DF802008DF803007B
:100FA000684600F064FF7FBD7FB505460C46012111
:100FB000102000F0FCFCADF80850ADF80440002013
:100FC000ADF80A00ADF8060001A94B4801F012FA8D
:100FD00001221146484801F084FD36208DF80000BA
:100FE00003208DF801008DF8020001208DF8030028
:100FF000684600F03CFF7FBD7FB505460C460121E9
:10100000202000F0D4FCADF80850ADF804400020DA
:10101000ADF80A00ADF8060001A9384801F0EAF978
:1010200001221146354801F05CFD37208DF80000A3
:1010300001208DF8010000208DF8020001208DF8BC
:101040000300684600F013FF7FBD7FB505460C46E0
:101050000121480300F0ABFCADF80850ADF80440A6
:101060000020ADF80A00ADF8060001A9244801F0FF
:10107000C1F901221146224801F033FD2C208DF8E0
:10108000000001208DF8010000208DF802000120F1
:101090008DF80300684600F0EAFE7FBD7FB5054687
:1010A0000C460121C80200F082FCADF80850ADF8F2
:1010B00004400020ADF80A00ADF8060001A911486F
:1010C00001F098F9012211460E4801F00AFD19209D
:1010D0008DF8000001208DF8010000208DF802003D
:1010E00001208DF80300684600F0C1FE7FBD0000BE
:1010F00000040040000800400010004000140040C0
:1011000000340140002C014010B56FF0040000F0E5
:10111000F8FE2E4800682E49B0FBF1F02D4908700A
:101120000846007800EB4001C1EBC0104FF6FF719C
:1011300001EAC0002849088010BD0146254A1278FE
:101140004A434FF0E0235A6100229A611A4612691D
:1011500042F001021A6100BF4FF0E022106900F076
:1011600001021AB100F48032002AF5D04FF0E022DB
:10117000126922F001024FF0E0231A6100229A6105
:1011800070470146144A12884A434FF0E0235A61DF
:1011900000229A611A46126942F001021A6100BFE8
:1011A0004FF0E022106900F001021AB100F4803221
:1011B000002AF5D04FF0E022126922F001024FF030
:1011C000E0231A6100229A61704700003C0300206E
:1011D00000127A005003002052030020014600BF95
:1011E000704700BF494A128802F04002002AF9D035
:1011F000C2B2464B1B1D1A80704710B586B004461C
:10120000012144F2040000F0C5FB4FF40070ADF87A
:10121000140003208DF8160018208DF8170005A97A
:101220003B4800F0FBF84FF48060ADF81400042058
:101230008DF8170005A9364800F0F0F825208DF844
:10124000000003208DF801008DF8020001208DF8C8
:101250000300684600F00BFE01940020ADF8080082
:10126000ADF80A00ADF80C00ADF810000C20ADF898
:101270000E0001A9254800F034FC012240F225515E
:10128000224800F0C6FC0121204800F0B6FC06B060
:1012900010BD10B540F225511C4800F09FFD10B361
:1012A0001A4800F01BFDC4B21A48008800F4004040
:1012B000C8B91848008800F4804060B10A2C03D0F7
:1012C00000201449088020E01248008840F40040C3
:1012D0001049088019E00D2C06D10E48008840F412
:1012E00080400C49088010E00A480088C0F30D00D7
:1012F00009490C5407480088401C064908800846E4
:101300000088C72801DD0020088010BD003801409A
:10131000000801405803002082030020094880474C
:1013200009480047FEE7FEE7FEE7FEE7FEE7FEE7C7
:10133000FEE7FEE7FEE7FEE704480549054A064BDF
:10134000704700005303000831010008B00400207A
:10135000B00A0020B0060020B006002010B50446F8
:10136000CC48844208D10121042000F02DFB00214B
:10137000042000F029FB46E0C748844208D101213F
:10138000082000F021FB0021082000F01DFB3AE0BE
:10139000C248844208D10121102000F015FB002131
:1013A000102000F011FB2EE0BD48844208D101213D
:1013B000202000F009FB0021202000F005FB22E0A6
:1013C000B848844208D10121402000F0FDFA0021F4
:1013D000402000F0F9FA16E0B348844208D1012118
:1013E000802000F0F1FA0021802000F0EDFA0AE000
:1013F000AE48844207D10121801500F0E5FA0021B2
:10140000A01500F0E1FA10BD10B50121084600F06A
:10141000DBFA0021012000F0D7FA10BD2DE9F041E0
:10142000024600250026002000230024002791F812
:1014300003C00CF00F0591F803C00CF0100CBCF1C8
:10144000000F03D091F802C04CEA050591F800C0E6
:10145000BCF1000F31D0146800202BE04FF0010CDC
:101460000CFA00F3B1F800C00CEA03069E4220D14A
:1014700083004FF00F0C0CFA03F7BC4305FA03FC92
:101480004CEA040491F803C0BCF1280F06D14FF0D8
:10149000010C0CFA00FCC2F814C00AE091F803C079
:1014A000BCF1480F05D14FF0010C0CFA00FCC2F85A
:1014B00010C0401C0828D1D31460B1F800C0BCF1A2
:1014C000FF0F34DD546800202EE000F1080C4FF0CF
:1014D000010808FA0CF3B1F800C00CEA03069E42BA
:1014E00021D183004FF00F0C0CFA03F7BC4305FA2F
:1014F00003FC4CEA040491F803C0BCF1280F05D1A9
:1015000000F1080C08FA0CF8C2F8148091F803C036
:10151000BCF1480F07D100F1080C4FF0010808FAA0
:101520000CF8C2F81080401C0828CED35460BDE8E7
:10153000F0814FF6FF710180022181700421C1709A
:1015400070470246002093680B400BB1012000E079
:10155000002070470146886880B27047024600202C
:10156000D3680B400BB1012000E00020704701461A
:10157000C86880B2704701617047416170470AB125
:10158000016100E041617047C16070474FF48032F3
:101590000A43826181618261826982697047024681
:1015A0000020434B18684FF68073184040EA021041
:1015B00008433F4B186070473E49C8617047F0B51B
:1015C0000A46002300240021002500F00046B6F161
:1015D000004F02D1364EF16901E0354E7168C0F31B
:1015E000034583B200F44016B6F5401F08D121F040
:1015F00070612F4E766826F070662D4F7E6012E087
:1016000000F48016B6F5801F06D1032606FA05F40D
:10161000A14341F0706106E0460D360103FA06F67B
:10162000B14341F0706122B1460D360103FA06F66E
:10163000314300F00046B6F1004F02D11C4EF1617B
:1016400001E01B4E7160F0BD30B500228B071C0F0E
:101650000F2303FA04F2164B08338C1053F824308E
:101660009343134C08348D1044F8253023468C10D6
:1016700053F824308C07240F00FA04F423430C4C55
:1016800008348D1044F8253030BD0A49DC3108603B
:101690007047000000080140000C014000100140AC
:1016A0000014014000180140001C014000200140CE
:1016B0000000014000002042DF48006840F00100C7
:1016C000DD49086008464068DC490840DA4948605E
:1016D00008460068DA490840D749086008460068AB
:1016E00020F4802008600846406820F4FE0048602E
:1016F0004FF41F0088607047CF49096821F480319A
:10170000CD4A11601146096821F480211160B0F5BD
:10171000803F03D0B0F5802F0ED106E0C64909689E
:1017200041F48031C44A116007E0C349096841F4BB
:10173000A021C14A116000E000BF00BF704710B592
:1017400001460022002300204A11012A02D1BA4C8E
:10175000236806E0022A02D1B74C236A01E0B64CA6
:10176000636A01F01F02012494401C400CB1012067
:1017700000E0002010BD38B50020009000240025B6
:1017800000BF3120FFF7DBFF05460098401C0090AA
:101790000098B0F5A06F01D0002DF2D03120FFF7F6
:1017A000CEFF08B1012400E00024204638BD0146E8
:1017B0000020A14A106820F0F80040EAC100106043
:1017C0007047A04908607047024600209A4B58684D
:1017D00020F47C1042EA01031843974B586070478D
:1017E00098490866704701460020934A506820F0E7
:1017F00003000843506070478F48406800F00C00B9
:101800007047014600208C4A506820F0F0000843E1
:101810005060704701460020874A506820F4E0601D
:1018200008435060704701460020834A506820F406
:10183000605040EAC1005060704729B17E4A527A38
:1018400002437D4B5A7204E07B4A527A82437A4BC0
:101850005A7270477B49D8310860704701460020B2
:10186000754A506820F4404008435060704700219A
:10187000714A20321170704A82F82010012802D07B
:1018800004280AD104E001216B4A2032117005E0DE
:101890000521694A2032117000E000BF00BF704787
:1018A0006949086070476449096A0143624A1162E4
:1018B0007047654944390860704730B500210022FF
:1018C000002400235C4D6D6805F00C0121B1042952
:1018D00005D0082923D105E05C4D056022E05B4D71
:1018E00005601FE0544D6D6805F47012524D6D682F
:1018F00005F48034022505EB92421CB9544D554342
:1019000005600BE04C4D6D6805F400351DB1504D80
:101910005543056002E04D4D5543056002E04B4DD7
:10192000056000BF00BF444D6D6805F0F001090976
:10193000484D6B5C0568DD4045603F4D6D6805F4C2
:10194000E061090A434D6B5C4568DD4085603A4DB6
:101950006D6805F46051C90A3E4D6B5C4568DD4019
:10196000C560354D6D6805F44041890B3A4D6B5C9F
:10197000C568B5FBF3F5056130BD29B12E4A526942
:1019800002432D4B5A6104E02B4A526982432A4B91
:101990005A61704729B1284A92690243264B9A61DD
:1019A00004E0254A92698243234B9A61704729B12A
:1019B000214AD2690243204BDA6104E01E4AD2690F
:1019C00082431D4BDA61704729B11B4AD26802433A
:1019D000194BDA6004E0184AD2688243164BDA6089
:1019E000704729B1144A12690243134B1A6104E08B
:1019F000114A12698243104B1A61704712494039EB
:101A0000086070470F49C86470470B49C871704738
:101A10000948406A40F080700749486270470146B3
:101A20000020054A92680A400AB1012000E0002027
:101A30007047014988727047001002400000FFF8AB
:101A4000FFFFF6FE000042428004424200127A008C
:101A500000093D005A0300206A03002010B5044627
:101A6000FB48844209D101218803FFF7ADFF002123
:101A70004FF48040FFF7A8FF32E0F648844209D1D6
:101A800001214804FFF7ADFF00214FF40030FFF7BC
:101A9000A8FF25E0F048844209D101218804FFF71E
:101AA000A0FF00214FF48020FFF79BFF18E0EB48D8
:101AB000844209D10121C804FFF793FF00214FF4AC
:101AC0000020FFF78EFF0BE0E548844208D101219A
:101AD0000805FFF786FF00214FF48010FFF781FF14
:101AE00010BD2DE9F04786B005460E460024A246FB
:101AF00000BFA1460027B08900B100BF2F462C8A45
:101B00004CF6FF700440F08804432C82AC894EF6FA
:101B1000F3100440B08831890843718908430443B5
:101B2000AC81AC8A4FF6FF400440B0890443AC82DC
:101B300001A8FFF7C2FEC648874202D1DDF810A017
:101B400001E0DDF80CA0A88900F4004040B10AEBE8
:101B5000CA0000EB0A1031684900B0FBF1F807E059
:101B60000AEBCA0000EB0A1031688900B0FBF1F8FB
:101B70006420B8FBF0F004012009642101FB108906
:101B8000A88900F4004040B1322000EBC900B0FB4E
:101B9000F1F000F00700044308E0322000EB0910E8
:101BA0006421B0FBF1F000F00F0004432C8106B07B
:101BB000BDE8F0874FF41651016000218180C1809B
:101BC00001810C21418100218181704710B50246BD
:101BD0000020108A4FF2FF0318400B884C882343E3
:101BE0008C882343CC8823431843108210BD0021E6
:101BF000018041808180C180704721B1828942F497
:101C00000052828104E082894DF6FF731A4082817E
:101C10007047F0B50346002400260025002040F65A
:101C20006A17B94200D100BF1846C1F3421401F04F
:101C30001F06012707FA06F5012C01D10C3004E03C
:101C4000022C01D1103000E014301AB107682F4384
:101C5000076002E00768AF430760F0BD1AB1838AEE
:101C60000B43838202E0838A8B4383827047028A1C
:101C70004FF6F0731A400282028A0A4302827047CA
:101C800082894FF2FF731A40828182890A438281DE
:101C9000704721B1828942F00202828104E0828988
:101CA0004FF6FD731A4082817047028A4FF6DF7348
:101CB0001A400282028A0A430282704721B1028AD4
:101CC00042F48042028204E0028A4BF6FF731A401B
:101CD00002827047C1F308028280704701468888FB
:101CE000C0F308007047818941F00101818170478C
:101CF000028BD2B20283028B42EA01220283704736
:101D0000028B02F47F420283028B0A4302837047F4
:101D100021B1828A42F02002828204E0828A4FF658
:101D2000DF731A408282704721B1828A42F010022A
:101D3000828204E0828A4FF6EF731A4082827047F3
:101D400021B1828A42F00802828204E0828A4FF640
:101D5000F7731A408282704721B1828942F40042AF
:101D6000828103E08289C2F30E028281704721B131
:101D7000828A42F40062828204E0828A4FF2FF7318
:101D80001A4082827047828A4FF6FB731A40828221
:101D9000828A0A438282704721B1828A42F002021B
:101DA000828204E0828A4FF6FD731A408282704775
:101DB00002460020B1F5007F00D100BF13880B4020
:101DC0000BB1012000E00020704701F40072B2F571
:101DD000007F00D100BFCA430280704770B5024641
:101DE000002400230025002040F66A16B14200D1ED
:101DF00000BFC1F3421501F01F03012606FA03F3E9
:101E0000012D02D19689334006E0022D02D1168AB7
:101E1000334001E0968A33400C12012606FA04F49E
:101E20001688344013B10CB1012000E0002070BDD1
:101E300010B50022002340F66A14A14200D100BF71
:101E40000A1201249440A3B2DC43048010BD0000B8
:101E5000003801400044004000480040004C004071
:101E60000050004031490143314A1160704770B55C
:101E7000002100230F22C47804B32D4C246804F4FD
:101E8000E064C4F5E064210AC1F10403CA40447867
:101E900004FA03F18478144021430901254C0678A3
:101EA000A155047804F01F050124AC4005786D119C
:101EB000AD0005F1E025C5F8004109E0047804F023
:101EC0001F050124AC401C4D0678761145F82640CC
:101ED00070BD1A4A0A400243154B1B1F1A60704717
:101EE00039B1134A121D12680243114B1B1D1A60AF
:101EF00006E00F4A121D126882430D4B1B1D1A602B
:101F00007047042808D14FF0E021096941F004012D
:101F10004FF0E022116107E04FF0E021096921F064
:101F200004014FF0E0221161704700000000FA0543
:101F30000CED00E000E400E080E100E080FFFF1F26
:101F400010B50446BE48844208D101218014FFF731
:101F50003BFD0021A014FFF737FD16E0B94884428D
:101F600008D101210014FFF73CFD00212014FFF7E8
:101F700038FD0AE0B448844207D10121C013FFF7BD
:101F800030FD0021E013FFF72CFD10BD10B500223D
:101F9000028802F441520B884C8823438C882343E7
:101FA000CC8823430C8923434C8923438C892343C6
:101FB000CC8923431A430280838B4FF2FF74234062
:101FC00083830B8A038210BD2DE9F04F85B005464F
:101FD0000C464FF0000902274FF000084FF0010BAC
:101FE0000026B246A88B4FF240010840A883022089
:101FF0002884B5F81C90A068022801D100BF38E001
:10200000A08810B94FF0010B01E04FF0020B8D4892
:10201000854200D100E000BF6846FFF74EFCDDF8C6
:1020200000A0E088B0F5007F0AD14FEA1A2000EB4B
:1020300080004000A168B0FBF1F0401D86B20BE0CB
:102040004FEA4B10BAFBF0F000EB80004000A168B3
:10205000B0FBF1F0401D86B20A20B6FBF0F606F0A8
:102060000108A6EB0800C0F34F074FF6FF7000EA27
:102070000828022F01DBFF2F02DD02274FF00008A6
:10208000E08840EA080038432884A088A1890843F2
:10209000618808432188084340F4006040EA090948
:1020A000A5F81C9005B0BDE8F08F002101804180AB
:1020B0008180C180018141818181C18107210182AB
:1020C00070470021018041808180C18002218160B0
:1020D00000218181704721B1028842F040020280D4
:1020E00004E002884FF6BF731A400280704721B1A6
:1020F000828B42F48062828304E0828B4FF6FF334E
:102100001A408283704730B5002400230C1101254A
:10211000A540ABB21AB185881D43858002E0858851
:102120009D43858030BD1AB183880B43838002E0D4
:1021300083888B43838070478181704701468889FB
:1021400070474FF6FF62914204D0028842F48072D9
:10215000028004E002884FF6FF631A400280704755
:1021600021B1828842F00402828004E082884FF626
:10217000FB731A408280704702884FF2FF731A4047
:10218000028002880A4302807047018841F480512E
:102190000180704721B1028842F40052028004E0BD
:1021A00002884DF6FF731A400280704702460020F5
:1021B000012901D0108B00E0908A70470146088AFF
:1021C0007047B1F5804F04D1028842F4804202800A
:1021D00004E002884BF6FF731A4002807047024603
:1021E000002013890B400BB1012000E00020704754
:1021F000CA4302817047F0B5024600200024002344
:10220000002501F00F070126BE40B4B20B110126D4
:102210009E40B3B2968806EA03051689264016B199
:102220000DB1012000E00020F0BD10B5002201F04A
:102230000F040123A3409AB2D343038110BD0000D1
:102240000030014000380040003C004010B504461A
:10225000FE48844208D10121C014FFF7B5FB0021DC
:10226000E014FFF7B1FBC4E0B4F1804F08D10121C5
:102270000846FFF7B6FB00210120FFF7B2FBB8E0EC
:10228000F348844208D101210220FFF7AAFB002174
:102290000220FFF7A6FBACE0EE48844208D1012102
:1022A0000420FFF79EFB00210420FFF79AFBA0E02B
:1022B000E948844208D101210820FFF792FB002160
:1022C0000820FFF78EFB94E0E448844208D1012106
:1022D0001020FFF786FB00211020FFF782FB88E02B
:1022E000DF48844208D101212020FFF77AFB00213A
:1022F0002020FFF776FB7CE0DA48844208D10121F8
:102300004014FFF761FB00216014FFF75DFB70E0F4
:10231000D548844209D10121C804FFF755FB0021AB
:102320004FF40020FFF750FB63E0D048844209D10E
:1023300001210805FFF748FB00214FF48010FFF74B
:1023400043FB56E0CA48844209D101214805FFF702
:102350003BFB00214FF40010FFF736FB49E0C54876
:10236000844208D101214020FFF73BFB002140209F
:10237000FFF737FB3DE0C048844208D101218020AF
:10238000FFF72FFB00218020FFF72BFB31E0BB483C
:10239000844208D101218015FFF723FB0021A015FD
:1023A000FFF71FFB25E0B648844209D1012108044C
:1023B000FFF70AFB00214FF48030FFF705FB18E020
:1023C000B048844209D101214804FFF7FDFA0021F9
:1023D0004FF40030FFF7F8FA0BE0AB48844208D125
:1023E00001218804FFF7F0FA00214FF48020FFF765
:1023F000EBFA10BD00220288944B98420ED0994B04
:1024000098420BD0B0F1804F08D0914B984205D044
:10241000904B984202D0904B984204D14FF68F7364
:102420001A404B881A438D4B984207D08C4B9842E8
:1024300004D04FF6FF431A40CB881A4302808B88A2
:1024400083850B880385814B98420BD0854B98423E
:1024500008D08B4B984205D08A4B984202D08A4BC9
:10246000984201D10B7A038601238382704770B5AD
:10247000002400220023058C4FF6FE7635400584AB
:10248000028C8388048B4FF68F752C40B51E2C4030
:102490000D882C43751E2A400D892A434D882A43F6
:1024A0006A4DA8420BD06F4DA84208D0744DA84287
:1024B00005D0744DA84202D0734DA84213D14FF6F7
:1024C000F7752A404D892A434FF6FB752A408D88BF
:1024D0002A434FF6FF652B404FF6FF552B408D8961
:1024E0002B43CD892B4383800483CD88858602844A
:1024F00070BD70B5002400220023058C4FF6EF76E6
:1025000035400584028C8388048B48F6FF752C4087
:102510004FF6FF452C400D884FF6FF7606EA05255D
:102520002C434FF6DF752A400D8906EA05152A432C
:102530004D8806EA05152A43444DA84202D0494D6C
:10254000A8421DD14FF67F752A404D894FF6FF7680
:1025500006EA05152A434FF6BF752A408D8806EA1C
:1025600005152A434FF6FF352B404FF2FF752B40E0
:102570008D8906EA85052B43CD8906EA85052B431F
:1025800083800483CD880587028470BD70B50024E4
:1025900000220023058C4FF6FF6635400584028C2F
:1025A0008388848B4FF68F752C404FF6FC752C403A
:1025B0000D882C434FF6FF552A400D894FF6FF76C4
:1025C00006EA05252A434D8806EA05252A431F4DBC
:1025D000A84202D0234DA8421DD14FF2FF752A40D8
:1025E0004D894FF6FF7606EA05252A434FF6FF355B
:1025F0002A408D8806EA05252A434EF6FF752B40B2
:102600004DF6FF752B408D8906EA05152B43CD89C4
:1026100006EA05152B4383808483CD888587028451
:1026200070BD70B5002200230024058C4EF6FF76A5
:1026300035400584038C8488828B48F6FF752A40D8
:102640004FF6FF452A400D8820E00000002C014095
:102650000004004000080040000C00400010004052
:102660000014004000340140004C01400050014083
:102670000054014000180040001C004000200040B1
:102680000040014000440140004801404FF6FF7601
:1026900006EA05252A434DF6FF752B400D8906EA0B
:1026A00005352B434D8806EA05352B43FA4DA842E4
:1026B00002D0FA4DA84208D14BF6FF752C408D8907
:1026C0004FF6FF7606EA85152C4384808283CD88F9
:1026D000A0F84050038470BD828B4FF2FF331A4044
:1026E0008283828B4FF6FF7303EA01231A438283AE
:1026F0007047F0B50C461546002200210026078CD5
:102700004EF6FF7C07EA0C070784828B018C4FF69C
:10271000FF7707EA043640F6FF473A404FF6FF7767
:1027200007EA05273A434FF6FF7707EA03373A43AC
:10273000D94FB8420ED0D94FB8420BD0B0F1804F2C
:1027400008D0D74FB84205D0D64FB84202D0D64FA6
:10275000B84206D14DF6FF77394046F480573943E9
:1027600005E047F6FF57394044F4805739438283E8
:102770000184F0BD828B4FF6F3731A408283828B03
:102780000A4382837047F0B50C46154600220021AB
:102790000026078C4FF6FF6C07EA0C070784828B34
:1027A000018C4FF6FF7707EA04264FF60C773A4084
:1027B0004FF6FF7707EA03172F433A43B64FB84265
:1027C0000ED0B64FB8420BD0B0F1804F08D0B44F06
:1027D000B84205D0B34FB84202D0B34FB84206D189
:1027E0004FF6FF57394046F48077394305E04FF202
:1027F000FF57394044F48077394382830184F0BD28
:10280000028B4FF2FF331A400283028B4FF6FF73A5
:1028100003EA01231A4302837047F0B50C461546BC
:10282000002200210026078C4FF6EF7C07EA0C07F8
:102830000784028B018C4FF6FF7707EA041640F6F7
:10284000FF473A404FF6FF7707EA03373A434FF620
:10285000FF7707EA05273A438F4FB8420ED08F4FD4
:10286000B8420BD0B0F1804F08D08D4FB84205D0A0
:102870008C4FB84202D08C4FB84206D14FF6DF776A
:10288000394046F01007394305E04FF65F7739408D
:1028900044F01007394302830184F0BD028B4FF6E8
:1028A000F3731A400283028B0A4302837047F0B528
:1028B0000C46154600220021068C4FF6FE773E405E
:1028C0000684028B018C4FF60C7632407E1C06EAA1
:1028D00003162E433243704EB0420ED06F4EB042BC
:1028E0000BD0B0F1804F08D06D4EB04205D06D4E88
:1028F000B04202D06C4EB04206D14FF6FD76314068
:1029000044F00106314305E04FF6F576314044F0DE
:102910000106314302830184F0BD70B505460C46C3
:102920005D4885420ED05D4885420BD0B5F1804FA1
:1029300008D05B48854205D05A48854202D05A48A3
:10294000854200D100E000BF208850B92389A288C9
:1029500061882846FFF7ABFFE1882846FFF79EFF16
:1029600025E0208804280AD12389A2886188284686
:10297000FFF753FFE1882846FFF742FF17E0208862
:1029800008280AD12389A28861882846FFF7FBFE20
:10299000E1882846FFF7EEFE09E02389A2886188D6
:1029A0002846FFF7A6FEE1882846FFF795FE70BD92
:1029B0002DE9F04105460C4600260127608808B93C
:1029C000022600E00026A088012801D1022700E0AD
:1029D00001272088A0B92389A28861882846FFF7AB
:1029E00066FFE1882846FFF759FF23893A463146BA
:1029F0002846FFF712FFE1882846FFF701FF13E0A2
:102A00002389A28861882846FFF707FFE1882846C6
:102A1000FFF7F6FE23893A4631462846FFF747FF7F
:102A2000E1882846FFF73AFFBDE8F0810A884B8825
:102A30001A438B881A43CB881A430B891A434B8954
:102A40001A438B891A43A0F8442070474FF6FF7150
:102A5000818000210180C180418001727047002186
:102A6000018041808180C180018141818181C1815A
:102A70007047002101804180012181800021C180B7
:102A8000018170470021018041808180C1800181E6
:102A90004181818170470000002C014000340140D9
:102AA0000004004000080040000C004021B10288F2
:102AB00042F00102028004E002884FF6FE731A40E1
:102AC0000280704731B1B0F8442042F40042A0F8CF
:102AD000442005E0B0F84420C2F30E02A0F84420E0
:102AE00070471AB183890B43838102E083898B434A
:102AF000838170478182704741EA0203A0F8483021
:102B000070471AB183890B43838102E083898B4329
:102B10008381704701894FF6F87211400181704737
:102B20000A46002101894FF68F7319401143018134
:102B3000704730B504460D4629462046FFF7F0FFA2
:102B4000208940F00700208130BD2DE9F041044686
:102B50000D4616461F46602D06D13B4601223146E2
:102B60002046FFF75AFE05E03B460122314620464B
:102B7000FFF79DFE29462046FFF7D2FF208940F04F
:102B800007002081BDE8F08130B50C4600210189A5
:102B9000C9B24FF6FF7505EA0325154325432943BE
:102BA000018130BD2DE9F04105460E461746984695
:102BB000002443463A4631462846FFF7E5FF2C8974
:102BC0004FF6F870044044F007044FF68F7004404D
:102BD00044F070042C81BDE8F081F0B504460D4648
:102BE00016461F463B46324629462046FFF7CCFF95
:102BF000208940F480402081F0BD018582827047A9
:102C00000A46002101884FF68F7319401143018055
:102C10007047F0B50C4615461E46002100220023E1
:102C20000189028B038C4FF6F877394021434FF628
:102C3000FC473A4040F201173A434FF6DD773B40FC
:102C40004FF6FF7707EA06172F433B4301810283C4
:102C50000384F0BD0A460021018B4FF68F731940A3
:102C60001143018370470A460021018B48F6FF7328
:102C700019404FF6FF7303EA02231943018370479B
:102C80000A460021818B4FF68F73194011438183CF
:102C900070470A460021818B48F6FF7319404FF6B2
:102CA000FF7303EA022319438183704721B102882D
:102CB00042F08002028004E002884FF67F731A40DF
:102CC0000280704721B1828842F00402828004E0D1
:102CD00082884FF6FB731A408280704721B1828848
:102CE00042F00802828004E082884FF6F7731A40AF
:102CF0008280704721B1828842F00102828004E024
:102D000082884FF6FE731A40828070470A4600217F
:102D1000018B4FF6F77319401143018370470A4640
:102D20000021018B4FF2FF7319404FF6FF7303EA46
:102D300002231943018370470A460021818B4FF615
:102D4000F77319401143818370470A460021818B34
:102D50004FF2FF7319404FF6FF7303EA0223194342
:102D6000818370470A460021018B4FF6FB7319409F
:102D70001143018370470A460021018B4FF6FF3350
:102D800019404FF6FF7303EA02231943018370478A
:102D90000A460021818B4FF6FB7319401143818352
:102DA00070470A460021818B4FF6FF3319404FF6DA
:102DB000FF7303EA02231943818370470A46002107
:102DC000018B4FF67F7319401143018370470A4608
:102DD0000021018BC1F30E014FF6FF7303EA0223BA
:102DE0001943018370470A460021818B4FF67F7398
:102DF00019401143818370470A460021818BC1F33A
:102E00000E014FF6FF7303EA0223194381837047D3
:102E10000A460021018C4FF6FD73194011430184CD
:102E200070470A460021018C4FF6F7731940114391
:102E3000018470470A460021018C4FF6DF73194068
:102E40004FF6FF7303EA02131943018470470A46E1
:102E50000021018C4FF67F7319404FF6FF7303EA90
:102E600002131943018470470A460021018C4FF672
:102E7000FF5319404FF6FF7303EA022319430184FD
:102E800070470A460021018C4FF2FF7319404FF63C
:102E9000FF7303EA02231943018470470A460021A5
:102EA000018C4DF6FF7319404FF6FF7303EA0233AE
:102EB00019430184704730B5002301248C40A3B22C
:102EC000048C9C430484048C02FA01F5ADB22C43BB
:102ED000048430BD30B5002304248C40A3B2048C9C
:102EE0009C430484048C02FA01F5ADB22C430484A3
:102EF00030BD70B503460020002418461830012567
:102F00008D40ACB21D8CA5431D8409B1082909D19F
:102F100000EB6100056825F0700505600568154344
:102F200005600EE00D1FC5F34E052844056825F425
:102F3000E045056005684FF6FF7606EA0226354350
:102F4000056070BD21B1028842F00202028004E0F7
:102F500002884FF6FD731A400280704721B1028843
:102F600042F00402028004E002884FF6FB731A402C
:102F70000280704721B1828842F08002828004E0A2
:102F800082884FF67F731A408280704702884FF61E
:102F9000F7731A40028002880A43028070478288D1
:102FA0004FF68F731A40828082880A43828070476E
:102FB00002894FF6F8731A40028102890A4302819E
:102FC000704702894FF67F731A40028102890A43D3
:102FD0000281704781847047818570478186704780
:102FE0000187704781877047A0F8401070470288BA
:102FF0004FF6FF431A40028002880A43028070475E
:103000000146888E70470146088F70470146888FB9
:1030100070470146B1F8400070470146888C704700
:103020000146088D704702460020138A0B400BB101
:10303000012000E000207047CA430282704730B58B
:103040000246002000230024158A05EA0103958921
:1030500005EA010413B10CB1012000E0002030BDED
:10306000CA4302827047000001684FF6FE721140A9
:1030700001600021016041608160C1608D4988422A
:1030800008D18C490839496841F00F01894A083A4A
:1030900051608AE087491431884208D1854908394E
:1030A000496841F0F001834A083A51607DE0814966
:1030B0002831884208D17F490839496841F4706154
:1030C0007C4A083A516070E07A493C31884208D124
:1030D00078490839496841F47041764A083A5160A4
:1030E00063E074495031884208D17249083949680F
:1030F00041F470216F4A083A516056E06D496431DD
:10310000884208D16B490839496841F47001694A1D
:10311000083A516049E067497831884208D16549E9
:103120000839496841F07061624A083A51603CE0F0
:103130006149884206D1011F096841F00F01021F51
:10314000116032E05C491431884208D15A49091FA4
:10315000096841F0F001584A121F116025E05649F4
:103160002831884208D15449091F096841F4706127
:10317000514A121F116018E04F493C31884208D172
:103180004D49091F096841F470414B4A121F1160F3
:103190000BE049495031884207D14749091F096866
:1031A00041F47021444A121F1160704710B500228B
:1031B000026847F6F0739A430C6A8B6823430C69E4
:1031C00023434C6923438C692343CC6923434C6AD2
:1031D00023438C6A23431A430260CB6843600B6825
:1031E00083604B68C36010BD002101604160816055
:1031F000C160016141618161C161016241628162BD
:10320000704721B1026842F00102026004E00268E6
:103210004FF6FE731A40026070471AB103680B4301
:10322000036002E003688B430360704741607047AE
:103230000146486880B2704701460020002201F034
:1032400080531BB11C4B083B1A6802E0194B083B2A
:103250001A6802EA01030BB1012000E00020704768
:1032600000F0805119B11449091F086002E01149AA
:1032700008394860704701460020002201F0805361
:103280001BB10D4B083B1A6802E00A4B083B1A6859
:1032900002EA01030BB1012000E00020704700F0BA
:1032A000805119B10449091F086002E00149083939
:1032B0004860704708000240080402407047000060
:1032C0000FB4044910B503AA029800F0D3F810BC5B
:1032D0005DF814FB540300202DE9F0410E4604462E
:1032E000002020622046E168884730B3252805D0B9
:1032F000D4E901219047206A401CF2E7E1682046AA
:1033000000278847050018D0A5F14100192802D8E8
:1033100020354FF400673246294620462760FCF7E7
:1033200065FF40B1012804D0F61D26F007060836D7
:10333000D8E7361DD6E72846DAE7206ABDE8F081EF
:103340002DE9F0410646002410687529314616A57E
:1033500010D0AFF30080002802DA404213A507E046
:1033600031688A0701D512A502E0490704D511A5E5
:10337000012401E0AFF3008000210A2206F12407B6
:1033800009E0B0FBF2FCB0FBF2F302FB1C003030B2
:1033900078541846491C0028F3D123462A46304663
:1033A000BDE8F04100F00CB8000000002D00000066
:1033B0002B000000200000007047704770477047E6
:1033C0002DE9F0470D4699469246044600F124083F
:1033D0000168880604D5E06921F01001216000E051
:1033E0000120A84201DD471B00E00027A1697A19EE
:1033F00002EB0900081AA0612078C00602D420461A
:10340000AFF30080002608E0D4E901211AF8060095
:103410009047206A401C761C20624E45F4DB2078E1
:10342000C0060AD52046AFF3008006E0D4E90121AA
:1034300030209047206A401C2062381EA7F1010707
:10344000F4DC07E0D4E9012118F805009047206A70
:10345000401C2062281EA5F10105F3DC2046AFF3D5
:1034600000802078000602D50220BDE8F087012008
:10347000FBE70000074B70B50D467B4400F011F8E8
:103480000446284600F020F810B14FF0FF3070BD20
:10349000204670BD65DDFFFF01694A1C02610878A6
:1034A000704700B58FB0CDE9013100210591054984
:1034B0007944CDE9031011466846FFF70DFF0FB0C0
:1034C00000BD0000E5FFFFFF007B00F080007047BB
:1034D000754600F029F8AE4605006946534620F0CF
:1034E0000700854618B020B5FDF726FFBDE820404F
:1034F0004FF000064FF000074FF000084FF0000BB0
:1035000021F00701AC46ACE8C009ACE8C009ACE862
:10351000C009ACE8C0098D4670470446AFF300808F
:103520002046FCF775FE0000004870474C04002060
:103530005035000800000020700300006C010008F6
:10354000403800087003002040070000D001000848
:1035500010C60807240740075C0779079507B107DD
:10356000CD07E907050821083D08590875089008A6
:10357000AC08C708E208FE08190934094F096909AF
:1035800084099E09B809D209EC09060A1F0A390AFA
:10359000520A6B0A830A9C0AB40ACC0AE40AFB0AA0
:1035A000130B2A0B400B570B6D0B830B990BAE0BB8
:1035B000C30BD80BEC0B000C140C280C3B0C4E0C62
:1035C000600C720C840C960CA70CB80CC80CD80CB0
:1035D000E80CF70C060D150D230D310D3E0D4B0DAE
:1035E000580D640D700D7B0D860D910D9B0DA50D75
:1035F000AE0DB70DC00DC80DD00DD70DDE0DE40D0D
:10360000EA0DF00DF50DF90DFE0D010E050E080E7B
:103610000A0E0C0E0E0E0F02321006120E10120AB7
:10362000181006050E010EFE2812F53012EA3812A7
:10363000DE4012D04812C05012AE58129B60128663
:1036400068127070125878123E8012238810040697
:103650000DF79412D89C12B8A41296AC1272B41240
:103660004EBC1228C41004000CECD012C3D812991E
:10367000E0126DE81240F01004130BFBFC16CC04B2
:10368000169C0C166B1416391C1404060AEC28162A
:10369000B830168438164F4014041909FE4C16C76A
:1036A0005416905C165964140621080508E974162E
:1036B000B17C16798416408C80C50807EB06CF06CE
:1036C000B30696067A065E06420626060A06EE054A
:1036D000D205B6059A057F05630548052D05110538
:1036E000F604DB04C004A6048B04710457043D04F3
:1036F00023040904F003D603BD03A4038C0373035E
:103700005B0343032B031403FC02E502CF02B80260
:10371000A2028C02760261024C02370223020F02DF
:10372000FB01E701D401C101AF019D018B017901CA
:103730006801570147013701270118010901FA0003
:10374000EC00DE00D100C400B700AB009F00940085
:1037500089007E0074006A00610058004F00470035
:103760003F00380031002B0025001F001A00160012
:1037700011000E000A0007000500030001000112FD
:103780000110120518120A20121128121A301225DF
:1037900038123140123F48124F5012615812746073
:1037A000128968129F7012B77812D1801006EC004F
:1037B000FA0009901227981247A01268A8128BB03D
:1037C00012AFB812D4C01004FB010FCC1237D412C0
:1037D00061DC128CE412B8EC1006E502FC0214FC69
:1037E00016430416730C16A4141406D603F003092A
:1037F00024163D2C16713416A63C1406DB04F60480
:10380000114C164854167F5C16B6641404EE050A73
:1038100070164278167A8016B38800041AEB0600F8
:10382000017004A24A04EAC008020304060708095A
:10383000212116611A00070002040608000000009A
:0400000508000131BD
:00000001FF
