:020000040800F2
:100000001809002059190008E1040008E304000859
:10001000E7040008EB040008EF04000800000000FB
:10002000000000000000000000000000F3040008D1
:10003000F504000800000000F7040008F9040008B7
:100040007319000873190008731900087319000860
:100050007319000873190008731900087319000850
:10006000731900087319000873190008BB11000800
:10007000910B00086B0B0008731900087319000836
:100080007319000873190008731900087319000820
:100090007319000873190008731900087319000810
:1000A0007319000873190008731900087319000800
:1000B000BB0B0008731900082B1400087319000803
:1000C00073190008731900087319000873190008E0
:1000D00073190008CF180008731900087319000875
:1000E00073190008731900087319000873190008C0
:1000F00073190008731900087319000873190008B0
:10010000731900087319000889130008731900088F
:100110007319000873190008B70E00087319000856
:10012000731900087319000873190008731900087F
:1001300000F002F800F03AF80AA090E8000C8244BF
:100140008344AAF10107DA4501D100F02FF8AFF29C
:10015000090EBAE80F0013F0010F18BFFB1A43F0A5
:1001600001031847CC4A0000EC4A0000103A24BFB3
:1001700078C878C1FAD8520724BF30C830C144BF0C
:1001800004680C607047000000230024002500264E
:10019000103A28BF78C1FBD8520728BF30C148BFEA
:1001A0000B6070471FB51FBD10B510BD03F0D1FD2A
:1001B0001146FFF7F7FF00F009F803F0EFFD03B475
:1001C000FFF7F2FF03BC01F027FB0000A2B001F033
:1001D000B9FA4FF4A06002F063F901F0ADF86420C1
:1001E00001F0EDFA00209D4908609D480C90082020
:1001F0000D909C480E90042010900120ADF83C001A
:1002000099480790042008909848099008200B907E
:100210004020ADF8280047234FF6FE7207A90CA82E
:1002200000F0A6FA02231E220021012000F066FA47
:10023000022332220021012000F060FA642001F044
:10024000BEFA8B48D0F8A001C043844908608948B1
:1002500011904014129088481390C020ADF85000BF
:1002600010201590002240F60F6111A800F0F4FC58
:10027000642001F0A4FA7E48D0F8A001C043774979
:10028000086002208DF8100001A8059001208DF86B
:1002900018000599087002200599487006200599F4
:1002A000087104200599488002200599887103216E
:1002B0000598C17106210598817208210598018170
:1002C00041F2883104A800F013FE642001F077FAAF
:1002D0006748D0F8A001C0436049086040F6FF704D
:1002E000664B674A674900901BA800F009FB40F67F
:1002F000FF70624B624A6349009016A800F000FB51
:10030000642001F05CFA5A48D0F8A001C043534978
:10031000086001231A4641F61F4140F2E73000F021
:1003200037FB0121584803F0B2FC0121574802F085
:10033000FEFA642001F043FA0120484908600020D9
:10034000534908605349088053490880534908704D
:1003500053490870534908704FF07E505249086065
:100360000020524908705249087052490880524989
:10037000088046F2A81051490880514908806BE076
:1003800046480078F8B14F4800884CF25031884216
:1003900014DA4C48008842F2107188420EDD494957
:1003A000088803F023FE0646474A484B03F032FE16
:1003B000044603F0D7FD401E454988850020374993
:1003C00008703749087037480078002844D020ABBF
:1003D00021AAC8213F4800F073FFBDF88020BDF876
:1003E00084101BA800F097FA009003F0E8FD804607
:1003F000394A3A4B03F00EFE04460D462A4800687F
:1004000003F0F0FF064622462B4603F003FD82462A
:1004100003F0CEFC244908604FF07E51224800686A
:1004200004F0CEF904D24FF07E501F49086008E076
:1004300000211D48006804F0C3F802D200201A49C8
:1004400008600121104803F022FC0121880703F015
:1004500073F800201349087092E70000A0012142C0
:10046000000C00400008014000080040000C014062
:10047000000021420034014000100140EC51B83D21
:10048000CDCCCC3D6666E63E08000240002401402B
:10049000888122421E00002024000020120000203B
:1004A0001300002014000020200000201100002074
:1004B000100000201C0000201A000020180000205E
:1004C00016000020000000200AD7A3703D0AC73F95
:1004D000001000406000002074479CA1FAFF2F3FED
:1004E000704700BFFEE700BFFEE700BFFEE700BFAA
:1004F000FEE7704770477047704700000CB500205A
:10050000019000906C48006840F480306A490860AF
:1005100000BF6948006800F4003000900198401C5A
:100520000190009818B90198B0F5A06FF1D1624818
:10053000006800F4003010B10120009001E00020BC
:1005400000900098012843D15C48006840F01000FA
:100550005A4908600846006820F003000860084611
:10056000006840F002000860534840685249486003
:100570000846406848600846406840F4806048602B
:100580000846406820F47C1048600846406840F403
:10059000E81048600846006840F08070086000BFBE
:1005A0004548006800F000700028F9D042484068D3
:1005B00020F00300404948600846406840F00200CF
:1005C000486000BF3C48406800F00C000828F9D1A2
:1005D0000CBD10B5FFF792FF10BD10B5364800688E
:1005E00040F001003449086008464068344908403A
:1005F0003149486008460068324908402E49086081
:100600000846006820F4802008600846406820F40E
:10061000FE0048604FF41F008860FFF7DAFF4FF0DC
:1006200000602949086010BD10B50021002000229B
:10063000214B5B6803F00C0121B1042906D0082985
:1006400028D107E0214B224C236027E01F4B204C90
:10065000236023E0184B5B6803F47010164B5B6853
:1006600003F48032022303EB904022B9194B434339
:10067000174C23600DE0104B5B6803F4003323B18B
:10068000144B4343124C236003E0104B4343104C84
:10069000236003E00D4B0E4C236000BF00BF064BF0
:1006A0005B68C3F303130C4CE15C094B1B68CB4044
:1006B000074C236010BD00000010024000200240E3
:1006C0000000FFF8FFFFF6FE08ED00E000127A00E0
:1006D0002800002000093D002C00002001460723CF
:1006E00023EA01021202824B18684FF6FF031840FA
:1006F000804B184310437E4B186070472DE9F04142
:100700000746884614461D462846FFF7E7FFC5F111
:10071000040007FA00F60F20284100EA080006430B
:1007200006F00F06E21704EBD2625211920002F1BA
:10073000E022D2F800212146E31704EBD3635B11DA
:10074000A4EB431C012303FA0CF31A432046E317DE
:1007500004EBD3635B119B0003F1E023C3F800219A
:100760006548005D40EA061063490855BDE8F08120
:100770002DE9FC4104460D4617461E46012120691D
:1007800001F026FC0121286901F022FCA089ADF8C6
:10079000040028208DF8070003208DF80600A889A2
:1007A000ADF8000028208DF8030003208DF802002A
:1007B00001A9A06801F050F96946A86801F04CF958
:1007C0000121606801F011FC0121686801F00DFC55
:1007D00020688785206806852868878528680685BB
:1007E0002068008B40F00100216808832068008B9E
:1007F00040F40070216808832068008C2168088418
:100800002068008C40F0200021680884206800895E
:1008100040F05000216808812068008940F0040001
:10082000216808812068008C40F00100216808845C
:100830002068008C40F01000216808842868008B34
:1008400040F00100296808832868008B40F400709C
:10085000296808832868008C296808842868008C27
:1008600040F02000296808842868008940F0500082
:10087000296808812868008940F0040029680881F7
:100880002868008C40F00100296808842868008CE2
:1008900040F01000296808842068808940F0020038
:1008A000216888812868808940F002002968888151
:1008B0000121202001F099FB4FF6FF700F490880BD
:1008C000081F068000200D490839088021688884A7
:1008D000296888842068008840F001002168088029
:1008E0002868008840F0010029680880BDE8FC8184
:1008F0000CED00E00000FA0500E400E02C140040DC
:1009000030B5039C00250582458241608260C3604A
:1009100025B2058030BD2DE9FE4F04460D46164632
:1009200028B220802088801B07B2B4F9120003F09F
:100930002FFE8346E16803F077FE0290B4F91000C1
:1009400003F026FE0090A16803F06EFE0190384689
:1009500003F01EFE0090616803F066FE8346019975
:1009600003F060FF8246029903F068FD814603F0C0
:10097000D3FD0FFA80F8208A608227824046BDE8C6
:10098000FE8F00210182418270470AB202807047C7
:10099000F0B593B006460F4614461D4601210846A1
:1009A00001F009FB0121080301F012FB01210420E1
:1009B00001F00EFBE020ADF8040018208DF80700D0
:1009C00003208DF8060001A9874801F045F8E021D1
:1009D000854801F0EEF80020ADF83800012C02D176
:1009E0004FF4827000E00020ADF83A004FF4006050
:1009F000ADF83C000220ADF83E000120ADF840000B
:100A00004002ADF842001820ADF844000020ADF8D7
:100A100046000720ADF848000EA9744801F0D4FD47
:100A2000734803F067F871480C30039071480490E4
:100A30000020059004200690002007908020089058
:100A40004000099080000A9000200B904FF4405025
:100A50000C9000200D9003A9654803F0EDF8644860
:100A6000143003F047F861480C300390624804905A
:100A70001020059004200690002007908020089008
:100A80004000099080000A9000200B904FF44050E5
:100A90000C9000200D9003A95548143003F0CCF8B9
:100AA000012202215248143003F0FDF801220221F4
:100AB0004F4803F0F8F84D48808840F002004B4959
:100AC00088800846808840F0010088800C208DF8DE
:100AD000080000208DF8090001208DF80A008DF82B
:100AE0000B0002A801F0E1FC0D208DF808000020A9
:100AF0008DF8090001208DF80A008DF80B0002A87E
:100B000001F0D3FC5DB13946304600F0FDFC002019
:100B10004FF0804188840121880702F00DFD0121FA
:100B2000334803F0B4F800213148143003F0AFF833
:100B300001212E4801F0EDFD13B0F0BD70B5054662
:100B4000002400BF05E035F814002B4921F81400FB
:100B5000641C042CF7DB042025491C39486301215F
:100B60002348143003F093F870BD10B54FF40070B3
:100B700003F0C7F858B100202049087000211C4834
:100B8000143003F084F84FF4007003F0CEF810BD79
:100B900010B5202003F0B5F870B10021144803F01F
:100BA00076F8042012491C3908620121104803F02C
:100BB0006EF8202003F0B9F810BD10B501218807A8
:100BC00002F083FF78B101200C4908700420084925
:100BD0001C39486301210648143003F058F80121FC
:100BE000880702F083FF10BD00080140003001407B
:100BF0001C0002400800002000000020120000201D
:100C00007FB505460C460121102001F0EEF9ADF844
:100C10000850ADF804400020ADF80A00ADF8060019
:100C200001A9AD4802F02CF90121AB4802F084FD86
:100C300001221146A84802F09AFC36208DF80000E7
:100C400003208DF801008DF8020001208DF80300CB
:100C5000684601F02AFC7FBD70B58CB004460D4695
:100C600016460121606801F0B3F90121206901F005
:100C7000AFF90121084601F0ABF9A089ADF82C00CD
:100C800018208DF82F0003208DF82E000BA9A068E6
:100C900000F0E2FEADF82450ADF820600020ADF881
:100CA0002600ADF8220008A9206802F0E9F86020CB
:100CB000ADF810000120ADF812000420ADF81400CA
:100CC0000020ADF81600ADF81800ADF81A00ADF828
:100CD0001C00ADF81E004FF40060ADF8000040109D
:100CE000ADF802000020ADF804001420ADF80600B5
:100CF0000020ADF80800ADF80A00ADF80C00694618
:100D0000206802F0D9FB04A9206802F0F6F804A9D3
:100D1000206802F034F90121206802F019FC082152
:100D2000206802F039FD0821206802F03EFD012113
:100D3000206802F001FD002140F60F60FFF760FF20
:100D40000121654802F0F8FB0121206802F0F4FB64
:100D50000021206802F088FE0021206802F086FE53
:100D60000CB070BD2DE9F04706460C46154635BB64
:100D700021885A4A32F9111001F2077003F008FC79
:100D80008146314603F050FC804603F0E1FB87B218
:100D90003946534802F06AFE2088504931F9100064
:100DA00040F20771884204DB00214D4802F05CFEEE
:100DB00076E040F60F614A4802F056FE70E0012DE1
:100DC00056D14848007848BB012046490870218820
:100DD000424A32F9111001F2077003F0D9FB814643
:100DE000314603F021FC804603F0B2FB87B239465E
:100DF0003B4802F03BFE2088384931F9100040F2B0
:100E00000771884204DB0021354802F02DFE47E0DF
:100E100040F60F61324802F027FE41E000203149E0
:100E2000087021882D4A32F9111001F2077003F081
:100E3000AFFB8146314603F0F7FB804603F088FBA9
:100E400087B23946264802F00FFE2088234931F93F
:100E5000100040F20771884204DB0021204802F0B4
:100E600005FE1DE040F60F611D4802F0FFFD17E092
:100E700000211B4802F0F8FD2188184A32F91110B0
:100E800001F2077003F084FB8146314603F0CCFB8E
:100E9000804603F05DFB87B23946114802F0E6FD5B
:100EA0002088401C4FF4C87190FBF1F201FB120046
:100EB0002080BDE8F08710B50121074802F005FE4B
:100EC00048B10022084909480068FFF74BFF01219B
:100ED000014802F00BFE10BD001000400E49000852
:100EE000003401403C0000201E00002020000020B3
:100EF000F0B599B004460E460121084601F075F898
:100F00000121480201F064F80121084601F053F87C
:100F10000121042001F05CF84FF4004000F0BCFF18
:100F200041F28830864201D1C72001E040F28F10A3
:100F3000ADF818004720ADF814000020ADF81A00F5
:100F4000ADF8160005A94FF0804001F099FF602030
:100F5000ADF804000120ADF8060041F28830864269
:100F600001D13B2000E09F20ADF80A000220ADF83F
:100F70000C0001A9400702F002F84FF0804002F097
:100F80000FFB0821C80602F010FC00214FF0804042
:100F900002F01EFD0121084601F00DF8AB4802F0F9
:100FA000A9FDAB480890AB48099000200A90C820E2
:100FB0000B9000200C9080200D9040000E9080003F
:100FC0000F9020201090000211900020129008A98C
:100FD0009E4802F031FE012202219C4802F063FE8D
:100FE0000121084600F0E7FF0121084600F0F0FF6C
:100FF0004FF4C06001F054FA0B208DF8000000207F
:101000008DF801008DF8020001208DF8030068467C
:1010100001F04BFA00201490207A08B1012000E082
:1010200000208DF8540000208DF855004FF4C020AA
:1010300016900020179020788DF8600014A984483D
:101040004C3801F048FC002529E045B905EB450185
:10105000606800EB41004088ADF84C000AE005EB09
:101060004501606800EB41004088BDF84C10084322
:10107000ADF84C0005EB4507606800EB47000379CD
:1010800005EB4507606810F8172005EB450700EBF6
:10109000470041786E484C3801F0B5FC6D1C207853
:1010A000A842D2DC00208DF84F0013A96A4800F056
:1010B000D3FC012166484C3801F039FC64484C38B7
:1010C00001F057FC00BF62484C3801F057FC012882
:1010D000F9D05F484C3801F05BFC00BF5C484C38ED
:1010E00001F05BFC0128F9D0012159484C3801F08E
:1010F000E6FC012156484C3801F024FC01215448FB
:101100004C3801F014FC0021504802F0C0FD0021D1
:101110004FF0804002F010FA19B0F0BD30B587B042
:1011200004460D46A089ADF8040000208DF80700A4
:1011300001A9A06800F090FC002002908DF80C003E
:101140008DF80D004FF460200490002005900120E0
:101150008DF8180002A9206801F0BDFB012120686C
:1011600001F0E5FB206801F004FC00BF206801F0FD
:1011700005FC0028FAD1206801F00AFC00BF2068B5
:1011800001F00BFC0028FAD107B030BD10B50446C1
:10119000A37B61790122206801F035FC01212068E0
:1011A00001F005FC00BF0221206801F071FD00285C
:1011B000F9D0206801F08EFC10BD10B5022002F0BD
:1011C000A0FDA0B125480068C0432549C1F8A00191
:1011D00001202449087000211C4802F058FD00211C
:1011E0004FF0804002F0A8F9022002F09EFD10BDF1
:1011F00010B5012116484C3801F099FB0121134824
:1012000002F045FD0121880702F096F910BD10B5E6
:1012100000210F484C3801F08AFB00210B4802F0F6
:1012200036FD00214FF0804002F086F910BD10B568
:1012300004460121204601F07AFB10BD10B504469A
:101240000021204601F073FB10BD000008000240A1
:101250004C2401406000002000080140A001214210
:1012600000002142140000202DE9F84F05460E46EB
:10127000174698464FF000094FF6FF7A3C460FE0BC
:1012800035F81400484502DD35F8149005E035F8CE
:101290001400504501DA35F814A004EB080084B2BC
:1012A000B442EDDBA9EB0A0003F072F900900A9951
:1012B00003F0BAF9834603F04BF980B2BDE8F88F2A
:1012C0002DE9F041044600254FF6FF760027B4468D
:1012D000002025E034F81080A84502DD34F81050D5
:1012E00005E034F81080B04501DA34F8106000F100
:1012F000010834F81880B84504DD00F1010834F81D
:10130000187009E000F1010834F81880E04503DAAC
:1013100000F1010834F818C000F102081FFA88F043
:101320008842D7DBA5EB0608A2F80080A7EB0C08E3
:10133000A3F80080BDE8F08108B50121242000F069
:1013400047FE4FF48070ADF8000010208DF80300C8
:1013500003208DF802006946094800F07DFB4FF438
:101360008071074800F025FC0420ADF800006946B4
:10137000044800F071FB0421024800F01AFC08BD8B
:10138000000801400014014010B502214F4802F04E
:101390009CFB012848D100204D49088002214B4880
:1013A00002F0A4FB494834300088401C84B2002C71
:1013B0003AD04848048001204749087047480078DF
:1013C00058B90020464908800021464802F048FBF1
:1013D0000121444802F0B0F826E00021414802F023
:1013E000ABF8404802F05FFB3D4908803E4800787A
:1013F000A8B93E480068C0433D49C1F8A00135483E
:1014000000883C4908803C4800884880344800886F
:1014100088803A480088C88001203349087000203D
:101420002D4908702D49087010BD10B502213448AF
:1014300002F04BFB012848D10221314802F056FB53
:101440002F4834300088401C84B2002C3DD02A48FC
:1014500004800120214908701F48007858B90020F5
:101460002649088000211F4802F0FAFA01211D4890
:1014700002F062F829E000211A4802F05DF81948EC
:1014800002F011FB1D49088017480078C0B91D48BB
:101490000078A8B915480068C0431549C1F8A001F3
:1014A0000C480088134908801348008848800C487D
:1014B0000088888011480088C88001200A49087087
:1014C0000020054908700549087010BD000C004057
:1014D0001E00002016000020100000201100002037
:1014E0001A0000200004004013000020A001214247
:1014F0000000214200000020180000201C000020F5
:1015000000080040120000207FB505460C4601216E
:10151000084600F06AFDADF80850ADF80440002020
:10152000ADF80A00ADF8060001A94FF0804001F0C7
:10153000A7FC01221146900702F019F81C208DF833
:10154000000000208DF801008DF8020001208DF8C8
:101550000300684600F0A9FF0121880701F0ECFFB5
:101560007FBD3EB505460C460121022000F03DFD41
:10157000ADF80450ADF800400020ADF80600ADF81D
:1015800002006946694801F07BFC3EBD7FB5054617
:101590000C460121042000F028FDADF80850ADF8FC
:1015A00004400020ADF80A00ADF8060001A960482B
:1015B00001F066FC012211465D4801F0D8FF1E20B3
:1015C0008DF8000000208DF8010001208DF8020048
:1015D0008DF80300684600F068FF7FBD7FB50546C3
:1015E0000C460121102000F000FDADF80850ADF8C8
:1015F00004400020ADF80A00ADF8060001A94D48EE
:1016000001F03EFC01214B4802F096F80122114600
:10161000484801F0ACFF36208DF8000003208DF81B
:1016200001008DF8020001208DF80300684600F0EB
:101630003CFF7FBD7FB505460C460121202000F010
:10164000D4FCADF80850ADF804400020ADF80A0015
:10165000ADF8060001A9384801F012FC012211463C
:10166000354801F084FF37208DF8000001208DF807
:10167000010000208DF8020001208DF8030068466B
:1016800000F013FF7FBD7FB505460C4601214803DE
:1016900000F0ABFCADF80850ADF804400020ADF808
:1016A0000A00ADF8060001A9244801F0E9FB012277
:1016B0001146224801F05BFF2C208DF8000001202C
:1016C0008DF8010000208DF8020001208DF8030044
:1016D000684600F0EAFE7FBD7FB505460C46012155
:1016E000C80200F082FCADF80850ADF804400020BC
:1016F000ADF80A00ADF8060001A9114801F0C0FBE1
:10170000012211460E4801F032FF19208DF8000029
:1017100001208DF8010000208DF8020001208DF8D5
:101720000300684600F0C1FE7FBD000000040040D9
:101730000008004000100040001400400034014048
:10174000002C014010B56FF0040000F0F8FE2E48A8
:1017500000682E49B0FBF1F02D490870084600786A
:1017600000EB4001C1EBC0104FF6FF7101EAC00071
:101770002849088010BD0146254A12784A434FF097
:10178000E0235A6100229A611A46126942F001026E
:101790001A6100BF4FF0E022106900F001021AB197
:1017A00000F48032002AF5D04FF0E022126922F0D6
:1017B00001024FF0E0231A6100229A61704701464E
:1017C000144A12884A434FF0E0235A6100229A617A
:1017D0001A46126942F001021A6100BF4FF0E0227E
:1017E000106900F001021AB100F48032002AF5D02D
:1017F0004FF0E022126922F001024FF0E0231A615B
:1018000000229A61704700002800002000127A0030
:101810003E00002040000020014600BF704700BF8E
:10182000494A128802F04002002AF9D0C2B2464B5F
:101830001B1D1A80704710B586B00446012144F282
:10184000040000F0C5FB4FF40070ADF81400032055
:101850008DF8160018208DF8170005A93B4800F0F8
:10186000FBF84FF48060ADF8140004208DF81700E9
:1018700005A9364800F0F0F825208DF80000032077
:101880008DF801008DF8020001208DF803006846F4
:1018900000F00BFE01940020ADF80800ADF80A003E
:1018A000ADF80C00ADF810000C20ADF80E0001A949
:1018B000254800F034FC012240F22551224800F076
:1018C000C6FC0121204800F0B6FC06B010BD10B5E2
:1018D00040F225511C4800F09FFD10B31A4800F05B
:1018E0001BFDC4B21A48008800F40040C8B918486B
:1018F000008800F4804060B10A2C03D00020144915
:10190000088020E01248008840F400401049088018
:1019100019E00D2C06D10E48008840F480400C4997
:10192000088010E00A480088C0F30D0009490C54F3
:1019300007480088401C0649088008460088C728D8
:1019400001DD0020088010BD003801400008014082
:1019500048000020F001002009488047094800475E
:10196000FEE7FEE7FEE7FEE7FEE7FEE7FEE7FEE74F
:10197000FEE7FEE704480549054A064B70470000AC
:10198000DB050008310100081803002018090020B9
:10199000180500201805002010B50446CC488442E4
:1019A00008D10121042000F02DFB0021042000F0CB
:1019B00029FB46E0C748844208D10121082000F0F5
:1019C00021FB0021082000F01DFB3AE0C2488442C0
:1019D00008D10121102000F015FB0021102000F09B
:1019E00011FB2EE0BD48844208D10121202000F0E7
:1019F00009FB0021202000F005FB22E0B8488442CA
:101A000008D10121402000F0FDFA0021402000F023
:101A1000F9FA16E0B348844208D10121802000F091
:101A2000F1FA0021802000F0EDFA0AE0AE4884428D
:101A300007D10121801500F0E5FA0021A01500F082
:101A4000E1FA10BD10B50121084600F0DBFA0021D3
:101A5000012000F0D7FA10BD2DE9F0410246002523
:101A60000026002000230024002791F803C00CF07A
:101A70000F0591F803C00CF0100CBCF1000F03D05F
:101A800091F802C04CEA050591F800C0BCF1000FC6
:101A900031D0146800202BE04FF0010C0CFA00F359
:101AA000B1F800C00CEA03069E4220D183004FF03B
:101AB0000F0C0CFA03F7BC4305FA03FC4CEA0404D0
:101AC00091F803C0BCF1280F06D14FF0010C0CFABD
:101AD00000FCC2F814C00AE091F803C0BCF1480F42
:101AE00005D14FF0010C0CFA00FCC2F810C0401CEC
:101AF0000828D1D31460B1F800C0BCF1FF0F34DD69
:101B0000546800202EE000F1080C4FF0010808FA9C
:101B10000CF3B1F800C00CEA03069E4221D1830009
:101B20004FF00F0C0CFA03F7BC4305FA03FC4CEA28
:101B3000040491F803C0BCF1280F05D100F1080C92
:101B400008FA0CF8C2F8148091F803C0BCF1480FF1
:101B500007D100F1080C4FF0010808FA0CF8C2F8A0
:101B60001080401C0828CED35460BDE8F0814FF6A9
:101B7000FF710180022181700421C170704702460B
:101B8000002093680B400BB1012000E0002070475B
:101B90000146886880B2704702460020D3680B4037
:101BA0000BB1012000E0002070470146C86880B2F8
:101BB000704701617047416170470AB1016100E0FF
:101BC00041617047C16070474FF480320A438261BF
:101BD0008161826182698269704702460020434BBD
:101BE00018684FF68073184040EA021008433F4BD4
:101BF000186070473E49C8617047F0B50A46002337
:101C000000240021002500F00046B6F1004F02D16B
:101C1000364EF16901E0354E7168C0F3034583B279
:101C200000F44016B6F5401F08D121F070612F4E28
:101C3000766826F070662D4F7E6012E000F4801604
:101C4000B6F5801F06D1032606FA05F4A14341F03C
:101C5000706106E0460D360103FA06F6B14341F025
:101C6000706122B1460D360103FA06F6314300F0E9
:101C70000046B6F1004F02D11C4EF16101E01B4E4F
:101C80007160F0BD30B500228B071C0F0F2303FAE3
:101C900004F2164B08338C1053F824309343134C42
:101CA00008348D1044F8253023468C1053F8243026
:101CB0008C07240F00FA04F423430C4C08348D10D5
:101CC00044F8253030BD0A49DC3108607047000017
:101CD00000080140000C01400010014000140140C8
:101CE00000180140001C014000200140000001409C
:101CF00000002042DF48006840F00100DD49086034
:101D000008464068DC490840DA49486008460068EF
:101D1000DA490840D74908600846006820F4802066
:101D200008600846406820F4FE0048604FF41F0039
:101D300088607047CF49096821F48031CD4A11602D
:101D40001146096821F480211160B0F5803F03D06D
:101D5000B0F5802F0ED106E0C649096841F4803104
:101D6000C44A116007E0C349096841F4A021C14A8F
:101D7000116000E000BF00BF704710B501460022AF
:101D8000002300204A11012A02D1BA4C236806E040
:101D9000022A02D1B74C236A01E0B64C636A01F013
:101DA0001F02012494401C400CB1012000E00020DF
:101DB00010BD38B5002000900024002500BF312060
:101DC000FFF7DBFF05460098401C00900098B0F537
:101DD000A06F01D0002DF2D03120FFF7CEFF08B167
:101DE000012400E00024204638BD01460020A14A1D
:101DF000106820F0F80040EAC10010607047A04968
:101E000008607047024600209A4B586820F47C1006
:101E100042EA01031843974B586070479849086697
:101E2000704701460020934A506820F003000843A1
:101E3000506070478F48406800F00C0070470146C2
:101E400000208C4A506820F0F00008435060704732
:101E500001460020874A506820F4E0600843506043
:101E6000704701460020834A506820F4605040EAE1
:101E7000C1005060704729B17E4A527A02437D4BBF
:101E80005A7204E07B4A527A82437A4B5A72704704
:101E90007B49D8310860704701460020754A506878
:101EA00020F440400843506070470021714A2032BE
:101EB0001170704A82F82010012802D004280AD13B
:101EC00004E001216B4A2032117005E00521694AC6
:101ED0002032117000E000BF00BF70476949086000
:101EE00070476449096A0143624A11627047654953
:101EF00044390860704730B50021002200240023D7
:101F00005C4D6D6805F00C0121B1042905D008294C
:101F100023D105E05C4D056022E05B4D05601FE0CC
:101F2000544D6D6805F47012524D6D6805F480349F
:101F3000022505EB92421CB9544D554305600BE058
:101F40004C4D6D6805F400351DB1504D554305608D
:101F500002E04D4D5543056002E04B4D056000BF6A
:101F600000BF444D6D6805F0F0010909484D6B5CF8
:101F70000568DD4045603F4D6D6805F4E061090A84
:101F8000434D6B5C4568DD4085603A4D6D6805F4F6
:101F90006051C90A3E4D6B5C4568DD40C560354DFA
:101FA0006D6805F44041890B3A4D6B5CC568B5FB23
:101FB000F3F5056130BD29B12E4A526902432D4B1C
:101FC0005A6104E02B4A526982432A4B5A61704796
:101FD00029B1284A92690243264B9A6104E0254AB6
:101FE00092698243234B9A61704729B1214AD26991
:101FF0000243204BDA6104E01E4AD26982431D4B42
:10200000DA61704729B11B4AD2680243194BDA6082
:1020100004E0184AD2688243164BDA60704729B14F
:10202000144A12690243134B1A6104E0114A1269FF
:102030008243104B1A61704712494039086070475B
:102040000F49C86470470B49C87170470948406A16
:1020500040F0807007494862704701460020054AF9
:1020600092680A400AB1012000E00020704701494F
:1020700088727047001002400000FFF8FFFFF6FE74
:10208000000042428004424200127A0000093D00F2
:102090004A0000205A00002010B50446FB48844244
:1020A00009D101218803FFF7ADFF00214FF48040E3
:1020B000FFF7A8FF32E0F648844209D10121480425
:1020C000FFF7ADFF00214FF40030FFF7A8FF25E038
:1020D000F048844209D101218804FFF7A0FF0021C4
:1020E0004FF48020FFF79BFF18E0EB48844209D1B2
:1020F0000121C804FFF793FF00214FF40020FFF7F0
:102100008EFF0BE0E548844208D101210805FFF766
:1021100086FF00214FF48010FFF781FF10BD2DE9ED
:10212000F04786B005460E460024A24600BFA146F1
:102130000027B08900B100BF2F462C8A4CF6FF70F3
:102140000440F08804432C82AC894EF6F31004401E
:10215000B08831890843718908430443AC81AC8A53
:102160004FF6FF400440B0890443AC8201A8FFF75A
:10217000C2FEC648874202D1DDF810A001E0DDF8BA
:102180000CA0A88900F4004040B10AEBCA0000EBA3
:102190000A1031684900B0FBF1F807E00AEBCA0009
:1021A00000EB0A1031688900B0FBF1F86420B8FB3D
:1021B000F0F004012009642101FB1089A88900F4D2
:1021C000004040B1322000EBC900B0FBF1F000F05C
:1021D0000700044308E0322000EB09106421B0FB43
:1021E000F1F000F00F0004432C8106B0BDE8F08749
:1021F0004FF41651016000218180C18001810C21C2
:10220000418100218181704710B502460020108A6B
:102210004FF2FF0318400B884C8823438C882343DC
:10222000CC8823431843108210BD002101804180D7
:102230008180C180704721B1828942F4005282813D
:1022400004E082894DF6FF731A4082817047F0B531
:102250000346002400260025002040F66A17B942F4
:1022600000D100BF1846C1F3421401F01F06012738
:1022700007FA06F5012C01D10C3004E0022C01D143
:10228000103000E014301AB107682F43076002E0F5
:102290000768AF430760F0BD1AB1838A0B4383829E
:1022A00002E0838A8B4383827047028A4FF6F07381
:1022B0001A400282028A0A430282704782894FF2E0
:1022C000FF731A40828182890A438281704721B15B
:1022D000828942F00202828104E082894FF6FD7316
:1022E0001A4082817047028A4FF6DF731A400282D9
:1022F000028A0A430282704721B1028A42F4804274
:10230000028204E0028A4BF6FF731A400282704791
:10231000C1F308028280704701468888C0F3080034
:102320007047818941F0010181817047028BD2B2EF
:102330000283028B42EA012202837047028B02F47D
:102340007F420283028B0A430283704721B1828A53
:1023500042F02002828204E0828A4FF6DF731A4044
:102360008282704721B1828A42F01002828204E0A8
:10237000828A4FF6EF731A408282704721B1828AB7
:1023800042F00802828204E0828A4FF6F7731A4014
:102390008282704721B1828942F40042828103E047
:1023A0008289C2F30E028281704721B1828A42F48F
:1023B0000062828204E0828A4FF2FF731A408282B6
:1023C0007047828A4FF6FB731A408282828A0A43E0
:1023D0008282704721B1828A42F00202828204E046
:1023E000828A4FF6FD731A408282704702460020AF
:1023F000B1F5007F00D100BF13880B400BB1012065
:1024000000E00020704701F40072B2F5007F00D1B7
:1024100000BFCA430280704770B502460024002303
:102420000025002040F66A16B14200D100BFC1F37A
:10243000421501F01F03012606FA03F3012D02D114
:102440009689334006E0022D02D1168A334001E01E
:10245000968A33400C12012606FA04F4168834409A
:1024600013B10CB1012000E0002070BD10B50022B6
:10247000002340F66A14A14200D100BF0A120124D1
:102480009440A3B2DC43048010BD0000003801403A
:102490000044004000480040004C00400050004014
:1024A00031490143314A1160704770B50021002362
:1024B0000F22C47804B32D4C246804F4E064C4F5FE
:1024C000E064210AC1F10403CA40447804FA03F12C
:1024D0008478144021430901254C0678A1550478DD
:1024E00004F01F050124AC4005786D11AD0005F125
:1024F000E025C5F8004109E0047804F01F05012437
:10250000AC401C4D0678761145F8264070BD1A4A3D
:102510000A400243154B1B1F1A60704739B1134A1A
:10252000121D12680243114B1B1D1A6006E00F4A70
:10253000121D126882430D4B1B1D1A607047042840
:1025400008D14FF0E021096941F004014FF0E02289
:10255000116107E04FF0E021096921F004014FF01B
:10256000E0221161704700000000FA050CED00E068
:1025700000E400E080E100E080FFFF1F10B50446AA
:10258000BE48844208D101218014FFF73BFD0021A1
:10259000A014FFF737FD16E0B948844208D10121A5
:1025A0000014FFF73CFD00212014FFF738FD0AE07E
:1025B000B448844207D10121C013FFF730FD002148
:1025C000E013FFF72CFD10BD10B50022028802F4C5
:1025D00041520B884C8823438C882343CC88234367
:1025E0000C8923434C8923438C892343CC8923437F
:1025F0001A430280838B4FF2FF74234083830B8A3C
:10260000038210BD2DE9F04F85B005460C464FF012
:10261000000902274FF000084FF0010B0026B246D8
:10262000A88B4FF240010840A88302202884B5F807
:102630001C90A068022801D100BF38E0A08810B922
:102640004FF0010B01E04FF0020B8D48854200D1A5
:1026500000E000BF6846FFF74EFCDDF800A0E08810
:10266000B0F5007F0AD14FEA1A2000EB800040004D
:10267000A168B0FBF1F0401D86B20BE04FEA4B10B1
:10268000BAFBF0F000EB80004000A168B0FBF1F075
:10269000401D86B20A20B6FBF0F606F00108A6EB54
:1026A0000800C0F34F074FF6FF7000EA0828022F1A
:1026B00001DBFF2F02DD02274FF00008E08840EA2F
:1026C000080038432884A088A1890843618808430A
:1026D0002188084340F4006040EA0909A5F81C90ED
:1026E00005B0BDE8F08F0021018041808180C1806C
:1026F000018141818181C1810721018270470021CF
:10270000018041808180C18002218160002181811E
:10271000704721B1028842F04002028004E0028842
:102720004FF6BF731A400280704721B1828B42F48A
:102730008062828304E0828B4FF6FF331A408283EB
:10274000704730B5002400230C110125A540ABB221
:102750001AB185881D43858002E085889D43858068
:1027600030BD1AB183880B43838002E083888B439A
:1027700083807047818170470146888970474FF692
:10278000FF62914204D0028842F48072028004E029
:1027900002884FF6FF631A400280704721B1828899
:1027A00042F00402828004E082884FF6FB731A40F4
:1027B0008280704702884FF2FF731A4002800288BD
:1027C0000A4302807047018841F4805101807047BC
:1027D00021B1028842F40052028004E002884DF6E2
:1027E000FF731A400280704702460020012901D081
:1027F000108B00E0908A70470146088A7047B1F557
:10280000804F04D1028842F48042028004E00288B2
:102810004BF6FF731A40028070470246002013896E
:102820000B400BB1012000E000207047CA43028139
:102830007047F0B50246002000240023002501F077
:102840000F070126BE40B4B20B1101269E40B3B261
:10285000968806EA03051689264016B10DB10120B7
:1028600000E00020F0BD10B5002201F00F040123AC
:10287000A3409AB2D343038110BD00000030014051
:1028800000380040003C004010B50446FA4884423D
:1028900008D101214015FFF7B5FB00216015FFF7B6
:1028A000B1FB17E0F548844208D101210015FFF77C
:1028B000A9FB00212015FFF7A5FB0BE0F04884429F
:1028C00008D10121C803FFF79DFB00214FF4004010
:1028D000FFF798FB10BD30B502460020002350687A
:1028E000E84C20400D790C6844EA052420435060F0
:1028F0009068E54C2040D1E902542C434D7944EADC
:10290000450420439060D06A20F470000C7C641E63
:10291000E4B2234340EA0350D06230BD002101609D
:10292000017141718160C16001210174704721B161
:10293000826842F00102826003E0826822F00102B4
:102940008260704721B1826842F48072826003E045
:10295000826822F480728260704710B50023CBB287
:102960001AB144681C43446002E044689C434460DC
:1029700010BD816841F00801816070470146002068
:102980008A6802F008020AB1012000E000207047C6
:10299000816841F0040181607047014600208A6827
:1029A00002F004020AB1012000E00020704721B1CA
:1029B000826842F4A002826003E0826822F4A002EE
:1029C00082607047014600208A6802F480020AB1E2
:1029D000012000E00020704710B50A4600210023C6
:1029E000416821F46041531E41EA4331416010BD0A
:1029F00021B1426842F40062426003E0426822F47E
:102A0000006242607047F0B504460D460020002188
:102A1000092D11DDE068A5F10A0606EB4607072639
:102A200006FA07F18843A5F10A0606EB460603FA03
:102A300006F10843E0600CE0206905EB4507072636
:102A400006FA07F1884305EB450603FA06F1084349
:102A50002061072A0FDA606B561E06EB86071F26D9
:102A600006FA07F18843561E06EB860605FA06F1BC
:102A70000843606322E00D2A0FDA206BD61F06EBB5
:102A800086071F2606FA07F18843D61F06EB86063F
:102A900005FA06F10843206310E0E06AA2F10D0692
:102AA00006EB86071F2606FA07F18843A2F10D06FA
:102AB00006EB860605FA06F10843E062F0BD21B197
:102AC000826842F48012826003E0826822F48012FD
:102AD000826070470146C86C80B2704766484C30CF
:102AE0000068704721B1426842F48062426003E0AE
:102AF000426822F480624260704721B1426842F429
:102B00008052426003E0426822F480524260704783
:102B10000A460021816821F4E04111438160704739
:102B200021B1826842F40042826003E0826822F4AC
:102B300000428260704721B1826842F402128260D2
:102B400003E0826822F4021282607047014600208E
:102B50008A6802F400120AB1012000E000207047E8
:102B6000F0B504461546002000220026092911DD93
:102B7000E068A1F10A0707EB470C072707FA0CF2F8
:102B80009043A1F10A0707EB470703FA07F2104346
:102B9000E0600CE0206901EB410C072707FA0CF21A
:102BA000904301EB410703FA07F210432061A06B49
:102BB000C0F30156EF1C06F1010CA7EB0C0707EB65
:102BC000870C1F2707FA0CF29043EF1C06F1010C4B
:102BD000A7EB0C0707EB870701FA07F21043A06386
:102BE000F0BD10B50A4600210023816B21F440118D
:102BF000531E41EA0351816310BD08B500230093C1
:102C00000090009B0B440093009B1A6008BD08B520
:102C1000024600200090009201F12800009B184419
:102C200000900098006880B208BD0A460021416803
:102C3000164B1940114341607047416282627047F0
:102C40000A460021416821F01F011143416070478D
:102C500040B109490831096841F40001064A0832C7
:102C6000116007E004490831096821F40001024AB3
:102C70000832116070470000002401400028014024
:102C8000003C0140FFFEF0FFFDF7F1FFFFFD3FFFBD
:102C90000246002013680B400BB1012000E0002029
:102CA0007047CA430260704770B502460020002397
:102CB00000240B125568CEB205EA060415681D40C3
:102CC00015B10CB1012000E0002070BD00220A12F5
:102CD000D34303607047000010B50446FE488442A9
:102CE00008D10121C014FFF78DF90021E014FFF78E
:102CF00089F9C4E0B4F1804F08D101210846FFF7FB
:102D00008EF900210120FFF78AF9B8E0F3488442E8
:102D100008D101210220FFF782F900210220FFF7EC
:102D20007EF9ACE0EE48844208D101210420FFF78F
:102D300076F900210420FFF772F9A0E0E948844207
:102D400008D101210820FFF76AF900210820FFF7C8
:102D500066F994E0E448844208D101211020FFF78D
:102D60005EF900211020FFF75AF988E0DF4884421D
:102D700008D101212020FFF752F900212020FFF780
:102D80004EF97CE0DA48844208D101214014FFF773
:102D900039F900216014FFF735F970E0D548844215
:102DA00009D10121C804FFF72DF900214FF40020BB
:102DB000FFF728F963E0D048844209D101210805D2
:102DC000FFF720F900214FF48010FFF71BF956E0C0
:102DD000CA48844209D101214805FFF713F90021AF
:102DE0004FF40010FFF70EF949E0C548844208D1BE
:102DF00001214020FFF713F900214020FFF70FF9D0
:102E00003DE0C048844208D101218020FFF707F946
:102E100000218020FFF703F931E0BB48844208D14C
:102E200001218015FFF7FBF80021A015FFF7F7F847
:102E300025E0B648844209D101210804FFF7E2F8F1
:102E400000214FF48030FFF7DDF818E0B0488442ED
:102E500009D101214804FFF7D5F800214FF40030D3
:102E6000FFF7D0F80BE0AB48844208D10121880479
:102E7000FFF7C8F800214FF48020FFF7C3F810BD1A
:102E800000220288944B98420ED0994B98420BD066
:102E9000B0F1804F08D0914B984205D0904B9842AA
:102EA00002D0904B984204D14FF68F731A404B8852
:102EB0001A438D4B984207D08C4B984204D04FF662
:102EC000FF431A40CB881A4302808B8883850B8886
:102ED0000385814B98420BD0854B984208D08B4B91
:102EE000984205D08A4B984202D08A4B984201D131
:102EF0000B7A038601238382704770B50024002279
:102F00000023058C4FF6FE7635400584028C8388BD
:102F1000048B4FF68F752C40B51E2C400D882C432A
:102F2000751E2A400D892A434D882A436A4DA842BE
:102F30000BD06F4DA84208D0744DA84205D0744DF7
:102F4000A84202D0734DA84213D14FF6F7752A401C
:102F50004D892A434FF6FB752A408D882A434FF648
:102F6000FF652B404FF6FF552B408D892B43CD89B4
:102F70002B4383800483CD888586028470BD70B521
:102F8000002400220023058C4FF6EF76354005849F
:102F9000028C8388048B48F6FF752C404FF6FF4562
:102FA0002C400D884FF6FF7606EA05252C434FF698
:102FB000DF752A400D8906EA05152A434D8806EA81
:102FC00005152A43444DA84202D0494DA8421DD1BF
:102FD0004FF67F752A404D894FF6FF7606EA0515B4
:102FE0002A434FF6BF752A408D8806EA05152A4305
:102FF0004FF6FF352B404FF2FF752B408D8906EAC7
:1030000085052B43CD8906EA85052B438380048300
:10301000CD880587028470BD70B50024002200238E
:10302000058C4FF6FF6635400584028C8388848BBF
:103030004FF68F752C404FF6FC752C400D882C43B5
:103040004FF6FF552A400D894FF6FF7606EA052513
:103050002A434D8806EA05252A431F4DA84202D07F
:10306000234DA8421DD14FF2FF752A404D894FF6DE
:10307000FF7606EA05252A434FF6FF352A408D885C
:1030800006EA05252A434EF6FF752B404DF6FF75DF
:103090002B408D8906EA05152B43CD8906EA0515D7
:1030A0002B4383808483CD888587028470BD70B56F
:1030B000002200230024058C4EF6FF76354005845F
:1030C000038C8488828B48F6FF752A404FF6FF45B3
:1030D0002A400D8820E00000002C01400004004040
:1030E00000080040000C00400010004000140040A8
:1030F00000340140004C01400050014000540140A8
:1031000000180040001C004000200040004001402A
:1031100000440140004801404FF6FF7606EA0525CD
:103120002A434DF6FF752B400D8906EA05352B43E2
:103130004D8806EA05352B43FA4DA84202D0FA4DD8
:10314000A84208D14BF6FF752C408D894FF6FF76CB
:1031500006EA85152C4384808283CD88A0F84050F0
:10316000038470BD828B4FF2FF331A408283828BBF
:103170004FF6FF7303EA01231A4382837047F0B5C9
:103180000C461546002200210026078C4EF6FF7CD7
:1031900007EA0C070784828B018C4FF6FF7707EA5A
:1031A000043640F6FF473A404FF6FF7707EA052717
:1031B0003A434FF6FF7707EA03373A43D94FB8420D
:1031C0000ED0D94FB8420BD0B0F1804F08D0D74FB6
:1031D000B84205D0D64FB84202D0D64FB84206D139
:1031E0004DF6FF77394046F48057394305E047F6FE
:1031F000FF57394044F48057394382830184F0BD3E
:10320000828B4FF6F3731A408283828B0A43828348
:103210007047F0B50C461546002200210026078CA9
:103220004FF6FF6C07EA0C070784828B018C4FF680
:10323000FF7707EA04264FF60C773A404FF6FF7700
:1032400007EA03172F433A43B64FB8420ED0B64FA2
:10325000B8420BD0B0F1804F08D0B44FB84205D07F
:10326000B34FB84202D0B34FB84206D14FF6FF5722
:10327000394046F48077394305E04FF2FF57394033
:1032800044F48077394382830184F0BD028B4FF28E
:10329000FF331A400283028B4FF6FF7303EA0123C8
:1032A0001A4302837047F0B50C46154600220021F0
:1032B0000026078C4FF6EF7C07EA0C070784028B89
:1032C000018C4FF6FF7707EA041640F6FF473A40B5
:1032D0004FF6FF7707EA03373A434FF6FF7707EADF
:1032E00005273A438F4FB8420ED08F4FB8420BD0CC
:1032F000B0F1804F08D08D4FB84205D08C4FB84206
:1033000002D08C4FB84206D14FF6DF77394046F0F5
:103310001007394305E04FF65F77394044F0100756
:10332000394302830184F0BD028B4FF6F3731A40D8
:103330000283028B0A4302837047F0B50C461546A0
:1033400000220021068C4FF6FE773E400684028B59
:10335000018C4FF60C7632407E1C06EA03162E4393
:103360003243704EB0420ED06F4EB0420BD0B0F12F
:10337000804F08D06D4EB04205D06D4EB04202D0A5
:103380006C4EB04206D14FF6FD76314044F0010656
:10339000314305E04FF6F576314044F00106314304
:1033A00002830184F0BD70B505460C465D48854238
:1033B0000ED05D4885420BD0B5F1804F08D05B48F8
:1033C000854205D05A48854202D05A48854200D1EC
:1033D00000E000BF208850B92389A2886188284670
:1033E000FFF7ABFFE1882846FFF79EFF25E0208826
:1033F00004280AD12389A28861882846FFF753FF51
:10340000E1882846FFF742FF17E0208808280AD104
:103410002389A28861882846FFF7FBFEE1882846B9
:10342000FFF7EEFE09E02389A28861882846FFF7AE
:10343000A6FEE1882846FFF795FE70BD2DE9F04114
:1034400005460C4600260127608808B9022600E0E0
:103450000026A088012801D1022700E0012720884A
:10346000A0B92389A28861882846FFF766FFE18812
:103470002846FFF759FF23893A4631462846FFF789
:1034800012FFE1882846FFF701FF13E02389A28895
:1034900061882846FFF707FFE1882846FFF7F6FE18
:1034A00023893A4631462846FFF747FFE1882846F8
:1034B000FFF73AFFBDE8F0810A884B881A438B88F2
:1034C0001A43CB881A430B891A434B891A438B89B9
:1034D0001A43A0F8442070474FF6FF718180002105
:1034E0000180C180418001727047002101804180CC
:1034F0008180C180018141818181C181704700212A
:1035000001804180012181800021C18001817047BB
:103510000021018041808180C180018141818181C0
:1035200070470000002C01400034014000040040BE
:1035300000080040000C004021B1028842F0010266
:10354000028004E002884FF6FE731A400280704742
:1035500031B1B0F8442042F40042A0F8442005E024
:10356000B0F84420C2F30E02A0F8442070471AB10C
:1035700083890B43838102E083898B438381704776
:103580008182704741EA0203A0F8483070471AB1BF
:1035900083890B43838102E083898B438381704756
:1035A00001894FF6F8721140018170470A460021E7
:1035B00001894FF68F73194011430181704730B56F
:1035C00004460D4629462046FFF7F0FF208940F0CB
:1035D0000700208130BD2DE9F04104460D46164616
:1035E0001F46602D06D13B46012231462046FFF79B
:1035F0005AFE05E03B46012231462046FFF79DFE7C
:1036000029462046FFF7D2FF208940F0070020819D
:10361000BDE8F08130B50C4600210189C9B24FF6F2
:10362000FF7505EA0325154325432943018130BD74
:103630002DE9F04105460E461746984600244346BC
:103640003A4631462846FFF7E5FF2C894FF6F870D9
:10365000044044F007044FF68F70044044F07004B7
:103660002C81BDE8F081F0B504460D4616461F4694
:103670003B46324629462046FFF7CCFF208940F4DE
:1036800080402081F0BD0185828270470A4600217A
:1036900001884FF68F731940114301807047F0B5D0
:1036A0000C4615461E460021002200230189028B8C
:1036B000038C4FF6F877394021434FF6FC473A40E8
:1036C00040F201173A434FF6DD773B404FF6FF7764
:1036D00007EA06172F433B43018102830384F0BDB1
:1036E0000A460021018B4FF68F7319401143018365
:1036F00070470A460021018B48F6FF7319404FF6C8
:10370000FF7303EA02231943018370470A4600212D
:10371000818B4FF68F7319401143818370470A469E
:103720000021818B48F6FF7319404FF6FF7303EABF
:10373000022319438183704721B1028842F080023D
:10374000028004E002884FF67F731A4002807047BF
:1037500021B1828842F00402828004E082884FF620
:10376000FB731A408280704721B1828842F00802C0
:10377000828004E082884FF6F7731A408280704797
:1037800021B1828842F00102828004E082884FF6F3
:10379000FE731A40828070470A460021018B4FF663
:1037A000F77319401143018370470A460021018BCA
:1037B0004FF2FF7319404FF6FF7303EA02231943D8
:1037C000018370470A460021818B4FF6F773194039
:1037D0001143818370470A460021818B4FF2FF73AA
:1037E00019404FF6FF7303EA0223194381837047A0
:1037F0000A460021018B4FF6FB73194011430183E8
:1038000070470A460021018B4FF6FF3319404FF6EF
:10381000FF7303EA02231943018370470A4600211C
:10382000818B4FF6FB7319401143818370470A4621
:103830000021818B4FF6FF3319404FF6FF7303EAE7
:1038400002231943818370470A460021018B4FF6FA
:103850007F7319401143018370470A460021018B91
:10386000C1F30E014FF6FF7303EA022319430183EC
:1038700070470A460021818B4FF67F731940114330
:10388000818370470A460021818BC1F30E014FF6F8
:10389000FF7303EA02231943818370470A4600211C
:1038A000018C4FF6FD7319401143018470470A469D
:1038B0000021018C4FF6F7731940114301847047C2
:1038C0000A460021018C4FF6DF7319404FF6FF7353
:1038D00003EA02131943018470470A460021018C50
:1038E0004FF67F7319404FF6FF7303EA0213194333
:1038F000018470470A460021018C4FF6FF5319409E
:103900004FF6FF7303EA02231943018470470A4606
:103910000021018C4FF2FF7319404FF6FF7303EA49
:1039200002231943018470470A460021018C4DF699
:10393000FF7319404FF6FF7303EA02331943018402
:10394000704730B5002301248C40A3B2048C9C4303
:103950000484048C02FA01F5ADB22C43048430BD1A
:1039600030B5002304248C40A3B2048C9C4304840F
:10397000048C02FA01F5ADB22C43048430BD70B55D
:103980000346002000241846183001258D40ACB2B3
:103990001D8CA5431D8409B1082909D100EB6100E4
:1039A000056825F0700505600568154305600EE0A3
:1039B0000D1FC5F34E052844056825F4E045056054
:1039C00005684FF6FF7606EA02263543056070BDAE
:1039D00021B1028842F00202028004E002884FF620
:1039E000FD731A400280704721B1028842F0040240
:1039F000028004E002884FF6FB731A400280704791
:103A000021B1828842F08002828004E082884FF6F1
:103A10007F731A408280704702884FF6F7731A400E
:103A2000028002880A430280704782884FF68F73B3
:103A30001A40828082880A438280704702894FF64A
:103A4000F8731A40028102890A4302817047028991
:103A50004FF67F731A40028102890A430281704740
:103A600081847047818570478186704701877047E0
:103A700081877047A0F84010704702884FF6FF43D7
:103A80001A40028002880A43028070470146888EED
:103A900070470146088F70470146888F704701467E
:103AA000B1F8400070470146888C70470146088D88
:103AB000704702460020138A0B400BB1012000E042
:103AC00000207047CA430282704730B5024600208A
:103AD00000230024158A05EA0103958905EA0104FB
:103AE00013B10CB1012000E0002030BDCA430282B6
:103AF0007047000001684FF6FE721140016000211E
:103B0000016041608160C1608D49884208D18C4963
:103B10000839496841F00F01894A083A51608AE042
:103B200087491431884208D185490839496841F0EC
:103B3000F001834A083A51607DE08149283188428A
:103B400008D17F490839496841F470617C4A083AD4
:103B5000516070E07A493C31884208D1784908398F
:103B6000496841F47041764A083A516063E074490B
:103B70005031884208D172490839496841F47021AE
:103B80006F4A083A516056E06D496431884208D165
:103B90006B490839496841F47001694A083A516033
:103BA00049E067497831884208D165490839496850
:103BB00041F07061624A083A51603CE061498842D4
:103BC00006D1011F096841F00F01021F116032E0A8
:103BD0005C491431884208D15A49091F096841F0EB
:103BE000F001584A121F116025E0564928318842D9
:103BF00008D15449091F096841F47061514A121FE4
:103C0000116018E04F493C31884208D14D49091FE5
:103C1000096841F470414B4A121F11600BE0494999
:103C20005031884207D14749091F096841F4702182
:103C3000444A121F1160704710B50022026847F60F
:103C4000F0739A430C6A8B6823430C6923434C69D5
:103C500023438C692343CC6923434C6A23438C6AF6
:103C600023431A430260CB6843600B6883604B6850
:103C7000C36010BD0021016041608160C1600161CD
:103C800041618161C161016241628162704721B11C
:103C9000026842F00102026004E002684FF6FE731F
:103CA0001A40026070471AB103680B43036002E0D8
:103CB00003688B4303607047416070470146486862
:103CC00080B2704701460020002201F080531BB1F2
:103CD0001C4B083B1A6802E0194B083B1A6802EAC1
:103CE00001030BB1012000E00020704700F080517B
:103CF00019B11449091F086002E0114908394860E8
:103D0000704701460020002201F080531BB10D4B8B
:103D1000083B1A6802E00A4B083B1A6802EA0103F2
:103D20000BB1012000E00020704700F0805119B174
:103D30000449091F086002E00149083948607047DA
:103D400008000240080402407047704770477047FF
:103D50007047754600F028F8AE46050069465346A0
:103D600020F00700854618B020B5FDF703FEBDE83A
:103D700020404FF000064FF000074FF000084FF0D2
:103D8000000B21F00701AC46ACE8C009ACE8C00963
:103D9000ACE8C009ACE8C0098D4670470446AFF3F3
:103DA00000802046FCF70BFA00487047B80200205C
:103DB00021F00042A2F16052B2F5801F01F00043F1
:103DC00028BFD2F17F6C0BD95FEA001C43EAC20224
:103DD00042EB507018BF704728BF20F001007047B9
:103DE000B2F5801FBCBF184670474FEA410C1CF566
:103DF000001F02D2084600F0DEBC70B500F0B4F936
:103E000000000089FFF7F6BF4FF00040A0F58000EA
:103E10007047000010B591EA030F48BF83F00043DC
:103E200000F1FE81841A71EB030C05D2121943EBE9
:103E30000C03001B61EB0C01DFF824E14FEA115485
:103E4000A4EB135C1EEA430F18BF9EEA445F73D0D5
:103E500023EA0E03DCF1200E21EA045143F480131F
:103E600032D322FA0CFE10EB0E0023FA0CFE41EBCB
:103E70000E01CCF1200E03FA0EFE10EB0E0051F1F4
:103E80000001B1F5801FCCF1200E32D201EB0451BC
:103E900012FA0EF2BDE8104058BF7047401C38BF00
:103EA0005FEA420218BF7047002814BF20F00100EB
:103EB00041F100014FEA410313F5001F38BF70477D
:103EC000A1F1C04100F09EB9012A43EB0302ACF11D
:103ED000200CDCF11F0E32BF4FF0000E23FA0CF362
:103EE00010EB030041EB0451B4EB115FD0D0A1EB18
:103EF000045101F5801149085FEA300001EB0451DB
:103F00000ED350F1000038BF12FA0EFE08D1BDE802
:103F10001040C9E7401C38BF5FEA4202CAD1C3E77C
:103F2000BDE810404FEA410313F5001F38BF70474A
:103F3000A1F1C04100F066B99EEA445F08D011EAE1
:103F40005E0FBDE8104004BF01F000410020704743
:103F5000BDE8104070B500F007F900BF64FBBE3E3D
:103F60000000E0FF4FEA1153A3F58063D3F11E0375
:103F7000A8BFD3F1200C08DB4FF0004242EAC12277
:103F800052EA505232FA03F0704709420BD4102B18
:103F9000C4BF0020704703F5787CBCF1FF3F05D01B
:103FA0004FF0FF3070474FF00000704770B500F0E1
:103FB000DBF800BF4992248000207047F0E710F042
:103FC000004248BF4042B0FA80F310FA03F10AD031
:103FD000C3F11D0303F580634FEA415002EB035226
:103FE00002EBD12170474FF000007047B0FA80F328
:103FF00010FA03F10AD0C3F11D0303F580634FEA01
:1040000041504FEA035202EBD12170474FF00000BC
:1040100070470000DFF848C170B51CEA111E1EBFD2
:104020001CEA13159EEA0C0F95EA0C0F00F06F8046
:1040300081EA030423EA4C134EEAD47E21EA4C11B0
:1040400041F4801143F48013AE44A1FB024CA0FB69
:104050000365AEF17F7E361955EB0C05A1FB034CD1
:104060004CF10003A0FB021C16EB0C06654153F15A
:104070000003094218BF46F0010613F4007F0BD17C
:104080004FEA03314FEA0530340341EA155140EA63
:1040900016506FF003020AE04FEAC3214FEAC52031
:1040A000F40241EA555140EA56506FF0020202EB29
:1040B0002E4201EB025585EACE710AD05FEA440C2C
:1040C00018BF24F0004450F1000041F1000120EA43
:1040D000D47040F2FE7C624500D270BDA84214BF8D
:1040E0004FF080444FF04044002E08BF0024BEF142
:1040F000806FA8BFA1F1C041BDE8704080F282800E
:104100004FF0000001F1C04101F0004170479EEA0C
:104110000C0F0CEA131518BF95EA0C0F06D04FF0E0
:10412000000081EA030E0EF0004170BD00F01CF8A3
:104130008900013E00F007B800F009B84FEA430CCF
:104140005FEA5C5C08D081EA030100F05BB84FEAEB
:10415000410C5FEA5C5CF6D14FF00000014970470A
:104160000000FF070000F87F0EF1020E2EF0030E94
:104170005EF8046B364205D4012A43EB030515F5BE
:10418000001F12D8012841EB010C1CF5001F0CD8B0
:104190000ED14FEAD17C15F5001F0CEB4C0C0CF145
:1041A000020C08BF4CEBD37C04E04FF0080C01E09C
:1041B0004FEAD37C0CEB4C0526FA05F606F0070611
:1041C000B6F1040C06D20EEB860CBDE870404CF044
:1041D000010C6047DFE80CF0090B02024FF00041D0
:1041E0004FF00000A1F5002170BD194610460128CE
:1041F00051EB010418BFD4F5001484BF002001F076
:10420000004170BD0808A0F500114FEA3101704768
:1042100010B591EA030F48BF83F000433FF502AEAB
:10422000841A71EB030C07D212198CF0004C43EB8B
:104230000C03001B61EB0C01DFF8A4E14FEA115401
:10424000A4EB135C1EEA430F18BF9EEA445F00F024
:10425000B08023EA6E03524221EA0451C3EB6E039D
:1042600038BF5B1EDCF1200E25D322FA0CFE10EBCA
:104270000E0043FA0CFE41EB0E01CCF1200E03FAC6
:104280000EFE10EB0E0051F10001CCF1200E29D4EE
:1042900012FA0EF201EB0451BDE8104058BF70470E
:1042A000401C1CBFB2F1004F704700280CBF491CD6
:1042B00020F00100704712EB020E43EB030218BF1F
:1042C0004FF0010E4EEA4202ACF1200CDCF11E0E62
:1042D00054D943FA0CFE10EB0E0051F1FF31CCF132
:1042E0001E0ED5D50EF1010E12FA0EFE404141EB25
:1042F000010101EB445C5FEA5C5C10D910EBDE70FD
:1043000001EB045138BFBEF1004FBDE8104018BFAB
:10431000704700280CBF491C20F00100704730D2C4
:104320004FEAD42C11F5001124F400641BD0B1FA2B
:1043300081F20B3AA41AA41ED2F12003914030FA64
:1043400003F31943904001EBCC71002C01EB0451B5
:10435000BDE81040A8BF704701F1C0414FF0000018
:1043600001F000417047B0FA80F310FA03F100D178
:1043700010BDE41A173C4805C90AE4E701EB0451F3
:1043800010BD491001EB0451BDE810404FEA300068
:1043900002E04FF0000170474A0008BF0042F8D029
:1043A000B2F5001F28BF704701F000414FF0000038
:1043B00070479EEA445F07D011EA5E0FBDE81040E7
:1043C00004BF002100207047BDE8104070B5FFF722
:1043D000CBFE00BF40DFF63E83F000411046704741
:1043E0000000E0FF43004FEAD30C4FEA3C0C43408F
:1043F0001FBF40070CF1605113F0FE4F70471CF0D7
:10440000006F03D100200CF0004170470CF0004316
:1044100043EA507010B540EACC0000F086F900BFC6
:10442000000000924FEA0001FFF7ECBE4FF00041A0
:104430004FF00000A1F500217047000090EA010F45
:1044400048BF81F0004100F1F481421A3CBF801A5C
:1044500089184FEAD0524FF07F4C1CEA410FA2EB73
:10446000D15318BF9CEA026F00F03B804FF0004C24
:104470004CEA00204CEA012121FA03FC10EB0C0C61
:104480001ED202F1FF325FEA1C2040EBC25038BF5F
:1044900070471CF07F0F4FEA400C18BFBCF17F4FF4
:1044A00038BF7047C3F12003994008BF20F00100D6
:1044B000BCF17F4F38BF7047A0F1C04000F07BB91E
:1044C0004FEA3C00000A40EBC25028BF1CF0FF0F2F
:1044D0004FEA400CE6D018BFBCF17F4F38BF7047A1
:1044E000EAE79CEA026F05D010EA5C0F08BF00F013
:1044F0000040704710B500F018F900BF64FBBE3EE5
:10450000401058BFC0F14040491058BFC1F1404170
:104510008142EFF30080704741000B0ED3F19E0201
:1045200008D950F400034FEA032323FA02F048BFEE
:104530004042704710B500F0F8F800BF499224805F
:10454000002070476FF0004282EA200070470000B0
:10455000C10DD1F19E0206DB4FEA002343F0004378
:1045600023FA02F07047004207D54FEA4001B1F14B
:10457000FE4F02D24FF00000704710B500F0D5F8A2
:1045800049922480002070476FEA200070470000A5
:1045900010F0004148BF4042B0FA80F310FA03F235
:1045A000C3F19D030BD051EAC35101EB1220530616
:1045B00038BF704700F1010008BF20F001007047CC
:1045C00050EA010C00F113801CF5000F58BFBCF538
:1045D000000F01D48842704707D710F5000F58BF6D
:1045E00011F5000F15D488427047894270471CF5B9
:1045F000000F04D5BCF5000FF7D5814270474FF08E
:10460000807C1CEB400F38BF1CEB410F01D2814274
:10461000704710B500F089F8922449004FF000501F
:104620004FF08051FFF76CBF4FF47F0C1CEAD012A3
:104630001EBF1CEAD11392EA0C0F93EA0C0F00F094
:10464000478090EA010F48BF42F480724FF0004C5F
:104650004CEA00204CEA012102EB0302A0FB01130B
:10466000A2F50002002918BF43F001035B0028BF38
:104670004FEA330342EB22425FEA132C4CEBC25069
:104680002EBFBCEB436FB2F57C0F70474FEA036C53
:10469000BCF1004F08BF20F00100B2F57C0F38BF1D
:1046A00070470BD582F0FF0212F5803FC8BF7047FC
:1046B00000F1C040D8BF00F00040704700F5000C8A
:1046C0005FEA4C0C48BF7047B0F1C04000F073B8CF
:1046D00090EA010F0CEAD11348BF42F480726245A0
:1046E00038BF634504D280EA010000F00040704703
:1046F00010B500F01AF800BF8900013E00F007B8BD
:1047000000F009B85FEA410C5FEA1C6C08D080EA4F
:10471000010000F050B85FEA400C5FEA1C6CF6D173
:104720004FF00040A0F5800070470EF1020E2EF011
:10473000030E5EF8044B244204D44FEA4102B2F166
:104740007F4F11D84FEA4003B3F17F4F0CD80ED101
:104750004FEAD07CB2F17F4F0CEB4C0C0CF1020C09
:1047600008BF4CEBD17C04E04FF0080C01E04FEAAD
:10477000D17C0CEB4C0324FA03F404F00704B4F1ED
:10478000040C06D20EEB840CBDE810404CF0010C7A
:104790006047DFE80CF0070802024FF00040A0F588
:1047A000800010BD0846420018BFD2F1807288BF59
:1047B00000F0004010BDFF2141EAD050C005704715
:1047C00051EA000C00F113801CF5000F58BFBCF536
:1047D000000F01D48142704707D711F5000F58BF71
:1047E00010F5000F15D481427047894270471CF5BF
:1047F000000F04D5BCF5000FF7D5884270474FF085
:10480000807C1CEB410F38BF1CEB400F01D288426B
:10481000704780EA010081EA000180EA0100FFF7A9
:10482000F8BE000090EA010F48BF81F000413FF55B
:104830000CAE421A04D882F00042A0EB02001144F0
:104840004FEAD0524FF07F4C1CEA410FA2EBD153FC
:1048500018BF9CEA026F4AD04FF0004C4CEA00208F
:104860004CEA012121FA03FCB0EB0C0C0FD412F03E
:10487000FE0F36D05FEA4C001DD5001240EBC2504F
:1048800038BF70471CF03F0F18BF70470BE0A2F114
:1048900001025FEA1C2040EBC25038BF70471CF099
:1048A0007F0F18BF7047C3F12003994014BF401E0B
:1048B00020F00100704780084FEA122308BF7047BC
:1048C000B0FA80FCA2EB0C02CCF1280C60FA0CF0E0
:1048D00093EA122F04BF00EBC25070474FEAC37037
:1048E0007047130A5FEADC1008BF7047F6E79CEADE
:1048F000026F04D010EA5C0F08BF0020704710B5AB
:10490000FFF713FF40DFF63E81F0004070470000E4
:104910001C003800540071008D00A900C500E100A2
:10492000FD001901350151016D018801A401BF018C
:10493000DA01F60111022C02470261027C029602A2
:10494000B002CA02E402FE02170331034A03630302
:104950007B039403AC03C403DC03F3030B042204C2
:1049600038044F0465047B049104A604BB04D004FE
:10497000E404F8040C0520053305460558056A05CE
:104980007C058E059F05B005C005D005E005EF0547
:10499000FE050D061B0629063606430650065C0674
:1049A000680673067E06890693069D06A606AF0670
:1049B000B806C006C806CF06D606DC06E206E8063C
:1049C000ED06F106F606F906FD06000702070407E4
:1049D000060707070707080707070707060704076B
:1049E00002070007FD06F906F606F106ED06E806E1
:1049F000E206DC06D606CF06C806C006B806AF0635
:104A0000A6069D06930689067E06730668065C0662
:104A100050064306360629061B060D06FE05EF0561
:104A2000E005D005C005B0059F058E057C056A052B
:104A300058054605330520050C05F804E404D004A8
:104A4000BB04A60491047B0465044F0438042204CB
:104A50000B04F303DC03C403AC0394037B03630381
:104A60004A0331031703FE02E402CA02B0029602AF
:104A70007C02610247022C021102F601DA01BF0139
:104A8000A40188016D01510135011901FD00E1000A
:104A9000C500A9008D007100540038001C00000002
:104AA000E4FFC8FFACFF8FFF73FF57FF3BFF1FFF03
:104AB00003FFE7FECBFEAFFE93FE78FE5CFE41FEF9
:104AC00026FE0AFEEFFDD4FDB9FD9FFD84FD6AFDC3
:104AD00050FD36FD1CFD02FDE9FCCFFCB6FC9DFC43
:104AE00085FC6CFC54FC3CFC24FC0DFCF5FBDEFB63
:104AF000C8FBB1FB9BFB85FB6FFB5AFB45FB30FB07
:104B00001CFB08FBF4FAE0FACDFABAFAA8FA96FA16
:104B100084FA72FA61FA50FA40FA30FA20FA11FA7D
:104B200002FAF3F9E5F9D7F9CAF9BDF9B0F9A4F930
:104B300098F98DF982F977F96DF963F95AF951F914
:104B400048F940F938F931F92AF924F91EF918F928
:104B500013F90FF90AF907F903F900F9FEF8FCF85F
:104B6000FAF8F9F8F9F8F8F8F9F8F9F8FAF8FCF8B9
:104B7000FEF800F903F907F90AF90FF913F918F922
:104B80001EF924F92AF931F938F940F948F951F9AF
:104B90005AF963F96DF977F982F98DF998F9A4F961
:104BA000B0F9BDF9CAF9D7F9E5F9F3F902FA11FA42
:104BB00020FA30FA40FA50FA61FA72FA84FA96FA58
:104BC000A8FABAFACDFAE0FAF4FA08FB1CFB30FBBB
:104BD00045FB5AFB6FFB85FB9BFBB1FBC8FBDEFB78
:104BE000F5FB0DFC24FC3CFC54FC6CFC85FC9DFCA2
:104BF000B6FCCFFCE9FC02FD1CFD36FD50FD6AFD54
:104C000084FD9FFDB9FDD4FDEFFD0AFE26FE41FEA9
:104C10005CFE78FE93FEAFFECBFEE7FE03FF1FFFB8
:104C20003BFF57FF73FF8FFFACFFC8FFE4FF00009F
:104C3000504C000800000020600000006C010008DB
:104C4000B04C000860000020B8080000880100088F
:104C50000000000000000000000000000000000054
:104C60000000000000000000000000000000000044
:104C7000000000000000000000A24A040000000044
:104C800000000000010203040607080900000000FC
:104C90000000000000000000000000000000010211
:104CA00003040102030406070809020406080000C1
:0400000508000131BD
:00000001FF
