:020000040800F2
:10000000B80A0020051500087502000877020008EC
:100010007B0200087F020008830200080000000045
:10002000000000000000000000000000870200083F
:1000300089020008000000008B0200088D02000801
:100040001F1500081F1500081F1500081F150008C0
:100050001F1500081F1500081F1500081F150008B0
:100060001F1500081F1500081F1500081F150008A0
:100070009B0B0008770B00081F1500081F150008D0
:100080001F1500081F1500081F1500081F15000880
:100090001F1500081F1500081F1500081F15000870
:1000A0001F1500081F1500081F1500081F15000860
:1000B000E70B00081F150008A70A00081F15000815
:1000C0001F1500081F1500081F1500081F15000840
:1000D0001F1500087B1400081F1500081F150008D5
:1000E0001F1500081F1500081F1500081F15000820
:1000F0001F1500081F1500081F1500081F15000810
:100100001F1500081F150008050A00081F15000824
:100110001F1500081F150008430B0008610B00089D
:100120001F1500081F1500081F1500081F150008DF
:1001300000F002F800F05EF80AA090E8000C82449B
:100140008344AAF10107DA4501D100F053F8AFF278
:10015000090EBAE80F0013F0010F18BFFB1A43F0A5
:1001600001031847603700008037000010F8013B9A
:100170000A4413F0030408BF10F8014B1D1108BF17
:1001800010F8015B641E05D010F8016B641E01F8C5
:10019000016BF9D1002D15D010F8014B03F00C03C1
:1001A0000C2BA1EB04040ABF10F8013BA4EB831451
:1001B000A4EB032405F1010314F8016B5B1E01F8A5
:1001C000016BF9D5914238BF10F8013BD1D370478C
:1001D0000023002400250026103A28BF78C1FBD850
:1001E000520728BF30C148BF0B6070471FB51FBD05
:1001F00010B510BD03F05BF91146FFF7F7FF00F0F3
:1002000009F803F079F903B4FFF7F2FF03BC01F03A
:10021000D9F800004FF07E501149086001F068F8ED
:100220004FF4A06001F012FF00F072FA00F06AF9DA
:10023000002140F60F6000F01BF941F61F4140F22B
:10024000E73000F010FB00200649088006490870DE
:1002500046F2A810054908800549088000BFFEE75E
:10026000400300203C03002032030020360300201E
:1002700034030020704700BFFEE700BFFEE700BF69
:10028000FEE700BFFEE77047704770477047000009
:100290000CB50020019000906C48006840F480305C
:1002A0006A49086000BF6948006800F400300090A7
:1002B0000198401C0190009818B90198B0F5A06F02
:1002C000F1D16248006800F4003010B101200090C4
:1002D00001E0002000900098012843D15C480068AC
:1002E00040F010005A4908600846006820F00300FA
:1002F00008600846006840F0020008605348406803
:10030000524948600846406848600846406840F4E2
:10031000806048600846406820F47C1048600846C9
:10032000406840F4E81048600846006840F080707B
:10033000086000BF4548006800F000700028F9D050
:100340004248406820F00300404948600846406841
:1003500040F00200486000BF3C48406800F00C00DC
:100360000828F9D10CBD10B5FFF792FF10BD10B5EC
:100370003648006840F0010034490860084640688B
:10038000344908403149486008460068324908400D
:100390002E4908600846006820F48020086008465E
:1003A000406820F4FE0048604FF41F008860FFF7AB
:1003B000DAFF4FF000602949086010BD10B5002138
:1003C00000200022214B5B6803F00C0121B10429BD
:1003D00006D0082928D107E0214B224C236027E0D2
:1003E0001F4B204C236023E0184B5B6803F4701014
:1003F000164B5B6803F48032022303EB904022B972
:10040000194B4343174C23600DE0104B5B6803F41A
:10041000003323B1144B4343124C236003E0104BD1
:100420004343104C236003E00D4B0E4C236000BF90
:1004300000BF064B5B68C3F303130C4CE15C094B34
:100440001B68CB40074C236010BD00000010024029
:10045000002002400000FFF8FFFFF6FE08ED00E07C
:1004600000127A004403002000093D0048030020E8
:1004700070B504460D462946204600F08DFD00214A
:100480001B4802F09FFE0021194802F09DFE00214A
:1004900040F60F6000F078FE0121164802F0FAFBEA
:1004A00070BD2DE9F04104461349144A128831F910
:1004B000120003F0ADF88046214603F0C1F807466C
:1004C0000F4903F023F8064603F082F885B2294667
:1004D000074802F079FE09480088401C4FF4C871B3
:1004E00090FBF1F201FB120004490880BDE8F081A5
:1004F0000034014000100040000000203C030020B8
:1005000000E0E04408B50121082001F044FB01218E
:10051000042001F040FB0121042001F02FFB012108
:10052000082001F02BFB0120ADF8000028208DF8F9
:10053000030003208DF802006946694801F062F863
:100540004020ADF8000028208DF8030003208DF82E
:1005500002006946634801F055F84FF6FE706249A3
:1005600008804720091F08804FF6FE705F49088009
:100570004720091F08805C481438008840F00100BB
:100580005949143908800846008840F400700880F2
:1005900055480C38008854490C39088008460088B2
:1005A00040F02000088050482438008840F0500077
:1005B0004D49243908800846008840F0040008802E
:1005C00049480C38008840F0010047490C39088040
:1005D0000846008840F0100008804448143800881D
:1005E00040F001004149143908800846008840F471
:1005F000007008803D480C3800883C490C39088060
:100600000846008840F020000880384824380088D8
:1006100040F050003549243908800846008840F0F1
:100620000400088031480C38008840F001002F4950
:100630000C3908800846008840F0100008802A48DD
:100640002038008840F00200274920390880022322
:100650001E220021012000F09BF924482038008848
:1006600040F0020021492039088002233222002173
:10067000012000F08DF91E48C06940F002001C49BD
:10068000C8614FF6FF701B4908804720091F08808A
:100690000020091F088014490839088013490839C7
:1006A000088011482C38008840F001000E492C3990
:1006B00008800E482C38008840F001000B492C3986
:1006C000088000200C4908700C4908700C4908800B
:1006D0000C4908800C4908800C49088008BD0000BE
:1006E00000080140000C01402C0800402C0C004088
:1006F000001002402C040040300300203103002091
:10070000380300203A030020340300203603002081
:1007100008B50121242001F031FA4FF48070ADF8C2
:10072000000010208DF8030003208DF802006946B8
:10073000094800F067FF4FF48071074801F00FF897
:100740000420ADF800006946044800F05BFF042176
:10075000024801F004F808BD0008014000140140FF
:1007600000B58DB00121084601F0FBF97A4802F08E
:100770006FFD7A4802907A4803900020049004208C
:10078000059000200690802007904000089080008F
:10079000099000200A904FF440500B9000200C90DC
:1007A00002A96D4802F0F6FD6B48143002F050FDCE
:1007B0006A4802906B480390102004900420059032
:1007C000002006908020079040000890800009904B
:1007D00000200A904FF440500B9000200C9002A98A
:1007E0005D48143002F0D6FD012202215A4814302F
:1007F00002F007FE01220221574802F002FE57488C
:100800000C38808840F0020054490C398880084632
:10081000808840F0010088800C208DF804000020C2
:100820008DF8050001208DF806008DF8070001A85D
:1008300001F011FC0D208DF8040000208DF805005A
:1008400001208DF806008DF8070001A801F003FCD7
:100850000121414802F0C9FD00213F48143002F057
:10086000C4FD0DB000BD38B504460D46012141F26E
:10087000040001F083F9E020ADF8000018208DF8A5
:10088000030003208DF802006946374800F0BAFEE5
:10089000E021354800F063FF0020344908804FF420
:1008A000827048804FF4006088800220C880012058
:1008B000088140024881182088810020C8810720D3
:1008C000088226480C3801F055FCFFF749FF2946FD
:1008D000204600F0EFFB012120480C3801F0EFFC2E
:1008E00038BD10B504462148848101461B480C38A8
:1008F00001F040FC012119480C3801F0E0FC10BD6A
:1009000070B50546002405E0601CC4B2C82C01DDAA
:10091000002070BD022111480C3801F054FD002860
:10092000F2D029460D480C3801F0FAFC002405E00D
:10093000601CC4B2642C01DD0020EAE701210748F5
:100940000C3801F040FD0028F2D004480C3801F0CA
:10095000E9FCC0B2DDE700001C0002400C300140A1
:100960002803002020030020000801407803002015
:100970000146072323EA01021202AB4B18684FF627
:10098000FF031840A94B18431043A74B186070474A
:100990002DE9F0410746884614461D462846FFF7D4
:1009A000E7FFC5F1040007FA00F60F20284100EA2E
:1009B0000800064306F00F06E21704EBD26252115C
:1009C000920002F1E022D2F800212146E31704EB65
:1009D000D3635B11A4EB431C012303FA0CF31A430A
:1009E0002046E31704EBD3635B119B0003F1E02384
:1009F000C3F800218E48005D40EA06108C49085576
:100A0000BDE8F08110B502218A4802F00CFC0128F3
:100A100048D189480068C0438849C1F8A001002036
:100A2000874908800221834802F00EFC8148343057
:100A30000088401C84B2002C34D0824804800120FD
:100A4000814908708148007858B9002080490880A1
:100A50000021804802F0B2FB01217E4802F01AF921
:100A600020E000217B4802F015F97A4802F0C9FB2A
:100A7000774908807848007878B9724800887749C3
:100A800008807748008848807148008888807548C9
:100A90000088C88001207049087000206A490870E9
:100AA0006A49087010BD10B502216F4802F0BBFB07
:100AB000012845D16D480068C0436D49C1F88801DF
:100AC0000221694802F0C0FB674834300088401CAE
:100AD00084B2002C34D06248048001205B49087045
:100AE0005948007858B900205E49088000215948CB
:100AF00002F064FB0121574802F0CCF820E000210D
:100B0000544802F0C7F8534802F07BFB554908806F
:100B10005148007878B94B480088504908805048BF
:100B2000008848804A48008888804E480088C880ED
:100B30000120494908700020434908704349087062
:100B400010BD10B501214B4802F06DFB38B14A4889
:100B50000068FFF7A6FC0121464802F075FB10BDB6
:100B600010B50121454802F05EFB18B10121434850
:100B700002F06AFB10BD10B54FF4007002F06FFC7C
:100B800050B100203449087000213D4802F02DFC8E
:100B90004FF4007002F077FC10BD10B5202002F079
:100BA0005EFCF8B13748008841F28831884208DAA3
:100BB00034480088B0F5FA6F03DD324800882D49CB
:100BC000888500212E48143802F00FFC04202C499F
:100BD0003039086201212A48143802F006FC20202E
:100BE00002F051FC10BD10B50121880702F01BFB7B
:100BF000C8B11948007850B94FF6FF7017494880BE
:100C000008800020C88088800120134908700420D3
:100C10001B49303948630121194802F0E6FB0121E4
:100C2000880702F011FB10BD0CED00E00000FA0592
:100C300000E400E0000C0040A0012142000021423D
:100C40003C03002034030020300300203103002047
:100C5000380300200004004032030020200300205D
:100C6000360300203A030020000800408881224219
:100C70000080224200100040400300200014004089
:100C8000300002402803002030B58DB005460C46E8
:100C9000012140F6040000F071FF4FF4E060ADF870
:100CA000300018208DF8330003208DF832000CA995
:100CB000FB4800F0A7FC4FF46040ADF830000CA9F1
:100CC000F84800F09FFCF84801F0B4FBADF828505C
:100CD000ADF824400020ADF82A00ADF8260009A99F
:100CE000F14801F07BFC6020ADF814000120ADF864
:100CF00016000420ADF818007820ADF81A00002086
:100D0000ADF81C00ADF81E00ADF82000ADF82200D3
:100D100005A9E54801F09FFC05A9E34801F0DDFCC9
:100D200005A9E14801F026FD0821DF4802F0E2F8BC
:100D30000821DD4802F0E7F80821DB4802F0F0F86E
:100D40004FF40060ADF804004010ADF8060000203C
:100D5000ADF80800ADF80A00ADF80C00ADF80E00D3
:100D6000ADF8100001A9D04801F054FF0121CE4890
:100D700001F090FF0121CC4802F0B0F80121CA48EF
:100D800001F094FF0DB030BD30B58DB005460C4676
:100D9000012142F20C0000F0F1FE8020ADF830009D
:100DA00018208DF8330003208DF832000CA9BC48C0
:100DB00000F028FCBD4801F03DFBADF82850ADF82F
:100DC00024400020ADF82A00ADF8260009A9B74854
:100DD00001F004FC6020ADF814000120ADF816000D
:100DE0000420ADF818007820ADF81A000020ADF806
:100DF0001C00ADF81E00ADF82000ADF8220005A9DA
:100E0000AA4801F028FC0821A84802F073F84FF422
:100E10000060ADF804004010ADF806000020ADF809
:100E20000800ADF80A00ADF80C00ADF80E00ADF802
:100E3000100001A99D4801F0EDFE01219B4801F041
:100E400029FF0121994802F049F80121974801F052
:100E50002DFF0DB030BD30B589B005460C460121DF
:100E6000C80200F08BFE0121042000F087FE012162
:100E7000084600F083FE4FF48070ADF82000182083
:100E80008DF8230003208DF8220008A9844800F083
:100E9000B9FBADF81850ADF814400020ADF81A00B9
:100EA000ADF8160005A9804801F098FB6020ADF868
:100EB00004000120ADF806000020ADF80A00ADF8EE
:100EC0000C0001A9784801F0C6FB0121764801F029
:100ED000EDFE0821744802F00DF80121724801F07E
:100EE000D9FF0121704801F0D5FE09B030BD30B501
:100EF00089B005460C460121084600F03FFE01215D
:100F0000042000F03BFE1820ADF820008DF82300EF
:100F100003208DF8220008A9614800F073FBADF8AA
:100F20001850ADF814400020ADF81A00ADF81600C6
:100F30008DF81C0005A94FF0804001F04FFB6020A8
:100F4000ADF804000120ADF806000020ADF80A005D
:100F5000ADF80C0001A94FF0804001F00BFC01A995
:100F60004FF0804001F051FC0121880701F09EFE06
:100F70000821C80601F0BEFF0121880701F08AFFA1
:100F800000214FF0804002F021F900214FF0804015
:100F900002F01EF909B030BD30B58DB005460C46E3
:100FA0000121480300F0EAFD0121102000F0E6FDD8
:100FB0000121082000F0E2FD0121084600F0DEFDDD
:100FC000C020ADF8300018208DF8330003208DF8D4
:100FD00032000CA9364800F015FB0120ADF83000B6
:100FE00018208DF8330003208DF832000CA92D480D
:100FF00000F008FBADF82850ADF824400020ADF813
:101000002A00ADF8260009A9284801F0E7FA602077
:10101000ADF814000120ADF816000420ADF818005A
:101020000020ADF81A00ADF81C00ADF81E00ADF8B8
:101030002000ADF822004FF40060ADF8040040102D
:10104000ADF806000020ADF80800ADF80A00ADF8D4
:101050000C00ADF80E00ADF8100001A9124801F027
:10106000D9FD05A9114801F0F6FA05A90F4801F0CC
:1010700034FB01210D4801F019FE08210B4801F055
:1010800039FF0821094801F03EFF0121074801F01E
:1010900001FF0121054801F0FDFD0DB030BD00004C
:1010A00000080140000C0140002C014000340140C8
:1010B000001001407FB505460C460121084600F0AE
:1010C0006AFDADF80850ADF804400020ADF80A0004
:1010D000ADF8060001A94FF0804001F07FFA01222F
:1010E0001146900701F0F1FD1C208DF80000002052
:1010F0008DF801008DF8020001208DF8030068468C
:1011000000F0A9FF0121880701F0C4FD7FBD3EB5B5
:1011100005460C460121022000F03DFDADF80450CB
:10112000ADF800400020ADF80600ADF802006946B9
:10113000694801F053FA3EBD7FB505460C460121D2
:10114000042000F028FDADF80850ADF80440002060
:10115000ADF80A00ADF8060001A9604801F03EFABA
:10116000012211465D4801F0B0FD1E208DF80000FF
:1011700000208DF8010001208DF802008DF8030099
:10118000684600F068FF7FBD7FB505460C4601212B
:10119000102000F000FDADF80850ADF8044000202C
:1011A000ADF80A00ADF8060001A94D4801F016FAA5
:1011B00001214B4801F06EFE01221146484801F022
:1011C00084FD36208DF8000003208DF801008DF895
:1011D000020001208DF80300684600F03CFF7FBD4F
:1011E0007FB505460C460121202000F0D4FCADF867
:1011F0000850ADF804400020ADF80A00ADF8060034
:1012000001A9384801F0EAF901221146354801F0F8
:101210005CFD37208DF8000001208DF801000020D2
:101220008DF8020001208DF80300684600F013FFDE
:101230007FBD7FB505460C460121480300F0ABFC9D
:10124000ADF80850ADF804400020ADF80A00ADF844
:10125000060001A9244801F0C1F9012211462248E3
:1012600001F033FD2C208DF8000001208DF80100E5
:1012700000208DF8020001208DF80300684600F080
:10128000EAFE7FBD7FB505460C460121C80200F08D
:1012900082FCADF80850ADF804400020ADF80A001B
:1012A000ADF8060001A9114801F098F90122114694
:1012B0000E4801F00AFD19208DF8000001208DF87C
:1012C000010000208DF8020001208DF8030068461F
:1012D00000F0C1FE7FBD0000000400400008004097
:1012E000001000400014004000340140002C014078
:1012F00010B56FF0040000F0F8FE2E4800682E498B
:10130000B0FBF1F02D4908700846007800EB400171
:10131000C1EBC0104FF6FF7101EAC00028490880F8
:1013200010BD0146254A12784A434FF0E0235A6126
:1013300000229A611A46126942F001021A6100BF46
:101340004FF0E022106900F001021AB100F480327F
:10135000002AF5D04FF0E022126922F001024FF08E
:10136000E0231A6100229A6170470146144A1288EC
:101370004A434FF0E0235A6100229A611A461269EB
:1013800042F001021A6100BF4FF0E022106900F044
:1013900001021AB100F48032002AF5D04FF0E022A9
:1013A000126922F001024FF0E0231A6100229A61D3
:1013B000704700004403002000127A005803002008
:1013C0005A030020014600BF704700BF494A1288F7
:1013D00002F04002002AF9D0C2B2464B1B1D1A800F
:1013E000704710B586B00446012144F2040000F0B5
:1013F000C5FB4FF40070ADF8140003208DF8160003
:1014000018208DF8170005A93B4800F0FBF84FF4B1
:101410008060ADF8140004208DF8170005A9364847
:1014200000F0F0F825208DF8000003208DF8010071
:101430008DF8020001208DF80300684600F00BFED5
:1014400001940020ADF80800ADF80A00ADF80C00DA
:10145000ADF810000C20ADF80E0001A9254800F0F1
:1014600034FC012240F22551224800F0C6FC012143
:10147000204800F0B6FC06B010BD10B540F2255172
:101480001C4800F09FFD10B31A4800F01BFDC4B2C9
:101490001A48008800F40040C8B91848008800F4D1
:1014A000804060B10A2C03D000201449088020E05D
:1014B0001248008840F400401049088019E00D2CC3
:1014C00006D10E48008840F480400C49088010E0A6
:1014D0000A480088C0F30D0009490C5407480088E9
:1014E000401C0649088008460088C72801DD002006
:1014F000088010BD00380140000801406003002052
:101500008A0300200948804709480047FEE7FEE7B4
:10151000FEE7FEE7FEE7FEE7FEE7FEE7FEE7FEE7A3
:1015200004480549054A064B704700006F03000850
:1015300031010008B8040020B80A0020B8060020D5
:10154000B806002010B50446CC48844208D10121D9
:10155000042000F02DFB0021042000F029FB46E0D0
:10156000C748844208D10121082000F021FB002156
:10157000082000F01DFB3AE0C248844208D1012156
:10158000102000F015FB0021102000F011FB2EE0D0
:10159000BD48844208D10121202000F009FB002130
:1015A000202000F005FB22E0B848844208D1012148
:1015B000402000F0FDFA0021402000F0F9FA16E08A
:1015C000B348844208D10121802000F0F1FA0021C3
:1015D000802000F0EDFA0AE0AE48844207D10121F4
:1015E000801500F0E5FA0021A01500F0E1FA10BD29
:1015F00010B50121084600F0DBFA0021012000F0BF
:10160000D7FA10BD2DE9F041024600250026002042
:1016100000230024002791F803C00CF00F0591F877
:1016200003C00CF0100CBCF1000F03D091F802C005
:101630004CEA050591F800C0BCF1000F31D01468E8
:1016400000202BE04FF0010C0CFA00F3B1F800C0C1
:101650000CEA03069E4220D183004FF00F0C0CFAD7
:1016600003F7BC4305FA03FC4CEA040491F803C0F9
:10167000BCF1280F06D14FF0010C0CFA00FCC2F8A7
:1016800014C00AE091F803C0BCF1480F05D14FF037
:10169000010C0CFA00FCC2F810C0401C0828D1D381
:1016A0001460B1F800C0BCF1FF0F34DD54680020B5
:1016B0002EE000F1080C4FF0010808FA0CF3B1F825
:1016C00000C00CEA03069E4221D183004FF00F0CAC
:1016D0000CFA03F7BC4305FA03FC4CEA040491F846
:1016E00003C0BCF1280F05D100F1080C08FA0CF872
:1016F000C2F8148091F803C0BCF1480F07D100F183
:10170000080C4FF0010808FA0CF8C2F81080401CD1
:101710000828CED35460BDE8F0814FF6FF710180F8
:10172000022181700421C170704702460020936835
:101730000B400BB1012000E0002070470146886893
:1017400080B2704702460020D3680B400BB10120E5
:1017500000E0002070470146C86880B27047016110
:101760007047416170470AB1016100E04161704713
:10177000C16070474FF480320A43826181618261A7
:1017800082698269704702460020434B18684FF611
:101790008073184040EA021008433F4B18607047BE
:1017A0003E49C8617047F0B50A4600230024002175
:1017B000002500F00046B6F1004F02D1364EF16927
:1017C00001E0354E7168C0F3034583B200F4401662
:1017D000B6F5401F08D121F070612F4E766826F0D3
:1017E00070662D4F7E6012E000F48016B6F5801F03
:1017F00006D1032606FA05F4A14341F0706106E024
:10180000460D360103FA06F6B14341F0706122B18C
:10181000460D360103FA06F6314300F00046B6F1F4
:10182000004F02D11C4EF16101E01B4E7160F0BD12
:1018300030B500228B071C0F0F2303FA04F2164B5E
:1018400008338C1053F824309343134C08348D1014
:1018500044F8253023468C1053F824308C07240F8D
:1018600000FA04F423430C4C08348D1044F825305E
:1018700030BD0A49DC3108607047000000080140B3
:10188000000C01400010014000140140001801400C
:10189000001C0140002001400000014000002042E7
:1018A000DF48006840F00100DD49086008464068F4
:1018B000DC490840DA49486008460068DA490840CF
:1018C000D74908600846006820F480200860084670
:1018D000406820F4FE0048604FF41F0088607047A5
:1018E000CF49096821F48031CD4A11601146096859
:1018F00021F480211160B0F5803F03D0B0F5802F36
:101900000ED106E0C649096841F48031C44A11602D
:1019100007E0C349096841F4A021C14A116000E011
:1019200000BF00BF704710B5014600220023002011
:101930004A11012A02D1BA4C236806E0022A02D1D8
:10194000B74C236A01E0B64C636A01F01F02012420
:1019500094401C400CB1012000E0002010BD38B5BF
:10196000002000900024002500BF3120FFF7DBFF9E
:1019700005460098401C00900098B0F5A06F01D07B
:10198000002DF2D03120FFF7CEFF08B1012400E096
:101990000024204638BD01460020A14A106820F0EE
:1019A000F80040EAC10010607047A0490860704725
:1019B000024600209A4B586820F47C1042EA01034A
:1019C0001843974B5860704798490866704701461E
:1019D0000020934A506820F003000843506070478D
:1019E0008F48406800F00C007047014600208C4A88
:1019F000506820F0F0000843506070470146002016
:101A0000874A506820F4E060084350607047014600
:101A10000020834A506820F4605040EAC1005060C2
:101A2000704729B17E4A527A02437D4B5A7204E0D4
:101A30007B4A527A82437A4B5A7270477B49D8313B
:101A40000860704701460020754A506820F4404005
:101A50000843506070470021714A20321170704A6B
:101A600082F82010012802D004280AD104E00121C4
:101A70006B4A2032117005E00521694A203211704D
:101A800000E000BF00BF70476949086070476449C3
:101A9000096A0143624A1162704765494439086026
:101AA000704730B500210022002400235C4D6D6892
:101AB00005F00C0121B1042905D0082923D105E046
:101AC0005C4D056022E05B4D05601FE0544D6D6884
:101AD00005F47012524D6D6805F48034022505EB53
:101AE00092421CB9544D554305600BE04C4D6D6856
:101AF00005F400351DB1504D5543056002E04D4DD4
:101B00005543056002E04B4D056000BF00BF444DEA
:101B10006D6805F0F0010909484D6B5C0568DD4012
:101B200045603F4D6D6805F4E061090A434D6B5C0B
:101B30004568DD4085603A4D6D6805F46051C90A1D
:101B40003E4D6B5C4568DD40C560354D6D6805F404
:101B50004041890B3A4D6B5CC568B5FBF3F50561F7
:101B600030BD29B12E4A526902432D4B5A6104E01F
:101B70002B4A526982432A4B5A61704729B1284A3D
:101B800092690243264B9A6104E0254A9269824396
:101B9000234B9A61704729B1214AD2690243204BF5
:101BA000DA6104E01E4AD26982431D4BDA61704754
:101BB00029B11B4AD2680243194BDA6004E0184A83
:101BC000D2688243164BDA60704729B1144A126911
:101BD0000243134B1A6104E0114A12698243104B0D
:101BE0001A61704712494039086070470F49C8644C
:101BF00070470B49C87170470948406A40F08070CF
:101C000007494862704701460020054A92680A4029
:101C10000AB1012000E00020704701498872704736
:101C2000001002400000FFF8FFFFF6FE00004242F5
:101C30008004424200127A0000093D006203002045
:101C40007203002010B50446FB48844209D10121EB
:101C50008803FFF7ADFF00214FF48040FFF7A8FF96
:101C600032E0F648844209D101214804FFF7ADFF74
:101C700000214FF40030FFF7A8FF25E0F048844230
:101C800009D101218804FFF7A0FF00214FF4802033
:101C9000FFF79BFF18E0EB48844209D10121C804FB
:101CA000FFF793FF00214FF40020FFF78EFF0BE0BA
:101CB000E548844208D101210805FFF786FF00218D
:101CC0004FF48010FFF781FF10BD2DE9F04786B07B
:101CD00005460E460024A24600BFA1460027B08953
:101CE00000B100BF2F462C8A4CF6FF700440F088EC
:101CF00004432C82AC894EF6F3100440B08831893D
:101D00000843718908430443AC81AC8A4FF6FF4015
:101D10000440B0890443AC8201A8FFF7C2FEC64864
:101D2000874202D1DDF810A001E0DDF80CA0A889FF
:101D300000F4004040B10AEBCA0000EB0A10316821
:101D40004900B0FBF1F807E00AEBCA0000EB0A100B
:101D500031688900B0FBF1F86420B8FBF0F00401B1
:101D60002009642101FB1089A88900F4004040B1DA
:101D7000322000EBC900B0FBF1F000F00700044393
:101D800008E0322000EB09106421B0FBF1F000F014
:101D90000F0004432C8106B0BDE8F0874FF41651C4
:101DA000016000218180C18001810C2141810021DD
:101DB0008181704710B502460020108A4FF2FF0360
:101DC00018400B884C8823438C882343CC882343BA
:101DD0001843108210BD0021018041808180C180A4
:101DE000704721B1828942F40052828104E08289E5
:101DF0004DF6FF731A4082817047F0B50346002408
:101E000000260025002040F66A17B94200D100BF25
:101E10001846C1F3421401F01F06012707FA06F520
:101E2000012C01D10C3004E0022C01D1103000E073
:101E300014301AB107682F43076002E00768AF4308
:101E40000760F0BD1AB1838A0B43838202E0838A64
:101E50008B4383827047028A4FF6F0731A400282E6
:101E6000028A0A430282704782894FF2FF731A4046
:101E7000828182890A438281704721B1828942F03E
:101E80000202828104E082894FF6FD731A4082814A
:101E90007047028A4FF6DF731A400282028A0A43B1
:101EA0000282704721B1028A42F48042028204E039
:101EB000028A4BF6FF731A4002827047C1F3080290
:101EC0008280704701468888C0F308007047818986
:101ED00041F0010181817047028BD2B20283028BF3
:101EE00042EA012202837047028B02F47F4202839E
:101EF000028B0A430283704721B1828A42F020029A
:101F0000828204E0828A4FF6DF731A408282704731
:101F100021B1828A42F01002828204E0828A4FF666
:101F2000EF731A408282704721B1828A42F0080220
:101F3000828204E0828A4FF6F7731A4082827047E9
:101F400021B1828942F40042828103E08289C2F396
:101F50000E028281704721B1828A42F4006282823D
:101F600004E0828A4FF2FF731A4082827047828AAD
:101F70004FF6FB731A408282828A0A43828270473C
:101F800021B1828A42F00202828204E0828A4FF604
:101F9000FD731A408282704702460020B1F5007F2F
:101FA00000D100BF13880B400BB1012000E00020DE
:101FB000704701F40072B2F5007F00D100BFCA4340
:101FC0000280704770B502460024002300250020DF
:101FD00040F66A16B14200D100BFC1F3421501F0CC
:101FE0001F03012606FA03F3012D02D1968933401F
:101FF00006E0022D02D1168A334001E0968A334072
:102000000C12012606FA04F41688344013B10CB100
:10201000012000E0002070BD10B50022002340F632
:102020006A14A14200D100BF0A1201249440A3B255
:10203000DC43048010BD0000003801400044004033
:1020400000480040004C004000500040314901432E
:10205000314A1160704770B5002100230F22C47807
:1020600004B32D4C246804F4E064C4F5E064210A50
:10207000C1F10403CA40447804FA03F1847814409F
:1020800021430901254C0678A155047804F01F0569
:102090000124AC4005786D11AD0005F1E025C5F8CF
:1020A000004109E0047804F01F050124AC401C4DF8
:1020B0000678761145F8264070BD1A4A0A40024358
:1020C000154B1B1F1A60704739B1134A121D126855
:1020D0000243114B1B1D1A6006E00F4A121D1268C5
:1020E00082430D4B1B1D1A607047042808D14FF026
:1020F000E021096941F004014FF0E022116107E09D
:102100004FF0E021096921F004014FF0E022116154
:10211000704700000000FA050CED00E000E400E06C
:1021200080E100E080FFFF1F10B50446BE488442F6
:1021300008D101218014FFF73BFD0021A014FFF717
:1021400037FD16E0B948844208D101210014FFF799
:102150003CFD00212014FFF738FD0AE0B44884421A
:1021600007D10121C013FFF730FD0021E013FFF775
:102170002CFD10BD10B50022028802F441520B88DC
:102180004C8823438C882343CC8823430C892343E6
:102190004C8923438C892343CC8923431A430280EF
:1021A000838B4FF2FF74234083830B8A038210BD1D
:1021B0002DE9F04F85B005460C464FF00009022787
:1021C0004FF000084FF0010B0026B246A88B4FF2EB
:1021D00040010840A88302202884B5F81C90A0681C
:1021E000022801D100BF38E0A08810B94FF0010BE0
:1021F00001E04FF0020B8D48854200D100E000BFA6
:102200006846FFF74EFCDDF800A0E088B0F5007FDF
:102210000AD14FEA1A2000EB80004000A168B0FB11
:10222000F1F0401D86B20BE04FEA4B10BAFBF0F024
:1022300000EB80004000A168B0FBF1F0401D86B2C9
:102240000A20B6FBF0F606F00108A6EB0800C0F382
:102250004F074FF6FF7000EA0828022F01DBFF2F1F
:1022600002DD02274FF00008E08840EA080038430A
:102270002884A088A18908436188084321880843ED
:1022800040F4006040EA0909A5F81C9005B0BDE8DB
:10229000F08F0021018041808180C18001814181D6
:1022A0008181C18107210182704700210180418025
:1022B0008180C1800221816000218181704721B12C
:1022C000028842F04002028004E002884FF6BF73A9
:1022D0001A400280704721B1828B42F4806282836F
:1022E00004E0828B4FF6FF331A408283704730B58B
:1022F000002400230C110125A540ABB21AB185883A
:102300001D43858002E085889D43858030BD1AB1DC
:1023100083880B43838002E083888B4383807047EC
:10232000818170470146888970474FF6FF6291426C
:1023300004D0028842F48072028004E002884FF6E2
:10234000FF631A400280704721B1828842F0040284
:10235000828004E082884FF6FB731A4082807047C7
:1023600002884FF2FF731A40028002880A430280FB
:102370007047018841F480510180704721B1028883
:1023800042F40052028004E002884DF6FF731A40C6
:102390000280704702460020012901D0108B00E026
:1023A000908A70470146088A7047B1F5804F04D182
:1023B000028842F48042028004E002884BF6FF73F8
:1023C0001A40028070470246002013890B400BB16F
:1023D000012000E000207047CA4302817047F0B539
:1023E0000246002000240023002501F00F070126EB
:1023F000BE40B4B20B1101269E40B3B2968806EAE5
:1024000003051689264016B10DB1012000E0002019
:10241000F0BD10B5002201F00F040123A3409AB2D1
:10242000D343038110BD000000300140003800405C
:10243000003C004010B50446FE48844208D101210A
:10244000C014FFF7B5FB0021E014FFF7B1FBC4E0B7
:10245000B4F1804F08D101210846FFF7B6FB0021F7
:102460000120FFF7B2FBB8E0F348844208D1012114
:102470000220FFF7AAFB00210220FFF7A6FBACE039
:10248000EE48844208D101210420FFF79EFB002181
:102490000420FFF79AFBA0E0E948844208D101211B
:1024A0000820FFF792FB00210820FFF78EFB94E045
:1024B000E448844208D101211020FFF786FB002167
:1024C0001020FFF782FB88E0DF48844208D1012119
:1024D0002020FFF77AFB00212020FFF776FB7CE02D
:1024E000DA48844208D101214014FFF761FB002142
:1024F0006014FFF75DFB70E0D548844209D10121EB
:10250000C804FFF755FB00214FF40020FFF750FBF4
:1025100063E0D048844209D101210805FFF748FB58
:1025200000214FF48010FFF743FB56E0CA48844275
:1025300009D101214805FFF73BFB00214FF40010B2
:10254000FFF736FB49E0C548844208D1012140200D
:10255000FFF73BFB00214020FFF737FB3DE0C04881
:10256000844208D101218020FFF72FFB0021802029
:10257000FFF72BFB31E0BB48844208D101218015D5
:10258000FFF723FB0021A015FFF71FFB25E0B6484E
:10259000844209D101210804FFF70AFB00214FF40E
:1025A0008030FFF705FB18E0B048844209D10121D3
:1025B0004804FFF7FDFA00214FF40030FFF7F8FA66
:1025C0000BE0AB48844208D101218804FFF7F0FA00
:1025D00000214FF48020FFF7EBFA10BD00220288A3
:1025E000944B98420ED0994B98420BD0B0F1804F4B
:1025F00008D0914B984205D0904B984202D0904B16
:10260000984204D14FF68F731A404B881A438D4B72
:10261000984207D08C4B984204D04FF6FF431A40A3
:10262000CB881A4302808B8883850B880385814B76
:1026300098420BD0854B984208D08B4B984205D0DE
:102640008A4B984202D08A4B984201D10B7A03867A
:1026500001238382704770B5002400220023058C7B
:102660004FF6FE7635400584028C8388048B4FF646
:102670008F752C40B51E2C400D882C43751E2A40AA
:102680000D892A434D882A436A4DA8420BD06F4DCD
:10269000A84208D0744DA84205D0744DA84202D07B
:1026A000734DA84213D14FF6F7752A404D892A433E
:1026B0004FF6FB752A408D882A434FF6FF652B4065
:1026C0004FF6FF552B408D892B43CD892B438380BB
:1026D0000483CD888586028470BD70B500240022F5
:1026E0000023058C4FF6EF7635400584028C8388F5
:1026F000048B48F6FF752C404FF6FF452C400D88A3
:102700004FF6FF7606EA05252C434FF6DF752A4083
:102710000D8906EA05152A434D8806EA05152A4360
:10272000444DA84202D0494DA8421DD14FF67F75B5
:102730002A404D894FF6FF7606EA05152A434FF6E3
:10274000BF752A408D8806EA05152A434FF6FF35E6
:102750002B404FF2FF752B408D8906EA85052B43F0
:10276000CD8906EA85052B4383800483CD880587C0
:10277000028470BD70B5002400220023058C4FF642
:10278000FF6635400584028C8388848B4FF68F75F5
:102790002C404FF6FC752C400D882C434FF6FF550E
:1027A0002A400D894FF6FF7606EA05252A434D8813
:1027B00006EA05252A431F4DA84202D0234DA84210
:1027C0001DD14FF2FF752A404D894FF6FF7606EA7C
:1027D00005252A434FF6FF352A408D8806EA052550
:1027E0002A434EF6FF752B404DF6FF752B408D8921
:1027F00006EA05152B43CD8906EA05152B43838090
:102800008483CD888587028470BD70B50022002343
:102810000024058C4EF6FF7635400584038C8488B1
:10282000828B48F6FF752A404FF6FF452A400D88F7
:1028300020E00000002C014000040040000800409F
:10284000000C004000100040001400400034014023
:10285000004C01400050014000540140001800406D
:10286000001C0040002000400040014000440140A6
:10287000004801404FF6FF7606EA05252A434DF64B
:10288000FF752B400D8906EA05352B434D8806EA76
:1028900005352B43FA4DA84202D0FA4DA84208D183
:1028A0004BF6FF752C408D894FF6FF7606EA8515AD
:1028B0002C4384808283CD88A0F84050038470BD6F
:1028C000828B4FF2FF331A408283828B4FF6FF7365
:1028D00003EA01231A4382837047F0B50C4615467C
:1028E000002200210026078C4EF6FF7C07EA0C0729
:1028F0000784828B018C4FF6FF7707EA043640F697
:10290000FF473A404FF6FF7707EA05273A434FF66D
:10291000FF7707EA03373A43D94FB8420ED0D94F71
:10292000B8420BD0B0F1804F08D0D74FB84205D095
:10293000D64FB84202D0D64FB84206D14DF6FF77F7
:10294000394046F48057394305E047F6FF57394090
:1029500044F48057394382830184F0BD828B4FF663
:10296000F3731A408283828B0A4382837047F0B5E7
:102970000C461546002200210026078C4FF6FF6CFE
:1029800007EA0C070784828B018C4FF6FF7707EA72
:1029900004264FF60C773A404FF6FF7707EA031705
:1029A0002F433A43B64FB8420ED0B64FB8420BD081
:1029B000B0F1804F08D0B44FB84205D0B34FB84201
:1029C00002D0B34FB84206D14FF6FF57394046F414
:1029D0008077394305E04FF2FF57394044F4807760
:1029E000394382830184F0BD028B4FF2FF331A40DA
:1029F0000283028B4FF6FF7303EA01231A4302831B
:102A00007047F0B50C461546002200210026078CC1
:102A10004FF6EF7C07EA0C070784028B018C4FF618
:102A2000FF7707EA041640F6FF473A404FF6FF7774
:102A300007EA03373A434FF6FF7707EA05273A4399
:102A40008F4FB8420ED08F4FB8420BD0B0F1804FAD
:102A500008D08D4FB84205D08C4FB84202D08C4F71
:102A6000B84206D14FF6DF77394046F010073943B8
:102A700005E04FF65F77394044F010073943028391
:102A80000184F0BD028B4FF6F3731A400283028B70
:102A90000A4302837047F0B50C4615460022002118
:102AA000068C4FF6FE773E400684028B018C4FF673
:102AB0000C7632407E1C06EA03162E433243704EDB
:102AC000B0420ED06F4EB0420BD0B0F1804F08D064
:102AD0006D4EB04205D06D4EB04202D06C4EB04249
:102AE00006D14FF6FD76314044F00106314305E052
:102AF0004FF6F576314044F00106314302830184FC
:102B0000F0BD70B505460C465D4885420ED05D4867
:102B100085420BD0B5F1804F08D05B48854205D087
:102B20005A48854202D05A48854200D100E000BF91
:102B3000208850B92389A28861882846FFF7ABFF17
:102B4000E1882846FFF79EFF25E0208804280AD167
:102B50002389A28861882846FFF753FFE188284629
:102B6000FFF742FF17E0208808280AD12389A288AE
:102B700061882846FFF7FBFEE1882846FFF7EEFE56
:102B800009E02389A28861882846FFF7A6FEE1882C
:102B90002846FFF795FE70BD2DE9F04105460C462D
:102BA00000260127608808B9022600E00026A088D8
:102BB000012801D1022700E001272088A0B923893C
:102BC000A28861882846FFF766FFE1882846FFF75C
:102BD00059FF23893A4631462846FFF712FFE1881C
:102BE0002846FFF701FF13E02389A2886188284661
:102BF000FFF707FFE1882846FFF7F6FE23893A46EC
:102C000031462846FFF747FFE1882846FFF73AFF9D
:102C1000BDE8F0810A884B881A438B881A43CB8819
:102C20001A430B891A434B891A438B891A43A0F81C
:102C3000442070474FF6FF71818000210180C180E0
:102C40004180017270470021018041808180C180F4
:102C5000018141818181C1817047002101804180D2
:102C6000012181800021C180018170470021018004
:102C700041808180C1800181418181817047000054
:102C8000002C0140003401400004004000080040D6
:102C9000000C004021B1028842F00102028004E0F1
:102CA00002884FF6FE731A400280704731B1B0F8C7
:102CB000442042F40042A0F8442005E0B0F844204B
:102CC000C2F30E02A0F8442070471AB183890B4367
:102CD000838102E083898B438381704781827047BF
:102CE00041EA0203A0F8483070471AB183890B43C8
:102CF000838102E083898B438381704701894FF68A
:102D0000F8721140018170470A46002101894FF68F
:102D10008F73194011430181704730B504460D4649
:102D200029462046FFF7F0FF208940F00700208168
:102D300030BD2DE9F04104460D4616461F46602D74
:102D400006D13B46012231462046FFF75AFE05E0F8
:102D50003B46012231462046FFF79DFE294620468C
:102D6000FFF7D2FF208940F007002081BDE8F08105
:102D700030B50C4600210189C9B24FF6FF7505EA4E
:102D80000325154325432943018130BD2DE9F04139
:102D900005460E4617469846002443463A463146B5
:102DA0002846FFF7E5FF2C894FF6F870044044F001
:102DB00007044FF68F70044044F070042C81BDE886
:102DC000F081F0B504460D4616461F463B46324696
:102DD00029462046FFF7CCFF208940F4804020811F
:102DE000F0BD0185828270470A46002101884FF6B6
:102DF0008F731940114301807047F0B50C4615469A
:102E00001E460021002200230189028B038C4FF60D
:102E1000F877394021434FF6FC473A4040F201171A
:102E20003A434FF6DD773B404FF6FF7707EA061748
:102E30002F433B43018102830384F0BD0A460021F6
:102E4000018B4FF68F7319401143018370470A4677
:102E50000021018B48F6FF7319404FF6FF7303EA18
:102E600002231943018370470A460021818B4FF6E4
:102E70008F7319401143818370470A460021818B6B
:102E800048F6FF7319404FF6FF7303EA0223194314
:102E90008183704721B1028842F08002028004E001
:102EA00002884FF67F731A400280704721B18288F2
:102EB00042F00402828004E082884FF6FB731A40DD
:102EC0008280704721B1828842F00802828004E04B
:102ED00082884FF6F7731A408280704721B182884A
:102EE00042F00102828004E082884FF6FE731A40AD
:102EF000828070470A460021018B4FF6F773194014
:102F00001143018370470A460021018B4FF2FF7382
:102F100019404FF6FF7303EA0223194301837047F8
:102F20000A460021818B4FF6F773194011438183C4
:102F300070470A460021818B4FF2FF7319404FF60C
:102F4000FF7303EA02231943818370470A46002175
:102F5000018B4FF6FB7319401143018370470A46FA
:102F60000021018B4FF6FF3319404FF6FF7303EA40
:102F700002231943018370470A460021818B4FF6D3
:102F8000FB7319401143818370470A460021818BEE
:102F90004FF6FF3319404FF6FF7303EA022319433C
:102FA000818370470A460021018B4FF67F731940D9
:102FB0001143018370470A460021018BC1F30E01C2
:102FC0004FF6FF7303EA02231943018370470A4651
:102FD0000021818B4FF67F73194011438183704725
:102FE0000A460021818BC1F30E014FF6FF7303EAFD
:102FF00002231943818370470A460021018C4FF652
:10300000FD7319401143018470470A460021018C69
:103010004FF6F77319401143018470470A460021A7
:10302000018C4FF6DF7319404FF6FF7303EA02136A
:103030001943018470470A460021018C4FF67F73C3
:1030400019404FF6FF7303EA0213194301847047D6
:103050000A460021018C4FF6FF5319404FF6FF73CB
:1030600003EA02231943018470470A460021018CB8
:103070004FF2FF7319404FF6FF7303EA022319431F
:10308000018470470A460021018C4DF6FF731940F8
:103090004FF6FF7303EA023319430184704730B5DA
:1030A000002301248C40A3B2048C9C430484048C30
:1030B00002FA01F5ADB22C43048430BD30B50023D3
:1030C00004248C40A3B2048C9C430484048C02FA34
:1030D00001F5ADB22C43048430BD70B50346002029
:1030E00000241846183001258D40ACB21D8CA54334
:1030F0001D8409B1082909D100EB6100056825F09C
:10310000700505600568154305600EE00D1FC5F3E9
:103110004E052844056825F4E045056005684FF62E
:10312000FF7606EA02263543056070BD21B10288AC
:1031300042F00202028004E002884FF6FD731A405A
:103140000280704721B1028842F00402028004E04C
:1031500002884FF6FB731A400280704721B18288C3
:1031600042F08002828004E082884FF67F731A402A
:103170008280704702884FF6F7731A4002800288F7
:103180000A430280704782884FF68F731A4082800C
:1031900082880A438280704702894FF6F8731A408A
:1031A000028102890A430281704702894FF67F73C8
:1031B0001A40028102890A43028170478184704764
:1031C0008185704781867047018770478187704786
:1031D000A0F84010704702884FF6FF431A40028063
:1031E00002880A43028070470146888E7047014674
:1031F000088F70470146888F70470146B1F840003C
:1032000070470146888C70470146088D704702461A
:103210000020138A0B400BB1012000E00020704712
:10322000CA430282704730B50246002000230024C2
:10323000158A05EA0103958905EA010413B10CB169
:10324000012000E0002030BDCA4302827047000028
:1032500001684FF6FE72114001600021016041607B
:103260008160C1608D49884208D18C49083949681C
:1032700041F00F01894A083A51608AE087491431C8
:10328000884208D185490839496841F0F001834AEC
:10329000083A51607DE081492831884208D17F4950
:1032A0000839496841F470617C4A083A516070E01D
:1032B0007A493C31884208D178490839496841F453
:1032C0007041764A083A516063E07449503188424F
:1032D00008D172490839496841F470216F4A083AA7
:1032E000516056E06D496431884208D16B49083914
:1032F000496841F47001694A083A516049E06749F8
:103300007831884208D165490839496841F07061CF
:10331000624A083A51603CE06149884206D1011F87
:10332000096841F00F01021F116032E05C4914315D
:10333000884208D15A49091F096841F0F001584AEA
:10334000121F116025E056492831884208D154499E
:10335000091F096841F47061514A121F116018E099
:103360004F493C31884208D14D49091F096841F451
:1033700070414B4A121F11600BE04949503188429D
:1033800007D14749091F096841F47021444A121FB7
:103390001160704710B50022026847F6F0739A4337
:1033A0000C6A8B6823430C6923434C6923438C6963
:1033B0002343CC6923434C6A23438C6A23431A4337
:1033C0000260CB6843600B6883604B68C36010BDCC
:1033D0000021016041608160C160016141618161E2
:1033E000C161016241628162704721B1026842F0AD
:1033F0000102026004E002684FF6FE731A400260A8
:1034000070471AB103680B43036002E003688B4303
:1034100003607047416070470146486880B270475A
:1034200001460020002201F080531BB11C4B083BD9
:103430001A6802E0194B083B1A6802EA01030BB153
:10344000012000E00020704700F0805119B11449BC
:10345000091F086002E011490839486070470146B9
:103460000020002201F080531BB10D4B083B1A686D
:1034700002E00A4B083B1A6802EA01030BB1012083
:1034800000E00020704700F0805119B10449091F85
:10349000086002E0014908394860704708000240AE
:1034A0000804024070477047704770477047754680
:1034B00000F028F8AE4605006946534620F00700A4
:1034C000854618B020B5FEF72BF8BDE820404FF038
:1034D00000064FF000074FF000084FF0000B21F0FE
:1034E0000701AC46ACE8C009ACE8C009ACE8C009CB
:1034F000ACE8C0098D4670470446AFF30080204613
:10350000FCF781FE004870475404002090EA010F48
:1035100048BF81F0004100F16681421A3CBF801A29
:1035200089184FEAD0524FF07F4C1CEA410FA2EBB2
:10353000D15318BF9CEA026F00F03B804FF0004C63
:103540004CEA00204CEA012121FA03FC10EB0C0CA0
:103550001ED202F1FF325FEA1C2040EBC25038BF9E
:1035600070471CF07F0F4FEA400C18BFBCF17F4F33
:1035700038BF7047C3F12003994008BF20F0010015
:10358000BCF17F4F38BF7047A0F1C04000F01FB9B9
:103590004FEA3C00000A40EBC25028BF1CF0FF0F6E
:1035A0004FEA400CE6D018BFBCF17F4F38BF7047E0
:1035B000EAE79CEA026F05D010EA5C0F08BF00F052
:1035C0000040704710B500F0BCF800BF64FBBE3E81
:1035D000C10DD1F19E0206DB4FEA002343F0004308
:1035E00023FA02F07047004207D54FEA4001B1F1DB
:1035F000FE4F02D24FF00000704710B500F0A1F866
:1036000049922480002070476FEA20007047000034
:1036100010F0004148BF4042B0FA80F310FA03F2C4
:10362000C3F19D030BD051EAC35101EB12205306A5
:1036300038BF704700F1010008BF20F0010070475B
:103640004FF47F0C1CEAD0121EBF1CEAD11392EA81
:103650000C0F93EA0C0F00F0478090EA010F48BF6F
:1036600042F480724FF0004C4CEA00204CEA0121F9
:1036700002EB0302A0FB0113A2F50002002918BF10
:1036800043F001035B0028BF4FEA330342EB2242C1
:103690005FEA132C4CEBC2502EBFBCEB436FB2F56C
:1036A0007C0F70474FEA036CBCF1004F08BF20F05D
:1036B0000100B2F57C0F38BF70470BD582F0FF02D6
:1036C00012F5803FC8BF704700F1C040D8BF00F07E
:1036D0000040704700F5000C5FEA4C0C48BF704793
:1036E000B0F1C04000F073B890EA010F0CEAD113BA
:1036F00048BF42F48072624538BF634504D280EA15
:10370000010000F00040704710B500F01AF800BF4B
:103710008900013E00F007B800F009B85FEA410CEB
:103720005FEA1C6C08D080EA010000F050B85FEA44
:10373000400C5FEA1C6CF6D14FF00040A0F5800011
:1037400070470EF1020E2EF0030E5EF8044B244279
:1037500004D44FEA4102B2F17F4F11D84FEA40033F
:10376000B3F17F4F0CD80ED14FEAD07CB2F17F4F2E
:103770000CEB4C0C0CF1020C08BF4CEBD17C04E0C0
:103780004FF0080C01E04FEAD17C0CEB4C0324FA1B
:1037900003F404F00704B4F1040C06D20EEB840C1D
:1037A000BDE810404CF0010C6047DFE80CF0070862
:1037B00002024FF00040A0F5800010BD0846420014
:1037C00018BFD2F1807288BF00F0004010BDFF2109
:1037D00041EAD050C005704790EA010F48BF81F020
:1037E00000413FF59AAE421A04D882F00042A0EBA5
:1037F000020011444FEAD0524FF07F4C1CEA410FB7
:10380000A2EBD15318BF9CEA026F4AD04FF0004C94
:103810004CEA00204CEA012121FA03FCB0EB0C0C2D
:103820000FD412F0FE0F36D05FEA4C001DD5001207
:1038300040EBC25038BF70471CF03F0F18BF7047B5
:103840000BE0A2F101025FEA1C2040EBC25038BF3E
:1038500070471CF07F0F18BF7047C3F120039940D9
:1038600014BF401E20F00100704780084FEA122369
:1038700008BF7047B0FA80FCA2EB0C02CCF1280C18
:1038800060FA0CF093EA122F04BF00EBC2507047AD
:103890004FEAC3707047130A5FEADC1008BF704735
:1038A000F6E79CEA026F04D010EA5C0F08BF002024
:1038B000704710B5FFF745FF40DFF63E81F000404E
:1038C00070470000E4380008000000207803000082
:1038D0006C010008DC3B0008780300204007000072
:1038E000D001000820C500001C0038005400710001
:1038F0008D00A900C500E100FD001901350151014D
:103900006D018801A401BF01DA01F60111022C0248
:10391000470261027C029602B002CA02E402FE0281
:10392000170331034A0363037B039403AC03C4030B
:10393000DC03F3030B04220438044F0465047B0406
:103940009104A604BB04D004E404F8040C0520058B
:103950003305460558056A057C058E059F05B005AB
:10396000C005D005E005EF05FE050D061B0629067E
:103970003606430650065C06680673067E06890610
:1039800093069D06A606AF06B806C006C806CF0673
:10399000D606DC06E206E806ED06F106F606F906AE
:1039A000FD06000702070407060701320806120693
:1039B00010100602070007FD2012F62812ED301243
:1039C000E23812D64012C84812B85012A6581293C4
:1039D00060127E6812687012507812368010061BD2
:1039E000060D06FE9012E09812C0A0129FA8127C4D
:1039F000B01258B81233C010040C05F8CC12D0D451
:103A000012A6DC127BE4124FEC100622040B04F326
:103A1000FC16C40416940C16631414063103170321
:103A2000FE2416CA2C16963416613C14062C02117C
:103A300002F64C16BF5416885C1651641404190122
:103A4000FD7016C578168D8016548810C81C0000AD
:103A500000E4FFC8FFACFF8FFF73FF57FF3BFF1F62
:103A6000FF03FFE7FECBFEAFFE93FE78FE5CFE4158
:103A7000FE26FE0AFEEFFDD4FDB9FD9FFD84FD6A22
:103A8000FD50FD36FD1CFD02FDE9FCCFFCB6FC9DA2
:103A9000FC85FC6CFC54FC3CFC24FC0DFCF5FBDEC2
:103AA000FBC8FBB1FB9BFB85FB6FFB5AFB45FB3067
:103AB000FB1CFB08FBF4FAE0FACDFABAFAA8FA9676
:103AC000FA84FA72FA61FA50FA40FA30FA20FA11DE
:103AD000FA02FAF3F9E5F9D7F9CAF9BDF9B0F9A490
:103AE000F998F98DF982F977F96DF963F95AF95175
:103AF000F948F940F938F931F92AF924F91EF91889
:103B0000F913F90FF90AF907F903F900F9FEF8FCBE
:103B1000F8FAF8F90232F80612FA101004FEF8006A
:103B20001C120724120F2C12183412243C12314498
:103B300012404C12515412635C127764128D6C1255
:103B4000A47412BD7C12D7841004F3F902901220E1
:103B5000981240A01261A81284B012A8B812CDC069
:103B60001004F4FA08CC1230D4125ADC1285E41294
:103B7000B1EC1006DEFBF5FB0DFC163C04166C0CDC
:103B8000169D141406CFFCE9FC022416362C166A86
:103B900034169F3C1406D4FDEFFD0A4C1641541612
:103BA000785C16AF641404E7FE0370163B78167356
:103BB0008016AC88000422E4FF00016004A24A04DD
:103BC0000BC0090102030406070809212116611A26
:0C3BD000000700020406080000000000CE
:0400000508000131BD
:00000001FF
