:020000040800F2
:10000000B8080020452700089D0800089F08000840
:10001000A3080008A7080008AB08000800000000BB
:10002000000000000000000000000000AF08000811
:10003000B108000800000000B3080008B508000877
:100040005F2700085F2700085F2700085F27000878
:100050005F2700085F2700085F2700085F27000868
:100060005F2700085F2700085F27000813150008B6
:100070005F2700085F2700085F2700085F27000848
:100080005F2700085F2700085F2700085F27000838
:100090005F2700085F2700085F2700085F27000828
:1000A0005F270008AB1C00085F2700085F270008D7
:1000B0005F270008A71D00085D1C00085F270008D7
:1000C0005F2700085F2700085F2700085F270008F8
:1000D0005F270008BB2600085F2700085F2700088D
:1000E0005F2700085F2700085F2700085F270008D8
:1000F0005F2700085F2700085F2700085F270008C8
:100100005F2700085F270008191C00085F27000808
:100110005F2700085F270008FD0F00085F27000821
:100120005F2700085F2700085F2700085F27000897
:1001300000F002F800F03AF80AA090E8000C8244BF
:100140008344AAF10107DA4501D100F02FF8AFF29C
:10015000090EBAE80F0013F0010F18BFFB1A43F0A5
:1001600001031847C46C0000E46C0000103A24BF7F
:1001700078C878C1FAD8520724BF30C830C144BF0C
:1001800004680C607047000000230024002500264E
:10019000103A28BF78C1FBD8520728BF30C148BFEA
:1001A0000B6070471FB51FBD10B510BD04F0DAFC21
:1001B0001146FFF7F7FF00F009F804F0F8FC03B46C
:1001C000FFF7F2FF03BC02F01DFA0000BAB002F024
:1001D000AFF94FF4A06003F059F801F0F5FCC82026
:1001E00002F0E3F90020FE490860FE481E90082056
:1001F0001F90FD482090042022900120ADF884003B
:10020000FA48199004201A90F9481B9008201D9074
:100210004020ADF8700023234FF6FF7219A91EA8E5
:1002200000F084FC02231E221946032000F044FC47
:10023000022332221946032000F03EFCC82002F0BF
:10024000B4F9EC48D0F8A001C043E5490860EA4899
:10025000239040142490E94825904FF4C070ADF8E5
:10026000980010202790002240F60F6123A800F08C
:1002700099FDC82002F099F9DE48D0F8A001C043EA
:10028000D749086002208DF8540012A8169001206A
:100290008DF85C0040F2E730ADF85E004720ADF825
:1002A00060000120169908700C20169948700720EC
:1002B00016990871042016994880022016998871B1
:1002C0000D211698C1710721169881720821169880
:1002D00001811422CA4915A800F0B0FEC82002F01E
:1002E00064F9C448D0F8A001C043BD49086040F695
:1002F000FF70C44BC44AC549009032A800F0DEFC30
:100300000020C34BC34AC44900902DA800F0D6FC7E
:1003100046F2A810C14BC24AC249009028A800F07A
:10032000CDFCC82002F041F9B248D0F8A001C0438A
:10033000AB4908600721BC4801F04AFB01F0B8FE58
:1003400041F61F4140F2F31001F038FEC82002F0E0
:100350002CF9A848D0F8A001C043A14908600AA818
:1003600001F0A2FB20200790B04808900420ADF8CF
:10037000240001208DF82600082004909C48059058
:100380004FF40040ADF8180001208DF81A0004A8C1
:1003900001F0DEFB04A801F008FCC82002F005F91A
:1003A0009448D0F8A001C0438D490860012008603E
:1003B00000209F49086041F61F4141F2873001F05B
:1003C000C5FC00209B4908809B49087038903790F5
:1003D0009A4908709A4908709A4908709A490870B1
:1003E0009A4908609A4908709A4908709A490880A1
:1003F0009A4908809A4908709A49087049F640401D
:10040000994908809949088001F08FF81FE29848BF
:10041000007818B901F0E0FF894908708D4800782C
:1004200008B3924800884CF25031884218DA8F485D
:10043000008848F23521884212DD8C48008805F09A
:10044000D1FB05468B4A8C4B05F01CFC82460022F2
:100450008A4B05F03DFE074605F080FB88498885FC
:1004600000207C490870389800287DD1379858B111
:1004700040F2CF70834908800020379004207949EA
:10048000087000207649087076480078002816DD4C
:1004900073480078012803D0714800780B2803D1F5
:1004A00004A801F074FB16E06D48007818B16C48A0
:1004B00000780A280FD104A801F077FB0BE004A80C
:1004C00001F073FB00216F482C3803F02BFF002054
:1004D0005549488188815848007848B904A801F0F6
:1004E00064FB4948594908604FF000090024AEE117
:1004F00051480078012850D153480078002885D011
:10050000614B39AA14213E4801F0F6F8BDF8E40029
:1005100005F068FB07465D4A5D4B05F0B3FB0546F9
:1005200005F0D6F85B4908605748008805F05AFB8B
:1005300007460022584B05F0A5FB054605F0C8F814
:1005400056490860534801685448006806F0A2F80C
:1005500011900AA801F0B4FA3C490A980860BDF865
:10056000E40005F03FFB00E03AE107464C4A4D4B02
:1005700005F088FB054605F0F1FA2B49C8804A4989
:100580004648006806F086F8054606F003F8264956
:10059000088100202C49087059E12748007802287A
:1005A0001CD10120224908602748007800289ED0ED
:1005B000354B39AA1421124801F09EF832480088C0
:1005C00005F010FB0746394A394B05F05BFB054641
:1005D0000022384B05F054FC01D26DE0F1E088E0D8
:1005E000A0012142000C004000080140000800402A
:1005F000000C014000002142003401400010014085
:10060000A0000020CDCC4C3DCDCCCC3D8FC2F53DE3
:100610008FC2753D0AD7A33DCDCC4C3EEC51B83DC1
:100620000AD7233E9A99993E840000200014014085
:1006300088812242120000202400002004000020B3
:100640000300002005000020060000201800002004
:1006500002000020010000200E0000200C000020FD
:1006600015000020140000200A00002008000020CF
:10067000000000200AD7A3703D0AB73F0000F03FFA
:10068000001000402C04004010000020ABB4CAEE63
:10069000F7FB893F1C0000200000663F200000207F
:1006A000255D8EB2D94CF43F000048428E75711B17
:1006B0000DE0E73F0070974004A801F068FA4AF6A1
:1006C000AA2063494881012038900A2061490870B6
:1006D00001206149087041F287306049088000209C
:1006E0005E490839088001215C482C3803F01AFE65
:1006F00002E00020564948815948008805F072FA06
:100700008246584A584B05F0BDFA054605F026FAD0
:1007100080B20090BDF8E420014632A800F0D9FA7A
:10072000019005F048FA0746504A514B05F0AAFAE5
:10073000CDE9020104F0CCFF8146484605F0B2FD48
:1007400021F0004105464B4A4B4B05F05FFA04D2BD
:100750000A2C03DA601C84B200E000240A2C1BDAA5
:1007600049464648006805F0C9FD444908604FF015
:100770007E514248006806F059F804D24FF07E508E
:100780003E49086008E000213C48006805F04EFF43
:1007900002D2002039490860BDF8E40005F022FAD1
:1007A0000746374A374B05F06DFA054605F0D6F98E
:1007B0002749C880344800880881002033490870E0
:1007C00045E033480078032806D13248007850B31A
:1007D0000020304908703AE000202D49087036E0CA
:1007E000012037901B48007800281DDD1A4800784A
:1007F000012803D0184800780B2803D104A801F081
:10080000C6F909E01448007818B1134800780A289E
:1008100002D104A801F0C9F94AF6AA200C4948817E
:100820000C480078888112E004A801F0BEF9134852
:10083000006805F037FD05460022174B05F022FA47
:10084000074604F045FF0D49086000203890DEE5BA
:100850008400002014000020150000202C0400401B
:1008600026000020B2EAC2FBE990E83F74479CA151
:10087000FAFF2F3FFCA9F1D24D62403F1800002043
:10088000255D8EB2D94CF43F1000002006000020F8
:1008900024000020030000200000E83F704700BF54
:1008A000FEE700BFFEE700BFFEE700BFFEE77047C0
:1008B00070477047704700000CB500200190009011
:1008C0006C48006840F480306A49086000BF69489D
:1008D000006800F4003000900198401C01900098DE
:1008E00018B90198B0F5A06FF1D16248006800F422
:1008F000003010B10120009001E00020009000982D
:10090000012843D15C48006840F010005A49086053
:100910000846006820F0030008600846006840F0C0
:1009200002000860534840685249486008464068E1
:1009300048600846406840F4806048600846406867
:1009400020F47C1048600846406840F4E810486095
:100950000846006840F08070086000BF45480068A5
:1009600000F000700028F9D04248406820F00300F1
:10097000404948600846406840F00200486000BFB7
:100980003C48406800F00C000828F9D10CBD10B5B7
:10099000FFF792FF10BD10B53648006840F0010027
:1009A0003449086008464068344908403149486085
:1009B00008460068324908402E4908600846006829
:1009C00020F4802008600846406820F4FE0048605B
:1009D0004FF41F008860FFF7DAFF4FF000602949ED
:1009E000086010BD10B5002100200022214B5B687B
:1009F00003F00C0121B1042906D0082928D107E011
:100A0000214B224C236027E01F4B204C236023E026
:100A1000184B5B6803F47010164B5B6803F480326C
:100A2000022303EB904022B9194B4343174C236038
:100A30000DE0104B5B6803F4003323B1144B4343C8
:100A4000124C236003E0104B4343104C236003E03F
:100A50000D4B0E4C236000BF00BF064B5B68C3F319
:100A600003130C4CE15C094B1B68CB40074C236023
:100A700010BD000000100240002002400000FFF8FE
:100A8000FFFFF6FE08ED00E000127A0028000020CB
:100A900000093D002C0000200146072323EA010243
:100AA0001202824B18684FF6FF031840804B184320
:100AB00010437E4B186070472DE9F0410746884689
:100AC00014461D462846FFF7E7FFC5F1040007FA64
:100AD00000F60F20284100EA0800064306F00F0642
:100AE000E21704EBD2625211920002F1E022D2F836
:100AF00000212146E31704EBD3635B11A4EB431CF5
:100B0000012303FA0CF31A432046E31704EBD363E3
:100B10005B119B0003F1E023C3F800216548005DF1
:100B200040EA061063490855BDE8F0812DE9FC4113
:100B300004460D4617461E460121206902F03EF983
:100B40000121286902F03AF9A089ADF804002820B3
:100B50008DF8070003208DF80600A889ADF8000085
:100B600028208DF8030003208DF8020001A9A06859
:100B700001F068FE6946A86801F064FE0121606822
:100B800002F029F90121686802F025F920688785BB
:100B90002068068528688785286806852068008B78
:100BA00040F00100216808832068008B40F4007049
:100BB000216808832068008C216808842068008CE4
:100BC00040F02000216808842068008940F050002F
:100BD000216808812068008940F0040021680881AC
:100BE0002068008C40F00100216808842068008C97
:100BF00040F01000216808842868008B40F0010054
:100C0000296808832868008B40F4007029680883ED
:100C10002868008C296808842868008C40F020002F
:100C2000296808842868008940F0500029680881F4
:100C30002868008940F00400296808812868008C31
:100C400040F00100296808842868008C40F01000FA
:100C5000296808842068808940F002002168888122
:100C60002868808940F002002968888101212020BD
:100C700002F0B1F84FF6FF700F490880081F068098
:100C800000200D49083908802168888429688884F3
:100C90002068008840F001002168088028680088EA
:100CA00040F0010029680880BDE8FC810CED00E0FF
:100CB0000000FA0500E400E02C14004030B5039C6D
:100CC00000250582458241608260C36025B20580AF
:100CD00030BD2DE9FE4F04460D46164628B2208051
:100CE0002088801B07B2B4F9120005F073FC83461C
:100CF000E16805F0CFFC0290B4F9100005F06AFC41
:100D00000090A16805F0C6FC0190384605F062FC31
:100D10000090616805F0BEFC8346019905F0B8FDBE
:100D20008246029905F0EAFA814605F017FC0FFAAF
:100D300080F8208A608227824046BDE8FE8F00212D
:100D40000182418270470AB2028070477FB5054632
:100D50000C460121102002F03EF8ADF80850ADF825
:100D600004400020ADF80A00ADF8060001A9AC4827
:100D700002F07CFF0121AA4803F0D4FB01221146B6
:100D8000A74803F0EAFA36208DF8000003208DF81A
:100D900001008DF8020001208DF80300684602F082
:100DA0007AFA7FBD70B58CB004460D461646012117
:100DB000606802F003F80121206901F0FFFF0121C2
:100DC000084601F0FBFFA089ADF82C0018208DF833
:100DD0002F0003208DF82E000BA9A06801F032FD32
:100DE000ADF82450ADF820600020ADF82600ADF835
:100DF000220008A9206802F039FF6020ADF8100039
:100E00000120ADF812000420ADF814000020ADF868
:100E10001600ADF81800ADF81A00ADF81C00ADF8DA
:100E20001E004FF40060ADF800004010ADF8020065
:100E30000020ADF80400ADF80600ADF80800ADF8EC
:100E40000A00ADF80C006946206803F02BFA04A9EB
:100E5000206802F08AFF04A9206802F0D3FF012174
:100E6000206803F06BFA0821206803F094FB082146
:100E7000206803F09DFB0121206803F053FB002153
:100E800040F60F60FFF762FF0121654803F04AFA60
:100E90000121206803F046FA0021206803F0DCFC01
:100EA0000021206803F0DAFC0CB070BD2DE9F04F92
:100EB00085B082460C469146B9F1000F35D12088A5
:100EC000584931F91000002816DD2188554A32F9B9
:100ED000110005F07FFB0746514605F0DBFB064697
:100EE00005F058FB85B229464F4803F0B7FC0021B6
:100EF0004D4803F0B1FC75E021884A4A32F91110DF
:100F0000484205F067FB0746514605F0C3FB06461D
:100F100005F040FB85B22946434803F09FFC4FF49F
:100F20006161414803F098FC5CE0B9F1010F34D1F4
:100F300020883C4931F91000002816DB2188394A05
:100F400032F9110005F046FB0746514605F0A2FBB9
:100F5000064605F01FFB85B22946334803F07EFCA8
:100F60000021314803F078FC3CE021882D4A32F919
:100F70001110484205F02EFB0746514605F08AFB4A
:100F8000064605F007FB85B22946274803F064FCB6
:100F90000021254803F062FC24E00021224803F0F0
:100FA0005BFC21881F4A32F9110005F013FB514602
:100FB000019005F06FFB834605F074F900221B4B8E
:100FC000CDE9020104F05EFE07460022184B04F052
:100FD000B1FB054604F0C2FD80B201460490124800
:100FE00003F03CFC2088401C4FF4C87190FBF1F2E8
:100FF00001FB1200208005B0BDE8F08F10B5012183
:10100000074803F058FC48B101220A490A48006821
:10101000FFF74CFF0121024803F05EFC10BD000009
:10102000001000406A6A0008003401400000E03F00
:10103000001C9C401200002018000020F0B599B060
:1010400004460E4617460121084601F0C4FE012160
:10105000084601F0A6FE0121082001F0AFFE0121A3
:10106000480201F0ABFE4FF4004001F00BFE608936
:10107000002801DD608901E044F61F60ADF84400FE
:10108000A089002801DDA08900E04720ADF84000DC
:101090000020ADF84600ADF8420010A94FF08040A6
:1010A00002F0E4FD6020ADF830000120ADF8320020
:1010B00060894010ADF836000220ADF838000CA968
:1010C000400702F052FE4FF0804003F05FF9082124
:1010D000C80603F060FA00214FF0804003F06EFB79
:1010E000FA4803F0FDFBFA480090019600200290B8
:1010F00003970490802005904000069080000790A0
:10110000202008900002099000200A906946EF48CC
:1011100003F088FC01220221EC4803F0BAFC0B200A
:101120008DF82C0000208DF82D008DF82E00012068
:101130008DF82F000BA802F0AEF800201490207A52
:10114000012800D100E000208DF8540000208DF827
:1011500055004FF4C02016900020179020788DF88D
:10116000600014A9DA484C3802F0ABFA00252AE0F6
:1011700045B905EB4501606800EB41004088ADF8DA
:101180004C000AE005EB4501606800EB4100408837
:10119000BDF84C100843ADF84C0005EB450C6068F9
:1011A00000EB4C00037905EB450C606810F81C203F
:1011B00005EB450C00EB4C004178C5484C3802F07B
:1011C00018FB681C85B22078A842D1DC03208DF87A
:1011D0004E0000208DF84F0013A9BE4801F032FBED
:1011E0000121BB484C3802F0A3FA0121B8484C3821
:1011F00002F093FAB6484C3802F0B1FA00BFB44896
:101200004C3802F0B1FA0128F9D0B1484C3802F05C
:10121000B5FA00BFAE484C3802F0B5FA0128F9D053
:101220000121AB484C3802F040FB0021A8484C3863
:1012300002F073FA00214FF0804003F073F80021B0
:10124000A24803F01AFC19B0F0BDF0B599B00446FD
:101250000E4617460121084601F0BDFD012102207E
:1012600001F09FFD0121042001F0A8FD01214802A9
:1012700001F0A4FD4FF4004001F004FD00214FF007
:10128000804003F04FF86089002801DD608901E0AB
:1012900044F61F60ADF84400A089002801DDA08954
:1012A00000E04720ADF840000020ADF84600ADF862
:1012B000420010A94FF0804002F0D8FC6020ADF849
:1012C00030000120ADF8320060894010ADF83600E2
:1012D0000220ADF838000CA9400702F093FD4FF052
:1012E000804003F053F80821C80603F061F900219B
:1012F0004FF0804003F062FA774803F0F1FA774844
:1013000000900196002002900397049080200590A1
:10131000400006908000079020200890000209906D
:1013200000200A9069466C4803F07CFB01220221F0
:10133000694803F0AEFB38208DF82C0000208DF8B2
:101340002D008DF82E0001208DF82F000BA801F044
:10135000A2FF00201490207A012800D100E0002094
:101360008DF8540000208DF855004FF4C0201690E1
:101370000020179020788DF8600014A954484C384C
:1013800002F09FF900252AE045B905EB45016068A8
:1013900000EB41004088ADF84C000AE005EB450148
:1013A000606800EB41004088BDF84C100843ADF880
:1013B0004C0005EB450C606800EB4C00037905EB35
:1013C000450C606810F81C2005EB450C00EB4C0048
:1013D00041783F484C3802F00CFA681C85B22078FE
:1013E000A842D1DC00208DF84F0013A93C4801F041
:1013F00029FA012136484C3802F09AF90121344883
:101400004C3802F08AF932484C3802F0A8F900BF93
:101410002F484C3802F0A8F90128F9D02C484C3854
:1014200002F0ACF900BF2A484C3802F0ACF90128B0
:10143000F9D0012126484C3802F037FA002124481F
:101440004C3802F06AF900214FF0804002F06AFF48
:1014500000211E4803F011FB19B0F0BD30B587B074
:1014600004460D46A089ADF8040000208DF8070061
:1014700001A9A06801F0E6F9002002908DF80C00A7
:101480008DF80D004FF4602004900020059001209D
:101490008DF8180002A9206802F013F901212068D4
:1014A00002F03BF9206802F05AF900BF206802F010
:1014B0005BF90028FAD1206802F060F900BF2068CB
:1014C00002F061F90028FAD107B030BD08000240EF
:1014D0004C240140000C0140580402404C3C0140A7
:1014E0000008014010B50446A37B61790122206801
:1014F00002F07FF90121206802F04FF900BF0221BC
:10150000206802F0BBFA0028F9D0206802F0D8F970
:1015100010BD10B5022003F0EAFA28B101202749D6
:101520000870022003F0F7FA10BD10B5012124481D
:1015300002F0F3F80121234803F09FFA0121880704
:1015400002F0F0FE10BD10B500211D4802F0E5F8D4
:1015500000211C4803F091FA00214FF0804002F076
:10156000E1FE10BD10B50121174802F0D6F80121A7
:10157000144803F082FA0121880702F0D3FE10BD5F
:1015800010B50021104802F0C8F800210D4803F002
:1015900074FA00214FF0804002F0C4FE10BD10B577
:1015A00004460121204602F0B8F810BD10B50446EB
:1015B0000021204602F0B1F810BD00000600002016
:1015C0000024014008000240003C014010B50446E0
:1015D0000021204605F02AF901D2204610BD84F0F2
:1015E0000040FBE72DE9F84F05460E4617469846A2
:1015F0004FF000094FF6FF7A3C460FE035F8140033
:10160000484502DD35F8149005E035F814005045E2
:1016100001DA35F814A004EB080084B2B442EDDB23
:10162000A9EB0A0004F0D6FF00900A9905F032F801
:10163000834604F0AFFF80B2BDE8F88F2DE9F0419A
:10164000044600254FF6FF760027B446002025E02B
:1016500034F81080A84502DD34F8105005E034F865
:101660001080B04501DA34F8106000F1010834F858
:101670001880B84504DD00F1010834F8187009E05D
:1016800000F1010834F81880E04503DA00F10108A0
:1016900034F818C000F102081FFA88F08842D7DB3E
:1016A000A5EB0608A2F80080A7EB0C08A3F80080C1
:1016B000BDE8F0812DE9F04706460C4617469846EE
:1016C0004FF000093D460BE036F8150004F09AFF94
:1016D0008246494604F012FE814605EB080085B2B9
:1016E000A542F1DB204604F08DFF82465146484674
:1016F00004F072FEBDE8F08770B504460025158041
:101700001D8000200CE0158834F8106035441580E9
:101710001E88451C34F8155035441D80851CA8B220
:101720008842F0DB15884E1095FBF6F515801D8874
:101730004E1095FBF6F51D8070BD2DE9F84F05465E
:101740000E461746012433E035F81400B0422DDB75
:10175000601E35F81000B04228DA35F81400811BFD
:10176000601E35F81000301A91FBF0FB584604F06B
:1017700031FF8246FFF72AFF81464FF07E5104F089
:10178000BDFD014600904FF07E5004F025FE8046DE
:10179000204604F037FF8246414604F0AFFD814603
:1017A0004FF07E5105F074F8BDE8F88F601C84B2EC
:1017B000BC42C9DB0020F7E72DE9FF4F85B0834627
:1017C00000210C460D468A4638E0139804F06AFD65
:1017D000CDE902013BF81A200899501A04F0EBF900
:1017E000CDE90001DDE9022304F04CFA8046894688
:1017F000149804F057FDCDE90201069931F81A203A
:101800001299501A04F0D7F9CDE90001DDE902235D
:1018100004F038FA06460F4632463B4640464946F3
:1018200004F030FA22462B46CDE9020103F082FF94
:1018300004460D460AF101001FFA80FA0798824516
:10184000C3DB2046294609B0BDE8F08F2DE9F04FF3
:1018500087B080460C4691469A4600251DE038F830
:101860001510A1EB090004F0B5FE5146019004F0FB
:1018700011FF834604F016FD00224FF08043CDE9AE
:10188000020103F023FA32463B46CDE9040103F09E
:1018900051FF06460F46681C85B2A542DFDB204695
:1018A00004F0A0F902460B46CDE904013046394662
:1018B00003F0FCFF06460F463046394607B0BDE848
:1018C000F08F2DE9F05F824614469946DDF82CB082
:1018D0005B464A4621465046FFF7B8FF05460E468E
:1018E0005B464A4621465046FFF7B0FF07462A4668
:1018F000334604F0C7F9BDE8F09F2DE9F04F85B0FD
:1019000005460E46174600200490DFF884814FF00C
:101910000109824600241CE03119685C04F072FE63
:101920004146039004F0B6FE8346049904F0E6FCB9
:101930000490404604F0B6FC564A574BCDE90001EE
:1019400004F0A0F9CDE9020103F0C2FE8046601C5C
:1019500004B2BC42E0DB701E04B20CE0285D00FB68
:1019600009A01FFA80FA09EB89004FF6FF7101EA1E
:101970004009601E04B2002CF0DA504604F042FE2A
:101980008346049904F0BAFC05B0BDE8F08F70B549
:1019900003460020012400220DE04D1EAD1A5D5DBE
:1019A00005FB0405A8B204EB84054FF6FF7606EAB2
:1019B0004504551CAAB28A42EFDB70BD02460020E6
:1019C00003E000231354431C98B28842F9DB7047AC
:1019D0000246002004E0002322F81030431C98B295
:1019E0008842F8DB704730B50446187824F8102098
:1019F0002A4800681044294D286029480078E0B141
:101A0000187834F810002D68281A244D28602846CC
:101A1000006810442860187824F810201878401CBA
:101A200090FBF1F501FB150018701C480068B0FB35
:101A3000F1F080B21B4D288030BD1848006810447A
:101A4000164D2860187824F810201D78481E85420D
:101A500011D11878401C90FBF1F501FB15001870AE
:101A600001200F4D28700D480068B0FBF1F080B2E6
:101A70000C4D2880E0E71878401C18701878074D46
:101A80002D68B5FBF0F080B2064D2880D4E7000049
:101A9000CDCCCC3D9A9999999999B93F40000020B5
:101AA0003C0000204400002000218161C161816070
:101AB00041602549C16000214161244901617047AD
:101AC00010B50446D4E9061004F0B0FE10D2D4E9F3
:101AD000010104F0ABFE05D2E168606804F00EFC81
:101AE00020601AE0E168606804F0D2FE206014E033
:101AF000D4E9061004F09AFD0FD2D4E9010104F0F4
:101B000095FE05D2E168606804F0C2FE206004E042
:101B1000E168606804F0F2FB20602169206804F04D
:101B200085FE02D22069206006E06169206804F029
:101B30007DFD01D260692060E069A0616068A060FD
:101B40002068606010BD00006F12033A58FF7F3FAD
:101B500038B504460121206801F030F92089ADF83C
:101B6000000010208DF8030003208DF80200694664
:101B7000606800F067FEA07A20B92189606800F0F3
:101B80000EFF03E02189606800F00BFF38BD10B53F
:101B90000446A07A20B92189606800F002FF03E0C2
:101BA0002189606800F0FBFE10BD10B50446A07AE4
:101BB00020B92189606800F0F2FE03E021896068A5
:101BC00000F0EFFE10BD000008B50121242001F057
:101BD000F5F84FF48070ADF8000010208DF8030088
:101BE00003208DF802006946094800F02BFE4FF4EF
:101BF0008071074800F0D3FE0420ADF8000069466C
:101C0000044800F01FFE0421024800F0C8FE08BD91
:101C1000000801400014014010B502213D4802F0C7
:101C20004AFE012819D104203B4908803948343044
:101C30000088401C84B264B13848048001203849CF
:101C400008700021374802F001FE0121354802F0FA
:101C500069FB02212F4802F03FFE10BD10B50221A2
:101C6000314802F028FE01281ED12F483430008868
:101C7000401C84B2A4B12D48048001202C49087076
:101C80000021284802F04EFB264802F002FE2949B6
:101C90000880012028490870264800882749488183
:101CA0000221214802F018FE10BD10B50121244880
:101CB00002F001FE68B301202249087040F60A20B4
:101CC0001E49088015480088488018480088888088
:101CD00000F057FB00240EE0184830F81400000A0A
:101CE000194A02F81400154810F814106000401C3E
:101CF0001154601CC4B2072CEEDB134800F0CFFA7D
:101D000000F019FB00200F49087001210C4802F077
:101D1000E3FD10BD000C0040120000200800002070
:101D20000100002000140040000800400A000020CC
:101D3000020000200E00002005000020840000208A
:101D4000002C014000000020680000207FB50546FF
:101D50000C460121022001F03EF8ADF80850ADF824
:101D600004400020ADF80A00ADF8060001A9AA4819
:101D700001F07CFF01221146A74802F0EEFA1D2077
:101D80008DF8000000208DF8010003208DF802007E
:101D900001208DF80300684601F07DFA01219E487C
:101DA00002F0C0FB7FBD10B501219B4802F083FD0E
:101DB00080B39A480078002828DD99480068C0431D
:101DC0009849C1F8880195480078401E93490870E9
:101DD0009548007818B901209349087016E0924898
:101DE0000078012803D100208F4908700EE08E484A
:101DF00000780A2803D10B208B49087006E08A4836
:101E000000780B2802D10A208749087001218248F6
:101E100002F062FD10BD7FB505460C460121084663
:101E200000F0D9FFADF80850ADF804400020ADF83F
:101E30000A00ADF8060001A94FF0804001F016FF3E
:101E400001221146900702F088FA1C208DF800004C
:101E500000208DF801008DF8020001208DF80300AC
:101E6000684601F018FA0121880702F05BFA7FBD8D
:101E70007FB505460C460121042000F0ACFFADF80B
:101E80000850ADF804400020ADF80A00ADF8060097
:101E900001A9664801F0EAFE01221146634802F0FA
:101EA0005CFA1E208DF8000003208DF8010001204F
:101EB0008DF802008DF80300684601F0ECF97FBD53
:101EC0007FB505460C460121102000F084FFADF8D7
:101ED0000850ADF804400020ADF80A00ADF8060047
:101EE00001A9534801F0C2FE0121514802F01AFB3A
:101EF000012211464E4802F030FA36208DF80000DB
:101F000003208DF801008DF8020001208DF80300F8
:101F1000684601F0C0F97FBD7FB505460C4601213A
:101F2000202000F058FFADF80850ADF80440002024
:101F3000ADF80A00ADF8060001A93E4801F096FE92
:101F4000012211463B4802F008FA37208DF80000C4
:101F500001208DF8010000208DF8020001208DF88D
:101F60000300684601F097F97FBD7FB505460C4632
:101F70000121480300F02FFFADF80850ADF80440F0
:101F80000020ADF80A00ADF8060001A92A4801F0CA
:101F90006DFE01221146284802F0DFF92C208DF851
:101FA000000001208DF8010000208DF802000120C2
:101FB0008DF80300684601F06EF97FBD7FB50546D8
:101FC0000C460121C80200F0F9FEADF80850ADF84A
:101FD00004400020ADF80A00ADF8060001A917483A
:101FE00001F044FE01221146144802F0B6F919200E
:101FF0008DF8000001208DF8010000208DF802000E
:1020000001208DF80300684601F045F901210B48D5
:1020100002F088F97FBD0000000400401400002099
:1020200088812242008022421500002000080040E2
:10203000001000400014004000340140002C01401A
:1020400070B50546002405E0601CC4B2C82C01DD53
:10205000002070BD0221F74801F0D5FA0028F3D026
:102060002946F44801F07CFA002405E0601CC4B263
:10207000C82C01DD0020ECE70121EE4801F0C3FA95
:102080000028F3D0EB4801F06DFAC0B2E1E7E9496E
:1020900009884FF6C7721140E64A11801146098837
:1020A000014311801146098841F0400111807047B9
:1020B00000B587B00121142000F080FE012141F21B
:1020C000040000F07BFE1C20ADF8180010208DF8F5
:1020D0001B0003208DF81A0006A9D74800F0B2FBB8
:1020E0001020ADF818008DF81B0003208DF81A00A1
:1020F00006A9D24800F0A6FB1021D04800F04FFC02
:102100000120ADF8180048208DF81B0003208DF841
:102110001A0006A9C94800F095FBE020ADF81800A8
:1021200018208DF81B0003208DF81A0006A9C2485C
:1021300000F088FBE021C04800F031FC1E21BE48C1
:1021400000F02DFC0020ADF804004FF48270ADF8D3
:1021500006000020ADF80800ADF80A00ADF80C004C
:102160004FF40070ADF80E003820ADF810000020DC
:10217000ADF812000720ADF8140001A9AD4801F038
:1021800019F90121AB4801F0BAF90020AC49086007
:102190000120AC49C1F8900107B000BD2DE9F04124
:1021A00007460D4616460020A74908603846FFF747
:1021B00047FF8046002405E0FF20FFF741FF285538
:1021C000601CC4B2B442F7DB01209F49086040465E
:1021D000BDE8F0812DE9F04107460C461546002088
:1021E000994908603846FFF72BFF8046002605E036
:1021F00014F8010BFFF724FF701CC6B2AE42F7DBE8
:102200000120914908604046BDE8F0811CB58FA1CE
:1022100003C9CDE900011020FFF739FF0522694607
:102220003020FFF7D7FF052269461020FFF7B6FFE1
:10223000002406E01DF80400A52800D003E0601C7F
:10224000C4B2052CF6DB00BF052C01D001201CBD5B
:102250000020FCE770B505460C4600207A4908606E
:102260002846FFF7EDFE06462046FFF7E9FE01206F
:102270007449C1F89001304670BD70B50446002025
:10228000714908602046FFF7DBFEFF20FFF7D8FE0C
:10229000054601206B49C1F89001284670BD70B514
:1022A00005461020FFF7F3FE0020654908600E2266
:1022B0002946A020FFF78EFF01206649C1F8900152
:1022C00000BF6148903800680028FAD10720FFF766
:1022D000D4FF044621462720FFF7BCFF04F010007E
:1022E00028B1FF21E120FFF7B5FF102070BD04F0F9
:1022F000200008B12020F9E7FF20F7E770B5044679
:102300001020FFF7C4FE0720FFF7B7FF0546294658
:102310002720FFF79FFF05F0400050B10E22214615
:102320006120FFF73BFFFF21E220FFF793FF002032
:1023300070BD0120FCE710B500204149086005226E
:1023400045492A20FFF746FF01212120FFF782FFA0
:1023500001212220FFF77EFF28212520FFF77AFFA9
:102360000E213120FFF776FF0F212620FFF772FFA5
:102370000F212020FFF76EFF01203649C1F89001A0
:1023800010BD10B500202E490860052233493020C9
:10239000FFF720FF052230492A20FFF71BFF01210C
:1023A0002120FFF757FF01212220FFF753FF1A21B9
:1023B0002420FFF74FFF28212520FFF74BFF0F2197
:1023C0002620FFF747FF0E212020FFF743FF0120C3
:1023D0002049C1F8900110BD10B52148FFF78EFFCC
:1023E000002868D100240DE06000401C1C49085CF6
:1023F0000A4612F8141040EA01201A4921F8140084
:10240000601CC4B2072CEFDB1648008840F60B3185
:10241000884250D10A4810300068C0430D49C1F8C5
:10242000A001104840880A2820DA00200E490870D0
:102430003FE0000000300140000801400010014072
:10244000900121420000224290012242A5A5A5A5AB
:10245000A5000000000021428F6D00088A6D000871
:1024600076000020920000202400002029484088A7
:10247000142807DA0120284908702648808827494F
:10248000088016E0234840881E2807DA02202249E7
:10249000087020488088214908800AE01D4840884B
:1024A000282806DA03201C4908701A4880881B492E
:1024B0000880012010BD0020FCE72DE9F041064610
:1024C0000F46FFF75EFF00240EE0154830F81400B9
:1024D000000A144A02F81400114810F814106000A1
:1024E000401C1154601CC4B2072CEEDB0D48FFF7F2
:1024F000D6FE0546FFF71FFF202D08D10A480068C9
:10250000C0430A49C1F888010120BDE8F0810020DC
:10251000FBE700009200002024000020260000209D
:10252000840000206800002088812242008022422E
:1025300010B56FF0040000F0F8FE2E4800682E4938
:10254000B0FBF1F02D4908700846007800EB40011F
:10255000C1EBC0104FF6FF7101EAC00028490880A6
:1025600010BD0146254A12784A434FF0E0235A61D4
:1025700000229A611A46126942F001021A6100BFF4
:102580004FF0E022106900F001021AB100F480322D
:10259000002AF5D04FF0E022126922F001024FF03C
:1025A000E0231A6100229A6170470146144A12889A
:1025B0004A434FF0E0235A6100229A611A46126999
:1025C00042F001021A6100BF4FF0E022106900F0F2
:1025D00001021AB100F48032002AF5D04FF0E02257
:1025E000126922F001024FF0E0231A6100229A6181
:1025F000704700002800002000127A0046000020EA
:1026000048000020014600BF704700BF494A1288B9
:1026100002F04002002AF9D0C2B2464B1B1D1A80BC
:10262000704710B586B00446012144F2040000F062
:10263000C5FB4FF40070ADF8140003208DF81600B0
:1026400018208DF8170005A93B4800F0FBF84FF45F
:102650008060ADF8140004208DF8170005A93648F5
:1026600000F0F0F825208DF8000003208DF801001F
:102670008DF8020001208DF80300684600F00BFE83
:1026800001940020ADF80800ADF80A00ADF80C0088
:10269000ADF810000C20ADF80E0001A9254800F09F
:1026A00034FC012240F22551224800F0C6FC0121F1
:1026B000204800F0B6FC06B010BD10B540F2255120
:1026C0001C4800F09FFD10B31A4800F01BFDC4B277
:1026D0001A48008800F40040C8B91848008800F47F
:1026E000804060B10A2C03D000201449088020E00B
:1026F0001248008840F400401049088019E00D2C71
:1027000006D10E48008840F480400C49088010E053
:102710000A480088C0F30D0009490C540748008896
:10272000401C0649088008460088C72801DD0020B3
:10273000088010BD00380140000801405000002012
:10274000900100200948804709480047FEE7FEE75E
:10275000FEE7FEE7FEE7FEE7FEE7FEE7FEE7FEE751
:1027600004480549054A064B7047000097090008D0
:1027700031010008B8020020B8080020B804002089
:10278000B804002010B50446CC48844208D1012189
:10279000042000F02DFB0021042000F029FB46E07E
:1027A000C748844208D10121082000F021FB002104
:1027B000082000F01DFB3AE0C248844208D1012104
:1027C000102000F015FB0021102000F011FB2EE07E
:1027D000BD48844208D10121202000F009FB0021DE
:1027E000202000F005FB22E0B848844208D10121F6
:1027F000402000F0FDFA0021402000F0F9FA16E038
:10280000B348844208D10121802000F0F1FA002170
:10281000802000F0EDFA0AE0AE48844207D10121A1
:10282000801500F0E5FA0021A01500F0E1FA10BDD6
:1028300010B50121084600F0DBFA0021012000F06C
:10284000D7FA10BD2DE9F0410246002500260020F0
:1028500000230024002791F803C00CF00F0591F825
:1028600003C00CF0100CBCF1000F03D091F802C0B3
:102870004CEA050591F800C0BCF1000F31D0146896
:1028800000202BE04FF0010C0CFA00F3B1F800C06F
:102890000CEA03069E4220D183004FF00F0C0CFA85
:1028A00003F7BC4305FA03FC4CEA040491F803C0A7
:1028B000BCF1280F06D14FF0010C0CFA00FCC2F855
:1028C00014C00AE091F803C0BCF1480F05D14FF0E5
:1028D000010C0CFA00FCC2F810C0401C0828D1D32F
:1028E0001460B1F800C0BCF1FF0F34DD5468002063
:1028F0002EE000F1080C4FF0010808FA0CF3B1F8D3
:1029000000C00CEA03069E4221D183004FF00F0C59
:102910000CFA03F7BC4305FA03FC4CEA040491F8F3
:1029200003C0BCF1280F05D100F1080C08FA0CF81F
:10293000C2F8148091F803C0BCF1480F07D100F130
:10294000080C4FF0010808FA0CF8C2F81080401C7F
:102950000828CED35460BDE8F0814FF6FF710180A6
:10296000022181700421C1707047024600209368E3
:102970000B400BB1012000E0002070470146886841
:1029800080B2704702460020D3680B400BB1012093
:1029900000E0002070470146C86880B270470161BE
:1029A0007047416170470AB1016100E041617047C1
:1029B000C16070474FF480320A4382618161826155
:1029C00082698269704702460020434B18684FF6BF
:1029D0008073184040EA021008433F4B186070476C
:1029E0003E49C8617047F0B50A4600230024002123
:1029F000002500F00046B6F1004F02D1364EF169D5
:102A000001E0354E7168C0F3034583B200F440160F
:102A1000B6F5401F08D121F070612F4E766826F080
:102A200070662D4F7E6012E000F48016B6F5801FB0
:102A300006D1032606FA05F4A14341F0706106E0D1
:102A4000460D360103FA06F6B14341F0706122B13A
:102A5000460D360103FA06F6314300F00046B6F1A2
:102A6000004F02D11C4EF16101E01B4E7160F0BDC0
:102A700030B500228B071C0F0F2303FA04F2164B0C
:102A800008338C1053F824309343134C08348D10C2
:102A900044F8253023468C1053F824308C07240F3B
:102AA00000FA04F423430C4C08348D1044F825300C
:102AB00030BD0A49DC310860704700000008014061
:102AC000000C0140001001400014014000180140BA
:102AD000001C014000200140000001400000204295
:102AE000DF48006840F00100DD49086008464068A2
:102AF000DC490840DA49486008460068DA4908407D
:102B0000D74908600846006820F48020086008461D
:102B1000406820F4FE0048604FF41F008860704752
:102B2000CF49096821F48031CD4A11601146096806
:102B300021F480211160B0F5803F03D0B0F5802FE3
:102B40000ED106E0C649096841F48031C44A1160DB
:102B500007E0C349096841F4A021C14A116000E0BF
:102B600000BF00BF704710B50146002200230020BF
:102B70004A11012A02D1BA4C236806E0022A02D186
:102B8000B74C236A01E0B64C636A01F01F020124CE
:102B900094401C400CB1012000E0002010BD38B56D
:102BA000002000900024002500BF3120FFF7DBFF4C
:102BB00005460098401C00900098B0F5A06F01D029
:102BC000002DF2D03120FFF7CEFF08B1012400E044
:102BD0000024204638BD01460020A14A106820F09C
:102BE000F80040EAC10010607047A04908607047D3
:102BF000024600209A4B586820F47C1042EA0103F8
:102C00001843974B586070479849086670470146CB
:102C10000020934A506820F003000843506070473A
:102C20008F48406800F00C007047014600208C4A35
:102C3000506820F0F00008435060704701460020C3
:102C4000874A506820F4E0600843506070470146AE
:102C50000020834A506820F4605040EAC100506070
:102C6000704729B17E4A527A02437D4B5A7204E082
:102C70007B4A527A82437A4B5A7270477B49D831E9
:102C80000860704701460020754A506820F44040B3
:102C90000843506070470021714A20321170704A19
:102CA00082F82010012802D004280AD104E0012172
:102CB0006B4A2032117005E00521694A20321170FB
:102CC00000E000BF00BF7047694908607047644971
:102CD000096A0143624A11627047654944390860D4
:102CE000704730B500210022002400235C4D6D6840
:102CF00005F00C0121B1042905D0082923D105E0F4
:102D00005C4D056022E05B4D05601FE0544D6D6831
:102D100005F47012524D6D6805F48034022505EB00
:102D200092421CB9544D554305600BE04C4D6D6803
:102D300005F400351DB1504D5543056002E04D4D81
:102D40005543056002E04B4D056000BF00BF444D98
:102D50006D6805F0F0010909484D6B5C0568DD40C0
:102D600045603F4D6D6805F4E061090A434D6B5CB9
:102D70004568DD4085603A4D6D6805F46051C90ACB
:102D80003E4D6B5C4568DD40C560354D6D6805F4B2
:102D90004041890B3A4D6B5CC568B5FBF3F50561A5
:102DA00030BD29B12E4A526902432D4B5A6104E0CD
:102DB0002B4A526982432A4B5A61704729B1284AEB
:102DC00092690243264B9A6104E0254A9269824344
:102DD000234B9A61704729B1214AD2690243204BA3
:102DE000DA6104E01E4AD26982431D4BDA61704702
:102DF00029B11B4AD2680243194BDA6004E0184A31
:102E0000D2688243164BDA60704729B1144A1269BE
:102E10000243134B1A6104E0114A12698243104BBA
:102E20001A61704712494039086070470F49C864F9
:102E300070470B49C87170470948406A40F080707C
:102E400007494862704701460020054A92680A40D7
:102E50000AB1012000E000207047014988727047E4
:102E6000001002400000FFF8FFFFF6FE00004242A3
:102E70008004424200127A0000093D005200002006
:102E80006200002010B50446FB48844209D10121AC
:102E90008803FFF7ADFF00214FF48040FFF7A8FF44
:102EA00032E0F648844209D101214804FFF7ADFF22
:102EB00000214FF40030FFF7A8FF25E0F0488442DE
:102EC00009D101218804FFF7A0FF00214FF48020E1
:102ED000FFF79BFF18E0EB48844209D10121C804A9
:102EE000FFF793FF00214FF40020FFF78EFF0BE068
:102EF000E548844208D101210805FFF786FF00213B
:102F00004FF48010FFF781FF10BD2DE9F04786B028
:102F100005460E460024A24600BFA1460027B08900
:102F200000B100BF2F462C8A4CF6FF700440F08899
:102F300004432C82AC894EF6F3100440B0883189EA
:102F40000843718908430443AC81AC8A4FF6FF40C3
:102F50000440B0890443AC8201A8FFF7C2FEC64812
:102F6000874202D1DDF810A001E0DDF80CA0A889AD
:102F700000F4004040B10AEBCA0000EB0A103168CF
:102F80004900B0FBF1F807E00AEBCA0000EB0A10B9
:102F900031688900B0FBF1F86420B8FBF0F004015F
:102FA0002009642101FB1089A88900F4004040B188
:102FB000322000EBC900B0FBF1F000F00700044341
:102FC00008E0322000EB09106421B0FBF1F000F0C2
:102FD0000F0004432C8106B0BDE8F0874FF4165172
:102FE000016000218180C18001810C21418100218B
:102FF0008181704710B502460020108A4FF2FF030E
:1030000018400B884C8823438C882343CC88234367
:103010001843108210BD0021018041808180C18051
:10302000704721B1828942F40052828104E0828992
:103030004DF6FF731A4082817047F0B503460024B5
:1030400000260025002040F66A17B94200D100BFD3
:103050001846C1F3421401F01F06012707FA06F5CE
:10306000012C01D10C3004E0022C01D1103000E021
:1030700014301AB107682F43076002E00768AF43B6
:103080000760F0BD1AB1838A0B43838202E0838A12
:103090008B4383827047028A4FF6F0731A40028294
:1030A000028A0A430282704782894FF2FF731A40F4
:1030B000828182890A438281704721B1828942F0EC
:1030C0000202828104E082894FF6FD731A408281F8
:1030D0007047028A4FF6DF731A400282028A0A435F
:1030E0000282704721B1028A42F48042028204E0E7
:1030F000028A4BF6FF731A4002827047C1F308023E
:103100008280704701468888C0F308007047818933
:1031100041F0010181817047028BD2B20283028BA0
:1031200042EA012202837047028B02F47F4202834B
:10313000028B0A430283704721B1828A42F0200247
:10314000828204E0828A4FF6DF731A4082827047DF
:1031500021B1828A42F01002828204E0828A4FF614
:10316000EF731A408282704721B1828A42F00802CE
:10317000828204E0828A4FF6F7731A408282704797
:1031800021B1828942F40042828103E08289C2F344
:103190000E028281704721B1828A42F400628282EB
:1031A00004E0828A4FF2FF731A4082827047828A5B
:1031B0004FF6FB731A408282828A0A4382827047EA
:1031C00021B1828A42F00202828204E0828A4FF6B2
:1031D000FD731A408282704702460020B1F5007FDD
:1031E00000D100BF13880B400BB1012000E000208C
:1031F000704701F40072B2F5007F00D100BFCA43EE
:103200000280704770B5024600240023002500208C
:1032100040F66A16B14200D100BFC1F3421501F079
:103220001F03012606FA03F3012D02D196893340CC
:1032300006E0022D02D1168A334001E0968A33401F
:103240000C12012606FA04F41688344013B10CB1AE
:10325000012000E0002070BD10B50022002340F6E0
:103260006A14A14200D100BF0A1201249440A3B203
:10327000DC43048010BD00000038014000440040E1
:1032800000480040004C00400050004031490143DC
:10329000314A1160704770B5002100230F22C478B5
:1032A00004B32D4C246804F4E064C4F5E064210AFE
:1032B000C1F10403CA40447804FA03F1847814404D
:1032C00021430901254C0678A155047804F01F0517
:1032D0000124AC4005786D11AD0005F1E025C5F87D
:1032E000004109E0047804F01F050124AC401C4DA6
:1032F0000678761145F8264070BD1A4A0A40024306
:10330000154B1B1F1A60704739B1134A121D126802
:103310000243114B1B1D1A6006E00F4A121D126872
:1033200082430D4B1B1D1A607047042808D14FF0D3
:10333000E021096941F004014FF0E022116107E04A
:103340004FF0E021096921F004014FF0E022116102
:10335000704700000000FA050CED00E000E400E01A
:1033600080E100E080FFFF1F10B50446BE488442A4
:1033700008D101218014FFF73BFD0021A014FFF7C5
:1033800037FD16E0B948844208D101210014FFF747
:103390003CFD00212014FFF738FD0AE0B4488442C8
:1033A00007D10121C013FFF730FD0021E013FFF723
:1033B0002CFD10BD10B50022028802F441520B888A
:1033C0004C8823438C882343CC8823430C89234394
:1033D0004C8923438C892343CC8923431A4302809D
:1033E000838B4FF2FF74234083830B8A038210BDCB
:1033F0002DE9F04F85B005460C464FF00009022735
:103400004FF000084FF0010B0026B246A88B4FF298
:1034100040010840A88302202884B5F81C90A068C9
:10342000022801D100BF38E0A08810B94FF0010B8D
:1034300001E04FF0020B8D48854200D100E000BF53
:103440006846FFF74EFCDDF800A0E088B0F5007F8D
:103450000AD14FEA1A2000EB80004000A168B0FBBF
:10346000F1F0401D86B20BE04FEA4B10BAFBF0F0D2
:1034700000EB80004000A168B0FBF1F0401D86B277
:103480000A20B6FBF0F606F00108A6EB0800C0F330
:103490004F074FF6FF7000EA0828022F01DBFF2FCD
:1034A00002DD02274FF00008E08840EA08003843B8
:1034B0002884A088A189084361880843218808439B
:1034C00040F4006040EA0909A5F81C9005B0BDE889
:1034D000F08F0021018041808180C1800181418184
:1034E0008181C181072101827047002101804180D3
:1034F0008180C1800221816000218181704721B1DA
:10350000028842F04002028004E002884FF6BF7356
:103510001A400280704721B1828B42F4806282831C
:1035200004E0828B4FF6FF331A408283704730B538
:10353000002400230C110125A540ABB21AB18588E7
:103540001D43858002E085889D43858030BD1AB18A
:1035500083880B43838002E083888B43838070479A
:10356000818170470146888970474FF6FF6291421A
:1035700004D0028842F48072028004E002884FF690
:10358000FF631A400280704721B1828842F0040232
:10359000828004E082884FF6FB731A408280704775
:1035A00002884FF2FF731A40028002880A430280A9
:1035B0007047018841F480510180704721B1028831
:1035C00042F40052028004E002884DF6FF731A4074
:1035D0000280704702460020012901D0108B00E0D4
:1035E000908A70470146088A7047B1F5804F04D130
:1035F000028842F48042028004E002884BF6FF73A6
:103600001A40028070470246002013890B400BB11C
:10361000012000E000207047CA4302817047F0B5E6
:103620000246002000240023002501F00F07012698
:10363000BE40B4B20B1101269E40B3B2968806EA92
:1036400003051689264016B10DB1012000E00020C7
:10365000F0BD10B5002201F00F040123A3409AB27F
:10366000D343038110BD000000300140003800400A
:10367000003C004010B50446FA48844208D10121BC
:103680004015FFF7B5FB00216015FFF7B1FB17E010
:10369000F548844208D101210015FFF7A9FB00215C
:1036A0002015FFF7A5FB0BE0F048844208D101216B
:1036B000C803FFF79DFB00214FF40040FFF798FB84
:1036C00010BD30B50246002000235068E84C204071
:1036D0000D790C6844EA0524204350609068E54C5D
:1036E0002040D1E902542C434D7944EA450420435B
:1036F0009060D06A20F470000C7C641EE4B2234316
:1037000040EA0350D06230BD002101600171417177
:103710008160C16001210174704721B1826842F06B
:103720000102826003E0826822F001028260704739
:1037300021B1826842F48072826003E0826822F4E0
:1037400080728260704710B50023CBB21AB1446812
:103750001C43446002E044689C43446010BD81689F
:1037600041F0080181607047014600208A6802F03C
:1037700008020AB1012000E000207047816841F092
:10378000040181607047014600208A6802F004024B
:103790000AB1012000E00020704721B1826842F4A4
:1037A000A002826003E0826822F4A0028260704777
:1037B000014600208A6802F480020AB1012000E07C
:1037C0000020704710B50A4600210023416821F40B
:1037D0006041531E41EA4331416010BD21B142684E
:1037E00042F40062426003E0426822F400624260F8
:1037F0007047F0B504460D4600200021092D11DD6B
:10380000E068A5F10A0606EB4607072606FA07F167
:103810008843A5F10A0606EB460603FA06F10843BB
:10382000E0600CE0206905EB4507072606FA07F182
:10383000884305EB450603FA06F108432061072A91
:103840000FDA606B561E06EB86071F2606FA07F195
:103850008843561E06EB860605FA06F108436063A8
:1038600022E00D2A0FDA206BD61F06EB86071F26F3
:1038700006FA07F18843D61F06EB860605FA06F11D
:103880000843206310E0E06AA2F10D0606EB86070C
:103890001F2606FA07F18843A2F10D0606EB8606FD
:1038A00005FA06F10843E062F0BD21B1826842F4F6
:1038B0008012826003E0826822F480128260704786
:1038C0000146C86C80B2704766484C30006870474B
:1038D00021B1426842F48062426003E0426822F40F
:1038E00080624260704721B1426842F48052426077
:1038F00003E0426822F48052426070470A46002189
:10390000816821F4E04111438160704721B18268F0
:1039100042F40042826003E0826822F40042826046
:10392000704721B1826842F40212826003E082682B
:1039300022F4021282607047014600208A6802F475
:1039400000120AB1012000E000207047F0B50446E3
:103950001546002000220026092911DDE068A1F1AA
:103960000A0707EB470C072707FA0CF29043A1F16F
:103970000A0707EB470703FA07F21043E0600CE081
:10398000206901EB410C072707FA0CF2904301EB89
:10399000410703FA07F210432061A06BC0F3015600
:1039A000EF1C06F1010CA7EB0C0707EB870C1F2798
:1039B00007FA0CF29043EF1C06F1010CA7EB0C0781
:1039C00007EB870701FA07F21043A063F0BD10B5BB
:1039D0000A4600210023816B21F44011531E41EA65
:1039E0000351816310BD08B5002300930090009B34
:1039F0000B440093009B1A6008BD08B502460020E6
:103A00000090009201F12800009B1844009000985B
:103A1000006880B208BD0A4600214168164B194073
:103A20001143416070474162826270470A4600213B
:103A3000416821F01F0111434160704740B10949BD
:103A40000831096841F40001064A0832116007E0B4
:103A500004490831096821F40001024A0832116062
:103A6000704700000024014000280140003C014054
:103A7000FFFEF0FFFDF7F1FFFFFD3FFF02460020D4
:103A800013680B400BB1012000E000207047CA43CF
:103A90000260704770B502460020002300240B121C
:103AA0005568CEB205EA060415681D4015B10CB183
:103AB000012000E0002070BD00220A12D343036001
:103AC0007047000010B50446FE48844208D1012129
:103AD000C014FFF78DF90021E014FFF789F9C4E065
:103AE000B4F1804F08D101210846FFF78EF900217B
:103AF0000120FFF78AF9B8E0F348844208D1012198
:103B00000220FFF782F900210220FFF77EF9ACE0E6
:103B1000EE48844208D101210420FFF776F9002104
:103B20000420FFF772F9A0E0E948844208D101219E
:103B30000820FFF76AF900210820FFF766F994E0F2
:103B4000E448844208D101211020FFF75EF90021EA
:103B50001020FFF75AF988E0DF48844208D101219C
:103B60002020FFF752F900212020FFF74EF97CE0DA
:103B7000DA48844208D101214014FFF739F90021C5
:103B80006014FFF735F970E0D548844209D101216E
:103B9000C804FFF72DF900214FF40020FFF728F9A2
:103BA00063E0D048844209D101210805FFF720F9DC
:103BB00000214FF48010FFF71BF956E0CA488442F9
:103BC00009D101214805FFF713F900214FF4001036
:103BD000FFF70EF949E0C548844208D10121402091
:103BE000FFF713F900214020FFF70FF93DE0C0482F
:103BF000844208D101218020FFF707F900218020AD
:103C0000FFF703F931E0BB48844208D10121801558
:103C1000FFF7FBF80021A015FFF7F7F825E0B648FD
:103C2000844209D101210804FFF7E2F800214FF492
:103C30008030FFF7DDF818E0B048844209D1012157
:103C40004804FFF7D5F800214FF40030FFF7D0F813
:103C50000BE0AB48844208D101218804FFF7C8F883
:103C600000214FF48020FFF7C3F810BD0022028826
:103C7000944B98420ED0994B98420BD0B0F1804FA4
:103C800008D0914B984205D0904B984202D0904B6F
:103C9000984204D14FF68F731A404B881A438D4BCC
:103CA000984207D08C4B984204D04FF6FF431A40FD
:103CB000CB881A4302808B8883850B880385814BD0
:103CC00098420BD0854B984208D08B4B984205D038
:103CD0008A4B984202D08A4B984201D10B7A0386D4
:103CE00001238382704770B5002400220023058CD5
:103CF0004FF6FE7635400584028C8388048B4FF6A0
:103D00008F752C40B51E2C400D882C43751E2A4003
:103D10000D892A434D882A436A4DA8420BD06F4D26
:103D2000A84208D0744DA84205D0744DA84202D0D4
:103D3000734DA84213D14FF6F7752A404D892A4397
:103D40004FF6FB752A408D882A434FF6FF652B40BE
:103D50004FF6FF552B408D892B43CD892B43838014
:103D60000483CD888586028470BD70B5002400224E
:103D70000023058C4FF6EF7635400584028C83884E
:103D8000048B48F6FF752C404FF6FF452C400D88FC
:103D90004FF6FF7606EA05252C434FF6DF752A40DD
:103DA0000D8906EA05152A434D8806EA05152A43BA
:103DB000444DA84202D0494DA8421DD14FF67F750F
:103DC0002A404D894FF6FF7606EA05152A434FF63D
:103DD000BF752A408D8806EA05152A434FF6FF3540
:103DE0002B404FF2FF752B408D8906EA85052B434A
:103DF000CD8906EA85052B4383800483CD8805871A
:103E0000028470BD70B5002400220023058C4FF69B
:103E1000FF6635400584028C8388848B4FF68F754E
:103E20002C404FF6FC752C400D882C434FF6FF5567
:103E30002A400D894FF6FF7606EA05252A434D886C
:103E400006EA05252A431F4DA84202D0234DA84269
:103E50001DD14FF2FF752A404D894FF6FF7606EAD5
:103E600005252A434FF6FF352A408D8806EA0525A9
:103E70002A434EF6FF752B404DF6FF752B408D897A
:103E800006EA05152B43CD8906EA05152B438380E9
:103E90008483CD888587028470BD70B5002200239D
:103EA0000024058C4EF6FF7635400584038C84880B
:103EB000828B48F6FF752A404FF6FF452A400D8851
:103EC00020E00000002C01400004004000080040F9
:103ED000000C00400010004000140040003401407D
:103EE000004C0140005001400054014000180040C7
:103EF000001C004000200040004001400044014000
:103F0000004801404FF6FF7606EA05252A434DF6A4
:103F1000FF752B400D8906EA05352B434D8806EACF
:103F200005352B43FA4DA84202D0FA4DA84208D1DC
:103F30004BF6FF752C408D894FF6FF7606EA851506
:103F40002C4384808283CD88A0F84050038470BDC8
:103F5000828B4FF2FF331A408283828B4FF6FF73BE
:103F600003EA01231A4382837047F0B50C461546D5
:103F7000002200210026078C4EF6FF7C07EA0C0782
:103F80000784828B018C4FF6FF7707EA043640F6F0
:103F9000FF473A404FF6FF7707EA05273A434FF6C7
:103FA000FF7707EA03373A43D94FB8420ED0D94FCB
:103FB000B8420BD0B0F1804F08D0D74FB84205D0EF
:103FC000D64FB84202D0D64FB84206D14DF6FF7751
:103FD000394046F48057394305E047F6FF573940EA
:103FE00044F48057394382830184F0BD828B4FF6BD
:103FF000F3731A408283828B0A4382837047F0B541
:104000000C461546002200210026078C4FF6FF6C57
:1040100007EA0C070784828B018C4FF6FF7707EACB
:1040200004264FF60C773A404FF6FF7707EA03175E
:104030002F433A43B64FB8420ED0B64FB8420BD0DA
:10404000B0F1804F08D0B44FB84205D0B34FB8425A
:1040500002D0B34FB84206D14FF6FF57394046F46D
:104060008077394305E04FF2FF57394044F48077B9
:10407000394382830184F0BD028B4FF2FF331A4033
:104080000283028B4FF6FF7303EA01231A43028374
:104090007047F0B50C461546002200210026078C1B
:1040A0004FF6EF7C07EA0C070784028B018C4FF672
:1040B000FF7707EA041640F6FF473A404FF6FF77CE
:1040C00007EA03373A434FF6FF7707EA05273A43F3
:1040D0008F4FB8420ED08F4FB8420BD0B0F1804F07
:1040E00008D08D4FB84205D08C4FB84202D08C4FCB
:1040F000B84206D14FF6DF77394046F01007394312
:1041000005E04FF65F77394044F0100739430283EA
:104110000184F0BD028B4FF6F3731A400283028BC9
:104120000A4302837047F0B50C4615460022002171
:10413000068C4FF6FE773E400684028B018C4FF6CC
:104140000C7632407E1C06EA03162E433243704E34
:10415000B0420ED06F4EB0420BD0B0F1804F08D0BD
:104160006D4EB04205D06D4EB04202D06C4EB042A2
:1041700006D14FF6FD76314044F00106314305E0AB
:104180004FF6F576314044F0010631430283018455
:10419000F0BD70B505460C465D4885420ED05D48C1
:1041A00085420BD0B5F1804F08D05B48854205D0E1
:1041B0005A48854202D05A48854200D100E000BFEB
:1041C000208850B92389A28861882846FFF7ABFF71
:1041D000E1882846FFF79EFF25E0208804280AD1C1
:1041E0002389A28861882846FFF753FFE188284683
:1041F000FFF742FF17E0208808280AD12389A28808
:1042000061882846FFF7FBFEE1882846FFF7EEFEAF
:1042100009E02389A28861882846FFF7A6FEE18885
:104220002846FFF795FE70BD2DE9F04105460C4686
:1042300000260127608808B9022600E00026A08831
:10424000012801D1022700E001272088A0B9238995
:10425000A28861882846FFF766FFE1882846FFF7B5
:1042600059FF23893A4631462846FFF712FFE18875
:104270002846FFF701FF13E02389A28861882846BA
:10428000FFF707FFE1882846FFF7F6FE23893A4645
:1042900031462846FFF747FFE1882846FFF73AFFF7
:1042A000BDE8F0810A884B881A438B881A43CB8873
:1042B0001A430B891A434B891A438B891A43A0F876
:1042C000442070474FF6FF71818000210180C1803A
:1042D0004180017270470021018041808180C1804E
:1042E000018141818181C18170470021018041802C
:1042F000012181800021C18001817047002101805E
:1043000041808180C18001814181818170470000AD
:10431000002C01400034014000040040000800402F
:10432000000C004021B1028842F00102028004E04A
:1043300002884FF6FE731A400280704731B1B0F820
:10434000442042F40042A0F8442005E0B0F84420A4
:10435000C2F30E02A0F8442070471AB183890B43C0
:10436000838102E083898B43838170478182704718
:1043700041EA0203A0F8483070471AB183890B4321
:10438000838102E083898B438381704701894FF6E3
:10439000F8721140018170470A46002101894FF6E9
:1043A0008F73194011430181704730B504460D46A3
:1043B00029462046FFF7F0FF208940F007002081C2
:1043C00030BD2DE9F04104460D4616461F46602DCE
:1043D00006D13B46012231462046FFF75AFE05E052
:1043E0003B46012231462046FFF79DFE29462046E6
:1043F000FFF7D2FF208940F007002081BDE8F0815F
:1044000030B50C4600210189C9B24FF6FF7505EAA7
:104410000325154325432943018130BD2DE9F04192
:1044200005460E4617469846002443463A4631460E
:104430002846FFF7E5FF2C894FF6F870044044F05A
:1044400007044FF68F70044044F070042C81BDE8DF
:10445000F081F0B504460D4616461F463B463246EF
:1044600029462046FFF7CCFF208940F48040208178
:10447000F0BD0185828270470A46002101884FF60F
:104480008F731940114301807047F0B50C461546F3
:104490001E460021002200230189028B038C4FF667
:1044A000F877394021434FF6FC473A4040F2011774
:1044B0003A434FF6DD773B404FF6FF7707EA0617A2
:1044C0002F433B43018102830384F0BD0A46002150
:1044D000018B4FF68F7319401143018370470A46D1
:1044E0000021018B48F6FF7319404FF6FF7303EA72
:1044F00002231943018370470A460021818B4FF63E
:104500008F7319401143818370470A460021818BC4
:1045100048F6FF7319404FF6FF7303EA022319436D
:104520008183704721B1028842F08002028004E05A
:1045300002884FF67F731A400280704721B182884B
:1045400042F00402828004E082884FF6FB731A4036
:104550008280704721B1828842F00802828004E0A4
:1045600082884FF6F7731A408280704721B18288A3
:1045700042F00102828004E082884FF6FE731A4006
:10458000828070470A460021018B4FF6F77319406D
:104590001143018370470A460021018B4FF2FF73DC
:1045A00019404FF6FF7303EA022319430183704752
:1045B0000A460021818B4FF6F7731940114381831E
:1045C00070470A460021818B4FF2FF7319404FF666
:1045D000FF7303EA02231943818370470A460021CF
:1045E000018B4FF6FB7319401143018370470A4654
:1045F0000021018B4FF6FF3319404FF6FF7303EA9A
:1046000002231943018370470A460021818B4FF62C
:10461000FB7319401143818370470A460021818B47
:104620004FF6FF3319404FF6FF7303EA0223194395
:10463000818370470A460021018B4FF67F73194032
:104640001143018370470A460021018BC1F30E011B
:104650004FF6FF7303EA02231943018370470A46AA
:104660000021818B4FF67F7319401143818370477E
:104670000A460021818BC1F30E014FF6FF7303EA56
:1046800002231943818370470A460021018C4FF6AB
:10469000FD7319401143018470470A460021018CC3
:1046A0004FF6F77319401143018470470A46002101
:1046B000018C4FF6DF7319404FF6FF7303EA0213C4
:1046C0001943018470470A460021018C4FF67F731D
:1046D00019404FF6FF7303EA021319430184704730
:1046E0000A460021018C4FF6FF5319404FF6FF7325
:1046F00003EA02231943018470470A460021018C12
:104700004FF2FF7319404FF6FF7303EA0223194378
:10471000018470470A460021018C4DF6FF73194051
:104720004FF6FF7303EA023319430184704730B533
:10473000002301248C40A3B2048C9C430484048C89
:1047400002FA01F5ADB22C43048430BD30B500232C
:1047500004248C40A3B2048C9C430484048C02FA8D
:1047600001F5ADB22C43048430BD70B50346002082
:1047700000241846183001258D40ACB21D8CA5438D
:104780001D8409B1082909D100EB6100056825F0F5
:10479000700505600568154305600EE00D1FC5F343
:1047A0004E052844056825F4E045056005684FF688
:1047B000FF7606EA02263543056070BD21B1028806
:1047C00042F00202028004E002884FF6FD731A40B4
:1047D0000280704721B1028842F00402028004E0A6
:1047E00002884FF6FB731A400280704721B182881D
:1047F00042F08002828004E082884FF67F731A4084
:104800008280704702884FF6F7731A400280028850
:104810000A430280704782884FF68F731A40828065
:1048200082880A438280704702894FF6F8731A40E3
:10483000028102890A430281704702894FF67F7321
:104840001A40028102890A430281704781847047BD
:1048500081857047818670470187704781877047DF
:10486000A0F84010704702884FF6FF431A400280BC
:1048700002880A43028070470146888E70470146CD
:10488000088F70470146888F70470146B1F8400095
:1048900070470146888C70470146088D7047024674
:1048A0000020138A0B400BB1012000E0002070476C
:1048B000CA430282704730B502460020002300241C
:1048C000158A05EA0103958905EA010413B10CB1C3
:1048D000012000E0002030BDCA4302827047000082
:1048E00001684FF6FE7211400160002101604160D5
:1048F0008160C1608D49884208D18C490839496876
:1049000041F00F01894A083A51608AE08749143121
:10491000884208D185490839496841F0F001834A45
:10492000083A51607DE081492831884208D17F49A9
:104930000839496841F470617C4A083A516070E076
:104940007A493C31884208D178490839496841F4AC
:104950007041764A083A516063E0744950318842A8
:1049600008D172490839496841F470216F4A083A00
:10497000516056E06D496431884208D16B4908396D
:10498000496841F47001694A083A516049E0674951
:104990007831884208D165490839496841F0706129
:1049A000624A083A51603CE06149884206D1011FE1
:1049B000096841F00F01021F116032E05C491431B7
:1049C000884208D15A49091F096841F0F001584A44
:1049D000121F116025E056492831884208D15449F8
:1049E000091F096841F47061514A121F116018E0F3
:1049F0004F493C31884208D14D49091F096841F4AB
:104A000070414B4A121F11600BE0494950318842F6
:104A100007D14749091F096841F47021444A121F10
:104A20001160704710B50022026847F6F0739A4390
:104A30000C6A8B6823430C6923434C6923438C69BC
:104A40002343CC6923434C6A23438C6A23431A4390
:104A50000260CB6843600B6883604B68C36010BD25
:104A60000021016041608160C1600161416181613B
:104A7000C161016241628162704721B1026842F006
:104A80000102026004E002684FF6FE731A40026001
:104A900070471AB103680B43036002E003688B435D
:104AA00003607047416070470146486880B27047B4
:104AB00001460020002201F080531BB11C4B083B33
:104AC0001A6802E0194B083B1A6802EA01030BB1AD
:104AD000012000E00020704700F0805119B1144916
:104AE000091F086002E01149083948607047014613
:104AF0000020002201F080531BB10D4B083B1A68C7
:104B000002E00A4B083B1A6802EA01030BB10120DC
:104B100000E00020704700F0805119B10449091FDE
:104B2000086002E001490839486070470800024007
:104B3000080402407047704770477047704710B5CF
:104B400000F008F8006810BD10B5044600F002F847
:104B5000046010BD004870475802002000487047AC
:104B6000580200207546FFF7F9FFAE46050069467A
:104B7000534620F00700854618B020B5FDF7F0FD3C
:104B8000BDE820404FF000064FF000074FF000084E
:104B90004FF0000B21F00701AC46ACE8C009ACE8CF
:104BA000C009ACE8C009ACE8C0098D4670470446AE
:104BB000AFF300802046FBF702FB490050EAC1201A
:104BC00018BF04204A0D18BF40F0010040F2FF72E8
:104BD000B2EB515F08BF40F00200012808BF05207A
:104BE00070472DE9F0414F1E00EBC7010446D1E9A3
:104BF000000115461E4637F006020DD02A46334600
:104C000001F040F87F1E04EBC703D3E9002300F056
:104C100091FD37F00602F1D1022F25D0042F13D0D9
:104C2000062F18BFBDE8F0812A46334601F02AF866
:104C3000D4E90A2300F07EFD2A46334601F022F82B
:104C4000D4E9082300F076FD2A46334601F01AF82D
:104C5000D4E9062300F06EFD2A46334601F012F82F
:104C6000D4E9042300F066FD2A46334601F00AF831
:104C7000D4E9022300F05EFD2A46334601F002F833
:104C8000D4E90023BDE8F04100F054BD00221346F2
:104C90001046014900F00ABE0000F03F00F04ABD96
:104CA000002213461046114600F000BE40F20132C9
:104CB00000204FF0E04101F092BE0000024A0020C7
:104CC000110701F08CBE000001FDFFFF2DE9F04D42
:104CD00016460F4694B01C4621F0004123F00042D6
:104CE000002814BF4FF0010C4FF0000C0CEB470CE8
:104CF000FE4B0CEB03054FEA630C65452BD33500E7
:104D000018BF012505EB44051D44F94B9D4222D3F4
:104D1000F84B52EA060C02D09F4205D148B914B0B4
:104D200000201946BDE8F08D002808BF4FF0000CA8
:104D300001D04FF0010C0CEB470313F5001F0AD80C
:104D4000002E14BF4FF0010C4FF0000C0CEB44038D
:104D500013F5001F07D914B0324623463946BDE883
:104D6000F04DFFF79BBFDFF890834FF0000A002F54
:104D7000B8BF424523DAE14B9A42A8BF4FF0020A7E
:104D80001DDADC4B93421ADCDD4B03EB2253142B70
:104D900008DDC3F1340C26FA0CF303FA0CFCB4451D
:104DA0000DD108E05EB9C3F1140C22FA0CF303FA3A
:104DB0000CFC944503D103F00103C3F1020A51EA4C
:104DC00000031BD1002C19DA002F18BFBAF1020F13
:104DD00002D0BAF1010F07D00220FFF7B5FE14B0E0
:104DE000BDE8F04DFFF752BF0220FFF7ADFEFFF721
:104DF0004DFF14B081F00041BDE8F08D330070D15B
:104E0000424525D107F1804212F5801201BF0028EA
:104E10000020B84914B008BFBDE8F08DB5488842FD
:104E200007DC002CA1BF1846214614B0BDE8F08D68
:104E300007E0002CBFBF184684F0004114B0BDE865
:104E4000F08DB0497944D1E9000114B0BDE8F08D8E
:104E5000DFF8A0C262452AD1002C24DA39B14145DD
:104E600017D1002804BF002002461CD106E040B143
:104E70000220FFF769FEFFF719FF0A46394600F0E6
:104E8000D7BA9D4A394614B0002062F31E01BDE82E
:104E9000F08D08DA14B03B46BDE8F04D0246002024
:104EA000614600F003BD14B03946BDE8F08D4145C0
:104EB00017DAB4F1804F0CD0A4F10053B3F1FF53D3
:104EC0000FD13B1E0DDB14B01946BDE8F04D00F0CC
:104ED000D9BB3B4614B00246BDE8F04D194600F080
:104EE000D1BE050027F000433AD1E1B1414537D1A9
:104EF000002F06DD002CA1BF0020414614B0BDE804
:104F0000F08D002F01DD002C1FDB002F16DA002CA6
:104F100014DBBAF1010F4FF0000014BF76497A4953
:104F200014B0BDE8F08DBAF1020F18BF002F0CD0FD
:104F3000BAF1010F09D1002F07DA0BE0002FB8BF3B
:104F4000002C0DDABAF1010F04D0002014B0014694
:104F5000BDE8F08D14B000204FF00041BDE8F08DA9
:104F60004FF0010808EBE77CCDF814C05CEA0A0CAE
:104F70000DD0DFF898C162457EDDDFF894C1654B46
:104F8000624512DD8B420ADB002C18DB23E0012096
:104F9000FFF7DAFD14B0BDE8F04DFFF781BE554ACA
:104FA0008A4202DC002C0ADC15E0994202DA002C6D
:104FB00011DA04E04F4B994219DD002C0BDD022081
:104FC000FFF7C2FDFFF772FE4B4A14B061F31E02F9
:104FD0001146BDE8F08D0220FFF7B6FDFFF76EFE2B
:104FE000444A14B061F31E021146BDE8F08D002260
:104FF000394601F06DF807460D466FF0010201F0E9
:10500000EEFC4FF05532444B00F070FF3A462B4611
:1050100000F038FE0022414B00F068FF80468B46CE
:105020003A462B461046194600F02CFE42465B4697
:1050300000F028FE88460E904FF0C042384B3846AC
:10504000294600F01FFE83460091364A344B414604
:105050000E9800F017FE80460191334A334B3846D4
:10506000294600F00FFE4246019B01F031F80D4643
:1050700002460B460C9000E011E05846009900F003
:1050800059FB002788465A463846009B01F020F815
:105090002B460C9A00F02AFF024600F079B9002056
:1050A000B1F5801F07DA35222846194601F097FC32
:1050B00005466FF0340000EB2150A0F2FF30019064
:1050C000C1F3130040F07F6141F040510291184953
:1050D0008842D8BF4FF0000B35DD16498142C8BF6A
:1050E0004FF0010B2FDC4FF0000B25E0FFFF1F00FE
:1050F000FFFF0F000000F03F0000F07F0000404382
:1051000001FCFFFFD81F00000000F0FF0000E0419D
:105110000000F043FFFFEF3F5555D53F0000E03F53
:105120004715F73FFE822B6544DF5DF80BAE543E1A
:105130008E9803007AB60B000198401C01900298EB
:10514000A0F580100290FF480299784400EBCB0054
:105150000991D0E9002328460B93129200F0B8FF82
:1051600000910A9028460B9B129A099900F0E2FAE6
:1051700002460B460020F44900F098FBCDE90C01F3
:105180000B46024600990A9800F07CFD0690EF4815
:105190008846002778440299006810904FF000502C
:1051A00040EA610000EB8B4000F5002102910B9B6F
:1051B000129A109800F08CFF2A46099B00F096FE88
:1051C0003A46434600F05EFD08911290384641464B
:1051D000029B109A00F056FD009B0A9A00F086FE92
:1051E000089B129A00F074FFDDE90C2300F04AFDE1
:1051F0000B91069A129043461046194600F042FD64
:1052000005460246D2480B460A9106217844FFF72C
:10521000E8FC0A9B2A46089102901046194600F0C5
:1052200031FD089B029A00F02DFD05460991434689
:1052300038461946069A00F07DFA0B9B129A00F048
:1052400021FD2A46099B00F075FACDE908013A468E
:1052500043461046194600F015FD0A910022BD4B49
:10526000009000F067FADDE9082300F063FA0D46CC
:105270003A46B84B384600F02BFF0A9B009A00F0E4
:1052800027FFDDE9082300F031FECDE908013A46A9
:105290002B461046414600F0F5FC00910A90DDE9EE
:1052A00008014346069A00F0EDFC069088462B461E
:1052B0003A460B99129800F0E5FC4346069A00F036
:1052C00039FA80460B4602460D9100990A9800F083
:1052D00031FA00200F460546009B0A9A00F0F8FEBE
:1052E00042460D9B00F002FE88460E904FF0604251
:1052F000994B2846394600F0C5FC02910090974A28
:10530000954B41460E9800F0BDFC80460391944AAF
:10531000944B2846394600F0B5FC4246039B00F00A
:1053200009FA914A7A4402EBCB03D3E9002300F057
:1053300001FA05460791019800F03DFC0C9003919D
:105340002A46079B0299009800F0F4F9874A7A44AC
:1053500002EBCB03D3E900239346019300F0EAF973
:10536000039B0C9A00F0E6F9002788463846039B19
:105370000C9A00F0ADFE5A46019B00F0A9FE029B7C
:10538000009A00F0A5FE2A46079B00F0AFFD0246FA
:105390000020069005986C4DAAF10103184301D135
:1053A000734D069000200B4604903046214600F0D5
:1053B00069FC82468B46234630461946049A00F023
:1053C00087FE3A46434600F05DFC52465B4600F0DD
:1053D000B1F906468A463A4643462146049800F00B
:1053E00051FC04460F463246534600F0A3F9614A89
:1053F0008B46914221DBABEB020353EA000210D152
:1054000022463B4600F064FE804603915A4A5B4BBD
:105410003046514600F08EF94246039B00F030FDC5
:1054200027D20220FFF790FBFFF740FC0A462946EF
:1054300014B062F31E01BDE8F08D514B2BF0004219
:105440009A4216D34F4A0BEB020353EA000208D1EB
:1054500022463B4600F03CFE3246534600F010FD2B
:1054600007D80220FFF770FBFFF728FC0A46294601
:10547000DEE72BF000404449444A01EB20514FF055
:105480000008824223DA481C4FF4801121FA00F010
:1054900058443F4AC0F30A517A443E4BA1F2FF31CF
:1054A000CB4020EA0303C0F3130040F4801CC1F199
:1054B000140012682CFA00F8BBF1000FB8BFC8F155
:1054C00000082046394600F003FE04460F462246F7
:1054D0003B463046514600F02DF94FF0000B5A463E
:1054E0002D4B5846039100F0CDFB00910A902B4ABA
:1054F0002B4B5846039900F0C5FB049102902246BD
:105500003B465846039900F0E3FD3246534600F00F
:10551000EDFC244A244B00F0B5FB049B029A00F0FA
:1055200009F907468A46009B0A9A00F003F90446E7
:105530000E46009B0A9A00F0CBFD3A46534600F017
:10554000D5FC33E04A1C00000000F03F881C00003E
:10555000B81B00000000084009C7EE3FFD033ADC1D
:10556000F5015B14E02F3EBE901A0000561A0000B1
:105570000000F0BF00009040FE822B654715973C6D
:1055800000CC904000346F3F01FCFFFF0000E03F83
:1055900084190000FFFF0F00432EE63F396CA80C72
:1055A000615C20BEEF39FAFE422EE63F07462246F6
:1055B00033460F911046194600F064FB83460246BD
:1055C0002E488A460B4605217844FFF70AFB5A46C7
:1055D000534600F057FB2246334600F087FC8246D4
:1055E0008B463A46204631460F9B00F04BFB3A462D
:1055F0000F9B00F09FF80F460A9000224FF0804367
:105600005046594600F064FD0391009052465B46B7
:105610002046314600F036FB039B009A00F046F925
:105620003B460A9A00F054FD2246334600F050FDF6
:105630000022134B00F05AFC0E46044601EB0851C1
:105640000815002810DC42462046314601F0C7F913
:10565000FFF7B3FA042808BFFFF730FB42462046A5
:10566000314601F0BCF9044606980B4614B02246B8
:105670002946BDE8F04D00F005BB00002C180000E5
:105680000000F03F2DE9F04106460F4600F03AFCDD
:1056900004000D4618BF0120284320F00040C0F14F
:1056A0007F6000F1E040C00F0ED0301C18BF012019
:1056B000384320F00040C0F17F6000F1E040C00FAF
:1056C00004BF0120FFF740FA20462946BDE8F081DB
:1056D00021F00042A2F16052B2F5801F01F00043B8
:1056E00028BFD2F17F6C0BD95FEA001C43EAC202EB
:1056F00042EB507018BF704728BF20F00100704780
:10570000B2F5801FBCBF184670474FEA410C1CF52C
:10571000001F02D2084601F084B870B500F05CFBAF
:1057200000000089FFF7F6BF4FF00040A0F58000B1
:105730007047000010B591EA030F48BF83F00043A3
:1057400000F1CE84841A71EB030C05D2121943EBDD
:105750000C03001B61EB0C01DFF824E14FEA11544C
:10576000A4EB135C1EEA430F18BF9EEA445F73D09C
:1057700023EA0E03DCF1200E21EA045143F48013E6
:1057800032D322FA0CFE10EB0E0023FA0CFE41EB92
:105790000E01CCF1200E03FA0EFE10EB0E0051F1BB
:1057A0000001B1F5801FCCF1200E32D201EB045183
:1057B00012FA0EF2BDE8104058BF7047401C38BFC7
:1057C0005FEA420218BF7047002814BF20F00100B2
:1057D00041F100014FEA410313F5001F38BF704744
:1057E000A1F1C04100F046BB012A43EB0302ACF13A
:1057F000200CDCF11F0E32BF4FF0000E23FA0CF329
:1058000010EB030041EB0451B4EB115FD0D0A1EBDE
:10581000045101F5801149085FEA300001EB0451A1
:105820000ED350F1000038BF12FA0EFE08D1BDE8C9
:105830001040C9E7401C38BF5FEA4202CAD1C3E743
:10584000BDE810404FEA410313F5001F38BF704711
:10585000A1F1C04100F00EBB9EEA445F08D011EAFE
:105860005E0FBDE8104004BF01F00041002070470A
:10587000BDE8104070B500F0AFFA00BF64FBBE3E5B
:105880000000E0FF02494FF0000001F076B800BFD1
:105890000000F87F491058BFC1F140415B1058BF6C
:1058A000C3F140438B42EFF3008070472DE9C041C4
:1058B00030B4DFF8A0C23CEA111418BF3CEA13145C
:1058C00000F0EC8081EA03051CEA111444EAD57467
:1058D00018BF1CEA131500F0C780A4EB05044FF0B5
:1058E000004545EAC12145EAC32341EA505143EA54
:1058F000525304F17F74994204F500344FEAC020FA
:105900004FEAC22208BF904200F09C804FEA136524
:105910000FF24016765D4FEA134506FB05F7C7F117
:10592000807706FB07F74FEAD737A7FB0368764275
:10593000C8F58038A7FB06CE38BFA8F1010807FBE1
:1059400008E64FF0000EA6FB028CE6FB03CEDCF16E
:10595000000CCEF1004E38BFAEF1010EA6FB0C5884
:105960004FF000074FF00005E6FB0E87A1FB08C6CD
:10597000A0FB07CE16EB0E0645F10005E1FB07651F
:1059800015F1E04E7EBFA4F580345FEA46066D4116
:1059900016F1800745F100054FEA17274FEA066622
:1059A00047EA0567A6F1DE46B6F1805F4FEA1525A6
:1059B0001FD9384624F0010C05EBC471BCF1FE6F11
:1059C00001EB0C1102D8F0BCBDE8008124425CBFA1
:1059D00001F5801E9EEAC47F02D4F0BCBDE80081C0
:1059E000244238D4F0BCA1F1C041BDE8004100F030
:1059F00041BA4FEAD22242EA43524FEAD323A7FBED
:105A000002864FEAD02040EA415007FB03661EEAB7
:105A10000E0F4FEAD12105FB026658BFA6EB0056D8
:105A2000B6EB00564FEA520E4EEAC37E18EB0E0E4E
:105A300056EB530EBDD518EB02085E417F1C55F1A5
:105A40000005B6E74FF480154FF000074FF0000651
:105A50004FF00008ADE7F0BC4FF0000001F1C0418D
:105A600001F00041BDE8008111EA0C1F0CEA13159A
:105A700000D00CE013EA0C1F00F025804FF000006E
:105A8000F0BC81EA030101F00041BDE80081F0BCF7
:105A9000BDE8004181EA030100F0ECB9F0BCBDE8CB
:105AA000004170B500F098F9097EFC3E00F007B89F
:105AB00081EA03014FF0000001F00041704781EAE4
:105AC000030100F0D7B9F0BCBDE800414FF0000081
:105AD00021497047FFFDFBF9F7F5F4F2F0EEEDEB2D
