:020000040800F2
:10000000F8070020CD8E0008B5040008B7040008EA
:10001000BB040008BF040008C3040008000000007F
:10002000000000000000000000000000C7040008FD
:10003000C904000800000000CB040008CD0400083B
:10004000E78E0008E78E0008E78E0008E78E0008BC
:10005000E78E0008E78E0008E78E0008E78E0008AC
:10006000E78E0008E78E0008E78E0008E78E00089C
:10007000E78E0008E78E0008E78E0008E78E00088C
:10008000E78E0008E78E0008E78E0008E78E00087C
:10009000E78E0008E78E0008E78E0008E78E00086C
:1000A000E78E0008E78E0008E78E0008E78E00085C
:1000B000E78E0008E78E0008E78E0008E78E00084C
:1000C000E78E0008E78E0008E78E0008E78E00083C
:1000D000E78E0008438E0008E78E0008E78E0008D0
:1000E000E78E0008E78E0008E78E0008E78E00081C
:1000F000E78E0008E78E0008E78E0008E78E00080C
:10010000E78E0008E78E0008C3800008E78E00082D
:10011000E78E0008E78E0008E78E0008E78E0008EB
:10012000E78E0008E78E0008E78E0008E78E0008DB
:1001300000F002F800F042F80AA090E8000C8244B7
:100140008344AAF10107DA4501D100F037F8AFF294
:10015000090EBAE80F0013F0010F18BFFB1A43F0A5
:100160000103184724E5000044E50000103A24BFCD
:1001700078C878C1FAD8520724BF30C830C144BF0C
:1001800004680C607047000000230024002500264E
:10019000103A28BF78C1FBD8520728BF30C148BFEA
:1001A0000B60704764290AF0998578290AF0D28596
:1001B000002070471FB51FBD10B510BD0AF094FE9A
:1001C0001146FFF7F7FF00F009F80AF0B2FE03B49A
:1001D000FFF7F2FF03BC08F0D9FD00008EB008F075
:1001E0006BFD4FF4A06009F015FC4FF4964008F049
:1001F000DCFD02F0BFF900F05BFA07F085FE08F0C5
:10020000FFFA08F044FC00208949087007F0FAFE64
:100210000020ADF81400ADF81600F020ADF818007D
:10022000B420ADF81A0047F67C50ADF81C00002051
:100230008DF824008DF82A0001208DF8300002A8E6
:100240000B904FF47840ADF80C002D20ADF80E0067
:10025000ADF8100003208DF8090002208DF80A0087
:1002600001208DF8080040F6FF41042008F07AFADA
:100270000020704908707049087070490870704912
:100280000870704908707049087070490870012042
:100290006F4908700020694908706E490870042190
:1002A0006D4802F04CF9C2E008F000F805A8614B77
:1002B00000906348027861480178654801F02CFCA1
:1002C0005B48007818B908F033FC5A49087059485F
:1002D000007808B108F058FA5C48007880B140F620
:1002E0000B305E4908805648007848805C4800889A
:1002F00088800721594808F09DFC00205349087068
:100300004F4800780A2844DB4D480078142840DA2A
:10031000484800780028C6D052480078A0B151481B
:1003200004780078012805D14FA15348007801F0E6
:10033000D1FE2AE04B480078022826D14FA14E4832
:10034000007801F0C7FE20E094B101F045F905A85E
:1003500001F0C0FA4DA04EA1CDE900103748007859
:100360001438C1B202231A463B4801F05FF9002459
:100370004A4802884A4801884AA00AF06FFC4B4864
:1003800001884B48008801F009FE002029490870C7
:100390004DE02B480078142849DB294800781E28B6
:1003A00045DA24480078002841D02E480078A0B1D2
:1003B0002C4804780078012805D12BA12E4800781C
:1003C00001F088FE30E02748007802282CD12BA1CC
:1003D0002948007801F07EFE26E0002C12DD01F0B5
:1003E000FBF805A801F076FA28A029A1CDE90010B4
:1003F000124800781438C1B202231A46164801F098
:1004000015F9002405A84BF640434FF61F02009053
:10041000134801882248008801F0CDFB2348018859
:100420002348008801F0BAFD0020024908703BE72C
:100430000800002009000020050000200200002024
:10044000030000200000002004000020070000201E
:10045000010000200A0000201E000020A000002053
:100460001C0000200B0000204F766572204375723F
:1004700072656E74210000000C000020556E6465EA
:100480007220566F6C746167652100005600000091
:10049000566F6C746167653A000000001A00002016
:1004A0001600002025642025640D0A001800002095
:1004B00010000020704700BFFEE700BFFEE700BF4E
:1004C000FEE700BFFEE770477047704770470000C7
:1004D0000CB50020019000906C48006840F480301A
:1004E0006A49086000BF6948006800F40030009065
:1004F0000198401C0190009818B90198B0F5A06FC0
:10050000F1D16248006800F4003010B10120009081
:1005100001E0002000900098012843D15C48006869
:1005200040F010005A4908600846006820F00300B7
:1005300008600846006840F00200086053484068C0
:10054000524948600846406848600846406840F4A0
:10055000806048600846406820F47C104860084687
:10056000406840F4E81048600846006840F0807039
:10057000086000BF4548006800F000700028F9D00E
:100580004248406820F003004049486008464068FF
:1005900040F00200486000BF3C48406800F00C009A
:1005A0000828F9D10CBD10B5FFF792FF10BD10B5AA
:1005B0003648006840F00100344908600846406849
:1005C00034490840314948600846006832490840CB
:1005D0002E4908600846006820F48020086008461C
:1005E000406820F4FE0048604FF41F008860FFF769
:1005F000DAFF4FF000602949086010BD10B50021F6
:1006000000200022214B5B6803F00C0121B104297A
:1006100006D0082928D107E0214B224C236027E08F
:100620001F4B204C236023E0184B5B6803F47010D1
:10063000164B5B6803F48032022303EB904022B92F
:10064000194B4343174C23600DE0104B5B6803F4D8
:10065000003323B1144B4343124C236003E0104B8F
:100660004343104C236003E00D4B0E4C236000BF4E
:1006700000BF064B5B68C3F303130C4CE15C094BF2
:100680001B68CB40074C236010BD000000100240E7
:10069000002002400000FFF8FFFFF6FE08ED00E03A
:1006A00000127A002800002000093D002C000020E4
:1006B0001CB503F0EAFA4FF61F004FF4A073F022C6
:1006C00040F231110090002007F0C0F84FF6FF70A3
:1006D000F84908804FF61F00F7490880F7A00C2161
:1006E0000B46C822CDE900104FF49971442007F061
:1006F000CBFB1CBD1CB54FF6FF7040F23113F0224E
:1007000000210090084607F0A1F84FF61F004FF4B3
:10071000A073F02240F231110090002007F096F80B
:100720004FF6FF70E34908804FF61F00E24908804A
:10073000E2A00C210B46C822CDE900104FF49971BC
:10074000442007F0A1FB1CBD70B506460D461446BB
:1007500023462A462146304607F016F970BD2DE99A
:10076000F04106460F461546344608E0A01C82B20A
:100770002B462946204607F007F9201D84B2BC42CB
:10078000F4DBBDE8F08170B504460E4615462B46F5
:1007900022463146204607F0F7F870BD2DE9F041BA
:1007A00005460E461746344608E0A01C83B22A468A
:1007B0002146284607F0E8F8201D84B2BC42F4DB4D
:1007C000BDE8F08170B506460D46144623462A461C
:1007D0002146304607F0D8F870BD7047F8B504469A
:1007E0002088A188884203DA6088E188884200DB9B
:1007F000F8BD20890090E388A2886188208807F0EE
:1008000025F8207C70B1A08AAA490880628AF0216C
:100810000020FFF799FF608A401C82B2F02100207F
:10082000FFF792FFA0690078002831D0A069808886
:10083000A0490880A069807898B9A069C688002579
:100840000AE0A18820883246FFF77EFFA069008970
:10085000304486B2681C85B2A0694078A842F0DCBA
:1008600016E0A0698078022812D1A069C688002508
:100870000AE0A18820883246FFF771FFA06900894D
:10088000304486B2681C85B2A0694078A842F0DC8A
:10089000206A0078002831D0206A80888549088045
:1008A000206A807898B9206AC68800250AE0E28824
:1008B00061883046FFF767FF206A0089304486B2BE
:1008C000681C85B2206A4078A842F0DC16E0206AF5
:1008D0008078022812D1206AC68800250AE0E288C2
:1008E00061883046FFF75AFF206A0089304486B29B
:1008F000681C85B2206A4078A842F0DC00251BE025
:10090000A188C5EBC502E06800EB42000181C5EBA0
:10091000C502E06800EB42008180E188C5EBC502BA
:10092000E06800EB42004181C5EBC502E06800EBE6
:100930004200C180681C85B26089A842E0DC00BF2B
:1009400056E72DE9F04104460025E7E0C5EBC50177
:10095000E06800EB4100007B002870D0C5EBC501CA
:10096000E06800EB410000892188884207DA21888D
:10097000C5EBC502E06800EB420001810FE0C5EB6A
:10098000C501E06800EB41000089A188884206DDCE
:10099000A188C5EBC502E06800EB42000181C5EB10
:1009A000C501E06800EB410040896188884207DAB0
:1009B0006188C5EBC502E06800EB420041810FE0B1
:1009C000C5EBC501E06800EB41004089E188884241
:1009D00006DDE188C5EBC502E06800EB420041811D
:1009E000C5EBC501E06830F8110032490880C5EB5D
:1009F000C501E06800EB4100807805286BD2DFE894
:100A000000F0031F67686900C5EBC507E66806EBE1
:100A100047067389C5EBC507E66806EB47063289CA
:100A2000C5EBC507E66806EB4706F188C5EBC507C9
:100A3000E66806EB4706B08806F0A6FF4CE06BE0E0
:100A4000C5EBC507E66806EB47067389C5EBC50726
:100A5000E66806EB47063289C5EBC507E66806EB94
:100A60004706F188C5EBC507E66806EB4706B08880
:100A700006F08AFFC5EBC507E66806EB47067689F0
:100A8000761CB3B2C5EBC507E66806EB47063289AC
:100A9000C5EBC507E66806EB4706F688761CB1B2DB
:100AA000C5EBC507E66806EB4706B08806F06CFFA5
:100AB00012E010E0520000205400002044657369E9
:100AC000676E6564206279205A574D4452000000D9
:100AD00002E001E000E000BF00BFC5EBC501E06837
:100AE00000EB41000089C5EBC502E16801EB420162
:100AF0008880C5EBC501E06800EB41004189C5EB8A
:100B0000C502E06800EB4200C1800021C5EBC502D0
:100B1000E06800EB42000173681C85B26089A8425E
:100B20003FF714AFBDE8F0812DE9FC5F0446208853
:100B3000A188884203DA6088E188884201DBBDE849
:100B4000FC9F2089FE49088020890090E388A288C4
:100B50006188208806F07AFEA07A002877D10025E7
:100B600070E0A06900EB0510067A2788A06900EB09
:100B70000510B0F80C90608AF2490880A06900EB7B
:100B8000051000683346B4224946CDE90060384676
:100B900007F07AF9A08AEB490880304606EBD0715D
:100BA0004910A26902EB0512527A01FB02718FB261
:100BB000A06900EB0510D0F804A050460BF090FEA1
:100BC0000FFA80F80020CDE90060A06900EB051065
:100BD000C37A42464946384607F0F7F840460BF0DC
:100BE000BBFE834651460CF014F88246A16901EB26
:100BF0000511897AD44A32F811000BF0C5FE8346FC
:100C000051460BF009FF8246304606EBD0714A1080
:100C1000A16901EB0511C97A491C02FB01718FB270
:100C200050460BF079FE83468020CDE90060A06934
:100C300000EB0510837A5A464946384607F0C5F856
:100C4000681C85B2E089A8428BDC84E0FFE7A07ACB
:100C500001287DD1002579E0A789A06900EB051066
:100C6000B0F80C90A16901EB0511087A00EBD07186
:100C70004E10608AB3490880A06900EB0510006837
:100C8000A16901EB0511097ACDE90010A16901EB19
:100C900005110B7AA16901EB0511497A01FB167167
:100CA00088B2B422494607F0EFF8A08AA549088027
:100CB000A06900EB0510D0F804A050460BF010FE20
:100CC0000FFA80F80021A06900EB0510007ACDE949
:100CD0000001A06900EB0510C37A42464946384638
:100CE00007F073F840460BF037FE834651460BF091
:100CF00090FF8246A16901EB0511897A924A32F888
:100D000011000BF041FE834651460BF085FE8246F2
:100D1000A06900EB0510C07A401C06FB007087B28A
:100D200050460BF0F9FD83460021A06900EB051049
:100D3000007ACDE90001A06900EB0510837A5A46DC
:100D40004946384607F041F8681C85B2E08900E062
:100D500001E0A84280DCA07AD0BB002534E0E06945
:100D600000EB0510067A2788E06900EB0510B0F863
:100D70000C90608A73490880E06900EB05100068F8
:100D80003346B4224946CDE90060384607F07CF886
:100D9000A08A6C490880304606EBD0714910E269A0
:100DA00002EB0512527A01FB02718FB2E06900EB8F
:100DB000051040683346B4224946CDE90060384604
:100DC00007F062F8681C85B2208AA842C7DC49E0B7
:100DD000FFE7A07A012845D1002540E0A789E06916
:100DE00000EB0510B0F80C90E16901EB0511087AF1
:100DF00000EBD0714E10608A52490880E06900EB28
:100E000005100068A16901EB0511097ACDE9001010
:100E1000A16901EB05110B7AE16901EB0511497A32
:100E200001FB167188B2B422494607F02DF8A08A5A
:100E300044490880E06900EB05104068A16901EBB6
:100E40000511097ACDE90010A06900EB0510037ABD
:100E5000B4224946384607F017F8681C85B2208A44
:100E6000A842BBDC00BF6AE62DE9FC5F0446A07A1D
:100E700000286FD1002561E0A06900EB0510067A1B
:100E80002788A06900EB0510B0F80C90A08A2D49C6
:100E90000880304606EBD0714910A26902EB0512BA
:100EA000527A01FB02718FB2A06900EB0510D0F8F5
:100EB00004A050460BF014FD0FFA80F80020CDE995
:100EC0000060A06900EB0510C37A424649463846E7
:100ED00006F07BFF40460BF03FFD834651460BF08A
:100EE00098FE8246A16901EB0511897A164A32F80B
:100EF00011000BF049FD834651460BF08DFD8246F3
:100F0000304606EBD0714A10A16901EB0511C97A90
:100F1000491C02FB01718FB250460BF0FDFC834669
:100F20000020CDE90060A06900EB0510837A5A46E5
:100F30004946384606F049FF681C85B2E08906E05C
:100F400054000020520000203C00002002E0A84293
:100F500092DC65E0A07A012862D100255DE0A789D6
:100F6000A06900EB0510B0F80C90A16901EB051128
:100F7000087A00EBD0714E10A08AFA490880A06967
:100F800000EB0510D0F804A050460BF0A9FC0FFAB6
:100F900080F80021A06900EB0510007ACDE900017E
:100FA000A06900EB0510C37A42464946384606F070
:100FB0000CFF40460BF0D0FC834651460BF029FE57
:100FC0008246A16901EB0511897AE74A32F81100DE
:100FD0000BF0DAFC834651460BF01EFD8246A069F9
:100FE00000EB0510C07A401C06FB007087B250462B
:100FF0000BF092FC83460021A06900EB0510007AFB
:10100000CDE90001A06900EB0510837A5A464946F4
:10101000384606F0DAFE681C85B2E089A8429EDCFC
:10102000A07A58BB002525E0E06900EB0510067AA0
:101030002788E06900EB0510B0F80C90A08AC94938
:101040000880304606EBD0714910E26902EB0512C8
:10105000527A01FB02718FB2E06900EB0510406823
:101060003346B4224946CDE90060384606F00CFF0D
:10107000681C85B2208AA842D6DC2CE0A07A012820
:1010800029D1002524E0A789E06900EB0510B0F81C
:101090000C90E16901EB0511087A00EBD0714E105C
:1010A000A08AB0490880E06900EB05104068A1699A
:1010B00001EB0511097ACDE90010A06900EB0510DC
:1010C000037AB4224946384606F0DEFE681C85B233
:1010D000208AA842D7DCBDE8FC9F2DE9F0470746EF
:1010E000894615461C46DDE908689E48A0F8009030
:1010F000012F14D1224631462846FFF725FB4246F0
:1011000031462846FFF720FB424621462846FFF796
:101110003AFB424621463046FFF735FB07E10B2FED
:1011200014D1224631462846FFF719FB4246314684
:101130002846FFF714FB424621462846FFF72EFBC0
:10114000424621463046FFF729FBF0E0022F2DD121
:10115000224631462846FFF7F7FA601C82B2314634
:101160002846FFF7F1FA424631462846FFF7ECFAE7
:10117000A8F1010082B231462846FFF7E5FA42465F
:1011800021462846FFF7FFFA691C88B242462146ED
:10119000FFF7F9FA424621463046FFF7F4FA711E8E
:1011A00088B242462146FFF7EEFAC0E00C2F2DD15F
:1011B000224631462846FFF7D2FA601C82B23146F9
:1011C0002846FFF7CCFA424631462846FFF7C7FAD1
:1011D000A8F1010082B231462846FFF7C0FA424624
:1011E00021462846FFF7DAFA691C88B242462146B2
:1011F000FFF7D4FA424621463046FFF7CFFA711E78
:1012000088B242462146FFF7C9FA90E0032F46D143
:10121000224631462846FFF797FA601C82B23146D3
:101220002846FFF791FAA01C82B231462846FFF704
:101230008BFA424631462846FFF786FAA8F10100AC
:1012400082B231462846FFF77FFAA8F1020082B247
:1012500031462846FFF778FA424621462846FFF7EE
:1012600092FA691C88B242462146FFF78CFAA91C03
:1012700088B242462146FFF786FA4246214630466A
:10128000FFF781FA711E88B242462146FFF77BFACA
:10129000B11E88B242462146FFF775FA47E00D2F8E
:1012A00045D1224631462846FFF759FA601C82B2E2
:1012B00031462846FFF753FAA01C82B23146284631
:1012C000FFF74DFA424631462846FFF748FAA8F1A3
:1012D000010082B231462846FFF741FAA8F1020028
:1012E00082B231462846FFF73AFA4246214628465E
:1012F000FFF754FA691C88B242462146FFF74EFABE
:10130000A91C88B242462146FFF748FA42462146C8
:101310003046FFF743FA711E88B242462146FFF776
:101320003DFAB11E88B242462146FFF737FABDE8C2
:10133000F0872DE9FC41044620890090E388A288CB
:101340006188208806F082FA207C48B1E088A18874
:10135000CDE9001063882288618A607CFFF7BDFEBA
:10136000002541E0520000203C00002005EB450133
:10137000A06900EB8100C088F0B9A2882388D21A46
:1013800005EB4506A36903EB8603197901EBD173DD
:101390005B1005EB4507A66906EB8706767903FB2C
:1013A000162000EBD072238803EB620205EB4506A2
:1013B000A36903EB8603DA8005EB4501A06900EB26
:1013C0008100008970B9E0886188401A217D90FB16
:1013D000F1F0618800FB051005EB4502A16901EB06
:1013E00082010881681CC5B2207DA842BEDC20892C
:1013F00077490880608977490880002523E005EB5C
:101400004501A06950F8210005EB4502A16901EBF7
:1014100082010979CDE9001005EB4506A26902EBCE
:101420008602137905EB4506A26902EB8602118953
:1014300005EB4506A26902EB8602D088B42206F0CD
:1014400023FD681CC5B2207DA842D8DC0020BDE881
:10145000FC812DE9FC4104460D46207DA84202DABC
:101460000020BDE8FC81002D2ADDE0895949088073
:10147000A08957490880681E00EB4000A16951F817
:1014800020000A46691E01EB410102EB8101097946
:10149000CDE900106A1E02EB4202A76907EB820247
:1014A00013796A1E02EB420207EB820211896A1E5F
:1014B00002EB420207EB8202D088B42206F0E4FC81
:1014C000608944490880208941490880002626E037
:1014D000681EB04221D006EB4601A06950F82100F9
:1014E00006EB4602A16901EB82010979CDE9001002
:1014F00006EB4607A26902EB8702137906EB460763
:10150000A26902EB8702118906EB4607A26902EB8A
:101510008702D088B42206F0B7FC701CC6B2207DCA
:10152000B042D5DC01209CE72DE9FC4104460E4683
:10153000E78C20890090E388A2886188208806F0E3
:1015400085F9207C48B1E088A188CDE90010638846
:1015500022882189607CFFF7C0FD1434E0891D4991
:101560000880217B2068CDE90010237BA18AB4226A
:10157000384606F089FC2179227B143C01FB02F0FD
:1015800000EBD07107EB61018FB200251BE0AE428A
:1015900005D1E0890F490880A0890D49088094F899
:1015A00020000090E069425D218D0123384606F05D
:1015B000C2FBAE4205D1A08C0649088020890449AF
:1015C0000880681CC5B2607EA842E0DCBDE8FC81F2
:1015D00054000020520000201CB54FF6FF7040F26E
:1015E0003113F02200210090084606F02FF94FF643
:1015F0001F004FF4A073F02240F231110090002040
:1016000006F024F94FF6FF70FE4908804FF61F00E0
:10161000FD490880FDA00C210B46C822CDE9001031
:101620004FF49971442006F02FFC1CBD2DE9FC5F9E
:101630000746884616469946DDF834A006EB0900B1
:101640001FFA80FB82254FF6FF70EF4908804FF4A8
:101650007840EC49088018210C980B46B422CDE95B
:101660000010DC21192006F00FFCED48007880B353
:101670001F20E54908804FF6FF70E24908800024EA
:101680001AE0182000903A5D0123DC21284606F07C
:1016900052FB701EA0420AD105F10C0085B2002059
:1016A00018232E22DC210090284606F0ABFA05F123
:1016B0000C0085B2601CC4B25C45E2DB1820034616
:1016C000B422DC21CDE9000A284606F0DDFBBDE8A6
:1016D000FC9FFFE70020CB490880002428E0601C25
:1016E000404503D14FF6E070C749088018200090AC
:1016F0003A5D0123DC21284606F01DFB601C4045B5
:1017000003D14FF6FF70C0490880701EA0420AD175
:1017100005F10C0085B2002018232E22DC21009058
:10172000284606F06FFA05F10C0085B2601CC4B2C1
:101730005C45D4DB18200346B422DC21CDE9000A45
:10174000284606F0A1FB00BFC1E71CB504461F20D8
:10175000AC4908804FF6FF70AB490880EB20D221DE
:101760003C231E22CDE900104BF640410D20FFF72F
:10177000B4FC34B1012C2BD0022C54D0032C26D134
:101780007CE04FF478409F4908804FF6FF709E49F7
:101790000880A4A018210B46B422CDE900106421D2
:1017A0002D2006F071FBA3A018210B46B422CDE931
:1017B00000108C212D2006F067FBA2A018210B46FB
:1017C000B422CDE9001011462D2006F05DFB7FE02C
:1017D0004FF478408B4908804FF6E0708A490880C2
:1017E00090A018210B46B422CDE9001064212D20D1
:1017F00006F04AFB4FF6FF70834908808DA0182140
:101800000B46B422CDE900108C212D2006F03CFBC4
:101810008CA018210B46B422CDE9001011462D20D2
:1018200006F032FB54E04FF47840764908804FF6DA
:10183000FF70754908807BA018210B46B422CDE9C2
:10184000001064212D2006F01FFB7EA018210B46FE
:10185000B422CDE9001011462D2006F015FB4FF6FD
:10186000E0706949088073A018210B46B422CDE9C5
:1018700000108C212D2006F007FB29E04FF4784062
:10188000604908804FF6FF705F49088065A0182105
:101890000B46B422CDE9001064212D2006F0F4FAA5
:1018A00064A018210B46B422CDE900108C212D2014
:1018B00006F0EAFA4FF6E0705349088061A018215B
:1018C0000B46B422CDE9001011462D2006F0DCFABB
:1018D00000BF1CBD1CB504462046FEF77FFF4FF439
:1018E00078404849088047F67C5047490880B5232E
:1018F000F0221946002006F047F8B623F0221946D8
:10190000002006F041F853A00C210B46B422CDE98B
:1019100000102F21DC2006F0B7FA4FA00C210B4657
:10192000B422CDE900105C21DC2006F0ADFA4BA01A
:101930000C210B46B422CDE900108921DC2006F0F1
:10194000A3FA4BF64040C4231922C22100900A207A
:1019500005F07CFF4BF640402A4908804FF6FF70A7
:10196000294908803EA010210B46B422CDE9001081
:10197000BB211E2006F088FA4FF61F00C4239122D7
:10198000C2210090822005F061FF4FF61F001D4923
:10199000088036A010210B46B422CDE90010BB21EF
:1019A000962006F071FA4FF47840D423F022D22129
:1019B0000090002005F04AFF1CBD1CB504462046DF
:1019C000FEF70CFF4FF478400E49088047F67C5034
:1019D0000D490880B523F0221946002005F0D4FFF8
:1019E000B623F0221946002005F0CEFF19A00C21E5
:1019F0000B46B422CDE900102F21DC2006F044FA7A
:101A000015A039E05200002054000020446573699D
:101A1000676E6564206279205A574D445200000079
:101A2000070000204D505054202020204D6F646549
:101A300000000000566F6C74616765204D6F64652F
:101A40000000000043757272656E74204D6F64650E
:101A50000000000034355600333056003135560052
:101A6000496E507574205664000000004F75745024
:101A7000757420566F0000000C210B46B422CDE98E
:101A800000105C21DC2006F0FFF9AFF230000C21E1
:101A90000B46B422CDE900108921DC2006F0F4F9D0
:101AA0004BF64040C4231922C22100900A2005F0C1
:101AB000CDFE4BF64040FE4908804FF6FF70FD49D1
:101AC0000880FDA010210B46B422CDE90010BB21F7
:101AD0001E2006F0D9F94FF61F00C4239122C2211F
:101AE0000090822005F0B2FE4FF61F00F0490880FA
:101AF000F4A010210B46B422CDE90010BB219620A2
:101B000006F0C2F94FF47840D423F022D22100909D
:101B1000002005F09BFE1CBD2DE9FC4106460D464C
:101B200014469846089F3078002842D0E84800784C
:101B3000A04216D0FFF750FD142C03D13846FFF712
:101B40003CFF0CE00A2C0AD10220E2490870052073
:101B5000487000208870C8703846FFF7BBFEDC482C
:101B600004701CB92846FFF7F0FD20E0092C0EDDBB
:101B7000142C0CDAD8A0D9A1CDE90010A5F10A00E7
:101B8000C1B202231A46D348FFF750FD0FE0132CD1
:101B90000DDD1E2C0BDAD0A0D3A1CDE90010A5F1EC
:101BA0001400C1B202231A46D248FFF73FFD0020BD
:101BB0003070BDE8FC812DE9F04F8DB081460E46B6
:101BC00092469B4640F2AA50814501DB002527E062
:101BD00048460AF0D9FE01900AF026FD0746C64A9B
:101BE000C64B0AF011FAC64AC64BCDE9020109F00C
:101BF00063FFC54AC54BCDE904010AF005FA00228E
:101C0000C34BCDE906010AF033FB0022C14BCDE9FD
:101C100008010AF0F9F9CDE90A010AF061F985B283
:101C200041F27070864201DB00241BE030460AF06E
:101C3000ABFE05900AF0F8FC0746B74AB74B0AF02E
:101C4000E3F90022B24BCDE906010AF011FB0022B4
:101C5000B04BCDE908010AF0D7F9CDE90A010AF045
:101C60003FF984B29248A0F800A02B46AC48027815
:101C7000521CAC480188AA48007805F085FE681C13
:101C800083B2A8480088401C81B2A5480278521C43
:101C9000007805F079FE8648A0F800B02346A048F9
:101CA0000278521CA04801889D48007805F06CFE1F
:101CB000601C83B29C480088401C81B2984802781E
:101CC000521C007805F060FE95480078EE2805DA91
:101CD00093480078801C924908703AE000209049AF
:101CE00008701698FEF77AFD4FF478407049088026
:101CF00047F67C506F490880B523F0221946002032
:101D000005F042FEB623F0221946002005F03CFE05
:101D1000AFF2C0200C210B46B422CDE900102F21D8
:101D2000DC2006F0B1F8AFF2D0200C210B46B42233
:101D3000CDE900105C21DC2006F0A6F8AFF2E4202B
:101D40000C210B46B422CDE900108921DC2006F0DD
:101D50009BF874480580744804800DB0BDE8F08F8E
:101D60002DE9F04F8DB081460E4692469B4640F2DB
:101D7000AA50814501DB002527E048460AF004FE11
:101D800001900AF051FC07465B4A5C4B0AF03CF9B3
:101D90005B4A5C4BCDE9020109F08EFE5A4A5B4B6F
:101DA000CDE904010AF030F90022594BCDE90601D2
:101DB0000AF05EFA0022574BCDE908010AF024F937
:101DC000CDE90A010AF08CF885B241F270708642C2
:101DD00001DB00241BE030460AF0D6FD05900AF036
:101DE00023FC0746514A524B0AF00EF90022484B99
:101DF000CDE906010AF03CFA0022464BCDE9080184
:101E00000AF002F9CDE90A010AF06AF884B228481A
:101E1000A0F800A02B4647480278521C464801888B
:101E20004448007805F0B0FD681C83B24248008841
:101E3000401C81B23F480278521C007805F0A4FD96
:101E40001B48A0F800B023463A480278521C3B4891
:101E500001883848007805F097FD601C83B2374848
:101E60000088401C81B233480278521C007805F08B
:101E70008BFD30480078EE2805DA2E480078801C6B
:101E80002C49087083E000202A4908701698FEF754
:101E9000A5FC4FF478400649088047F67C50054978
:101EA0000880B523F0221946002005F06DFD47E0BB
:101EB00052000020540000205643435F5461726773
:101EC000657400005643435F4F757450757400008D
:101ED0000400002022000020560000004D41585F01
:101EE0005670703A00000000566F6C746167653A76
:101EF000000000001E000020304CA60A4625A53F29
:101F000024B9FC87F4DBB73FC238554A1111913F21
:101F10000000F03F0080664098EAE80962D8253F5B
:101F20004A000020480000204600002097FD5F1A6C
:101F30002BD6253F500000204E0000204C000020F2
:101F4000B623F0221946002005F01EFDAFF2FC403A
:101F50000C210B46B422CDE900102F21DC2005F026
:101F600093FFAFF20C500C210B46B422CDE90010C8
:101F70005C21DC2005F088FFAFF220500C210B46DD
:101F8000B422CDE900108921DC2005F07DFF7348E3
:101F90000580734804800DB0BDE8F08F2DE9F34F44
:101FA00083B00C46039809F0DFFF824652460B4689
:101FB00000206C4909F03CFE074609F04BFD054640
:101FC000204609F0D1FF0746674A684B0AF01CF823
:101FD000674A684BCDE9000109F06EFD824609F0C1
:101FE00039FD06461F20644908804FF6FF7063499B
:101FF000088063A00C210B46B422CDE900104FF4F9
:102000008271282005F040FF28460AF069FC0FFA8B
:1020100080F900200C2103234A46CDE900104FF43B
:102020008271642005F0D1FE48460AF095FC07460F
:1020300029460AF0EEFD0290564902980AF0ECFC9F
:10204000029002980AF068FC074680200C210223C7
:102050003A46CDE900104FF482717C2005F0B5FEC0
:102060004DA00C210B46B422CDE900104FF48C7129
:10207000282005F009FF30460AF032FC0FFA80F9FB
:1020800000200C2102234A46CDE900104FF48C7148
:10209000582005F09AFE48460AF05EFC0746314695
:1020A0000AF0B7FD0290404902980AF0B5FC029090
:1020B00002980AF031FC074680200C2103233A469F
:1020C000CDE900104FF48C71682005F07EFE05B05C
:1020D000BDE8F08F7CB504460D46052C2DD14FF49C
:1020E0007840F0231A4664210090002005F0AEFBF2
:1020F0004FF47840214908804FF6E0701E4908806F
:102100002AA018210B46B422CDE9001078211E2008
:1021100005F0BAFE18200346F0229621CDE900050D
:102120001E2005F0B1FE24A010210B46C822CDE9E7
:102130000010BE211E2005F0A7FE4FF478400F4985
:1021400008804FF6E0700C490880102001232246D9
:10215000BE2100904E2005F0EEFD7CBD4E0000201B
:102160004C00002080843E4104E9BD8CBD72483F94
:102170004A0E338F577B733F5200002054000020DB
:102180004672657175656E63793A2020202E202095
:10219000487A00000000C84243757272656E743A56
:1021A00020202E202020410000007A44455843453D
:1021B0005054494F4E3A00005265747279202020E5
:1021C0005365636F6E6473204C617465722E2E2E9E
:1021D0000000000010B50446002120460AF0E8FC8B
:1021E00001D2204610BD84F00040FBE72DE9F84FF6
:1021F00005460E46174698464FF000094FF6FF7AFF
:102200003C460FE035F81400484502DD35F81490DF
:1022100005E035F81400504501DA35F814A004EB58
:10222000080084B2B442EDDBA9EB0A000AF094FB8B
:1022300000900A990AF0F0FB83460AF06DFB80B229
:10224000BDE8F88F2DE9F041044600254FF6FF76F2
:102250000027B446002025E034F81080A84502DDB0
:1022600034F8105005E034F81080B04501DA34F845
:10227000106000F1010834F81880B84504DD00F161
:10228000010834F8187009E000F1010834F81880EA
:10229000E04503DA00F1010834F818C000F1020843
:1022A0001FFA88F08842D7DBA5EB0608A2F8008069
:1022B000A7EB0C08A3F80080BDE8F0812DE9F84FEA
:1022C00005460E461746012433E035F81400B042A7
:1022D0002DDB601E35F81000B04228DA35F8140006
:1022E000811B601E35F81000301A91FBF0FB584638
:1022F0000AF032FB8246FFF76DFF81464FF07E51B8
:102300000AF0BEF9014600904FF07E500AF026FA1E
:10231000804620460AF038FB824641460AF0B0F972
:1023200081464FF07E510AF07FFCBDE8F88F601CBB
:1023300084B2BC42C9DB0020F7E72DE9FF4F85B02E
:10234000834600210C460D468A4638E013980AF071
:102350006BF9CDE902013BF81A200899501A09F0EF
:10236000ECFDCDE90001DDE9022309F04DFE8046D8
:10237000894614980AF058F9CDE90201069931F816
:102380001A201299501A09F0D8FDCDE90001DDE9B3
:10239000022309F039FE06460F4632463B464046C8
:1023A000494609F031FE22462B46CDE9020109F0EB
:1023B00083FB04460D460AF101001FFA80FA0798D4
:1023C0008245C3DB2046294609B0BDE8F08F2DE9E0
:1023D000F04F87B080460C4691469A4600251DE096
:1023E00038F81510A1EB09000AF0B6FA5146019031
:1023F0000AF012FB83460AF017F900224FF08043DF
:10240000CDE9020108F024FE32463B46CDE9040145
:1024100009F052FB06460F46681C85B2A542DFDB79
:10242000204609F0A1FD02460B46CDE904013046E5
:10243000394609F0FDFB06460F463046394607B0DF
:10244000BDE8F08F2DE9F05F824614469946DDF82D
:102450002CB05B464A4621465046FFF7B8FF05467A
:102460000E465B464A4621465046FFF7B0FF0746F8
:102470002A46334609F0C8FDBDE8F09F2DE9F04F2C
:1024800085B005460E46174600200490DFF8D88038
:102490004FF00109824600241CE03119685C0AF003
:1024A00073FA414603900AF0B7FA834604990AF09A
:1024B000E7F8049040460AF0B7F82C4A2C4BCDE9D7
:1024C000000109F0A1FDCDE9020109F0C3FA80463F
:1024D000601C04B2BC42E0DB701E04B20CE0285D5C
:1024E00000FB09A01FFA80FA09EB89004FF6FF7183
:1024F00001EA4009601E04B2002CF0DA50460AF0EE
:1025000043FA834604990AF0BBF805B0BDE8F08FA2
:1025100070B503460020012400220DE04D1EAD1AC7
:102520005D5D05FB0405A8B204EB84054FF6FF765C
:1025300006EA4504551CAAB28A42EFDB70BD02468A
:10254000002003E000231354431C98B28842F9DBB7
:1025500070470246002004E0002322F81030431C9C
:1025600098B28842F8DB7047CDCCCC3D9A999999C6
:102570009999B93F08B50121242006F0E3FF4FF4F3
:102580008070ADF8000010208DF8030003208DF856
:1025900002006946094806F019FD4FF480710748AA
:1025A00006F0C1FD0420ADF800006946044806F0BD
:1025B0000DFD0421024806F0B6FD08BD00080140EB
:1025C000001401404FF48071FD4A5161490051618E
:1025D000FC490860802151611161890011617047D7
:1025E0004FF48071F64A116149005161F549086064
:1025F00080215161116189001161704710B54FF060
:102600008830F0490C390860091D08600020ED4948
:1026100008608815EA490861400048614020486127
:10262000E948808848F68911884202D1022006F0E4
:102630005CFBE448001F006884B24020E049086168
:10264000C00008614FF03330DE490C390860091DC5
:1026500008604FF6FF70DB490860204610BD10B5DA
:1026600004460B462046FFF7ADFF4FF48070D44977
:10267000086140004861D3480360802048610861D8
:102680008000086110BD10B504462046FFF79AFF90
:10269000FFF7B4FF10BD00B5CB490889FFF792FFE3
:1026A00000BD4FF48071C64A116149005161C549AE
:1026B000086080215161116189001161704730B556
:1026C000014601F01F04C1F34513CA0AE50205EBF8
:1026D00043151544A8B230BD00BF0100A0F10102AE
:1026E000D0B2FAD1704730B504460D46B64880885E
:1026F00049F24131884205D0B348808845F2103113
:10270000884240D1B0494889FFF75CFF4FF48070A0
:10271000AB490861400048612012AA490860802046
:10272000A7494861086180000861401008614000C5
:102730004861E0B2A34908608020A149486108616E
:1027400080000861A0498889FFF73CFF4FF4807042
:102750009B4908614000486128129A49086080201E
:102760009749486108618000086140100861400095
:102770004861E8B293490860802091494861086146
:10278000800008618CE19048808846F60401884208
:1027900049D18D488079012804D18B480088401E9A
:1027A000001B84B288494889FFF70CFF4FF4807002
:1027B00083490861400048612012824908608020F6
:1027C0007F4948610861800008614010086140004D
:1027D0004861E0B27B49086080207949486108611E
:1027E0008000086178498889FFF7ECFE4FF480701B
:1027F00073490861400048612812724908608020CE
:102800006F4948610861800008614010086140001C
:102810004861E8B26B4908608020694948610861F5
:10282000800008613CE16848808841F66311884275
:102830007ED16548807900283FD163480088401EDA
:10284000001B84B260494889FFF7BCFE4FF48070DA
:102850005B4908614000486100205A4908608020B7
:1028600057494861086180000861401008614000D4
:10287000486100205349086080205149486108613F
:1028800080000861401008614000486120124D49F5
:10289000086080204A494861086180000861401052
:1028A000086140004861E0B2464908608020444920
:1028B000486108618000086141E043494889FFF7A9
:1028C00081FE4FF480703E4908614000486120124B
:1028D0003C49086080203A494861086180000861ED
:1028E0004010086140004861E0B23649086080202D
:1028F0003349486108618000086140100861400068
:10290000486131480088401E00122E49086080202E
:102910002B4948610861800008614010086140004F
:10292000486129480078401EC0B22649086000E08E
:102930004CE08020224948610861800008612249FA
:102940008889FFF73FFE4FF480701D490861400001
:10295000486128121B4908608020194948610861B4
:10296000800008614010086140004861E8B21549E4
:1029700008608020124948610861800008614010A9
:1029800008614000486110484088401E00120D490F
:10299000086080200A494861086180000861401091
:1029A00008614000486108488078401EC0B205496F
:1029B00008608020024948610861800008616FE07A
:1029C000001001400C0C0140BC000020F74880883A
:1029D00045F21051884250D1F4494889FFF7F2FD81
:1029E0004FF48070F2490861400048612012F149BB
:1029F00008608020EE494861086180000861EB4969
:102A00004989491C88B2FFF7DDFD4FF48070E84921
:102A1000086140004861E0B2E64908608020E4496E
:102A20004861086180000861E0498889FFF7CAFDB4
:102A30004FF48070DE490861400048612812DD498A
:102A400008608020DA494861086180000861D74940
:102A50008989491C88B2FFF7B5FD4FF48070D449CD
:102A6000086140004861E8B2D24908608020D0493E
:102A7000486108618000086112E0CC488079012833
:102A800004D1CA480088401E001B84B2C749488947
:102A90002146FFF7E4FDC54988892946FFF7DFFD98
:102AA00030BD2DE9F04105460E46C0480088A842D9
:102AB00003DDBE484088B04202DC0020BDE8F08162
:102AC00031462846FFF70FFEB848808849F2413169
:102AD000884211D0B548808846F6040188420BD060
:102AE000B248808845F21031884205D0AF488088CE
:102AF00041F66311884203D12E20FFF763FD0DE0FC
:102B0000AA48808845F21051884204D14FF43850C9
:102B1000FFF758FD02E02220FFF754FD4FF0883008
:102B2000A4490C390860091D08604FF6FF70A149DF
:102B3000086088159E49086140004861402048614E
:102B40000220FFF7C9FD9B48001F006884B24020A7
:102B5000974908619548808841F66311884210D1F1
:102B60004FF40070924908614FF0333091490C39AD
:102B70000860091D08604FF6FF708E490860204606
:102B80009CE740208A4948610220FFF7A5FD89485B
:102B9000001F006884B2402085490861834880880E
:102BA00049F2413188420BD08048808845F210318B
:102BB000884205D07D48808845F21051884213D163
:102BC00040207B4948610220FFF786FD7948001FBD
:102BD00000681FFA80F8402075490861E7B24FF697
:102BE000FF7000EA07270DE07048808846F6040170
:102BF000884207D140206E49486108616D48001F36
:102C0000006884B24FF40070694908614FF03330B6
:102C100068490C390860091D08604FF6FF70654966
:102C200008606248808849F22531884216D05F48A2
:102C3000808844F23551884210D05C488088091F52
:102C400088420BD05948808848F68911884205D0BF
:102C5000564880884BF20551884201D120462DE725
:102C60005248808849F2413188420BD04F488088D1
:102C700045F21031884205D04C48808845F2105109
:102C8000884207D1E012C002B91240EA411040EA7E
:102C9000E82013E72046FFF712FD0FE700B5434891
:102CA000808849F24131884211D04048808846F6F8
:102CB000040188420BD03D48808845F2103188429B
:102CC00005D03A48808841F66311884203D1292013
:102CD000FFF778FC0FE03548808845F210518842B4
:102CE00004D14FF42450FFF76DFC04E040F273115F
:102CF0000720FFF7B4FC00BD00B52C48808849F2DE
:102D00004131884211D02948808846F60401884222
:102D10000BD02648808845F21031884205D02348E0
:102D2000808841F66311884203D12820FFF74AFCCE
:102D30000EE01E48808845F21051884204D14FF4BD
:102D40002050FFF73FFC03E000210720FFF787FC3E
:102D500000BDF0B5054600240027144880790128FD
:102D60000BD11248808846F60401884205D00F48EE
:102D7000808841F66311884208D10C48807920BBD5
:102D80000A48808841F6631188421ED1082D1BD263
:102D9000DFE805F00406080A12141618062513E0E9
:102DA000072511E004250FE005250DE0BC000020FB
:102DB000001001400C0C0140012505E0002503E056
:102DC000032501E0022500BF00BFF848808849F2D2
:102DD0004131884217D0F548808846F60401884280
:102DE00011D0F248808845F2103188420BD0EF486C
:102DF000808845F21051884205D0EC48808841F621
:102E0000631188427ED1082D1CD2DFE805F004064C
:102E1000090C0F12151800BF14E044F0800411E0F3
:102E200044F040040EE044F0C0040BE044F0200401
:102E300008E044F0600405E044F0A00402E044F03F
:102E4000E00400BF00BFD948808845F21051884295
:102E500002D14FF4585700E03627D448808845F215
:102E6000103188420DD0D148808845F210518842F7
:102E700007D0CE48808841F66311884201D044F0E3
:102E80000804CA48808846F60401884201D144F00B
:102E9000020421463846FFF7E2FBC448808841F629
:102EA000631188421DD004F0200068B1BF4800883B
:102EB000BE494988884214DABC4806884088BB4924
:102EC0000880084646800CE0B8480088B749498821
:102ED000884206DDB54806884088B449088008461F
:102EE0004680B248808845F2105188427ED1AF4971
:102EF0004889FFF767FB4FF48070AD4908614000D7
:102F0000486100E029E10020AA4908608020A84922
:102F10004861086180000861A4494989491C88B258
:102F2000FFF750FB4FF48070A149086140004861F1
:102F30000020A049086080209D4948610861800008
:102F400008619A494989891C88B2FFF73BFB4FF415
:102F50008070974908614000486194480088401E8D
:102F600000129449086080209149486108618000FE
:102F700008618E494989C91C88B2FFF723FB4FF4C9
:102F800080708B4908614000486188480078401E85
:102F9000C0B2884908608020854948610861800086
:102FA000086182498889FFF70DFB4FF480708049E2
:102FB00008614000486100207E49086080207C490B
:102FC000486108618000086178498989491C88B294
:102FD000FFF7F8FA4FF480707549086140004861C6
:102FE0000020744908608020714900E034E04861A5
:102FF0000861800008616D498989891C88B2FFF7E2
:10300000E1FA4FF480706A490861400048616748FE
:103010004088401E0012674908608020644948616A
:1030200008618000086161498989C91C88B2FFF77D
:10303000C9FA4FF480705E490861400048615B48FE
:103040008078401EC0B25B490860802058494861C2
:10305000086180000861A7E054494889FFF7B2FA87
:103060004FF4807052490861400048610020514986
:10307000086080204E494861086180000861401066
:1030800008614000486100204A49086080204849A2
:103090004861086180000861401008614000486193
:1030A00042480088401E0012424908608020404982
:1030B0004861086180000861401008614000486173
:1030C0003A480078401EC0B23A490860802038492A
:1030D000486108618000086134498889FFF772FA05
:1030E0004FF4807032490861400048610020314946
:1030F000086080202E494861086180000861401006
:1031000008614000486100202A4908608020284961
:103110004861086180000861401008614000486112
:1031200022484088401E0012224908608020204921
:1031300048610861800008614010086140004861F2
:103140001A488078401EC0B21A4908608020184989
:10315000486108618000086126E0082D1CD2DFE884
:1031600005F004070A0D0F12151844F0300413E09F
:1031700044F0100410E044F020040DE000BF0BE028
:1031800044F0380408E044F0280405E044F0180452
:1031900002E044F0080400BF00BF032744F4805459
:1031A00021463846FFF75BFAF0BD0000BC00002066
:1031B000001001400C0C014030B504460D46294674
:1031C0002046FFF790FAFFF766FA4FF48070FE4949
:1031D000086140004861FD480088FD490860802082
:1031E000F949486108618000086130BD70B5044646
:1031F0000D461646F748808849F24131884205D08D
:10320000F448808845F21031884240D1F14948891C
:10321000FFF7D8F94FF48070EB490861400048612E
:103220002012EB4908608020E7494861086180006E
:1032300008614010086140004861E0B2E44908605C
:103240008020E1494861086180000861E14988897E
:10325000FFF7B8F94FF48070DB490861400048611E
:103260002812DB4908608020D74948610861800046
:1032700008614010086140004861E8B2D449086024
:103280008020D14948610861800008613DE1D14852
:10329000808845F21051884250D1CE494889FFF7C5
:1032A00091F94FF48070C8490861400048612012CC
:1032B000C74908608020C4494861086180000861EE
:1032C000C4494989491C88B2FFF77CF94FF48070E2
:1032D000BD49086140004861E0B2BD4908608020F6
:1032E000B9494861086180000861BA498889FFF7D7
:1032F00069F94FF48070B4490861400048612812B0
:10330000B34908608020B0494861086180000861C5
:10331000B0498989491C88B2FFF754F94FF480708D
:10332000A949086140004861E8B2A94908608020C5
:10333000A5494861086180000861E6E0A5488088E9
:1033400041F6631188427DD1A248807920B9A14815
:103350000088401E001B84B29E494889FFF732F95D
:103360004FF48070984908614000486120129849E4
:10337000086080209449486108618000086140101D
:10338000086140004861E0B29149086080208E49A0
:103390004861086180000861401008614000486190
:1033A00020128B49086080208749486108618000AD
:1033B00008614010086140004861E0B2844908603B
:1033C00080208149486108618000086181498889BD
:1033D000FFF7F8F84FF480707B49086140004861BE
:1033E00028127B4908608020774948610861800085
:1033F00008614010086140004861E8B27449086003
:1034000080207149486108618000086140100861AE
:103410004000486128126E49086080206A4948616E
:103420000861800008614010086140004861E8B20E
:10343000674908608020644948610861800008612C
:1034400063E0FFE76348808846F60401884249D17B
:1034500060488079012804D15E480088401E001B26
:1034600084B25C494889FFF7ADF84FF48070564943
:103470000861400048612012554908608020524987
:10348000486108618000086140100861400048619F
:10349000E0B24F49086080204B49486108618000D4
:1034A00008614C498889FFF78DF84FF480704649D0
:1034B000086140004861281245490860802042495F
:1034C000486108618000086140100861400048615F
:1034D000E8B23F49086080203B49486108618000AC
:1034E000086112E03B488079012804D139480088FE
:1034F000401E001B84B2374948892146FFF7AFF8C8
:10350000344988892946FFF7AAF84FF480702E497C
:103510004861400048612F4800892D49086080209B
:103520002949486108618000086140100861400035
:103530004861274806608020486108618000086172
:1035400070BD2DE9F0410446BE20FFF73BF84FF473
:1035500080701D4908614000486105201C490860D1
:1035600080201949486108618000086140100861A5
:1035700040004861204608F0F7FC05464FF06632EF
:10358000154B08F041FD074608F0AAFC10490860F9
:1035900080200D4948610861800008614010086181
:1035A0004000486101200A490860802006494861BE
:1035B0000861800008614010086140004861FF20F8
:1035C00003490860802009E00010014052000020FB
:1035D0000C0C0140BC00002066660440FE494861B6
:1035E00008618000086140100861400048610020C7
:1035F000FA4908608020F849486108618000086144
:1036000040100861400048610020F44908608020B3
:10361000F1494861086180000861BDE8F08110B59A
:103620000446002C66D1EE498871F02008804FF4E2
:10363000A07048800846808849F2413188420BD00A
:10364000E748808846F60401884205D0E44880882F
:1036500045F2103188421AD12C20E14908812A20F4
:1036600048812B2088810846808846F604018842DC
:1036700005D0DB48808845F21031884206D14FF4EE
:10368000A070D74908804FF4F0704880A1E0D4487A
:10369000808845F21051884210D14FF43050D04903
:1036A00008814FF4285048814FF42C5088814FF402
:1036B000F07008804FF4487048808AE0C8488088DD
:1036C00041F6631188420DD12C20C54908812B2079
:1036D00048812A2088814FF4F07008804FF44870A8
:1036E000488076E02220BE490881202048812120A0
:1036F00088816EE00120BA4988714FF4A07008807B
:10370000F02048800846808849F24131884205D03F
:10371000B348808845F21031884207D12C20B04947
:1037200008812A2048812B2088813FE0AC4880888E
:1037300046F60401884207D12C20A94908812B2094
:1037400048812A20888131E0A548808845F21051BF
:10375000884210D14FF43050A14908814FF42850CD
:1037600048814FF42C5088814FF4487008804FF402
:10377000F07048801AE09A48808841F663118842C8
:103780000DD12C20964908812A2048812B20888140
:103790004FF4487008804FF4F070488006E0222013
:1037A0008F49088121204881202088818C48808889
:1037B00046F60401884205D08948808845F21031D8
:1037C000884206D14FF4F070854908804FF4A0700C
:1037D00048800020FFF7BDFA10BD2DE9F04F86B0FC
:1037E00004460D469046994604EB0800401E86B2FA
:1037F00005EB0900401E87B27948808849F24131C3
:10380000884215D07648808845F2103188420FD022
:103810007348808846F60401884209D07048807950
:1038200001287BD16E48808841F66311884275D1AA
:103830006B494889FEF7C6FE4FF4807066490861FF
:103840004000486120126549086080206249486153
:103850000861800008614010086140004861E0B2E2
:103860005E49086080205C49486108618000086109
:1038700040100861400048613012584908608020BB
:1038800055494861086180000861401008614000A6
:103890004861F0B25149086080204F494861086191
:1038A000800008614E498889FEF78CFE4FF48070D5
:1038B0004949086140004861281248490860802051
:1038C0004549486108618000086140100861400076
:1038D0004861E8B24149086080203F494861086179
:1038E00080000861401008614000486138123B497F
:1038F00008608020384948610861800008614010F4
:10390000086140004861F8B23449086080203249BB
:10391000486108618000086177E1FFE730488088EE
:1039200041F6631188427DD12D480088A0EB080044
:10393000001B84B205EB0900401E1FFA80F92849DC
:103940004889FEF73FFE4FF480702349086140002C
:10395000486120122149086080201F4948610861A0
:10396000800008614010086140004861E0B21B49D6
:103970000860802018494861086180000861401093
:1039800008614000486104EB0800401E0012134922
:10399000086080201049486108618000086140107B
:1039A00008614000486104EB0800401EC0B20B49AA
:1039B0000860802008494861086180000861084962
:1039C0008889FEF7FFFD4FF48070034908614000CD
:1039D00048612812014905E0001001400C0C01402B
:1039E000BC00002008608020FE494861086180001A
:1039F00008614010086140004861E8B2FA49086077
:103A00008020F84948610861800008614010086121
:103A1000400048614FEA2920F34908608020F149BD
:103A2000486100E011E00861800008614010086111
:103A30004000486109F0FF00EB4908608020E94937
:103A40004861086180000861DFE0E848808845F24D
:103A5000105188427ED1E5494889FEF7B3FD4FF405
:103A60008070E0490861400048612012DE4908602A
:103A70008020DC494861086180000861DB49498990
:103A8000491C88B2FEF79EFD4FF48070D54908614D
:103A900040004861E0B2D44908608020D1494861C3
:103AA000086180000861D1494989891C88B2FEF704
:103AB00089FD4FF48070CB490861400048613012A5
:103AC000C94908608020C7494861086180000861D1
:103AD000C6494989C91C88B2FEF774FD4FF480704D
:103AE000C049086140004861F0B2BF4908608020C9
:103AF000BC494861086180000861BC498889FEF7BB
:103B000061FD4FF48070B749086140004861281298
:103B1000B54908608020B3494861086180000861A8
:103B2000B2498989491C88B2FEF74CFD4FF4807078
:103B3000AC49086140004861E8B2AB4908608020A8
:103B4000A8494861086180000861A8498989891CE1
:103B500088B200E026E0FEF735FD4FF48070A14901
:103B600008614000486138129F49086080209D49E3
:103B700048610861800008619C498989C91C88B234
:103B8000FEF720FD4FF480709649086140004861BF
:103B9000F8B2954908608020924948610861800028
:103BA000086132E09148807901280ED1AA46BB46CF
:103BB0008E480088801B401E80B201908B48008890
:103BC000001B401E80B2009003E0A246B346019560
:103BD00000975020059051200490522003905320CC
:103BE000029051460598FEF73AFD59460498FEF7B3
:103BF00036FD01990398FEF732FD00990298FEF711
:103C00002EFD29462046FEF76EFD06B0BDE8F08F7A
:103C100070B50446002675480588408845437348BA
:103C2000808846F60401884216D1704880790128C0
:103C300012D100206D4988712A2048812B2088816B
:103C400000210846FEF74FFD0120684988712B20AE
:103C500048812A20888103E000210846FEF743FDC1
:103C6000FEF719FD00260DE04FF480705D490861F4
:103C7000400048615C480460802048610861800021
:103C80000861761CAE42EFD370BD08B50121192042
:103C900005F058FC0121564805F069FA4FF4F86028
:103CA000ADF8000010208DF8030003208DF802000D
:103CB00069464C4805F08AF94FF4F861494805F027
:103CC00032FA4FF6FF70ADF80000694646480C38EE
:103CD00005F07CF94FF6FF7143480C3805F023FAE4
:103CE000322005F026F801210020FEF7B8FC322032
:103CF00005F01FF80020FEF7C6FC3C498880084606
:103D00008088FF280ADB084680884FF6FF718842CA
:103D100004D036488088B0F5134F62D1D320FEF727
:103D200051FCFEF76BFCFEF769FCFEF767FC2F49C0
:103D30008880084680884FF6FF7101EA00202B49F1
:103D40008880FEF75BFC29498988084327498880D9
:103D50000846808849F24131884242D0BF20FEF7B0
:103D600031FCFEF74BFCFEF749FCFEF747FCFEF783
:103D700045FC1E498880084680884FF6FF7101EA9D
:103D800000201A498880FEF739FC184989880843C1
:103D9000164988800846808846F6040188427CD00F
:103DA000D420FEF70FFCFEF729FCFEF727FCFEF7F8
:103DB00025FC0E498880084680884FF6FF7101EA8D
:103DC00000200A498880FEF719FC084989880843C1
:103DD000064988800846808845F2103188425CD0C8
:103DE00008E05AE0001001400C0C0140BC0000202B
:103DF000000230004FF45A40FEF7E4FBFEF7FEFBF2
:103E00004FF45B40FEF7DEFBFEF7F8FBFE498880CF
:103E1000084680884FF6FF7101EA0020FA49888041
:103E20004FF45C40FEF7CEFBFEF7E8FBF6498988CD
:103E30000843F549888008468088B0F5004F02D1D4
:103E400045F210508880F048808845F21051884231
:103E500023D0A120FEF7B6FBFEF7D0FBEA4988800D
:103E6000FEF7CCFBE8498880084680884FF6FF7152
:103E700001EA0020E4498880FEF7C0FBE249898816
:103E80000843E14988800846808845F2617188428C
:103E900003D141F66310DC498880DB488188DBA0D0
:103EA00006F0DCFED848808849F2413188427CD156
:103EB000CF20FEF787FB0020FEF792FBC120FEF724
:103EC0008FFB3020FEF78CFBED20FEF77BFB6420A0
:103ED000FEF786FB0320FEF783FB1220FEF780FB34
:103EE0008120FEF77DFBE820FEF76CFB8520FEF7C6
:103EF00077FB1020FEF774FB7A20FEF771FBCB20D6
:103F0000FEF760FB3920FEF76BFB2C20FEF768FB09
:103F10000020FEF765FB3420FEF762FB0220FEF76F
:103F20005FFBF720FEF74EFB2020FEF759FBEA204F
:103F3000FEF748FB0020FEF753FB0020FEF750FB86
:103F4000C020FEF73FFB1B20FEF74AFBC120FEF717
:103F500039FB0120FEF744FBC520FEF733FB302080
:103F6000FEF73EFB3020FEF73BFBC720FEF72AFBA7
:103F7000B720FEF735FB3620FEF724FB4820FEF77E
:103F80002FFB3A20FEF71EFB5520FEF729FBB12040
:103F9000FEF718FB0020FEF723FB1A20FEF720FB9C
:103FA000B620FEF70FFB0A2000E099E0FEF718FBB1
:103FB000A220FEF715FBF220FEF704FB0020FEF71F
:103FC0000FFB2620FEF7FEFA0120FEF709FBE0209A
:103FD000FEF7F8FA0F20FEF703FB2A20FEF700FB9E
:103FE0002820FEF7FDFA0820FEF7FAFA0E20FEF769
:103FF000F7FA0820FEF7F4FA5420FEF7F1FAA920A8
:10400000FEF7EEFA4320FEF7EBFA0A20FEF7E8FA95
:104010000F20FEF7E5FA0020FEF7E2FA0020FEF797
:10402000DFFA0020FEF7DCFA0020FEF7D9FAE120E3
:10403000FEF7C8FA0020FEF7D3FA1520FEF7D0FAF3
:104040001720FEF7CDFA0720FEF7CAFA1120FEF777
:10405000C7FA0620FEF7C4FA2B20FEF7C1FA562055
:10406000FEF7BEFA3C20FEF7BBFA0520FEF7B8FAD1
:104070001020FEF7B5FA0F20FEF7B2FA3F20FEF748
:10408000AFFA3F20FEF7ACFA0F20FEF7A9FA2B207B
:10409000FEF798FA0020FEF7A3FA0020FEF7A0FA38
:1040A0000120FEF79DFA3F20FEF79AFA2A20FEF73C
:1040B00089FA0020FEF794FA0020FEF791FA00201A
:1040C000FEF78EFAEF20FEF78BFA1120FEF77AFA50
:1040D000782004F02EFE2920FEF774FA03F0A5BB29
:1040E0004948808846F6040188427CD11120FEF7B9
:1040F00069FA142004F01DFED020FEF763FA0720B1
:10410000FEF76EFA4220FEF76BFA1D20FEF768FA02
:10411000D120FEF757FA0020FEF762FA1A20FEF7C8
:104120005FFA0920FEF75CFAD220FEF74BFA012075
:10413000FEF756FA2220FEF753FAC020FEF742FAA5
:104140001020FEF74DFA3B20FEF74AFA0020FEF75A
:1041500047FA0220FEF744FA1120FEF741FAC52083
:10416000FEF730FA0320FEF73BFAC820FEF72AFAE2
:104170000020FEF735FA2520FEF732FA2120FEF75F
:104180002FFA0520FEF72CFA0020FEF729FA0A2064
:10419000FEF726FA6520FEF723FA2520FEF720FA1F
:1041A0007720FEF71DFA5020FEF71AFA0F20FEF7CF
:1041B00017FA0020FEF714FAF820FEF703FA0120A0
:1041C000FEF70EFAFE20FEF7FDF90020FEF708FAD2
:1041D0000220FEF705FA2020FEF7F4F93620FEF75C
:1041E000F1F9082000E037E0FEF7FAF93A20FEF78F
:1041F000E9F95520FEF7F4F92B20FEF7E3F900204A
:10420000FEF7EEF9002009E0BC000020204C4344FA
:104210002049443A25780D0A00000000FEF7E0F935
:104220000120FEF7DDF93F20FEF7DAF92A20FEF73C
:10423000C9F90020FEF7D4F90020FEF7D1F90120DA
:10424000FEF7CEF9DF20FEF7CBF9782004F071FD00
:104250002920FEF7B7F941E7FE48808845F2103182
:10426000884240F07C87ED20FEF7ACF90120FEF794
:10427000B7F9FE20FEF7B4F9EE20FEF7A3F9DE2031
:10428000FEF7AEF92120FEF7ABF9F120FEF79AF91F
:104290000120FEF7A5F9DF20FEF794F91020FEF7C4
:1042A0009FF9C420FEF78EF98F20FEF799F9C620FA
:1042B000FEF788F90020FEF793F9E220FEF790F967
:1042C000E220FEF78DF9E220FEF78AF9BF20FEF723
:1042D00079F9AA20FEF784F9B020FEF773F90D20D2
:1042E000FEF77EF90020FEF77BF90D20FEF778F946
:1042F0000020FEF775F91120FEF772F90020FEF795
:104300006FF91920FEF76CF90020FEF769F92120FA
:10431000FEF766F90020FEF763F92D20FEF760F93D
:104320000020FEF75DF93D20FEF75AF90020FEF768
:1043300057F95D20FEF754F90020FEF751F95D2092
:10434000FEF74EF90020FEF74BF9B120FEF73AF9DF
:104350008020FEF745F90020FEF742F98B20FEF79A
:104360003FF90020FEF73CF99620FEF739F90020CE
:10437000FEF736F9B220FEF725F90020FEF730F9F6
:104380000020FEF72DF90220FEF72AF90020FEF7A3
:1043900027F90320FEF724F90020FEF721F9B320C6
:1043A000FEF710F90020FEF71BF90020FEF718F9C0
:1043B0000020FEF715F90020FEF712F90020FEF7A5
:1043C0000FF90020FEF70CF90020FEF709F9002094
:1043D000FEF706F90020FEF703F90020FEF700F9CA
:1043E0000020FEF7FDF80020FEF7FAF80020FEF7A7
:1043F000F7F80020FEF7F4F80020FEF7F1F80020AF
:10440000FEF7EEF80020FEF7EBF80020FEF7E8F8E4
:104410000020FEF7E5F80020FEF7E2F80020FEF7A6
:10442000DFF80020FEF7DCF80020FEF7D9F80020C6
:10443000FEF7D6F8B420FEF7C5F88B20FEF7D0F8CB
:104440000020FEF7CDF89620FEF7CAF80020FEF710
:10445000C7F8A120FEF7C4F80020FEF7C1F8B52088
:10446000FEF7B0F80220FEF7BBF80020FEF7B8F820
:104470000320FEF7B5F80020FEF7B2F80420FEF79F
:10448000AFF80020FEF7ACF8B620FEF79BF800204E
:10449000FEF7A6F80020FEF7A3F8B720FEF792F883
:1044A0000020FEF79DF80020FEF79AF83F20FEF767
:1044B00097F80020FEF794F85E20FEF791F80020B0
:1044C000FEF78EF86420FEF78BF80020FEF788F8E0
:1044D0008C20FEF785F80020FEF782F8AC20FEF76E
:1044E0007FF80020FEF77CF8DC20FEF779F800204A
:1044F000FEF776F87020FEF773F80020FEF770F8EC
:104500009020FEF76DF80020FEF76AF8EB20FEF72A
:1045100067F80020FEF764F8DC20FEF761F8002061
:10452000FEF75EF8B820FEF74DF80020FEF758F8C9
:104530000020FEF755F80020FEF752F80020FEF7A5
:104540004FF80020FEF74CF80020FEF749F8002055
:10455000FEF746F80020FEF743F8BA20FEF732F8DF
:104560002420FEF73DF80020FEF73AF80020FEF781
:1045700037F80020FEF734F8C120FEF723F820209A
:10458000FEF72EF80020FEF72BF85420FEF728F84F
:104590000020FEF725F8FF20FEF722F80020FEF7A6
:1045A0001FF8C220FEF70EF80A20FEF719F80020C7
:1045B000FEF716F80420FEF713F80020FEF710F8B7
:1045C000C320FDF7FFFF3C20FEF70AF80020FEF7AE
:1045D00007F83A20FEF704F80020FEF701F839202A
:1045E000FDF7FEFF0020FDF7FBFF3720FDF7F8FF8A
:1045F0000020FDF7F5FF3C20FDF7F2FF0020FDF75E
:10460000EFFF3620FDF7ECFF0020FDF7E9FF322039
:10461000FDF7E6FF0020FDF7E3FF2F20FDF7E0FFA9
:104620000020FDF7DDFF2C20FDF7DAFF0020FDF76D
:10463000D7FF2920FDF7D4FF0020FDF7D1FF26206A
:10464000FDF7CEFF0020FDF7CBFF2420FDF7C8FFCC
:10465000002001E0BC000020FDF7C2FF2420FDF790
:10466000BFFF0020FDF7BCFF2320FDF7B9FF0020AE
:10467000FDF7B6FF3C20FDF7B3FF0020FDF7B0FFCC
:104680003620FDF7ADFF0020FDF7AAFF3220FDF731
:10469000A7FF0020FDF7A4FF2F20FDF7A1FF0020BA
:1046A000FDF79EFF2C20FDF79BFF0020FDF798FFF4
:1046B0002920FDF795FF0020FDF792FF2620FDF74A
:1046C0008FFF0020FDF78CFF2420FDF789FF0020DD
:1046D000FDF786FF2420FDF783FF0020FDF780FF14
:1046E0002320FDF77DFF0020FDF77AFFC420FDF7B2
:1046F00069FF6220FDF774FF0020FDF771FF0520C0
:10470000FDF76EFF0020FDF76BFF8420FDF768FFCB
:104710000020FDF765FFF020FDF762FF0020FDF7A8
:104720005FFF1820FDF75CFF0020FDF759FFA42074
:10473000FDF756FF0020FDF753FF1820FDF750FF4F
:104740000020FDF74DFF5020FDF74AFF0020FDF748
:1047500047FF0C20FDF744FF0020FDF741FF172025
:10476000FDF73EFF0020FDF73BFF9520FDF738FFEA
:104770000020FDF735FFF320FDF732FF0020FDF7A5
:104780002FFFE620FDF72CFF0020FDF729FFC520B5
:10479000FDF718FF3220FDF723FF0020FDF720FF73
:1047A0004420FDF71DFF0020FDF71AFF6520FDF7EF
:1047B00017FF0020FDF714FF7620FDF711FF002002
:1047C000FDF70EFF8820FDF70BFF0020FDF708FF27
:1047D000C620FDF7F7FE2020FDF702FF0020FDF7C1
:1047E000FFFE1720FDF7FCFE0020FDF7F9FE01207B
:1047F000FDF7F6FE0020FDF7F3FEC720FDF7E2FE11
:104800000020FDF7EDFE0020FDF7EAFE0020FDF799
:10481000E7FE0020FDF7E4FEC820FDF7D3FE0020F0
:10482000FDF7DEFE0020FDF7DBFE0020FDF7D8FEE1
:104830000020FDF7D5FEC920FDF7C4FE0020FDF7DE
:10484000CFFE0020FDF7CCFE0020FDF7C9FE0020C2
:10485000FDF7C6FE0020FDF7C3FE0020FDF7C0FEF9
:104860000020FDF7BDFE0020FDF7BAFE0020FDF799
:10487000B7FE0020FDF7B4FE0020FDF7B1FE0020DA
:10488000FDF7AEFE0020FDF7ABFE0020FDF7A8FE11
:104890000020FDF7A5FE0020FDF7A2FEE020FDF7B9
:1048A00091FE1620FDF79CFE0020FDF799FE1C20CE
:1048B000FDF796FE0020FDF793FE2120FDF790FE08
:1048C0000020FDF78DFE3620FDF78AFE0020FDF763
:1048D00087FE4620FDF784FE0020FDF781FE522072
:1048E000FDF77EFE0020FDF77BFE6420FDF778FEDD
:1048F0000020FDF775FE7A20FDF772FE0020FDF71F
:104900006FFE8B20FDF76CFE0020FDF769FE9920FD
:10491000FDF766FE0020FDF763FEA820FDF760FEB0
:104920000020FDF75DFEB920FDF75AFE0020FDF7DF
:1049300057FEC420FDF754FE0020FDF751FECA20AB
:10494000FDF74EFE0020FDF74BFED220FDF748FE9E
:104950000020FDF745FED920FDF742FE0020FDF7BF
:104960003FFEE020FDF73CFE0020FDF739FEF3207E
:10497000FDF736FE0020FDF733FEE120FDF722FEB5
:104980001620FDF72DFE0020FDF72AFE1C20FDF766
:1049900027FE0020FDF724FE2220FDF721FE002047
:1049A000FDF71EFE3620FDF71BFE0020FDF718FE6A
:1049B0004520FDF715FE0020FDF712FE5220FDF701
:1049C0000FFE0020FDF70CFE6420FDF709FE00201D
:1049D000FDF706FE7A20FDF703FE0020FDF700FE3E
:1049E0008B20FDF7FDFD0020FDF7FAFD9920FDF776
:1049F000F7FD0020FDF7F4FDA820FDF7F1FD0020F4
:104A0000FDF7EEFDB920FDF7EBFD0020FDF7E8FD19
:104A1000C420FDF7E5FD0020FDF7E2FDCA20FDF70B
:104A2000DFFD0020FDF7DCFDD220FDF7D9FD0020E1
:104A3000FDF7D6FDD820FDF7D3FD0020FDF7D0FD12
:104A4000E020FDF7CDFD0020FDF7CAFDF320FDF7C6
:104A5000C7FD0020FDF7C4FDE220FDF7B3FD0520F2
:104A6000FDF7BEFD0020FDF7BBFD0B20FDF7B8FDF7
:104A70000020FDF7B5FD1B20FDF7B2FD0020FDF77E
:104A8000AFFD3420FDF7ACFD0020FDF7A9FD44206B
:104A9000FDF7A6FD0020FDF7A3FD4F20FDF7A0FDCB
:104AA0000020FDF79DFD6120FDF79AFD0020FDF738
:104AB00097FD7920FDF794FD0020FDF791FD8820FA
:104AC000FDF78EFD0020FDF78BFD9720FDF788FD9B
:104AD0000020FDF785FDA620FDF782FD0020FDF7F3
:104AE0007FFDB720FDF77CFD0020FDF779FDC2209A
:104AF000FDF776FD0020FDF773FDC720FDF770FD83
:104B00000020FDF76DFDD120FDF76AFD0020FDF7C7
:104B100067FDD620FDF764FD0020FDF761FDDD2077
:104B2000FDF75EFD0020FDF75BFDF320FDF758FD6E
:104B30000020FDF755FDE320FDF744FD0520FDF7BE
:104B40004FFD0020FDF74CFD0A20FDF749FD002038
:104B5000FDF746FD1C20FDF743FD0020FDF740FD5D
:104B60003320FDF73DFD0020FDF73AFD4420FDF721
:104B700037FD0020FDF734FD5020FDF731FD00200A
:104B8000FDF72EFD6220FDF72BFD0020FDF728FD2F
:104B90007820FDF725FD0020FDF722FD8820FDF798
:104BA0001FFD0020FDF71CFD9720FDF719FD0020DB
:104BB000FDF716FDA620FDF713FD0020FDF710FD03
:104BC000B720FDF70DFD0020FDF70AFDC220FDF71F
:104BD00007FD0020FDF704FDC720FDF701FD0020C3
:104BE000FDF7FEFCD120FDF7FBFC0020FDF7F8FCF3
:104BF000D520FDF7F5FC0020FDF7F2FCDD20FDF7E8
:104C0000EFFC0020FDF7ECFCF320FDF7E9FC0020B1
:104C1000FDF7E6FCE420FDF7D5FC0120FDF7E0FC04
:104C20000020FDF7DDFC0120FDF7DAFC0020FDF798
:104C3000D7FC0220FDF7D4FC0020FDF7D1FC2A2090
:104C4000FDF7CEFC0020FDF7CBFC3C20FDF7C8FCB7
:104C50000020FDF7C5FC4B20FDF7C2FC0020FDF74E
:104C6000BFFC5D20FDF7BCFC0020FDF7B9FC742003
:104C7000FDF7B6FC0020FDF7B3FC8420FDF7B0FC87
:104C80000020FDF7ADFC9320FDF7AAFC0020FDF706
:104C9000A7FCA220FDF7A4FC0020FDF7A1FCB32097
:104CA000FDF79EFC0020FDF79BFCBE20FDF798FC65
:104CB0000020FDF795FCC420FDF792FC0020FDF7D5
:104CC0008FFCCD20FDF78CFC0020FDF789FCD32064
:104CD000FDF786FC0020FDF783FCDD20FDF780FC5E
:104CE0000020FDF77DFCF320FDF77AFC0020FDF7A6
:104CF00077FCE520FDF766FC0020FDF771FC002045
:104D0000FDF76EFC0020FDF76BFC0020FDF768FC52
:104D10000220FDF765FC0020FDF762FC2920FDF76D
:104D20005FFC0020FDF75CFC3C20FDF759FC0020F7
:104D3000FDF756FC4B20FDF753FC0020FDF750FC1F
:104D40005D20FDF74DFC0020FDF74AFC7420FDF7C7
:104D500047FC0020FDF744FC8420FDF741FC0020C7
:104D6000FDF73EFC9320FDF73BFC0020FDF738FCEF
:104D7000A220FDF735FC0020FDF732FCB320FDF743
:104D80002FFC0020FDF72CFCBE20FDF729FC0020A5
:104D9000FDF726FCC420FDF723FC0020FDF720FCD6
:104DA000CD20FDF71DFC0020FDF71AFCD320FDF7F8
:104DB00017FC0020FDF714FCDC20FDF711FC00209F
:104DC000FDF70EFCF320FDF70BFC0020FDF708FCBF
:104DD000E620FDF7F7FB1120FDF702FC0020FDF7B0
:104DE000FFFB3420FDF7FCFB0020FDF7F9FB56200C
:104DF000FDF7F6FB0020FDF7F3FB7620FDF7F0FB57
:104E00000020FDF7EDFB7720FDF7EAFB0020FDF722
:104E1000E7FB6620FDF7E4FB0020FDF7E1FB8820BF
:104E2000FDF7DEFB0020FDF7DBFB9920FDF7D8FB4B
:104E30000020FDF7D5FBBB20FDF7D2FB0020FDF7DE
:104E4000CFFB9920FDF7CCFB0020FDF7C9FB6620C6
:104E5000FDF7C6FB0020FDF7C3FB5520FDF7C0FBA7
:104E60000020FDF7BDFB5520FDF7BAFB0020FDF744
:104E7000B7FB4520FDF7B4FB0020FDF7B1FB432055
:104E8000FDF7AEFB0020FDF7ABFB4420FDF7A8FBD0
:104E90000020FDF7A5FBE720FDF794FB3220FDF78E
:104EA0009FFB0020FDF79CFB5520FDF799FB0020A0
:104EB000FDF796FB7620FDF793FB0020FDF790FBB6
:104EC0006620FDF78DFB0020FDF78AFB6720FDF7CC
:104ED00087FB0020FDF784FB6720FDF781FB0020A6
:104EE000FDF77EFB8720FDF77BFB0020FDF778FBBD
:104EF0009920FDF775FB0020FDF772FBBB20FDF745
:104F00006FFB0020FDF76CFB9920FDF769FB00208B
:104F1000FDF766FB7720FDF763FB0020FDF760FBE4
:104F20004420FDF75DFB0020FDF75AFB5620FDF7FE
:104F300057FB0020FDF754FB2320FDF751FB002019
:104F4000FDF74EFB3320FDF74BFB0020FDF748FB40
:104F50004520FDF745FB0020FDF742FBE820FDF76B
:104F600031FB0020FDF73CFB0020FDF739FB9920C9
:104F7000FDF736FB0020FDF733FB8720FDF730FB04
:104F80000020FDF72DFB8820FDF72AFB0020FDF710
:104F900027FB7720FDF724FB0020FDF721FB66208F
:104FA000FDF71EFB0020FDF71BFB8820FDF718FB1B
:104FB0000020FDF715FBAA20FDF712FB0020FDF7EE
:104FC0000FFBBB20FDF70CFB0020FDF709FB992030
:104FD000FDF706FB0020FDF703FB6620FDF700FB55
:104FE0000020FDF7FDFA5520FDF7FAFA0020FDF745
:104FF000F7FA5520FDF7F4FA0020FDF7F1FA442006
:10500000FDF7EEFA0020FDF7EBFA4420FDF7E8FA91
:105010000020FDF7E5FA5520FDF7E2FA0020FDF744
:10502000DFFAE920FDF7CEFAAA20FDF7D9FA002031
:10503000FDF7D6FA0020FDF7D3FA0020FDF7D0FAED
:105040000020FDF7BFFAAA20FDF7CAFACF20FDF72E
:10505000B9FA0020FDF7C4FA0020FDF7C1FA0020DC
:10506000FDF7BEFA0020FDF7BBFA0020FDF7B8FA05
:105070000020FDF7B5FA0020FDF7B2FA0020FDF799
:10508000AFFA0020FDF7ACFA0020FDF7A9FA0020E6
:10509000FDF7A6FA0020FDF7A3FA0020FDF7A0FA1D
:1050A0000020FDF79DFA0020FDF79AFA0020FDF799
:1050B00097FA0020FDF794FAF020FDF783FA00201C
:1050C000FDF78EFA5020FDF78BFA0020FDF788FAE5
:1050D0000020FDF785FA0020FDF782FAF320FDF7A6
:1050E00071FA0020FDF77CFAF920FDF76BFA062033
:1050F000FDF776FA1020FDF773FA2920FDF770FA14
:105100000020FDF76DFA3A20FDF75CFA5520FDF717
:1051100067FA1120FDF756FA642003F00AFE2920F1
:10512000FDF750FA3520FDF74DFA0020FDF758FA4B
:105130005120FDF747FAFF20FDF752FA5320FDF703
:1051400041FA2C20FDF74CFA5520FDF73BFA82205E
:10515000FDF746FA2C20FDF735FA02F066BBFE4853
:10516000808845F2105188427ED155214FF470401D
:10517000FDF775FAAA214FF20100FDF770FA5221EE
:105180004FF20200FDF76BFA08214FF20300FDF722
:1051900066FA01214FF20400FDF761FA0D214FF488
:1051A0003040FDF75CFA0D214BF20100FDF757FA94
:1051B0000D214BF20200FDF752FA34214FF4364034
:1051C000FDF74DFA34214BF20160FDF748FA342126
:1051D0004BF20260FDF743FA0D214FF43140FDF729
:1051E0003EFA0D214BF20110FDF739FA0D214BF279
:1051F0000210FDF734FA34214FF43740FDF72FFA4F
:1052000034214BF20170FDF72AFA34214BF202707F
:10521000FDF725FA00214FF43240FDF720FA002176
:105220004BF20120FDF71BFA00214BF20220FDF7A3
:1052300016FA24214FF43840FDF711FA24214BF6D9
:105240000100FDF70CFA24214BF60200FDF707FAE6
:1052500001214FF43F40FDF702FA0F214FF4334094
:10526000FDF7FDF90F2100E0FEE34BF20130FDF701
:10527000F6F90F214BF20230FDF7F1F934214FF42A
:105280003940FDF7ECF934214BF60110FDF7E7F951
:1052900034214BF60210FDF7E2F908214FF43540B6
:1052A000FDF7DDF908214BF20150FDF7D8F908218F
:1052B0004BF20250FDF7D3F903214FF44240FDF7C2
:1052C000CEF924214FF43A40FDF7C9F924214BF6D9
:1052D0000120FDF7C4F924214BF60220FDF7BFF9A8
:1052E00000214FF43C40FDF7BAF978214BF601401C
:1052F000FDF7B5F900214BF60240FDF7B0F90021AA
:105300004FF43D40FDF7ABF978214BF60150FDF726
:10531000A6F900214BF60250FDF7A1F900214FF448
:105320003E40FDF79CF964214BF60160FDF797F9CB
:1053300000214FF45140FDF792F933214DF2011055
:10534000FDF78DF900214DF20210FDF788F93421A7
:105350004DF20310FDF783F900214DF20410FDF723
:105360007EF93A214DF20510FDF779F900214DF251
:105370000610FDF774F94A214DF20710FDF76FF999
:1053800000214DF20810FDF76AF95C214DF2091079
:10539000FDF765F900214DF20A10FDF760F9812152
:1053A0004DF20B10FDF75BF900214DF20C10FDF7EB
:1053B00056F9A6214DF20D10FDF751F900214DF2DD
:1053C0000E10FDF74CF9E5214DF20F10FDF747F9EE
:1053D00001214DF21010FDF742F913214DF2111089
:1053E000FDF73DF901214DF21210FDF738F9542176
:1053F0004DF21310FDF733F901214DF21410FDF7B2
:105400002EF982214DF21510FDF729F901214DF2F7
:105410001610FDF724F9CA214DF21710FDF71FF9F8
:1054200002214DF21810FDF71AF900214DF2191062
:10543000FDF715F902214DF21A10FDF710F90121BF
:105440004DF21B10FDF70BF902214DF21C10FDF778
:1054500006F934214DF21D10FDF701F902214DF23C
:105460001E10FDF7FCF867214DF21F10FDF7F7F84D
:1054700002214DF22010FDF7F2F884214DF22110A7
:10548000FDF7EDF802214DF22210FDF7E8F8A42116
:105490004DF22310FDF7E3F802214DF22410FDF741
:1054A000DEF8B7214DF22510FDF7D9F802214DF2B3
:1054B0002610FDF7D4F8CF214DF22710FDF7CFF8D5
:1054C00002214DF22810FDF7CAF8DE214DF2291015
:1054D000FDF7C5F802214DF22A10FDF7C0F8F221C0
:1054E0004DF22B10FDF7BBF802214DF22C10FDF709
:1054F000B6F8FE214DF22D10FDF7B1F803214DF263
:105500002E10FDF7ACF810214DF22F10FDF7A7F883
:1055100003214DF23010FDF7A2F833214DF2311086
:10552000FDF79DF803214DF23210FDF798F86D213B
:105530004DF23310FDF793F800214FF45240FDF780
:105540008EF833214DF20120FDF789F800214DF24C
:105550000220FDF784F801E0BC00002034214DF268
:105560000320FDF77CF800214DF20420FDF777F8C9
:105570003A214DF20520FDF772F800214DF2062088
:10558000FDF76DF84A214DF20720FDF768F800217C
:105590004DF20820FDF763F85C214DF20920FDF77C
:1055A0005EF800214DF20A20FDF759F881214DF2F5
:1055B0000B20FDF754F800214DF20C20FDF74FF8B9
:1055C000A6214DF20D20FDF74AF800214DF20E20E4
:1055D000FDF745F8E5214DF20F20FDF740F80121D8
:1055E0004DF21020FDF73BF813214DF21120FDF78D
:1055F00036F801214DF21220FDF731F854214DF219
:105600001320FDF72CF801214DF21420FDF727F8A7
:1056100082214DF21520FDF722F801214DF21620CE
:10562000FDF71DF8CA214DF21720FDF718F80221E9
:105630004DF21820FDF713F800214DF21920FDF767
:105640000EF802214DF21A20FDF709F801214DF262
:105650001B20FDF704F802214DF21C20FCF7FFFF90
:1056600034214DF21D20FCF7FAFF02214DF21E20DD
:10567000FCF7F5FF67214DF21F20FCF7F0FF022138
:105680004DF22020FCF7EBFF84214DF22120FCF7A6
:10569000E6FF02214DF22220FCF7E1FFA4214DF2AA
:1056A0002320FCF7DCFF02214DF22420FCF7D7FF7A
:1056B000B7214DF22520FCF7D2FF02214DF2262022
:1056C000FCF7CDFFCF214DF22720FCF7C8FF0221C8
:1056D0004DF22820FCF7C3FFDE214DF22920FCF714
:1056E000BEFF02214DF22A20FCF7B9FFF2214DF254
:1056F0002B20FCF7B4FF02214DF22C20FCF7AFFF6A
:10570000FE214DF22D20FCF7AAFF03214DF22E20A1
:10571000FCF7A5FF10214DF22F20FCF7A0FF03217D
:105720004DF23020FCF79BFF33214DF23120FCF786
:1057300096FF03214DF23220FCF791FF6D214DF2CF
:105740003320FCF78CFF00214FF45340FCF787FF18
:1057500033214DF20130FCF782FF00214DF202307F
:10576000FCF77DFF34214DF20330FCF778FF002178
:105770004DF20430FCF773FF3A214DF20530FCF78F
:105780006EFF00214DF20630FCF769FF4A214DF211
:105790000730FCF764FF00214DF20830FCF75FFF93
:1057A0005C214DF20930FCF75AFF00214DF20A301E
:1057B000FCF755FF81214DF20B30FCF750FF002123
:1057C0004DF20C30FCF74BFFA6214DF20D30FCF7EB
:1057D00046FF00214DF20E30FCF741FFE5214DF26E
:1057E0000F30FCF73CFF01214DF21030FCF737FF82
:1057F00013214DF21130FCF732FF01214DF212302E
:10580000FCF72DFF54214DF21330FCF728FF012146
:105810004DF21430FCF723FF82214DF21530FCF7D6
:105820001EFF01214DF21630FCF719FFCA214DF27F
:105830001730FCF714FF02214DF21830FCF70FFF70
:1058400000214DF21930FCF70AFF02214DF21A3007
:10585000FCF705FF01214DF21B30FCF700FF022190
:105860004DF21C30FCF7FBFE34214DF21D30FCF7ED
:10587000F6FE02214DF21E30FCF7F1FE67214DF2DB
:105880001F30FCF7ECFE02214DF22030FCF7E7FE62
:1058900084214DF22130FCF7E2FE02214DF222304C
:1058A000FCF7DDFEA4214DF22330FCF7D8FE0221E7
:1058B0004DF22430FCF7D3FEB7214DF22530FCF732
:1058C000CEFE02214DF22630FCF7C9FECF214DF26B
:1058D0002730FCF7C4FE02214DF22830FCF7BFFE52
:1058E000DE214DF22930FCF7BAFE02214DF22A30BA
:1058F000FCF7B5FEF2214DF22B30FCF7B0FE022191
:105900004DF22C30FCF7ABFEFE214DF22D30FCF7B2
:10591000A6FE03214DF22E30FCF7A1FE10214DF220
:105920002F30FCF79CFE03214DF23030FCF797FE40
:1059300033214DF23130FCF792FE03214DF232302B
:10594000FCF78DFE6D214DF23330FCF788FE00210F
:105950004FF45440FCF783FE33214DF20140FCF735
:105960007EFE00214DF20240FCF779FE34214DF21B
:105970000340FCF774FE00214DF20440FCF76FFE7B
:105980003A214DF20540FCF76AFE00214DF2064037
:10599000FCF765FE4A214DF20740FCF760FE00214E
:1059A0004DF20840FCF75BFE5C214DF20940FCF72C
:1059B00056FE00214DF20A40FCF751FE81214DF2C6
:1059C0000B40FCF74CFE00214DF20C40FCF747FE6B
:1059D000A6214DF20D40FCF742FE00214DF20E4093
:1059E000FCF73DFEE5214DF20F40FCF738FE0121AA
:1059F0004DF21040FCF733FE13214DF21140FCF73D
:105A00002EFE01214DF21240FCF729FE54214DF2E9
:105A10001340FCF724FE01214DF21440FCF71FFE59
:105A200082214DF21540FCF71AFE01214DF216407D
:105A3000FCF715FECA214DF21740FCF710FE0221BB
:105A40004DF21840FCF70BFE00214DF21940FCF717
:105A500006FE02214DF21A40FCF701FE01214DF233
:105A60001B40FCF7FCFD00E004E302214DF21C406A
:105A7000FCF7F5FD34214DF21D40FCF7F0FD02214D
:105A80004DF21E40FCF7EBFD67214DF21F40FCF785
:105A9000E6FD02214DF22040FCF7E1FD84214DF2AC
:105AA0002140FCF7DCFD02214DF22240FCF7D7FD3E
:105AB000A4214DF22340FCF7D2FD02214DF22440F7
:105AC000FCF7CDFDB7214DF22540FCF7C8FD0221C2
:105AD0004DF22640FCF7C3FDCF214DF22740FCF7E5
